{"abi":[{"type":"constructor","inputs":[],"stateMutability":"nonpayable"},{"type":"function","name":"SYMBOL","inputs":[],"outputs":[{"name":"","type":"string","internalType":"string"}],"stateMutability":"view"},{"type":"function","name":"balances","inputs":[{"name":"","type":"address","internalType":"address"}],"outputs":[{"name":"","type":"uint256","internalType":"uint256"}],"stateMutability":"view"},{"type":"function","name":"bypassRateLimit","inputs":[{"name":"","type":"address","internalType":"address"}],"outputs":[{"name":"","type":"bool","internalType":"bool"}],"stateMutability":"view"},{"type":"function","name":"checkIfLimitExceeds","inputs":[{"name":"sender","type":"address","internalType":"address"},{"name":"tokenID","type":"string","internalType":"string"},{"name":"amount","type":"uint256","internalType":"uint256"}],"outputs":[{"name":"","type":"bool","internalType":"bool"},{"name":"","type":"uint256","internalType":"uint256"}],"stateMutability":"view"},{"type":"function","name":"disableRateLimiter","inputs":[],"outputs":[],"stateMutability":"nonpayable"},{"type":"function","name":"enableRateLimiter","inputs":[],"outputs":[],"stateMutability":"nonpayable"},{"type":"function","name":"evaluateRateLimit","inputs":[{"name":"tokenID","type":"string","internalType":"string"},{"name":"amount","type":"uint256","internalType":"uint256"}],"outputs":[{"name":"","type":"bool","internalType":"bool"}],"stateMutability":"nonpayable"},{"type":"function","name":"getBalance","inputs":[{"name":"addr","type":"address","internalType":"address"}],"outputs":[{"name":"","type":"uint256","internalType":"uint256"}],"stateMutability":"view"},{"type":"function","name":"getRateLimitParams","inputs":[],"outputs":[{"name":"","type":"tuple","internalType":"struct RateLimitParams","components":[{"name":"maxAmount","type":"uint256","internalType":"uint256"},{"name":"duration","type":"uint256","internalType":"uint256"},{"name":"batchSize","type":"uint64","internalType":"uint64"}]}],"stateMutability":"view"},{"type":"function","name":"getTxBatchAtPtr","inputs":[{"name":"user","type":"address","internalType":"address"}],"outputs":[{"name":"amount","type":"uint256","internalType":"uint256"},{"name":"startBlockNumber","type":"uint256","internalType":"uint256"},{"name":"endBlockNumber","type":"uint256","internalType":"uint256"}],"stateMutability":"view"},{"type":"function","name":"getTxHistory","inputs":[{"name":"user","type":"address","internalType":"address"}],"outputs":[{"name":"","type":"tuple","internalType":"struct TxHistory","components":[{"name":"total","type":"uint256","internalType":"uint256"},{"name":"ptr","type":"uint256","internalType":"uint256"},{"name":"txBatches","type":"tuple[]","internalType":"struct TxBatch[]","components":[{"name":"amount","type":"uint256","internalType":"uint256"},{"name":"startBlockNumber","type":"uint256","internalType":"uint256"},{"name":"endBlockNumber","type":"uint256","internalType":"uint256"}]}]}],"stateMutability":"view"},{"type":"function","name":"isRateLimiterEnabled","inputs":[],"outputs":[{"name":"","type":"bool","internalType":"bool"}],"stateMutability":"view"},{"type":"function","name":"owner","inputs":[],"outputs":[{"name":"","type":"address","internalType":"address"}],"stateMutability":"view"},{"type":"function","name":"priceOracle","inputs":[],"outputs":[{"name":"","type":"address","internalType":"contract IPriceAggregator"}],"stateMutability":"view"},{"type":"function","name":"rateLimitParams","inputs":[],"outputs":[{"name":"maxAmount","type":"uint256","internalType":"uint256"},{"name":"duration","type":"uint256","internalType":"uint256"},{"name":"batchSize","type":"uint64","internalType":"uint64"}],"stateMutability":"view"},{"type":"function","name":"removeRateLimitBypass","inputs":[{"name":"user","type":"address","internalType":"address"}],"outputs":[],"stateMutability":"nonpayable"},{"type":"function","name":"renounceOwnership","inputs":[],"outputs":[],"stateMutability":"nonpayable"},{"type":"function","name":"sendCoin","inputs":[{"name":"receiver","type":"address","internalType":"address"},{"name":"amount","type":"uint256","internalType":"uint256"}],"outputs":[],"stateMutability":"nonpayable"},{"type":"function","name":"setPriceOracle","inputs":[{"name":"_priceOracle","type":"address","internalType":"address"}],"outputs":[],"stateMutability":"nonpayable"},{"type":"function","name":"setRateLimitBypass","inputs":[{"name":"user","type":"address","internalType":"address"}],"outputs":[],"stateMutability":"nonpayable"},{"type":"function","name":"setRateLimitParams","inputs":[{"name":"params","type":"tuple","internalType":"struct RateLimitParams","components":[{"name":"maxAmount","type":"uint256","internalType":"uint256"},{"name":"duration","type":"uint256","internalType":"uint256"},{"name":"batchSize","type":"uint64","internalType":"uint64"}]}],"outputs":[],"stateMutability":"nonpayable"},{"type":"function","name":"transferOwnership","inputs":[{"name":"newOwner","type":"address","internalType":"address"}],"outputs":[],"stateMutability":"nonpayable"},{"type":"function","name":"txHistory","inputs":[{"name":"","type":"address","internalType":"address"}],"outputs":[{"name":"total","type":"uint256","internalType":"uint256"},{"name":"ptr","type":"uint256","internalType":"uint256"}],"stateMutability":"view"},{"type":"event","name":"OwnershipTransferred","inputs":[{"name":"previousOwner","type":"address","indexed":true,"internalType":"address"},{"name":"newOwner","type":"address","indexed":true,"internalType":"address"}],"anonymous":false},{"type":"event","name":"RateLimitExceeded","inputs":[{"name":"user","type":"address","indexed":true,"internalType":"address"},{"name":"token","type":"string","indexed":false,"internalType":"string"},{"name":"amount","type":"uint256","indexed":false,"internalType":"uint256"},{"name":"limit","type":"uint256","indexed":false,"internalType":"uint256"}],"anonymous":false},{"type":"event","name":"RateLimitParamsUpdated","inputs":[{"name":"maxAmount","type":"uint256","indexed":false,"internalType":"uint256"},{"name":"duration","type":"uint256","indexed":false,"internalType":"uint256"},{"name":"batchSize","type":"uint64","indexed":false,"internalType":"uint64"}],"anonymous":false},{"type":"event","name":"Transfer","inputs":[{"name":"_from","type":"address","indexed":true,"internalType":"address"},{"name":"_to","type":"address","indexed":true,"internalType":"address"},{"name":"_value","type":"uint256","indexed":false,"internalType":"uint256"}],"anonymous":false},{"type":"error","name":"InsufficientBalance","inputs":[{"name":"sender","type":"address","internalType":"address"},{"name":"requested","type":"uint256","internalType":"uint256"},{"name":"available","type":"uint256","internalType":"uint256"}]},{"type":"error","name":"InvalidBatchSize","inputs":[{"name":"provided","type":"uint64","internalType":"uint64"},{"name":"minimum","type":"uint64","internalType":"uint64"}]},{"type":"error","name":"InvalidDuration","inputs":[{"name":"provided","type":"uint256","internalType":"uint256"},{"name":"minimum","type":"uint256","internalType":"uint256"}]},{"type":"error","name":"InvalidMaxAmount","inputs":[{"name":"provided","type":"uint256","internalType":"uint256"},{"name":"minimum","type":"uint256","internalType":"uint256"},{"name":"maximum","type":"uint256","internalType":"uint256"}]},{"type":"error","name":"PredicateClient_IsRateLimited","inputs":[]},{"type":"error","name":"RateLimiter_InvalidToken","inputs":[]},{"type":"error","name":"TokenNotSupported","inputs":[{"name":"token","type":"string","internalType":"string"}]}],"bytecode":{"object":"0x608060405234801561001057600080fd5b5061001a33610037565b3360009081526008602052604090206509184e72a0009055610087565b600080546001600160a01b038381166001600160a01b0319831681178455604051919092169283917f8be0079c531659141344cd1fd0a4f28419497f9722a3daafe3b4186f6b6457e09190a35050565b6118a7806100966000396000f3fe608060405234801561001057600080fd5b506004361061014d5760003560e01c8063715018a6116100c3578063c60c06461161007c578063c60c06461461036a578063daf42d6c1461037d578063ed5f43b714610390578063f2fde38b146103b3578063f76f8d78146103c6578063f8b2cb4f146103f657600080fd5b8063715018a6146102fb5780638da5cb5b1461030357806390b98a1114610314578063a8ca896414610327578063b74437a51461035a578063c47f1ac31461036257600080fd5b80632cc5b108116101155780632cc5b1081461022f5780632e6c02e3146102595780632f53036e14610298578063530e784f146102b55780635e89c3f4146102c85780637012b1d4146102db57600080fd5b80630a6d4d5814610152578063112f6a31146101935780632630c12f146101c157806327e235e3146101ec578063286df6b71461021a575b600080fd5b61017961016036600461138e565b6001602081905260009182526040909120805491015482565b604080519283526020830191909152015b60405180910390f35b6101a66101a136600461138e565b61041f565b6040805193845260208401929092529082015260600161018a565b6007546101d4906001600160a01b031681565b6040516001600160a01b03909116815260200161018a565b61020c6101fa36600461138e565b60086020526000908152604090205481565b60405190815260200161018a565b61022d61022836600461138e565b610513565b005b61024261023d3660046113f1565b61053f565b60408051921515835260208301919091520161018a565b6004546005546006546102749291906001600160401b031683565b6040805193845260208401929092526001600160401b03169082015260600161018a565b6003546102a59060ff1681565b604051901515815260200161018a565b61022d6102c336600461138e565b61063f565b6102a56102d636600461144a565b610669565b6102ee6102e936600461138e565b610847565b60405161018a9190611495565b61022d61091b565b6000546001600160a01b03166101d4565b61022d610322366004611512565b61092f565b61032f610a21565b604080518251815260208084015190820152918101516001600160401b03169082015260600161018a565b61022d610a7c565b61022d610a90565b61022d61037836600461138e565b610aa7565b61022d61038b36600461153c565b610ad0565b6102a561039e36600461138e565b60026020526000908152604090205460ff1681565b61022d6103c136600461138e565b610c32565b6103e9604051806040016040528060048152602001634d45544160e01b81525081565b60405161018a91906115a1565b61020c61040436600461138e565b6001600160a01b031660009081526008602052604090205490565b6001600160a01b0381166000908152600160208181526040808420815160608101835281548152938101548484015260028101805483518186028101860185528181528796879687969195949186019390879084015b828210156104c55783829060005260206000209060030201604051806060016040529081600082015481526020016001820154815260200160028201548152505081526020019060010190610475565b50505050815250509050600081604001518260200151815181106104eb576104eb6115b4565b6020026020010151905080600001518160200151826040015194509450945050509193909250565b61051b610cab565b6001600160a01b03166000908152600260205260409020805460ff19166001179055565b60008080610568610552600660126115e0565b61055d90600a6116db565b8590620f4240610d05565b600754604051630bbceb3360e21b81529192506000916105f5916001600160a01b031690632ef3accc906105a4908b908b908b90600401611710565b602060405180830381865afa1580156105c1573d6000803e3d6000fd5b505050506040513d601f19601f820116820180604052508101906105e59190611734565b8390670de0b6b3a7640000610d05565b90506000610620610608600660126115e0565b61061390600a6116db565b60045490620f4240610d05565b905061062f8989898585610d23565b9450945050505094509492505050565b610647610cab565b600780546001600160a01b0319166001600160a01b0392909216919091179055565b60008061069161067b600660126115e0565b61068690600a6116db565b8490620f4240610d05565b600754604051630bbceb3360e21b81529192506000916001600160a01b0390911690632ef3accc906106cb90899089908990600401611710565b602060405180830381865afa1580156106e8573d6000803e3d6000fd5b505050506040513d601f19601f8201168201806040525081019061070c9190611734565b600754604051630bbceb3360e21b8152919250600091610799916001600160a01b031690632ef3accc90610748908b908b908b90600401611710565b602060405180830381865afa158015610765573d6000803e3d6000fd5b505050506040513d601f19601f820116820180604052508101906107899190611734565b8490670de0b6b3a7640000610d05565b905060006107ac610608600660126115e0565b905060006107bd338a8a8686610d23565b50905080156108155760045460405133917fe2274a8e4f5712295a052754df3513686fd79e6fe1e6dbdd609b8b0b1fbc133c916107ff918d918d918d9161174d565b60405180910390a2600095505050505050610840565b600061082043610e06565b905061082b81610e2d565b6108354385610ed9565b600196505050505050505b9392505050565b61086b60405180606001604052806000815260200160008152602001606081525090565b6001600160a01b03821660009081526001602081815260408084208151606081018352815481529381015484840152600281018054835181860281018601855281815295969295938701949192909184015b8282101561090d57838290600052602060002090600302016040518060600160405290816000820154815260200160018201548152602001600282015481525050815260200190600101906108bd565b505050915250909392505050565b610923610cab565b61092d6000610f11565b565b6040805180820182526004808252634d45544160e01b602083015291516317a270fd60e21b81523092635e89c3f49261096c929091869101611774565b6020604051808303816000875af115801561098b573d6000803e3d6000fd5b505050506040513d601f19601f820116820180604052508101906109af9190611796565b610a135760405162461bcd60e51b815260206004820152602a60248201527f4d657461436f696e57697468526174654c696d69743a2072617465206c696d696044820152691d08195e18d95959195960b21b60648201526084015b60405180910390fd5b610a1d8282610f61565b5050565b610a4e6040518060600160405280600081526020016000815260200160006001600160401b031681525090565b5060408051606081018252600454815260055460208201526006546001600160401b03169181019190915290565b610a84610cab565b6003805460ff19169055565b610a98610cab565b6003805460ff19166001179055565b610aaf610cab565b6001600160a01b03166000908152600260205260409020805460ff19169055565b610ad8610cab565b620f424081351080610aef575064e8d4a510008135115b15610b2457604051638b39eb3360e01b815281356004820152620f4240602482015264e8d4a510006044820152606401610a0a565b600181602001351015610b575760405163387a058b60e01b81526020820135600482015260016024820152604401610a0a565b6001610b6960608301604084016117cd565b6001600160401b03161015610bb457610b8860608201604083016117cd565b604051630161019760e01b81526001600160401b03909116600482015260016024820152604401610a0a565b806004610bc182826117ea565b50506003805460ff191660011790557fdf1f77551f6fd65be59ba5210e34eba28a083b1e076a140cd029c3b0794d574f81356020830135610c0860608501604086016117cd565b6040805193845260208401929092526001600160401b03169082015260600160405180910390a150565b610c3a610cab565b6001600160a01b038116610c9f5760405162461bcd60e51b815260206004820152602660248201527f4f776e61626c653a206e6577206f776e657220697320746865207a65726f206160448201526564647265737360d01b6064820152608401610a0a565b610ca881610f11565b50565b6000546001600160a01b0316331461092d5760405162461bcd60e51b815260206004820181905260248201527f4f776e61626c653a2063616c6c6572206973206e6f7420746865206f776e65726044820152606401610a0a565b6000826000190484118302158202610d1c57600080fd5b5091020490565b60075460405163034d94bb60e21b815260009182916001600160a01b0390911690630d3652ec90610d5a908990899060040161182a565b602060405180830381865afa158015610d77573d6000803e3d6000fd5b505050506040513d601f19601f82011682018060405250810190610d9b9190611796565b610dbc57858560405163c16fc3ad60e01b8152600401610a0a92919061182a565b6000610dc743610e06565b90506000610dd58983611047565b90506000610de58a838989611194565b90506000610df58b848a8a6111fd565b9b919a509098505050505050505050565b6005546000908210610e2457600554610e1f90836115e0565b610e27565b60005b92915050565b3360009081526001602081905260409091208054918101549091905b600283015481108015610e82575083836002018281548110610e6d57610e6d6115b4565b90600052602060002090600302016002015411155b15610ecd57826002018181548110610e9c57610e9c6115b4565b90600052602060002090600302016000015482610eb991906115e0565b915080610ec58161183e565b915050610e49565b90825560019091015550565b336000908152600160205260409020610ef28184611236565b15610f0657610f018183611284565b505050565b610f018184846112eb565b600080546001600160a01b038381166001600160a01b0319831681178455604051919092169283917f8be0079c531659141344cd1fd0a4f28419497f9722a3daafe3b4186f6b6457e09190a35050565b33600090815260086020526040902054811115610fb257336000818152600860205260409081902054905163db42144d60e01b81526004810192909252602482018390526044820152606401610a0a565b3360009081526008602052604081208054839290610fd19084906115e0565b90915550506001600160a01b03821660009081526008602052604081208054839290610ffe908490611859565b90915550506040518181526001600160a01b0383169033907fddf252ad1be2c89b69c2b068fc378daa952ba7f163c4a11628f55a4df523b3ef9060200160405180910390a35050565b6001600160a01b038216600090815260016020818152604080842081516060810183528154815293810154848401526002810180548351818602810186018552818152879695939486019390929190879084015b828210156110eb578382906000526020600020906003020160405180606001604052908160008201548152602001600182015481526020016002820154815250508152602001906001019061109b565b50505091525050604081015151909150611109576000915050610e27565b805160208201515b8260400151518110801561114557508483604001518281518110611137576111376115b4565b602002602001015160400151105b1561118b5782604001518181518110611160576111606115b4565b6020026020010151600001518261117791906115e0565b9150806111838161183e565b915050611111565b50949350505050565b6001600160a01b03841660009081526002602052604081205460ff16156111bc5750806111f5565b816111c78486611859565b116111e857826111d785846115e0565b6111e191906115e0565b90506111f5565b6111f284836115e0565b90505b949350505050565b6001600160a01b03841660009081526002602052604081205460ff161580156111f257508161122c8486611859565b1195945050505050565b6002820154600090158015906108405750600283018054611259906001906115e0565b81548110611269576112696115b4565b90600052602060002090600302016002015482109392505050565b600282018054829190611299906001906115e0565b815481106112a9576112a96115b4565b906000526020600020906003020160000160008282546112c99190611859565b90915550508154819083906000906112e2908490611859565b90915550505050565b604080516060810182528281526020810184905260065460009282019061131b906001600160401b031686611859565b9052600280860180546001818101835560009283526020808420865160039094020192835585015190820155604084015192019190915585549192508391869190611367908490611859565b909155505050505050565b80356001600160a01b038116811461138957600080fd5b919050565b6000602082840312156113a057600080fd5b61084082611372565b60008083601f8401126113bb57600080fd5b5081356001600160401b038111156113d257600080fd5b6020830191508360208285010111156113ea57600080fd5b9250929050565b6000806000806060858703121561140757600080fd5b61141085611372565b935060208501356001600160401b0381111561142b57600080fd5b611437878288016113a9565b9598909750949560400135949350505050565b60008060006040848603121561145f57600080fd5b83356001600160401b0381111561147557600080fd5b611481868287016113a9565b909790965060209590950135949350505050565b600060208083526080830184518285015281850151604081818701528087015191506060808188015283835180865260a0890191508685019550600094505b80851015611505578551805183528781015188840152840151848301529486019460019490940193908201906114d4565b5098975050505050505050565b6000806040838503121561152557600080fd5b61152e83611372565b946020939093013593505050565b60006060828403121561154e57600080fd5b50919050565b6000815180845260005b8181101561157a5760208185018101518683018201520161155e565b8181111561158c576000602083870101525b50601f01601f19169290920160200192915050565b6020815260006108406020830184611554565b634e487b7160e01b600052603260045260246000fd5b634e487b7160e01b600052601160045260246000fd5b6000828210156115f2576115f26115ca565b500390565b600181815b80851115611632578160001904821115611618576116186115ca565b8085161561162557918102915b93841c93908002906115fc565b509250929050565b60008261164957506001610e27565b8161165657506000610e27565b816001811461166c576002811461167657611692565b6001915050610e27565b60ff841115611687576116876115ca565b50506001821b610e27565b5060208310610133831016604e8410600b84101617156116b5575081810a610e27565b6116bf83836115f7565b80600019048211156116d3576116d36115ca565b029392505050565b6000610840838361163a565b81835281816020850137506000828201602090810191909152601f909101601f19169091010190565b6040815260006117246040830185876116e7565b9050826020830152949350505050565b60006020828403121561174657600080fd5b5051919050565b6060815260006117616060830186886116e7565b6020830194909452506040015292915050565b6040815260006117876040830185611554565b90508260208301529392505050565b6000602082840312156117a857600080fd5b8151801515811461084057600080fd5b6001600160401b0381168114610ca857600080fd5b6000602082840312156117df57600080fd5b8135610840816117b8565b813581556020820135600182015560028101604083013561180a816117b8565b815467ffffffffffffffff19166001600160401b03919091161790555050565b6020815260006111f56020830184866116e7565b6000600019821415611852576118526115ca565b5060010190565b6000821982111561186c5761186c6115ca565b50019056fea26469706673582212207bfd1630aac8f75b472abb49d0000e05cbdf95a5b986749d32409712bfa1946364736f6c634300080c0033","linkReferences":{}},"methodIdentifiers":{"SYMBOL()":"f76f8d78","balances(address)":"27e235e3","bypassRateLimit(address)":"ed5f43b7","checkIfLimitExceeds(address,string,uint256)":"2cc5b108","disableRateLimiter()":"b74437a5","enableRateLimiter()":"c47f1ac3","evaluateRateLimit(string,uint256)":"5e89c3f4","getBalance(address)":"f8b2cb4f","getRateLimitParams()":"a8ca8964","getTxBatchAtPtr(address)":"112f6a31","getTxHistory(address)":"7012b1d4","isRateLimiterEnabled()":"2f53036e","owner()":"8da5cb5b","priceOracle()":"2630c12f","rateLimitParams()":"2e6c02e3","removeRateLimitBypass(address)":"c60c0646","renounceOwnership()":"715018a6","sendCoin(address,uint256)":"90b98a11","setPriceOracle(address)":"530e784f","setRateLimitBypass(address)":"286df6b7","setRateLimitParams((uint256,uint256,uint64))":"daf42d6c","transferOwnership(address)":"f2fde38b","txHistory(address)":"0a6d4d58"},"id":73}