{"abi":[{"type":"constructor","inputs":[{"name":"owner","type":"address","internalType":"address"},{"name":"serviceManager","type":"address","internalType":"address"}],"stateMutability":"nonpayable"},{"type":"function","name":"balances","inputs":[{"name":"","type":"address","internalType":"address"}],"outputs":[{"name":"","type":"uint256","internalType":"uint256"}],"stateMutability":"view"},{"type":"function","name":"getBalance","inputs":[{"name":"addr","type":"address","internalType":"address"}],"outputs":[{"name":"","type":"uint256","internalType":"uint256"}],"stateMutability":"view"},{"type":"function","name":"owner","inputs":[],"outputs":[{"name":"","type":"address","internalType":"address"}],"stateMutability":"view"},{"type":"function","name":"policyID","inputs":[],"outputs":[{"name":"","type":"string","internalType":"string"}],"stateMutability":"view"},{"type":"function","name":"renounceOwnership","inputs":[],"outputs":[],"stateMutability":"nonpayable"},{"type":"function","name":"sendCoin","inputs":[{"name":"receiver","type":"address","internalType":"address"},{"name":"amount","type":"uint256","internalType":"uint256"},{"name":"predicateMessage","type":"tuple","internalType":"struct PredicateMessage","components":[{"name":"taskId","type":"string","internalType":"string"},{"name":"expireByBlockNumber","type":"uint256","internalType":"uint256"},{"name":"signerAddresses","type":"address[]","internalType":"address[]"},{"name":"signatures","type":"bytes[]","internalType":"bytes[]"}]}],"outputs":[],"stateMutability":"nonpayable"},{"type":"function","name":"serviceManager","inputs":[],"outputs":[{"name":"","type":"address","internalType":"contract IServiceManager"}],"stateMutability":"view"},{"type":"function","name":"setPolicy","inputs":[{"name":"_policyID","type":"string","internalType":"string"}],"outputs":[],"stateMutability":"nonpayable"},{"type":"function","name":"setServiceManager","inputs":[{"name":"_serviceManager","type":"address","internalType":"address"}],"outputs":[],"stateMutability":"nonpayable"},{"type":"function","name":"transferOwnership","inputs":[{"name":"newOwner","type":"address","internalType":"address"}],"outputs":[],"stateMutability":"nonpayable"},{"type":"event","name":"OwnershipTransferred","inputs":[{"name":"previousOwner","type":"address","indexed":true,"internalType":"address"},{"name":"newOwner","type":"address","indexed":true,"internalType":"address"}],"anonymous":false},{"type":"event","name":"Transfer","inputs":[{"name":"_from","type":"address","indexed":true,"internalType":"address"},{"name":"_to","type":"address","indexed":true,"internalType":"address"},{"name":"_value","type":"uint256","indexed":false,"internalType":"uint256"}],"anonymous":false},{"type":"error","name":"PredicateClient__Unauthorized","inputs":[]}],"bytecode":{"object":"0x60806040523480156200001157600080fd5b5060405162000fd338038062000fd3833981016040819052620000349162000178565b6200003f336200007e565b6001600160a01b03821660009081526003602052604090206509184e72a00090556200006b81620000ce565b62000076826200007e565b5050620001b0565b600080546001600160a01b038381166001600160a01b0319831681178455604051919092169283917f8be0079c531659141344cd1fd0a4f28419497f9722a3daafe3b4186f6b6457e09190a35050565b620000d8620000fa565b600180546001600160a01b0319166001600160a01b0392909216919091179055565b6000546001600160a01b03163314620001595760405162461bcd60e51b815260206004820181905260248201527f4f776e61626c653a2063616c6c6572206973206e6f7420746865206f776e6572604482015260640160405180910390fd5b565b80516001600160a01b03811681146200017357600080fd5b919050565b600080604083850312156200018c57600080fd5b62000197836200015b565b9150620001a7602084016200015b565b90509250929050565b610e1380620001c06000396000f3fe608060405234801561001057600080fd5b506004361061009e5760003560e01c80639b41bf23116100665780639b41bf231461012f578063c6cf634b14610142578063ee2453c614610157578063f2fde38b1461016a578063f8b2cb4f1461017d57600080fd5b806327e235e3146100a35780633998fdd3146100d65780636b4c991b14610101578063715018a6146101165780638da5cb5b1461011e575b600080fd5b6100c36100b13660046107fe565b60036020526000908152604090205481565b6040519081526020015b60405180910390f35b6001546100e9906001600160a01b031681565b6040516001600160a01b0390911681526020016100cd565b61011461010f366004610908565b6101a6565b005b610114610227565b6000546001600160a01b03166100e9565b61011461013d3660046107fe565b61023b565b61014a610265565b6040516100cd919061098a565b61011461016536600461099d565b6102f3565b6101146101783660046107fe565b6103bc565b6100c361018b3660046107fe565b6001600160a01b031660009081526003602052604090205490565b6101ae610435565b80516101c1906002906020840190610749565b50600154604051636b4c991b60e01b81526001600160a01b0390911690636b4c991b906101f290849060040161098a565b600060405180830381600087803b15801561020c57600080fd5b505af1158015610220573d6000803e3d6000fd5b5050505050565b61022f610435565b610239600061048f565b565b610243610435565b600180546001600160a01b0319166001600160a01b0392909216919091179055565b60028054610272906109fb565b80601f016020809104026020016040519081016040528092919081815260200182805461029e906109fb565b80156102eb5780601f106102c0576101008083540402835291602001916102eb565b820191906000526020600020905b8154815290600101906020018083116102ce57829003601f168201915b505050505081565b6040516001600160a01b03841660248201526044810183905260009060640160408051601f198184030181529190526020810180516001600160e01b03166353e45cb560e11b179052905061035061034a83610aff565b826104df565b6103ac5760405162461bcd60e51b815260206004820152602260248201527f4d657461436f696e3a20756e617574686f72697a6564207472616e736163746960448201526137b760f11b60648201526084015b60405180910390fd5b6103b68484610655565b50505050565b6103c4610435565b6001600160a01b0381166104295760405162461bcd60e51b815260206004820152602660248201527f4f776e61626c653a206e6577206f776e657220697320746865207a65726f206160448201526564647265737360d01b60648201526084016103a3565b6104328161048f565b50565b6000546001600160a01b031633146102395760405162461bcd60e51b815260206004820181905260248201527f4f776e61626c653a2063616c6c6572206973206e6f7420746865206f776e657260448201526064016103a3565b600080546001600160a01b038381166001600160a01b0319831681178455604051919092169283917f8be0079c531659141344cd1fd0a4f28419497f9722a3daafe3b4186f6b6457e09190a35050565b60008060405180610100016040528085600001518152602001336001600160a01b03168152602001306001600160a01b031681526020013481526020018481526020016002805461052f906109fb565b80601f016020809104026020016040519081016040528092919081815260200182805461055b906109fb565b80156105a85780601f1061057d576101008083540402835291602001916105a8565b820191906000526020600020905b81548152906001019060200180831161058b57829003601f168201915b5050509183525050604080870180515163ffffffff16602080850191909152880151928201929092526001549151606088015191516318cea58d60e01b81529394506001600160a01b03909216926318cea58d9261060a928692600401610c8b565b6020604051808303816000875af1158015610629573d6000803e3d6000fd5b505050506040513d601f19601f8201168201806040525081019061064d9190610d76565b949350505050565b336000908152600360205260409020548111156106b45760405162461bcd60e51b815260206004820152601e60248201527f4d657461436f696e3a20696e73756666696369656e742062616c616e6365000060448201526064016103a3565b33600090815260036020526040812080548392906106d3908490610dae565b90915550506001600160a01b03821660009081526003602052604081208054839290610700908490610dc5565b90915550506040518181526001600160a01b0383169033907fddf252ad1be2c89b69c2b068fc378daa952ba7f163c4a11628f55a4df523b3ef9060200160405180910390a35050565b828054610755906109fb565b90600052602060002090601f01602090048101928261077757600085556107bd565b82601f1061079057805160ff19168380011785556107bd565b828001600101855582156107bd579182015b828111156107bd5782518255916020019190600101906107a2565b506107c99291506107cd565b5090565b5b808211156107c957600081556001016107ce565b80356001600160a01b03811681146107f957600080fd5b919050565b60006020828403121561081057600080fd5b610819826107e2565b9392505050565b634e487b7160e01b600052604160045260246000fd5b6040516080810167ffffffffffffffff8111828210171561085957610859610820565b60405290565b604051601f8201601f1916810167ffffffffffffffff8111828210171561088857610888610820565b604052919050565b600067ffffffffffffffff8311156108aa576108aa610820565b6108bd601f8401601f191660200161085f565b90508281528383830111156108d157600080fd5b828260208301376000602084830101529392505050565b600082601f8301126108f957600080fd5b61081983833560208501610890565b60006020828403121561091a57600080fd5b813567ffffffffffffffff81111561093157600080fd5b61064d848285016108e8565b6000815180845260005b8181101561096357602081850181015186830182015201610947565b81811115610975576000602083870101525b50601f01601f19169290920160200192915050565b602081526000610819602083018461093d565b6000806000606084860312156109b257600080fd5b6109bb846107e2565b925060208401359150604084013567ffffffffffffffff8111156109de57600080fd5b8401608081870312156109f057600080fd5b809150509250925092565b600181811c90821680610a0f57607f821691505b60208210811415610a3057634e487b7160e01b600052602260045260246000fd5b50919050565b600067ffffffffffffffff821115610a5057610a50610820565b5060051b60200190565b600082601f830112610a6b57600080fd5b81356020610a80610a7b83610a36565b61085f565b82815260059290921b84018101918181019086841115610a9f57600080fd5b8286015b84811015610af457803567ffffffffffffffff811115610ac35760008081fd5b8701603f81018913610ad55760008081fd5b610ae6898683013560408401610890565b845250918301918301610aa3565b509695505050505050565b600060808236031215610b1157600080fd5b610b19610836565b823567ffffffffffffffff80821115610b3157600080fd5b610b3d368387016108e8565b8352602091508185013582840152604085013581811115610b5d57600080fd5b850136601f820112610b6e57600080fd5b8035610b7c610a7b82610a36565b81815260059190911b82018401908481019036831115610b9b57600080fd5b928501925b82841015610bc057610bb1846107e2565b82529285019290850190610ba0565b60408701525050506060850135915080821115610bdc57600080fd5b50610be936828601610a5a565b60608301525092915050565b600081518084526020808501945080840160005b83811015610c2e5781516001600160a01b031687529582019590820190600101610c09565b509495945050505050565b6000815180845260208085019450848260051b860182860160005b85811015610c7e578383038952610c6c83835161093d565b98850198925090840190600101610c54565b5090979650505050505050565b6060815260008451610100806060850152610caa61016085018361093d565b91506020870151610cc660808601826001600160a01b03169052565b5060408701516001600160a01b031660a0850152606087015160c08501526080870151848303605f1990810160e0870152610d01848361093d565b935060a0890151915080868503018387015250610d1e838261093d565b9250505060c0860151610d3a61012085018263ffffffff169052565b5060e08601516101408401528281036020840152610d588186610bf5565b90508281036040840152610d6c8185610c39565b9695505050505050565b600060208284031215610d8857600080fd5b8151801515811461081957600080fd5b634e487b7160e01b600052601160045260246000fd5b600082821015610dc057610dc0610d98565b500390565b60008219821115610dd857610dd8610d98565b50019056fea2646970667358221220e3f74c6fee5ef6d14dc0a7a7584c1d1e744cfb0a789b6dfd7d9e8a7d8f82951964736f6c634300080c0033","linkReferences":{}},"methodIdentifiers":{"balances(address)":"27e235e3","getBalance(address)":"f8b2cb4f","owner()":"8da5cb5b","policyID()":"c6cf634b","renounceOwnership()":"715018a6","sendCoin(address,uint256,(string,uint256,address[],bytes[]))":"ee2453c6","serviceManager()":"3998fdd3","setPolicy(string)":"6b4c991b","setServiceManager(address)":"9b41bf23","transferOwnership(address)":"f2fde38b"},"id":72}