{"abi":[{"type":"function","name":"bytes32ToString","inputs":[{"name":"_bytes32","type":"bytes32","internalType":"bytes32"}],"outputs":[{"name":"","type":"string","internalType":"string"}],"stateMutability":"pure"},{"type":"function","name":"hashTaskSTM","inputs":[{"name":"task","type":"tuple","internalType":"struct Task","components":[{"name":"taskId","type":"string","internalType":"string"},{"name":"msgSender","type":"address","internalType":"address"},{"name":"target","type":"address","internalType":"address"},{"name":"value","type":"uint256","internalType":"uint256"},{"name":"encodedSigAndArgs","type":"bytes","internalType":"bytes"},{"name":"policyID","type":"string","internalType":"string"},{"name":"quorumThresholdCount","type":"uint32","internalType":"uint32"},{"name":"expireByBlockNumber","type":"uint256","internalType":"uint256"}]}],"outputs":[{"name":"_messageHash","type":"bytes32","internalType":"bytes32"}],"stateMutability":"pure"},{"type":"function","name":"toByte","inputs":[{"name":"_uint8","type":"uint8","internalType":"uint8"}],"outputs":[{"name":"","type":"bytes1","internalType":"bytes1"}],"stateMutability":"pure"}],"bytecode":{"object":"0x6106d661003a600b82828239805160001a60731461002d57634e487b7160e01b600052600060045260246000fd5b30600052607381538281f3fe730000000000000000000000000000000000000000301460806040526004361061004b5760003560e01c8063878248c2146100505780639201de5514610076578063a86b73f014610096575b600080fd5b61006361005e3660046103ab565b6100c2565b6040519081526020015b60405180910390f35b6100896100843660046104ab565b610119565b60405161006d9190610511565b6100a96100a4366004610524565b610281565b6040516001600160f81b0319909116815260200161006d565b80516020808301516040808501516060860151608087015160a088015160c089015160e08a015195516000996100fc999098979101610547565b604051602081830303815290604052805190602001209050919050565b606060008061012a602060026105d5565b60ff1667ffffffffffffffff811115610145576101456102b3565b6040519080825280601f01601f19166020018201604052801561016f576020820181803683370190505b509050600091505b6001815161018591906105fe565b8260ff16101561027a5760008461019d600285610615565b60ff16602081106101b0576101b0610645565b1a600f16905060006004866101c6600287610615565b60ff16602081106101d9576101d9610645565b1a60f81b6001600160f81b031916901c60f81c90506101f781610281565b838560ff168151811061020c5761020c610645565b60200101906001600160f81b031916908160001a90535061022e84600161065b565b935061023982610281565b838560ff168151811061024e5761024e610645565b60200101906001600160f81b031916908160001a9053505050818061027290610680565b925050610177565b9392505050565b6000600a8260ff1610156102a35761029a82603061065b565b60f81b92915050565b61029a82605761065b565b919050565b634e487b7160e01b600052604160045260246000fd5b604051610100810167ffffffffffffffff811182821017156102ed576102ed6102b3565b60405290565b600082601f83011261030457600080fd5b813567ffffffffffffffff8082111561031f5761031f6102b3565b604051601f8301601f19908116603f01168101908282118183101715610347576103476102b3565b8160405283815286602085880101111561036057600080fd5b836020870160208301376000602085830101528094505050505092915050565b80356001600160a01b03811681146102ae57600080fd5b803563ffffffff811681146102ae57600080fd5b6000602082840312156103bd57600080fd5b813567ffffffffffffffff808211156103d557600080fd5b9083019061010082860312156103ea57600080fd5b6103f26102c9565b82358281111561040157600080fd5b61040d878286016102f3565b82525061041c60208401610380565b602082015261042d60408401610380565b60408201526060830135606082015260808301358281111561044e57600080fd5b61045a878286016102f3565b60808301525060a08301358281111561047257600080fd5b61047e878286016102f3565b60a08301525061049060c08401610397565b60c082015260e083013560e082015280935050505092915050565b6000602082840312156104bd57600080fd5b5035919050565b6000815180845260005b818110156104ea576020818501810151868301820152016104ce565b818111156104fc576000602083870101525b50601f01601f19169290920160200192915050565b60208152600061027a60208301846104c4565b60006020828403121561053657600080fd5b813560ff8116811461027a57600080fd5b600061010080835261055b8184018c6104c4565b6001600160a01b038b811660208601528a166040850152606084018990528381036080850152905061058d81886104c4565b905082810360a08401526105a181876104c4565b63ffffffff9590951660c0840152505060e001529695505050505050565b634e487b7160e01b600052601160045260246000fd5b600060ff821660ff84168160ff04811182151516156105f6576105f66105bf565b029392505050565b600082821015610610576106106105bf565b500390565b600060ff83168061063657634e487b7160e01b600052601260045260246000fd5b8060ff84160491505092915050565b634e487b7160e01b600052603260045260246000fd5b600060ff821660ff84168060ff03821115610678576106786105bf565b019392505050565b600060ff821660ff811415610697576106976105bf565b6001019291505056fea2646970667358221220174d150ba1ac541cd7f80e124df0d5fc32cb1f4f3c4f75c468d34c5d863f73f764736f6c634300080c0033","linkReferences":{}},"methodIdentifiers":{"bytes32ToString(bytes32)":"9201de55","hashTaskSTM(Task)":"878248c2","toByte(uint8)":"a86b73f0"},"id":117}