{"abi":[{"type":"function","name":"podOwnerShares","inputs":[{"name":"","type":"address","internalType":"address"}],"outputs":[{"name":"","type":"int256","internalType":"int256"}],"stateMutability":"pure"},{"type":"function","name":"test","inputs":[],"outputs":[],"stateMutability":"nonpayable"}],"bytecode":{"object":"0x608060405234801561001057600080fd5b5060c08061001f6000396000f3fe6080604052348015600f57600080fd5b506004361060325760003560e01c806360f4062b146037578063f8a8fd6d14605a575b600080fd5b60486042366004605c565b50600090565b60405190815260200160405180910390f35b005b600060208284031215606d57600080fd5b81356001600160a01b0381168114608357600080fd5b939250505056fea2646970667358221220770cd87f491b1320e41d17a1a66c24ab16c0f577b58f4e40423c953bf9ab742d64736f6c634300080c0033","linkReferences":{}},"methodIdentifiers":{"podOwnerShares(address)":"60f4062b","test()":"f8a8fd6d"},"id":90}