{"abi":[{"type":"constructor","inputs":[{"name":"_tokenA","type":"address","internalType":"address"},{"name":"_tokenB","type":"address","internalType":"address"},{"name":"_observationCardinality","type":"uint16","internalType":"uint16"}],"stateMutability":"nonpayable"},{"type":"function","name":"observations","inputs":[{"name":"","type":"uint256","internalType":"uint256"}],"outputs":[{"name":"blockTimestamp","type":"uint32","internalType":"uint32"},{"name":"tickCumulative","type":"int56","internalType":"int56"},{"name":"initialized","type":"bool","internalType":"bool"}],"stateMutability":"view"},{"type":"function","name":"setObservations","inputs":[{"name":"_blockTimestamps","type":"uint32[]","internalType":"uint32[]"},{"name":"_tickCumulatives","type":"int56[]","internalType":"int56[]"}],"outputs":[],"stateMutability":"nonpayable"},{"type":"function","name":"setSlot0","inputs":[{"name":"_tick","type":"int24","internalType":"int24"},{"name":"_observationIndex","type":"uint16","internalType":"uint16"}],"outputs":[],"stateMutability":"nonpayable"},{"type":"function","name":"slot0","inputs":[],"outputs":[{"name":"tick","type":"int24","internalType":"int24"},{"name":"observationIndex","type":"uint16","internalType":"uint16"},{"name":"observationCardinality","type":"uint16","internalType":"uint16"}],"stateMutability":"view"},{"type":"function","name":"token0","inputs":[],"outputs":[{"name":"","type":"address","internalType":"address"}],"stateMutability":"view"},{"type":"function","name":"token1","inputs":[],"outputs":[{"name":"","type":"address","internalType":"address"}],"stateMutability":"view"}],"bytecode":{"object":"0x60c060405234801561001057600080fd5b5060405161092638038061092683398101604081905261002f91610134565b6000610047848460006100ad60201b61050d1760201c565b80516001600160a01b0390811660805260208201511660a0526000805461ffff60281b19166501000000000061ffff86160217905590505b61ffff8216156100a457600180548101815560005261009d82610182565b915061007f565b505050506101ae565b6040805160608101825260008082526020820181905291810191909152826001600160a01b0316846001600160a01b031611156100e8579192915b50604080516060810182526001600160a01b03948516815292909316602083015262ffffff169181019190915290565b80516001600160a01b038116811461012f57600080fd5b919050565b60008060006060848603121561014957600080fd5b61015284610118565b925061016060208501610118565b9150604084015161ffff8116811461017757600080fd5b809150509250925092565b600061ffff8216806101a457634e487b7160e01b600052601160045260246000fd5b6000190192915050565b60805160a0516107546101d2600039600061014b01526000606c01526107546000f3fe608060405234801561001057600080fd5b50600436106100625760003560e01c80630dfe168114610067578063252c09d7146100ab5780633850c7bd146100e557806346d61dc014610131578063d21220a714610146578063f814bf531461016d575b600080fd5b61008e7f000000000000000000000000000000000000000000000000000000000000000081565b6040516001600160a01b0390911681526020015b60405180910390f35b6100be6100b9366004610578565b610180565b6040805163ffffffff909416845260069290920b60208401521515908201526060016100a2565b60005461010c90600281900b9061ffff630100000082048116916501000000000090041683565b6040805160029490940b845261ffff92831660208501529116908201526060016100a2565b61014461013f3660046105dd565b6101be565b005b61008e7f000000000000000000000000000000000000000000000000000000000000000081565b61014461017b366004610649565b610424565b6001818154811061019057600080fd5b60009182526020909120015463ffffffff81169150640100000000810460060b90600160581b900460ff1683565b8281146102575760405162461bcd60e51b815260206004820152605660248201527f4d6f636b556e69737761705633506f6f6c237365744f62736572766174696f6e60448201527f732063616c6c6564207769746820696e76616c6964206172726179206c656e6760648201527574687320286d757374206265206d61746368696e672960501b608482015260a4015b60405180910390fd5b60005465010000000000900461ffff168311156103175760405162461bcd60e51b815260206004820152606c60248201527f4d6f636b556e69737761705633506f6f6c237365744f62736572766174696f6e60448201527f732063616c6c6564207769746820696e76616c6964206172726179206c656e6760648201527f74687320286d757374206265203c20736c6f74302e6f62736572766174696f6e60848201526b43617264696e616c6974792960a01b60a482015260c40161024e565b60005b8381101561041d57604051806060016040528086868481811061033f5761033f61068f565b905060200201602081019061035491906106a5565b63ffffffff1681526020018484848181106103715761037161068f565b905060200201602081019061038691906106d2565b60060b815260200160011515815250600182815481106103a8576103a861068f565b6000918252602091829020835191018054928401516040909401511515600160581b0260ff60581b1966ffffffffffffff909516640100000000026affffffffffffffffffffff1990941663ffffffff909316929092179290921792909216919091179055610416816106f5565b905061031a565b5050505050565b60005461ffff650100000000009091048116908216106104e35760405162461bcd60e51b815260206004820152606860248201527f4d6f636b556e69737761705633506f6f6c23736574536c6f74302063616c6c6560448201527f64207769746820696e76616c6964206f62736572766174696f6e496e6465782060648201527f286d757374206265203c20736c6f74302e6f62736572766174696f6e43617264608482015267696e616c6974792960c01b60a482015260c40161024e565b6000805461ffff90921663010000000264ffffffffff1990921662ffffff90931692909217179055565b6040805160608101825260008082526020820181905291810191909152826001600160a01b0316846001600160a01b03161115610548579192915b50604080516060810182526001600160a01b03948516815292909316602083015262ffffff169181019190915290565b60006020828403121561058a57600080fd5b5035919050565b60008083601f8401126105a357600080fd5b50813567ffffffffffffffff8111156105bb57600080fd5b6020830191508360208260051b85010111156105d657600080fd5b9250929050565b600080600080604085870312156105f357600080fd5b843567ffffffffffffffff8082111561060b57600080fd5b61061788838901610591565b9096509450602087013591508082111561063057600080fd5b5061063d87828801610591565b95989497509550505050565b6000806040838503121561065c57600080fd5b82358060020b811461066d57600080fd5b9150602083013561ffff8116811461068457600080fd5b809150509250929050565b634e487b7160e01b600052603260045260246000fd5b6000602082840312156106b757600080fd5b813563ffffffff811681146106cb57600080fd5b9392505050565b6000602082840312156106e457600080fd5b81358060060b81146106cb57600080fd5b600060001982141561071757634e487b7160e01b600052601160045260246000fd5b506001019056fea264697066735822122034fcefcdf9029a0bad5874692cfabe102d1232edc527549319c70c7eb00f529e64736f6c634300080c0033","linkReferences":{}},"methodIdentifiers":{"observations(uint256)":"252c09d7","setObservations(uint32[],int56[])":"46d61dc0","setSlot0(int24,uint16)":"f814bf53","slot0()":"3850c7bd","token0()":"0dfe1681","token1()":"d21220a7"},"id":119}