{
  "_format": "hh-sol-artifact-1",
  "contractName": "PriceAggregatorUniV3",
  "sourceName": "src/PriceAggregatorUniV3.sol",
  "abi": [
    {
      "inputs": [
        {
          "internalType": "address",
          "name": "_owner",
          "type": "address"
        },
        {
          "internalType": "address",
          "name": "_weth",
          "type": "address"
        },
        {
          "internalType": "address",
          "name": "_usdc",
          "type": "address"
        },
        {
          "internalType": "uint256",
          "name": "_defaultTWAPPeriod",
          "type": "uint256"
        }
      ],
      "stateMutability": "nonpayable",
      "type": "constructor"
    },
    {
      "inputs": [
        {
          "internalType": "address",
          "name": "tokenIn",
          "type": "address"
        },
        {
          "internalType": "address",
          "name": "tokenOut",
          "type": "address"
        }
      ],
      "name": "PriceAggregatorUniV3_NoPoolFound",
      "type": "error"
    },
    {
      "inputs": [],
      "name": "T",
      "type": "error"
    },
    {
      "anonymous": false,
      "inputs": [
        {
          "indexed": true,
          "internalType": "address",
          "name": "previousOwner",
          "type": "address"
        },
        {
          "indexed": true,
          "internalType": "address",
          "name": "newOwner",
          "type": "address"
        }
      ],
      "name": "OwnershipTransferred",
      "type": "event"
    },
    {
      "inputs": [],
      "name": "USDC",
      "outputs": [
        {
          "internalType": "address",
          "name": "",
          "type": "address"
        }
      ],
      "stateMutability": "view",
      "type": "function"
    },
    {
      "inputs": [],
      "name": "WETH",
      "outputs": [
        {
          "internalType": "address",
          "name": "",
          "type": "address"
        }
      ],
      "stateMutability": "view",
      "type": "function"
    },
    {
      "inputs": [
        {
          "internalType": "address",
          "name": "_token",
          "type": "address"
        },
        {
          "internalType": "address",
          "name": "_alias",
          "type": "address"
        }
      ],
      "name": "addTokenAlias",
      "outputs": [],
      "stateMutability": "nonpayable",
      "type": "function"
    },
    {
      "inputs": [
        {
          "internalType": "address",
          "name": "_tokenIn",
          "type": "address"
        },
        {
          "internalType": "uint256",
          "name": "_amountIn",
          "type": "uint256"
        },
        {
          "internalType": "address",
          "name": "_tokenOut",
          "type": "address"
        },
        {
          "internalType": "uint256",
          "name": "_twapPeriod",
          "type": "uint256"
        }
      ],
      "name": "assetToAsset",
      "outputs": [
        {
          "internalType": "uint256",
          "name": "amountOut",
          "type": "uint256"
        }
      ],
      "stateMutability": "view",
      "type": "function"
    },
    {
      "inputs": [
        {
          "internalType": "address",
          "name": "_tokenIn",
          "type": "address"
        },
        {
          "internalType": "uint256",
          "name": "_amountIn",
          "type": "uint256"
        },
        {
          "internalType": "uint256",
          "name": "_twapPeriod",
          "type": "uint256"
        }
      ],
      "name": "assetToEth",
      "outputs": [
        {
          "internalType": "uint256",
          "name": "ethAmountOut",
          "type": "uint256"
        }
      ],
      "stateMutability": "view",
      "type": "function"
    },
    {
      "inputs": [],
      "name": "defaultTWAPPeriod",
      "outputs": [
        {
          "internalType": "uint256",
          "name": "",
          "type": "uint256"
        }
      ],
      "stateMutability": "view",
      "type": "function"
    },
    {
      "inputs": [
        {
          "internalType": "uint256",
          "name": "_ethAmountIn",
          "type": "uint256"
        },
        {
          "internalType": "address",
          "name": "_tokenOut",
          "type": "address"
        },
        {
          "internalType": "uint256",
          "name": "_twapPeriod",
          "type": "uint256"
        }
      ],
      "name": "ethToAsset",
      "outputs": [
        {
          "internalType": "uint256",
          "name": "amountOut",
          "type": "uint256"
        }
      ],
      "stateMutability": "view",
      "type": "function"
    },
    {
      "inputs": [
        {
          "internalType": "address",
          "name": "_pool",
          "type": "address"
        },
        {
          "internalType": "uint32",
          "name": "_twapPeriod",
          "type": "uint32"
        }
      ],
      "name": "fetchCurrentTicks",
      "outputs": [
        {
          "internalType": "int24",
          "name": "spotTick",
          "type": "int24"
        },
        {
          "internalType": "int24",
          "name": "twapTick",
          "type": "int24"
        }
      ],
      "stateMutability": "view",
      "type": "function"
    },
    {
      "inputs": [
        {
          "internalType": "address",
          "name": "_token",
          "type": "address"
        }
      ],
      "name": "getAliasForToken",
      "outputs": [
        {
          "internalType": "address",
          "name": "",
          "type": "address"
        }
      ],
      "stateMutability": "view",
      "type": "function"
    },
    {
      "inputs": [
        {
          "internalType": "address",
          "name": "_tokenA",
          "type": "address"
        },
        {
          "internalType": "address",
          "name": "_tokenB",
          "type": "address"
        }
      ],
      "name": "getPoolForRoute",
      "outputs": [
        {
          "internalType": "address",
          "name": "pool",
          "type": "address"
        }
      ],
      "stateMutability": "view",
      "type": "function"
    },
    {
      "inputs": [
        {
          "internalType": "address",
          "name": "_token",
          "type": "address"
        },
        {
          "internalType": "uint256",
          "name": "_amountIn",
          "type": "uint256"
        }
      ],
      "name": "getPrice",
      "outputs": [
        {
          "internalType": "uint256",
          "name": "",
          "type": "uint256"
        }
      ],
      "stateMutability": "view",
      "type": "function"
    },
    {
      "inputs": [
        {
          "internalType": "address",
          "name": "_tokenIn",
          "type": "address"
        },
        {
          "internalType": "uint128",
          "name": "_amountIn",
          "type": "uint128"
        },
        {
          "internalType": "address",
          "name": "_tokenOut",
          "type": "address"
        },
        {
          "internalType": "int24",
          "name": "_tick",
          "type": "int24"
        }
      ],
      "name": "getQuoteAtTick",
      "outputs": [
        {
          "internalType": "uint256",
          "name": "amountOut",
          "type": "uint256"
        }
      ],
      "stateMutability": "pure",
      "type": "function"
    },
    {
      "inputs": [
        {
          "internalType": "address",
          "name": "_tokenIn",
          "type": "address"
        },
        {
          "internalType": "uint128",
          "name": "_amountIn",
          "type": "uint128"
        },
        {
          "internalType": "address",
          "name": "_tokenOut",
          "type": "address"
        },
        {
          "internalType": "int24",
          "name": "_tick1",
          "type": "int24"
        },
        {
          "internalType": "int24",
          "name": "_tick2",
          "type": "int24"
        }
      ],
      "name": "getQuoteCrossingTicksThroughWeth",
      "outputs": [
        {
          "internalType": "uint256",
          "name": "amountOut",
          "type": "uint256"
        }
      ],
      "stateMutability": "view",
      "type": "function"
    },
    {
      "inputs": [
        {
          "internalType": "address",
          "name": "",
          "type": "address"
        }
      ],
      "name": "isTokenSupported",
      "outputs": [
        {
          "internalType": "bool",
          "name": "",
          "type": "bool"
        }
      ],
      "stateMutability": "view",
      "type": "function"
    },
    {
      "inputs": [
        {
          "internalType": "bytes32",
          "name": "",
          "type": "bytes32"
        }
      ],
      "name": "overriddenPoolForRoute",
      "outputs": [
        {
          "internalType": "address",
          "name": "",
          "type": "address"
        }
      ],
      "stateMutability": "view",
      "type": "function"
    },
    {
      "inputs": [],
      "name": "owner",
      "outputs": [
        {
          "internalType": "address",
          "name": "",
          "type": "address"
        }
      ],
      "stateMutability": "view",
      "type": "function"
    },
    {
      "inputs": [
        {
          "internalType": "address",
          "name": "_token",
          "type": "address"
        }
      ],
      "name": "removeToken",
      "outputs": [],
      "stateMutability": "nonpayable",
      "type": "function"
    },
    {
      "inputs": [
        {
          "internalType": "address",
          "name": "_token",
          "type": "address"
        }
      ],
      "name": "removeTokenAlias",
      "outputs": [],
      "stateMutability": "nonpayable",
      "type": "function"
    },
    {
      "inputs": [],
      "name": "renounceOwnership",
      "outputs": [],
      "stateMutability": "nonpayable",
      "type": "function"
    },
    {
      "inputs": [
        {
          "internalType": "uint256",
          "name": "_twapPeriod",
          "type": "uint256"
        }
      ],
      "name": "setDefaultTWAPPeriod",
      "outputs": [],
      "stateMutability": "nonpayable",
      "type": "function"
    },
    {
      "inputs": [
        {
          "internalType": "address",
          "name": "_tokenA",
          "type": "address"
        },
        {
          "internalType": "address",
          "name": "_pool",
          "type": "address"
        }
      ],
      "name": "setUSDCPoolForToken",
      "outputs": [],
      "stateMutability": "nonpayable",
      "type": "function"
    },
    {
      "inputs": [
        {
          "internalType": "address",
          "name": "",
          "type": "address"
        }
      ],
      "name": "tokenAlias",
      "outputs": [
        {
          "internalType": "address",
          "name": "",
          "type": "address"
        }
      ],
      "stateMutability": "view",
      "type": "function"
    },
    {
      "inputs": [
        {
          "internalType": "address",
          "name": "newOwner",
          "type": "address"
        }
      ],
      "name": "transferOwnership",
      "outputs": [],
      "stateMutability": "nonpayable",
      "type": "function"
    }
  ],
  "bytecode": "0x60c06040523480156200001157600080fd5b506040516200250e3803806200250e833981016040819052620000349162000105565b6200003f3362000067565b6200004a8462000067565b6001600160a01b03928316608052911660a0526001555062000173565b600080546001600160a01b038381166001600160a01b0319831681178455604051919092169283917f8be0079c531659141344cd1fd0a4f28419497f9722a3daafe3b4186f6b6457e09190a35050565b60006001600160a01b0382165b92915050565b620000d581620000b7565b8114620000e157600080fd5b50565b8051620000c481620000ca565b80620000d5565b8051620000c481620000f1565b60008060008060808587031215620001205762000120600080fd5b60006200012e8787620000e4565b94505060206200014187828801620000e4565b93505060406200015487828801620000e4565b92505060606200016787828801620000f8565b91505092959194509250565b60805160a05161233d620001d1600039600081816102db0152818161043e015261065c01526000818161034c015281816103e001528181610782015281816107ce015281816108540152818161119901526111ce015261233d6000f3fe608060405234801561001057600080fd5b506004361061017c5760003560e01c80637c661949116100e3578063ad5c46481161008c578063eb6e892b11610066578063eb6e892b1461038a578063f2fde38b146103b6578063f3ae3077146103c957600080fd5b8063ad5c464814610347578063b8791ee21461036e578063d45bd6b11461037757600080fd5b80638f5dab9a116100bd5780638f5dab9a1461030e57806390a3ad8a14610321578063a6fe34c61461033457600080fd5b80637c661949146102c357806389a30271146102d65780638da5cb5b146102fd57600080fd5b806357fa59eb116101455780636a4cb36c1161011f5780636a4cb36c14610278578063715018a61461028b57806375151b631461029357600080fd5b806357fa59eb146102315780635fa7b584146102445780636a3b312a1461025757600080fd5b806213b4fc1461018157806301276acf146101aa5780630fb7c05a146101e0578063449e815d146101f557806346553c2d14610208575b600080fd5b61019461018f36600461168c565b6103dc565b6040516101a191906116e4565b60405180910390f35b6101d36101b83660046116f2565b6003602052600090815260409020546001600160a01b031681565b6040516101a1919061171c565b6101f36101ee36600461172a565b61042e565b005b610194610203366004611767565b6105ef565b6101d361021636600461179a565b6004602052600090815260409020546001600160a01b031681565b61019461023f3660046117ea565b61068e565b6101f361025236600461179a565b6106a7565b61026a610265366004611865565b610708565b6040516101a19291906118a2565b6101f361028636600461172a565b610734565b6101f361076a565b6102b66102a136600461179a565b60026020526000908152604090205460ff1681565b6040516101a191906118c5565b6101946102d13660046118d3565b61077e565b6101d37f000000000000000000000000000000000000000000000000000000000000000081565b6000546001600160a01b03166101d3565b61019461031c36600461192b565b61081d565b6101d361032f36600461172a565b61083f565b6101946103423660046119a3565b610850565b6101d37f000000000000000000000000000000000000000000000000000000000000000081565b61019460015481565b6101f36103853660046116f2565b610891565b6101d361039836600461179a565b6001600160a01b039081166000908152600460205260409020541690565b6101f36103c436600461179a565b61089e565b6101f36103d736600461179a565b6108d8565b60007f00000000000000000000000000000000000000000000000000000000000000008161041361040e838784610907565b610972565b905061042282878784886109b4565b925050505b9392505050565b610436610a4e565b6000610464837f00000000000000000000000000000000000000000000000000000000000000006000610907565b90506001600160a01b0382161561059657816001600160a01b0316630dfe16816040518163ffffffff1660e01b8152600401602060405180830381865afa1580156104b3573d6000803e3d6000fd5b505050506040513d601f19601f820116820180604052508101906104d791906119e3565b6001600160a01b031681600001516001600160a01b03161480156105715750816001600160a01b031663d21220a76040518163ffffffff1660e01b8152600401602060405180830381865afa158015610534573d6000803e3d6000fd5b505050506040513d601f19601f8201168201806040525081019061055891906119e3565b6001600160a01b031681602001516001600160a01b0316145b6105965760405162461bcd60e51b815260040161058d90611a3b565b60405180910390fd5b81600360006105a484610a78565b81526020808201929092526040908101600090812080546001600160a01b0319166001600160a01b0395861617905595909216855260029052909220805460ff191660011790555050565b6001600160a01b038083166000908152600460205260408120549091168181610618578461061a565b815b6001600160a01b03811660009081526002602052604090205490915060ff166106555760405162461bcd60e51b815260040161058d90611a7f565b61068381857f000000000000000000000000000000000000000000000000000000000000000060015461077e565b925050505b92915050565b600061069c82858786610ab2565b90505b949350505050565b6106af610a4e565b6001600160a01b03811660009081526002602052604090205460ff166106e75760405162461bcd60e51b815260040161058d90611a7f565b6001600160a01b03166000908152600260205260409020805460ff19169055565b60008060008061071786610bc0565b90945091506107268686610e9d565b509396939550929350505050565b61073c610a4e565b6001600160a01b03918216600090815260046020526040902080546001600160a01b03191691909216179055565b610772610a4e565b61077c60006110dc565b565b60007f00000000000000000000000000000000000000000000000000000000000000006001600160a01b0316856001600160a01b031614156107cc576107c58484846103dc565b905061069f565b7f00000000000000000000000000000000000000000000000000000000000000006001600160a01b0316836001600160a01b03161415610811576107c5858584610850565b6107c58585858561112c565b600061083586866001600160801b0316868686611186565b9695505050505050565b600061042761040e84846000610907565b60007f00000000000000000000000000000000000000000000000000000000000000008161088261040e878484610907565b905061042286868484886109b4565b610899610a4e565b600155565b6108a6610a4e565b6001600160a01b0381166108cc5760405162461bcd60e51b815260040161058d90611ad5565b6108d5816110dc565b50565b6108e0610a4e565b6001600160a01b0316600090815260046020526040902080546001600160a01b0319169055565b6040805160608101825260008082526020820181905291810191909152826001600160a01b0316846001600160a01b03161115610942579192915b50604080516060810182526001600160a01b03948516815292909316602083015262ffffff169181019190915290565b600061097d826111fe565b90506001600160a01b0381166109af5781516020830151604051634e8a64e960e01b815261058d929190600401611ae5565b919050565b60008060008060006109c587610bc0565b90945092506109dc876109d78861122d565b610e9d565b909250905060006001600160a01b03808a16908c161015610a13578260020b8560020b12610a0a5782610a0c565b845b9050610a2b565b8260020b8560020b13610a265782610a28565b845b90505b610a3f81610a388c611253565b8d8c610ab2565b9b9a5050505050505050505050565b6000546001600160a01b0316331461077c5760405162461bcd60e51b815260040161058d90611b32565b600081600001518260200151604051602001610a95929190611b6a565b604051602081830303815290604052805190602001209050919050565b600080610abe8661127c565b90506001600160801b036001600160a01b03821611610b44576000610aec6001600160a01b03831680611ba6565b9050836001600160a01b0316856001600160a01b031610610b2457610b1f600160c01b876001600160801b03168361159c565b610b3c565b610b3c81876001600160801b0316600160c01b61159c565b925050610bb7565b6000610b636001600160a01b038316806801000000000000000061159c565b9050836001600160a01b0316856001600160a01b031610610b9b57610b96600160801b876001600160801b03168361159c565b610bb3565b610bb381876001600160801b0316600160801b61159c565b9250505b50949350505050565b6000806000806000856001600160a01b0316633850c7bd6040518163ffffffff1660e01b815260040160e060405180830381865afa158015610c06573d6000803e3d6000fd5b505050506040513d601f19601f82011682018060405250810190610c2a9190611c26565b5050509350935093505060018161ffff1611610c585760405162461bcd60e51b815260040161058d90611cdf565b6000806000886001600160a01b031663252c09d7866040518263ffffffff1660e01b8152600401610c899190611d0b565b608060405180830381865afa158015610ca6573d6000803e3d6000fd5b505050506040513d601f19601f82011682018060405250810190610cca9190611d39565b509250925092504263ffffffff168363ffffffff1614610d565785896001600160a01b0316631a6865026040518163ffffffff1660e01b8152600401602060405180830381865afa158015610d23573d6000803e3d6000fd5b505050506040513d601f19601f82011682018060405250810190610d479190611d9c565b97509750505050505050915091565b60008461ffff1660018661ffff168861ffff16610d739190611dbd565b610d7d9190611dd5565b610d879190611e06565b90506000806000808d6001600160a01b031663252c09d7866040518263ffffffff1660e01b8152600401610dbb91906116e4565b608060405180830381865afa158015610dd8573d6000803e3d6000fd5b505050506040513d601f19601f82011682018060405250810190610dfc9190611d39565b935093509350935080610e215760405162461bcd60e51b815260040161058d90611e34565b6000610e2d858a611e44565b905063ffffffff8116610e40858a611e5b565b610e4a9190611eb3565b9b5060006020610e5a858a611efd565b6001600160a01b0390811690911b90610e799063ffffffff8516611f1a565b610e839190611f51565b90508c819e509e5050505050505050505050505050915091565b60008063ffffffff8316610ec35760405162461bcd60e51b815260040161058d90611f8b565b6040805160028082526060820183526000926020830190803683370190505090508381600081518110610ef857610ef8611fb1565b602002602001019063ffffffff16908163ffffffff1681525050600081600181518110610f2757610f27611fb1565b602002602001019063ffffffff16908163ffffffff1681525050600080866001600160a01b031663883bdbfd846040518263ffffffff1660e01b8152600401610f709190612030565b600060405180830381865afa158015610f8d573d6000803e3d6000fd5b505050506040513d6000823e601f3d908101601f19168201604052610fb591908101906121a2565b91509150600082600081518110610fce57610fce611fb1565b602002602001015183600181518110610fe957610fe9611fb1565b6020026020010151610ffb9190611e5b565b905060008260008151811061101257611012611fb1565b60200260200101518360018151811061102d5761102d611fb1565b602002602001015161103f9190611efd565b905061105163ffffffff891683611eb3565b965060008260060b128015611077575061107163ffffffff89168361220a565b60060b15155b1561108a578661108681612236565b9750505b60006110a36001600160a01b0363ffffffff8b16611f1a565b90506110cd77ffffffffffffffffffffffffffffffffffffffff00000000602084901b1682611f51565b96505050505050509250929050565b600080546001600160a01b038381166001600160a01b0319831681178455604051919092169283917f8be0079c531659141344cd1fd0a4f28419497f9722a3daafe3b4186f6b6457e09190a35050565b60008061114361113e87866000610907565b6111fe565b90506001600160a01b038116156111695761116186868684876109b4565b91505061069f565b8584604051634e8a64e960e01b815260040161058d929190611ae5565b6000806111bd8461119688611253565b897f0000000000000000000000000000000000000000000000000000000000000000610ab2565b90506111f3836111cc83611253565b7f000000000000000000000000000000000000000000000000000000000000000088610ab2565b979650505050505050565b60006003600061120d84610a78565b81526020810191909152604001600020546001600160a01b031692915050565b8063ffffffff811681146109af5760405162461bcd60e51b815260040161058d906122a3565b806001600160801b03811681146109af5760405162461bcd60e51b815260040161058d906122f7565b60008060008360020b12611293578260020b61129b565b8260020b6000035b9050620d89e88111156112c1576040516315e4079d60e11b815260040160405180910390fd5b6000600182166112d557600160801b6112e7565b6ffffcb933bd6fad37aa2d162d1a5940015b70ffffffffffffffffffffffffffffffffff169050600282161561131b576ffff97272373d413259a46990580e213a0260801c5b600482161561133a576ffff2e50f5f656932ef12357cf3c7fdcc0260801c5b6008821615611359576fffe5caca7e10e4e61c3624eaa0941cd00260801c5b6010821615611378576fffcb9843d60f6159c9db58835c9266440260801c5b6020821615611397576fff973b41fa98c081472e6896dfb254c00260801c5b60408216156113b6576fff2ea16466c96a3843ec78b326b528610260801c5b60808216156113d5576ffe5dee046a99a2a811c461f1969c30530260801c5b6101008216156113f5576ffcbe86c7900a88aedcffc83b479aa3a40260801c5b610200821615611415576ff987a7253ac413176f2b074cf7815e540260801c5b610400821615611435576ff3392b0822b70005940c7a398e4b70f30260801c5b610800821615611455576fe7159475a2c29b7443b29c7fa6e889d90260801c5b611000821615611475576fd097f3bdfd2022b8845ad8f792aa58250260801c5b612000821615611495576fa9f746462d870fdf8a65dc1f90e061e50260801c5b6140008216156114b5576f70d869a156d2a1b890bb3df62baf32f70260801c5b6180008216156114d5576f31be135f97d08fd981231505542fcfa60260801c5b620100008216156114f6576f09aa508b5b7a84e1c677de54f3e99bc90260801c5b62020000821615611516576e5d6af8dedb81196699c329225ee6040260801c5b62040000821615611535576d2216e584f5fa1ea926041bedfe980260801c5b62080000821615611552576b048a170391f7dc42444e8fa20260801c5b60008460020b131561157357806000198161156f5761156f611df0565b0490505b64010000000081061561158757600161158a565b60005b60ff16602082901c0192505050919050565b6000808060001985870985870292508281108382030391505080600014156115d657600084116115cb57600080fd5b508290049050610427565b8084116115e257600080fd5b6000848688096000868103871696879004966002600389028118808a02820302808a02820302808a02820302808a02820302808a02820302808a02909103029181900381900460010186841190950394909402919094039290920491909117919091029150509392505050565b805b81146108d557600080fd5b80356106888161164f565b60006001600160a01b038216610688565b61165181611667565b803561068881611678565b6000806000606084860312156116a4576116a4600080fd5b60006116b0868661165c565b93505060206116c186828701611681565b92505060406116d28682870161165c565b9150509250925092565b805b82525050565b6020810161068882846116dc565b60006020828403121561170757611707600080fd5b600061069f848461165c565b6116de81611667565b602081016106888284611713565b6000806040838503121561174057611740600080fd5b600061174c8585611681565b925050602061175d85828601611681565b9150509250929050565b6000806040838503121561177d5761177d600080fd5b60006117898585611681565b925050602061175d8582860161165c565b6000602082840312156117af576117af600080fd5b600061069f8484611681565b6001600160801b038116611651565b8035610688816117bb565b6116518160020b90565b8035610688816117d5565b6000806000806080858703121561180357611803600080fd5b600061180f8787611681565b9450506020611820878288016117ca565b935050604061183187828801611681565b9250506060611842878288016117df565b91505092959194509250565b63ffffffff8116611651565b80356106888161184e565b6000806040838503121561187b5761187b600080fd5b60006118878585611681565b925050602061175d8582860161185a565b6116de8160020b90565b604081016118b08285611898565b6104276020830184611898565b8015156116de565b6020810161068882846118bd565b600080600080608085870312156118ec576118ec600080fd5b60006118f88787611681565b94505060206119098782880161165c565b935050604061191a87828801611681565b92505060606118428782880161165c565b600080600080600060a0868803121561194657611946600080fd5b60006119528888611681565b9550506020611963888289016117ca565b945050604061197488828901611681565b9350506060611985888289016117df565b9250506080611996888289016117df565b9150509295509295909350565b6000806000606084860312156119bb576119bb600080fd5b60006119c78686611681565b93505060206116c18682870161165c565b805161068881611678565b6000602082840312156119f8576119f8600080fd5b600061069f84846119d8565b601a81526000602082017f546f6b656e73206f7220706f6f6c206e6f7420636f7272656374000000000000815291505b5060200190565b6020808252810161068881611a04565b601381526000602082017f546f6b656e206e6f7420737570706f727465640000000000000000000000000081529150611a34565b6020808252810161068881611a4b565b602681526000602082017f4f776e61626c653a206e6577206f776e657220697320746865207a65726f206181526564647265737360d01b602082015291505b5060400190565b6020808252810161068881611a8f565b60408101611af38285611713565b6104276020830184611713565b60208082527f4f776e61626c653a2063616c6c6572206973206e6f7420746865206f776e657291019081526000611a34565b6020808252810161068881611b00565b60006106888260601b90565b600061068882611b42565b6116de611b6582611667565b611b4e565b6000611b768285611b59565b601482019150611b868284611b59565b5060140192915050565b634e487b7160e01b600052601160045260246000fd5b6000816000190483118215151615611bc057611bc0611b90565b500290565b6001600160a01b038116611651565b805161068881611bc5565b8051610688816117d5565b61ffff8116611651565b805161068881611bea565b60ff8116611651565b805161068881611bff565b801515611651565b805161068881611c13565b600080600080600080600060e0888a031215611c4457611c44600080fd5b6000611c508a8a611bd4565b9750506020611c618a828b01611bdf565b9650506040611c728a828b01611bf4565b9550506060611c838a828b01611bf4565b9450506080611c948a828b01611bf4565b93505060a0611ca58a828b01611c08565b92505060c0611cb68a828b01611c1b565b91505092959891949750929550565b60038152600060208201624e454f60e81b81529150611a34565b6020808252810161068881611cc5565b6000610688611cff61ffff841681565b90565b6116de81611cef565b602081016106888284611d02565b80516106888161184e565b6116518160060b90565b805161068881611d24565b60008060008060808587031215611d5257611d52600080fd5b6000611d5e8787611d19565b9450506020611d6f87828801611d2e565b9350506040611d8087828801611bd4565b925050606061184287828801611c1b565b8051610688816117bb565b600060208284031215611db157611db1600080fd5b600061069f8484611d91565b60008219821115611dd057611dd0611b90565b500190565b6000825b925082821015611deb57611deb611b90565b500390565b634e487b7160e01b600052601260045260246000fd5b600082611e1557611e15611df0565b500690565b60038152600060208201624f4e4960e81b81529150611a34565b6020808252810161068881611e1a565b600063ffffffff8216915063ffffffff8316611dd9565b6000611e678260060b90565b9150611e738360060b90565b925082667fffffffffffff1901821260008412151615611e9557611e95611b90565b82667fffffffffffff018213600084121615611deb57611deb611b90565b6000611ebf8260060b90565b9150611ecb8360060b90565b925082611eda57611eda611df0565b667fffffffffffff19821460001984141615611ef857611ef8611b90565b500590565b60006001600160a01b03821691506001600160a01b038316611dd9565b60006001600160c01b03821691506001600160c01b0383169250816001600160c01b030483118215151615611bc057611bc0611b90565b6001600160c01b039182169116600082611f6d57611f6d611df0565b500490565b6002815260006020820161042560f41b81529150611a34565b6020808252810161068881611f72565b634e487b7160e01b600052604160045260246000fd5b634e487b7160e01b600052603260045260246000fd5b63ffffffff81166116de565b6000611fdf8383611fc7565b505060200190565b6000611ff1825190565b80845260209384019383018060005b838110156120255781516120148882611fd3565b975060208301925050600101612000565b509495945050505050565b602080825281016104278184611fe7565b601f19601f830116810181811067ffffffffffffffff8211171561206757612067611f9b565b6040525050565b600061207960405190565b90506109af8282612041565b600067ffffffffffffffff82111561209f5761209f611f9b565b5060209081020190565b60006120bc6120b784612085565b61206e565b838152905060208082019084028301858111156120db576120db600080fd5b835b818110156120ff57806120f08882611d2e565b845250602092830192016120dd565b5050509392505050565b600082601f83011261211d5761211d600080fd5b815161069f8482602086016120a9565b600061213b6120b784612085565b8381529050602080820190840283018581111561215a5761215a600080fd5b835b818110156120ff578061216f8882611bd4565b8452506020928301920161215c565b600082601f83011261219257612192600080fd5b815161069f84826020860161212d565b600080604083850312156121b8576121b8600080fd5b825167ffffffffffffffff8111156121d2576121d2600080fd5b6121de85828601612109565b925050602083015167ffffffffffffffff8111156121fe576121fe600080fd5b61175d8582860161217e565b60006122168260060b90565b91506122228360060b90565b92508261223157612231611df0565b500790565b60006122428260020b90565b9150627fffff1982141561225857612258611b90565b506000190190565b602681526000602082017f53616665436173743a2076616c756520646f65736e27742066697420696e203381526532206269747360d01b60208201529150611ace565b6020808252810161068881612260565b602781526000602082017f53616665436173743a2076616c756520646f65736e27742066697420696e20318152663238206269747360c81b60208201529150611ace565b60208082528101610688816122b356fea26469706673582212201254981897fef3d299f13aed5848b0b31d8bcce0c27b1e3b8cfb4d3cc0b39d6164736f6c634300080c0033",
  "linkReferences": {},
  "deployedLinkReferences": {}
}