{
  "_format": "hh-sol-artifact-1",
  "contractName": "MetaCoinWithRateLimit",
  "sourceName": "src/examples/MetaCoinWithRateLimit.sol",
  "abi": [
    {
      "inputs": [],
      "stateMutability": "nonpayable",
      "type": "constructor"
    },
    {
      "inputs": [
        {
          "internalType": "address",
          "name": "sender",
          "type": "address"
        },
        {
          "internalType": "uint256",
          "name": "requested",
          "type": "uint256"
        },
        {
          "internalType": "uint256",
          "name": "available",
          "type": "uint256"
        }
      ],
      "name": "InsufficientBalance",
      "type": "error"
    },
    {
      "inputs": [
        {
          "internalType": "uint64",
          "name": "provided",
          "type": "uint64"
        },
        {
          "internalType": "uint64",
          "name": "minimum",
          "type": "uint64"
        }
      ],
      "name": "InvalidBatchSize",
      "type": "error"
    },
    {
      "inputs": [
        {
          "internalType": "uint256",
          "name": "provided",
          "type": "uint256"
        },
        {
          "internalType": "uint256",
          "name": "minimum",
          "type": "uint256"
        }
      ],
      "name": "InvalidDuration",
      "type": "error"
    },
    {
      "inputs": [
        {
          "internalType": "uint256",
          "name": "provided",
          "type": "uint256"
        },
        {
          "internalType": "uint256",
          "name": "minimum",
          "type": "uint256"
        },
        {
          "internalType": "uint256",
          "name": "maximum",
          "type": "uint256"
        }
      ],
      "name": "InvalidMaxAmount",
      "type": "error"
    },
    {
      "inputs": [],
      "name": "PredicateClient_IsRateLimited",
      "type": "error"
    },
    {
      "inputs": [],
      "name": "RateLimiter_InvalidToken",
      "type": "error"
    },
    {
      "inputs": [
        {
          "internalType": "address",
          "name": "token",
          "type": "address"
        }
      ],
      "name": "TokenNotSupported",
      "type": "error"
    },
    {
      "anonymous": false,
      "inputs": [
        {
          "indexed": true,
          "internalType": "address",
          "name": "previousOwner",
          "type": "address"
        },
        {
          "indexed": true,
          "internalType": "address",
          "name": "newOwner",
          "type": "address"
        }
      ],
      "name": "OwnershipTransferred",
      "type": "event"
    },
    {
      "anonymous": false,
      "inputs": [
        {
          "indexed": true,
          "internalType": "address",
          "name": "user",
          "type": "address"
        },
        {
          "indexed": false,
          "internalType": "address",
          "name": "token",
          "type": "address"
        },
        {
          "indexed": false,
          "internalType": "uint256",
          "name": "amount",
          "type": "uint256"
        },
        {
          "indexed": false,
          "internalType": "uint256",
          "name": "limit",
          "type": "uint256"
        }
      ],
      "name": "RateLimitExceeded",
      "type": "event"
    },
    {
      "anonymous": false,
      "inputs": [
        {
          "indexed": false,
          "internalType": "uint256",
          "name": "maxAmount",
          "type": "uint256"
        },
        {
          "indexed": false,
          "internalType": "uint256",
          "name": "duration",
          "type": "uint256"
        },
        {
          "indexed": false,
          "internalType": "uint64",
          "name": "batchSize",
          "type": "uint64"
        }
      ],
      "name": "RateLimitParamsUpdated",
      "type": "event"
    },
    {
      "anonymous": false,
      "inputs": [
        {
          "indexed": true,
          "internalType": "address",
          "name": "_from",
          "type": "address"
        },
        {
          "indexed": true,
          "internalType": "address",
          "name": "_to",
          "type": "address"
        },
        {
          "indexed": false,
          "internalType": "uint256",
          "name": "_value",
          "type": "uint256"
        }
      ],
      "name": "Transfer",
      "type": "event"
    },
    {
      "inputs": [
        {
          "internalType": "address",
          "name": "",
          "type": "address"
        }
      ],
      "name": "balances",
      "outputs": [
        {
          "internalType": "uint256",
          "name": "",
          "type": "uint256"
        }
      ],
      "stateMutability": "view",
      "type": "function"
    },
    {
      "inputs": [
        {
          "internalType": "address",
          "name": "",
          "type": "address"
        }
      ],
      "name": "bypassRateLimit",
      "outputs": [
        {
          "internalType": "bool",
          "name": "",
          "type": "bool"
        }
      ],
      "stateMutability": "view",
      "type": "function"
    },
    {
      "inputs": [
        {
          "internalType": "address",
          "name": "sender",
          "type": "address"
        },
        {
          "internalType": "address",
          "name": "token",
          "type": "address"
        },
        {
          "internalType": "uint256",
          "name": "amount",
          "type": "uint256"
        }
      ],
      "name": "checkIfLimitExceeds",
      "outputs": [
        {
          "internalType": "bool",
          "name": "",
          "type": "bool"
        },
        {
          "internalType": "uint256",
          "name": "",
          "type": "uint256"
        }
      ],
      "stateMutability": "view",
      "type": "function"
    },
    {
      "inputs": [],
      "name": "disableRateLimiter",
      "outputs": [],
      "stateMutability": "nonpayable",
      "type": "function"
    },
    {
      "inputs": [],
      "name": "enableRateLimiter",
      "outputs": [],
      "stateMutability": "nonpayable",
      "type": "function"
    },
    {
      "inputs": [
        {
          "internalType": "address",
          "name": "token",
          "type": "address"
        },
        {
          "internalType": "uint256",
          "name": "amount",
          "type": "uint256"
        }
      ],
      "name": "evaluateRateLimit",
      "outputs": [
        {
          "internalType": "bool",
          "name": "",
          "type": "bool"
        }
      ],
      "stateMutability": "nonpayable",
      "type": "function"
    },
    {
      "inputs": [
        {
          "internalType": "address",
          "name": "addr",
          "type": "address"
        }
      ],
      "name": "getBalance",
      "outputs": [
        {
          "internalType": "uint256",
          "name": "",
          "type": "uint256"
        }
      ],
      "stateMutability": "view",
      "type": "function"
    },
    {
      "inputs": [],
      "name": "getRateLimitParams",
      "outputs": [
        {
          "components": [
            {
              "internalType": "uint256",
              "name": "maxAmount",
              "type": "uint256"
            },
            {
              "internalType": "uint256",
              "name": "duration",
              "type": "uint256"
            },
            {
              "internalType": "uint64",
              "name": "batchSize",
              "type": "uint64"
            }
          ],
          "internalType": "struct RateLimitParams",
          "name": "",
          "type": "tuple"
        }
      ],
      "stateMutability": "view",
      "type": "function"
    },
    {
      "inputs": [
        {
          "internalType": "address",
          "name": "user",
          "type": "address"
        }
      ],
      "name": "getTxBatchAtPtr",
      "outputs": [
        {
          "internalType": "uint256",
          "name": "amount",
          "type": "uint256"
        },
        {
          "internalType": "uint256",
          "name": "startBlockNumber",
          "type": "uint256"
        },
        {
          "internalType": "uint256",
          "name": "endBlockNumber",
          "type": "uint256"
        }
      ],
      "stateMutability": "view",
      "type": "function"
    },
    {
      "inputs": [
        {
          "internalType": "address",
          "name": "user",
          "type": "address"
        }
      ],
      "name": "getTxHistory",
      "outputs": [
        {
          "components": [
            {
              "internalType": "uint256",
              "name": "total",
              "type": "uint256"
            },
            {
              "internalType": "uint256",
              "name": "ptr",
              "type": "uint256"
            },
            {
              "components": [
                {
                  "internalType": "uint256",
                  "name": "amount",
                  "type": "uint256"
                },
                {
                  "internalType": "uint256",
                  "name": "startBlockNumber",
                  "type": "uint256"
                },
                {
                  "internalType": "uint256",
                  "name": "endBlockNumber",
                  "type": "uint256"
                }
              ],
              "internalType": "struct TxBatch[]",
              "name": "txBatches",
              "type": "tuple[]"
            }
          ],
          "internalType": "struct TxHistory",
          "name": "",
          "type": "tuple"
        }
      ],
      "stateMutability": "view",
      "type": "function"
    },
    {
      "inputs": [],
      "name": "isRateLimiterEnabled",
      "outputs": [
        {
          "internalType": "bool",
          "name": "",
          "type": "bool"
        }
      ],
      "stateMutability": "view",
      "type": "function"
    },
    {
      "inputs": [],
      "name": "owner",
      "outputs": [
        {
          "internalType": "address",
          "name": "",
          "type": "address"
        }
      ],
      "stateMutability": "view",
      "type": "function"
    },
    {
      "inputs": [],
      "name": "priceOracle",
      "outputs": [
        {
          "internalType": "contract IPriceAggregator",
          "name": "",
          "type": "address"
        }
      ],
      "stateMutability": "view",
      "type": "function"
    },
    {
      "inputs": [],
      "name": "rateLimitParams",
      "outputs": [
        {
          "internalType": "uint256",
          "name": "maxAmount",
          "type": "uint256"
        },
        {
          "internalType": "uint256",
          "name": "duration",
          "type": "uint256"
        },
        {
          "internalType": "uint64",
          "name": "batchSize",
          "type": "uint64"
        }
      ],
      "stateMutability": "view",
      "type": "function"
    },
    {
      "inputs": [
        {
          "internalType": "address",
          "name": "user",
          "type": "address"
        }
      ],
      "name": "removeRateLimitBypass",
      "outputs": [],
      "stateMutability": "nonpayable",
      "type": "function"
    },
    {
      "inputs": [],
      "name": "renounceOwnership",
      "outputs": [],
      "stateMutability": "nonpayable",
      "type": "function"
    },
    {
      "inputs": [
        {
          "internalType": "address",
          "name": "receiver",
          "type": "address"
        },
        {
          "internalType": "uint256",
          "name": "amount",
          "type": "uint256"
        }
      ],
      "name": "sendCoin",
      "outputs": [],
      "stateMutability": "nonpayable",
      "type": "function"
    },
    {
      "inputs": [
        {
          "internalType": "address",
          "name": "_priceOracle",
          "type": "address"
        }
      ],
      "name": "setPriceOracle",
      "outputs": [],
      "stateMutability": "nonpayable",
      "type": "function"
    },
    {
      "inputs": [
        {
          "internalType": "address",
          "name": "user",
          "type": "address"
        }
      ],
      "name": "setRateLimitBypass",
      "outputs": [],
      "stateMutability": "nonpayable",
      "type": "function"
    },
    {
      "inputs": [
        {
          "components": [
            {
              "internalType": "uint256",
              "name": "maxAmount",
              "type": "uint256"
            },
            {
              "internalType": "uint256",
              "name": "duration",
              "type": "uint256"
            },
            {
              "internalType": "uint64",
              "name": "batchSize",
              "type": "uint64"
            }
          ],
          "internalType": "struct RateLimitParams",
          "name": "params",
          "type": "tuple"
        }
      ],
      "name": "setRateLimitParams",
      "outputs": [],
      "stateMutability": "nonpayable",
      "type": "function"
    },
    {
      "inputs": [
        {
          "internalType": "address",
          "name": "newOwner",
          "type": "address"
        }
      ],
      "name": "transferOwnership",
      "outputs": [],
      "stateMutability": "nonpayable",
      "type": "function"
    },
    {
      "inputs": [
        {
          "internalType": "address",
          "name": "",
          "type": "address"
        }
      ],
      "name": "txHistory",
      "outputs": [
        {
          "internalType": "uint256",
          "name": "total",
          "type": "uint256"
        },
        {
          "internalType": "uint256",
          "name": "ptr",
          "type": "uint256"
        }
      ],
      "stateMutability": "view",
      "type": "function"
    }
  ],
  "bytecode": "0x608060405234801561001057600080fd5b5061001a33610037565b3360009081526008602052604090206509184e72a0009055610087565b600080546001600160a01b038381166001600160a01b0319831681178455604051919092169283917f8be0079c531659141344cd1fd0a4f28419497f9722a3daafe3b4186f6b6457e09190a35050565b61199e806100966000396000f3fe608060405234801561001057600080fd5b50600436106101625760003560e01c80638da5cb5b116100c8578063c47f1ac31161008c578063ed5f43b711610066578063ed5f43b714610354578063f2fde38b14610377578063f8b2cb4f1461038a57600080fd5b8063c47f1ac314610326578063c60c06461461032e578063daf42d6c1461034157600080fd5b80638da5cb5b146102bc57806390b98a11146102d5578063a8ca8964146102e8578063b4959985146102fd578063b74437a51461031e57600080fd5b80632e6c02e31161012a578063530e784f11610104578063530e784f146102815780637012b1d414610294578063715018a6146102b457600080fd5b80632e6c02e3146102295780632f53036e14610254578063344354121461026e57600080fd5b80630a6d4d5814610167578063112f6a31146101a55780632630c12f146101c757806327e235e3146101e7578063286df6b714610214575b600080fd5b61018e6101753660046111d2565b6001602081905260009182526040909120805491015482565b60405161019c9291906111fb565b60405180910390f35b6101b86101b33660046111d2565b6103b3565b60405161019c9392919061121d565b6007546101da906001600160a01b031681565b60405161019c9190611287565b6102076101f53660046111d2565b60086020526000908152604090205481565b60405161019c9190611295565b6102276102223660046111d2565b6104a7565b005b60045460055460065461024592919067ffffffffffffffff1683565b60405161019c939291906112b3565b6003546102619060ff1681565b60405161019c91906112e3565b61026161027c366004611302565b6104d3565b61022761028f3660046111d2565b6104e8565b6102a76102a23660046111d2565b610512565b60405161019c9190611421565b6102276105e6565b6000546001600160a01b031660405161019c919061143b565b6102276102e3366004611302565b6105fa565b6102f0610695565b60405161019c9190611480565b61031061030b36600461148e565b6106f2565b60405161019c9291906114de565b6102276107ee565b610227610802565b61022761033c3660046111d2565b610819565b61022761034f366004611507565b610842565b6102616103623660046111d2565b60026020526000908152604090205460ff1681565b6102276103853660046111d2565b61097a565b6102076103983660046111d2565b6001600160a01b031660009081526008602052604090205490565b6001600160a01b0381166000908152600160208181526040808420815160608101835281548152938101548484015260028101805483518186028101860185528181528796879687969195949186019390879084015b828210156104595783829060005260206000209060030201604051806060016040529081600082015481526020016001820154815260200160028201548152505081526020019060010190610409565b505050508152505090506000816040015182602001518151811061047f5761047f611528565b6020026020010151905080600001518160200151826040015194509450945050509193909250565b6104af6109b4565b6001600160a01b03166000908152600260205260409020805460ff19166001179055565b60006104df83836109de565b90505b92915050565b6104f06109b4565b600780546001600160a01b0319166001600160a01b0392909216919091179055565b61053660405180606001604052806000815260200160008152602001606081525090565b6001600160a01b03821660009081526001602081815260408084208151606081018352815481529381015484840152600281018054835181860281018601855281815295969295938701949192909184015b828210156105d85783829060005260206000209060030201604051806060016040529081600082015481526020016001820154815260200160028201548152505081526020019060010190610588565b505050915250909392505050565b6105ee6109b4565b6105f86000610b3f565b565b604051631a21aa0960e11b8152309063344354129061061f908390859060040161153e565b6020604051808303816000875af115801561063e573d6000803e3d6000fd5b505050506040513d601f19601f82011682018060405250810190610662919061155f565b6106875760405162461bcd60e51b815260040161067e906115ca565b60405180910390fd5b6106918282610b8f565b5050565b6106c360405180606001604052806000815260200160008152602001600067ffffffffffffffff1681525090565b50604080516060810182526004548152600554602082015260065467ffffffffffffffff169181019190915290565b6000808061071b610705600660126115f0565b61071090600a61170c565b8590620f4240610c6d565b60075460405163449e815d60e01b81529192506000916107a6916001600160a01b03169063449e815d90610755908a908a9060040161153e565b602060405180830381865afa158015610772573d6000803e3d6000fd5b505050506040513d601f19601f820116820180604052508101906107969190611726565b8390670de0b6b3a7640000610c6d565b905060006107d16107b9600660126115f0565b6107c490600a61170c565b60045490620f4240610c6d565b90506107df88888484610c8b565b94509450505050935093915050565b6107f66109b4565b6003805460ff19169055565b61080a6109b4565b6003805460ff19166001179055565b6108216109b4565b6001600160a01b03166000908152600260205260409020805460ff19169055565b61084a6109b4565b620f424081351080610861575064e8d4a510008135115b1561088e57604051638b39eb3360e01b815261067e90823590620f42409064e8d4a510009060040161121d565b6001816020013510156108bd578060200135600160405163387a058b60e01b815260040161067e9291906111fb565b60016108cf6060830160408401611762565b67ffffffffffffffff16101561090c576108ef6060820160408301611762565b6001604051630161019760e01b815260040161067e929190611783565b8060046109198282611890565b50506003805460ff191660011790557fdf1f77551f6fd65be59ba5210e34eba28a083b1e076a140cd029c3b0794d574f813560208301356109606060850160408601611762565b60405161096f939291906112b3565b60405180910390a150565b6109826109b4565b6001600160a01b0381166109a85760405162461bcd60e51b815260040161067e906118dd565b6109b181610b3f565b50565b6000546001600160a01b031633146105f85760405162461bcd60e51b815260040161067e906118ed565b600080610a066109f0600660126115f0565b6109fb90600a61170c565b8490620f4240610c6d565b60075460405163449e815d60e01b81529192506000916001600160a01b039091169063449e815d90610a3e908890889060040161153e565b602060405180830381865afa158015610a5b573d6000803e3d6000fd5b505050506040513d601f19601f82011682018060405250810190610a7f9190611726565b90506000610a968383670de0b6b3a7640000610c6d565b90506000610aa96107b9600660126115f0565b90506000610ab933898585610c8b565b5090508015610b105760045460405133917f96ee157935beeecc933fc961702863de200aee2402989dd02d2625aa5aa7333691610afa918c918c9190611927565b60405180910390a26000955050505050506104e2565b6000610b1b43610d6b565b9050610b2681610d91565b610b304385610e3d565b50600198975050505050505050565b600080546001600160a01b038381166001600160a01b0319831681178455604051919092169283917f8be0079c531659141344cd1fd0a4f28419497f9722a3daafe3b4186f6b6457e09190a35050565b33600090815260086020526040902054811115610bd357336000818152600860205260409081902054905163db42144d60e01b815261067e92918491600401611927565b3360009081526008602052604081208054839290610bf29084906115f0565b90915550506001600160a01b03821660009081526008602052604081208054839290610c1f908490611935565b90915550506040516001600160a01b0383169033907fddf252ad1be2c89b69c2b068fc378daa952ba7f163c4a11628f55a4df523b3ef90610c61908590611295565b60405180910390a35050565b6000826000190484118302158202610c8457600080fd5b5091020490565b6007546040516375151b6360e01b815260009182916001600160a01b03909116906375151b6390610cc090889060040161143b565b602060405180830381865afa158015610cdd573d6000803e3d6000fd5b505050506040513d601f19601f82011682018060405250810190610d01919061155f565b610d2057846040516306439c6b60e01b815260040161067e919061143b565b6000610d2b43610d6b565b90506000610d398883610e75565b90506000610d4989838989610fc2565b90506000610d598a848a8a61102b565b95509093505050505b94509492505050565b6005546000908210610d8957600554610d8490836115f0565b6104e2565b600092915050565b3360009081526001602081905260409091208054918101549091905b600283015481108015610de6575083836002018281548110610dd157610dd1611528565b90600052602060002090600302016002015411155b15610e3157826002018181548110610e0057610e00611528565b90600052602060002090600302016000015482610e1d91906115f0565b915080610e298161194d565b915050610dad565b90825560019091015550565b336000908152600160205260409020610e568184611064565b15610e6a57610e6581836110b3565b505050565b610e6581848461111a565b6001600160a01b038216600090815260016020818152604080842081516060810183528154815293810154848401526002810180548351818602810186018552818152879695939486019390929190879084015b82821015610f195783829060005260206000209060030201604051806060016040529081600082015481526020016001820154815260200160028201548152505081526020019060010190610ec9565b50505091525050604081015151909150610f375760009150506104e2565b805160208201515b82604001515181108015610f7357508483604001518281518110610f6557610f65611528565b602002602001015160400151105b15610fb95782604001518181518110610f8e57610f8e611528565b60200260200101516000015182610fa591906115f0565b915080610fb18161194d565b915050610f3f565b50949350505050565b6001600160a01b03841660009081526002602052604081205460ff1615610fea575080611023565b81610ff58486611935565b11611016578261100585846115f0565b61100f91906115f0565b9050611023565b61102084836115f0565b90505b949350505050565b6001600160a01b03841660009081526002602052604081205460ff1615801561102057508161105a8486611935565b1195945050505050565b6002820154600090158015906104df5750600283018054611087906001906115f0565b8154811061109757611097611528565b9060005260206000209060030201600201548210905092915050565b6002820180548291906110c8906001906115f0565b815481106110d8576110d8611528565b906000526020600020906003020160000160008282546110f89190611935565b9091555050815481908390600090611111908490611935565b90915550505050565b604080516060810182528281526020810184905260065460009282019061114b9067ffffffffffffffff1686611935565b9052600280860180546001818101835560009283526020808420865160039094020192835585015190820155604084015192019190915585549192508391869190611197908490611935565b909155505050505050565b60006001600160a01b0382166104e2565b6111bc816111a2565b81146109b157600080fd5b80356104e2816111b3565b6000602082840312156111e7576111e7600080fd5b600061102384846111c7565b805b82525050565b6040810161120982856111f3565b61121660208301846111f3565b9392505050565b6060810161122b82866111f3565b61123860208301856111f3565b61102360408301846111f3565b60006104e26001600160a01b03831661125c565b90565b6001600160a01b031690565b60006104e282611245565b60006104e282611268565b6111f581611273565b602081016104e2828461127e565b602081016104e282846111f3565b67ffffffffffffffff81166111f5565b606081016112c182866111f3565b6112ce60208301856111f3565b61102360408301846112a3565b8015156111f5565b602081016104e282846112db565b806111bc565b80356104e2816112f1565b6000806040838503121561131857611318600080fd5b600061132485856111c7565b9250506020611335858286016112f7565b9150509250929050565b8051606083019061135084826111f3565b50602082015161136360208501826111f3565b50604082015161137660408501826111f3565b50505050565b6000611388838361133f565b505060600190565b600061139a825190565b80845260209384019383018060005b838110156113ce5781516113bd888261137c565b9750602083019250506001016113a9565b509495945050505050565b805160009060608401906113ed85826111f3565b50602083015161140060208601826111f3565b50604083015184820360408601526114188282611390565b95945050505050565b602080825281016104df81846113d9565b6111f5816111a2565b602081016104e28284611432565b8051606083019061145a84826111f3565b50602082015161146d60208501826111f3565b50604082015161137660408501826112a3565b606081016104e28284611449565b6000806000606084860312156114a6576114a6600080fd5b60006114b286866111c7565b93505060206114c3868287016111c7565b92505060406114d4868287016112f7565b9150509250925092565b6040810161120982856112db565b60006060828403121561150157611501600080fd5b50919050565b60006060828403121561151c5761151c600080fd5b600061102384846114ec565b634e487b7160e01b600052603260045260246000fd5b604081016112098285611432565b8015156111bc565b80516104e28161154c565b60006020828403121561157457611574600080fd5b60006110238484611554565b602a81526000602082017f4d657461436f696e57697468526174654c696d69743a2072617465206c696d698152691d08195e18d95959195960b21b602082015291505b5060400190565b602080825281016104e281611580565b634e487b7160e01b600052601160045260246000fd5b600082821015611602576116026115da565b500390565b80825b6001851115610d6257808604811115611625576116256115da565b600185161561163357908102905b800261163f8560011c90565b945061160a565b60008261165557506001611216565b8161166257506000611216565b81600181146116785760028114611682576116af565b6001915050611216565b60ff841115611693576116936115da565b8360020a9150848211156116a9576116a96115da565b50611216565b5060208310610133831016604e8410600b84101617156116e2575081810a838111156116dd576116dd6115da565b611216565b6116ef8484846001611607565b92509050818404811115611705576117056115da565b0292915050565b60006104df6000198484611646565b80516104e2816112f1565b60006020828403121561173b5761173b600080fd5b6000611023848461171b565b67ffffffffffffffff81166111bc565b80356104e281611747565b60006020828403121561177757611777600080fd5b60006110238484611757565b6040810161179182856112a3565b61121660208301846112a3565b600081356104e2816112f1565b6000600019835b81169019929092169190911792915050565b60006104e26112598381565b6117d9826117c4565b6117e48183546117ab565b8255505050565b600081356104e281611747565b600067ffffffffffffffff836117b2565b600067ffffffffffffffff82166104e2565b61182482611809565b6117e48183546117f8565b80828061183b8161179e565b905061184781846117d0565b50505060018101602083018061185c8161179e565b905061186881846117d0565b50505060028101604083018061187d816117eb565b9050611889818461181b565b5050505050565b610691828261182f565b602681526000602082017f4f776e61626c653a206e6577206f776e657220697320746865207a65726f206181526564647265737360d01b602082015291506115c3565b602080825281016104e28161189a565b60208082528181019081527f4f776e61626c653a2063616c6c6572206973206e6f7420746865206f776e65726040830152606082016104e2565b6060810161122b8286611432565b60008219821115611948576119486115da565b500190565b6000600019821415611961576119616115da565b506001019056fea264697066735822122009bc0fb58065228dcb8318f87914161cc0abea8f99cbd7e99b45028b9d57e3a664736f6c634300080c0033",
  "linkReferences": {},
  "deployedLinkReferences": {}
}