{"abi":[{"type":"function","name":"bypassRateLimit","inputs":[{"name":"","type":"address","internalType":"address"}],"outputs":[{"name":"","type":"bool","internalType":"bool"}],"stateMutability":"view"},{"type":"function","name":"checkIfLimitExceeds","inputs":[{"name":"sender","type":"address","internalType":"address"},{"name":"tokenID","type":"string","internalType":"string"},{"name":"amount","type":"uint256","internalType":"uint256"}],"outputs":[{"name":"","type":"bool","internalType":"bool"},{"name":"","type":"uint256","internalType":"uint256"}],"stateMutability":"view"},{"type":"function","name":"disableRateLimiter","inputs":[],"outputs":[],"stateMutability":"nonpayable"},{"type":"function","name":"enableRateLimiter","inputs":[],"outputs":[],"stateMutability":"nonpayable"},{"type":"function","name":"evaluateRateLimit","inputs":[{"name":"tokenID","type":"string","internalType":"string"},{"name":"amount","type":"uint256","internalType":"uint256"}],"outputs":[{"name":"","type":"bool","internalType":"bool"}],"stateMutability":"nonpayable"},{"type":"function","name":"getRateLimitParams","inputs":[],"outputs":[{"name":"","type":"tuple","internalType":"struct RateLimitParams","components":[{"name":"maxAmount","type":"uint256","internalType":"uint256"},{"name":"duration","type":"uint256","internalType":"uint256"},{"name":"batchSize","type":"uint64","internalType":"uint64"}]}],"stateMutability":"view"},{"type":"function","name":"getTxBatchAtPtr","inputs":[{"name":"user","type":"address","internalType":"address"}],"outputs":[{"name":"amount","type":"uint256","internalType":"uint256"},{"name":"startBlockNumber","type":"uint256","internalType":"uint256"},{"name":"endBlockNumber","type":"uint256","internalType":"uint256"}],"stateMutability":"view"},{"type":"function","name":"getTxHistory","inputs":[{"name":"user","type":"address","internalType":"address"}],"outputs":[{"name":"","type":"tuple","internalType":"struct TxHistory","components":[{"name":"total","type":"uint256","internalType":"uint256"},{"name":"ptr","type":"uint256","internalType":"uint256"},{"name":"txBatches","type":"tuple[]","internalType":"struct TxBatch[]","components":[{"name":"amount","type":"uint256","internalType":"uint256"},{"name":"startBlockNumber","type":"uint256","internalType":"uint256"},{"name":"endBlockNumber","type":"uint256","internalType":"uint256"}]}]}],"stateMutability":"view"},{"type":"function","name":"isRateLimiterEnabled","inputs":[],"outputs":[{"name":"","type":"bool","internalType":"bool"}],"stateMutability":"view"},{"type":"function","name":"owner","inputs":[],"outputs":[{"name":"","type":"address","internalType":"address"}],"stateMutability":"view"},{"type":"function","name":"priceOracle","inputs":[],"outputs":[{"name":"","type":"address","internalType":"contract IPriceAggregator"}],"stateMutability":"view"},{"type":"function","name":"rateLimitParams","inputs":[],"outputs":[{"name":"maxAmount","type":"uint256","internalType":"uint256"},{"name":"duration","type":"uint256","internalType":"uint256"},{"name":"batchSize","type":"uint64","internalType":"uint64"}],"stateMutability":"view"},{"type":"function","name":"removeRateLimitBypass","inputs":[{"name":"user","type":"address","internalType":"address"}],"outputs":[],"stateMutability":"nonpayable"},{"type":"function","name":"renounceOwnership","inputs":[],"outputs":[],"stateMutability":"nonpayable"},{"type":"function","name":"setPriceOracle","inputs":[{"name":"_priceOracle","type":"address","internalType":"address"}],"outputs":[],"stateMutability":"nonpayable"},{"type":"function","name":"setRateLimitBypass","inputs":[{"name":"user","type":"address","internalType":"address"}],"outputs":[],"stateMutability":"nonpayable"},{"type":"function","name":"setRateLimitParams","inputs":[{"name":"params","type":"tuple","internalType":"struct RateLimitParams","components":[{"name":"maxAmount","type":"uint256","internalType":"uint256"},{"name":"duration","type":"uint256","internalType":"uint256"},{"name":"batchSize","type":"uint64","internalType":"uint64"}]}],"outputs":[],"stateMutability":"nonpayable"},{"type":"function","name":"transferOwnership","inputs":[{"name":"newOwner","type":"address","internalType":"address"}],"outputs":[],"stateMutability":"nonpayable"},{"type":"function","name":"txHistory","inputs":[{"name":"","type":"address","internalType":"address"}],"outputs":[{"name":"total","type":"uint256","internalType":"uint256"},{"name":"ptr","type":"uint256","internalType":"uint256"}],"stateMutability":"view"},{"type":"event","name":"OwnershipTransferred","inputs":[{"name":"previousOwner","type":"address","indexed":true,"internalType":"address"},{"name":"newOwner","type":"address","indexed":true,"internalType":"address"}],"anonymous":false},{"type":"event","name":"RateLimitExceeded","inputs":[{"name":"user","type":"address","indexed":true,"internalType":"address"},{"name":"token","type":"string","indexed":false,"internalType":"string"},{"name":"amount","type":"uint256","indexed":false,"internalType":"uint256"},{"name":"limit","type":"uint256","indexed":false,"internalType":"uint256"}],"anonymous":false},{"type":"event","name":"RateLimitParamsUpdated","inputs":[{"name":"maxAmount","type":"uint256","indexed":false,"internalType":"uint256"},{"name":"duration","type":"uint256","indexed":false,"internalType":"uint256"},{"name":"batchSize","type":"uint64","indexed":false,"internalType":"uint64"}],"anonymous":false},{"type":"error","name":"InvalidBatchSize","inputs":[{"name":"provided","type":"uint64","internalType":"uint64"},{"name":"minimum","type":"uint64","internalType":"uint64"}]},{"type":"error","name":"InvalidDuration","inputs":[{"name":"provided","type":"uint256","internalType":"uint256"},{"name":"minimum","type":"uint256","internalType":"uint256"}]},{"type":"error","name":"InvalidMaxAmount","inputs":[{"name":"provided","type":"uint256","internalType":"uint256"},{"name":"minimum","type":"uint256","internalType":"uint256"},{"name":"maximum","type":"uint256","internalType":"uint256"}]},{"type":"error","name":"PredicateClient_IsRateLimited","inputs":[]},{"type":"error","name":"RateLimiter_InvalidToken","inputs":[]},{"type":"error","name":"TokenNotSupported","inputs":[{"name":"token","type":"string","internalType":"string"}]}],"bytecode":{"object":"0x608060405234801561001057600080fd5b5061001a3361001f565b61006f565b600080546001600160a01b038381166001600160a01b0319831681178455604051919092169283917f8be0079c531659141344cd1fd0a4f28419497f9722a3daafe3b4186f6b6457e09190a35050565b6115628061007e6000396000f3fe608060405234801561001057600080fd5b50600436106101215760003560e01c80637012b1d4116100ad578063c47f1ac311610071578063c47f1ac3146102f5578063c60c0646146102fd578063daf42d6c14610310578063ed5f43b714610323578063f2fde38b1461034657600080fd5b80637012b1d414610281578063715018a6146102a15780638da5cb5b146102a9578063a8ca8964146102ba578063b74437a5146102ed57600080fd5b80632cc5b108116100f45780632cc5b108146101d55780632e6c02e3146101ff5780632f53036e1461023e578063530e784f1461025b5780635e89c3f41461026e57600080fd5b80630a6d4d5814610126578063112f6a31146101675780632630c12f14610195578063286df6b7146101c0575b600080fd5b61014d6101343660046110f5565b6001602081905260009182526040909120805491015482565b604080519283526020830191909152015b60405180910390f35b61017a6101753660046110f5565b610359565b6040805193845260208401929092529082015260600161015e565b6007546101a8906001600160a01b031681565b6040516001600160a01b03909116815260200161015e565b6101d36101ce3660046110f5565b61044d565b005b6101e86101e3366004611158565b610479565b60408051921515835260208301919091520161015e565b60045460055460065461021a9291906001600160401b031683565b6040805193845260208401929092526001600160401b03169082015260600161015e565b60035461024b9060ff1681565b604051901515815260200161015e565b6101d36102693660046110f5565b610579565b61024b61027c3660046111b1565b6105a3565b61029461028f3660046110f5565b610781565b60405161015e91906111fc565b6101d3610855565b6000546001600160a01b03166101a8565b6102c2610869565b604080518251815260208084015190820152918101516001600160401b03169082015260600161015e565b6101d36108c4565b6101d36108d8565b6101d361030b3660046110f5565b6108ef565b6101d361031e366004611279565b610918565b61024b6103313660046110f5565b60026020526000908152604090205460ff1681565b6101d36103543660046110f5565b610a7f565b6001600160a01b0381166000908152600160208181526040808420815160608101835281548152938101548484015260028101805483518186028101860185528181528796879687969195949186019390879084015b828210156103ff57838290600052602060002090600302016040518060600160405290816000820154815260200160018201548152602001600282015481525050815260200190600101906103af565b505050508152505090506000816040015182602001518151811061042557610425611291565b6020026020010151905080600001518160200151826040015194509450945050509193909250565b610455610af8565b6001600160a01b03166000908152600260205260409020805460ff19166001179055565b600080806104a261048c600660126112bd565b61049790600a6113b8565b8590620f4240610b52565b600754604051630bbceb3360e21b815291925060009161052f916001600160a01b031690632ef3accc906104de908b908b908b906004016113ed565b602060405180830381865afa1580156104fb573d6000803e3d6000fd5b505050506040513d601f19601f8201168201806040525081019061051f9190611411565b8390670de0b6b3a7640000610b52565b9050600061055a610542600660126112bd565b61054d90600a6113b8565b60045490620f4240610b52565b90506105698989898585610b70565b9450945050505094509492505050565b610581610af8565b600780546001600160a01b0319166001600160a01b0392909216919091179055565b6000806105cb6105b5600660126112bd565b6105c090600a6113b8565b8490620f4240610b52565b600754604051630bbceb3360e21b81529192506000916001600160a01b0390911690632ef3accc90610605908990899089906004016113ed565b602060405180830381865afa158015610622573d6000803e3d6000fd5b505050506040513d601f19601f820116820180604052508101906106469190611411565b600754604051630bbceb3360e21b81529192506000916106d3916001600160a01b031690632ef3accc90610682908b908b908b906004016113ed565b602060405180830381865afa15801561069f573d6000803e3d6000fd5b505050506040513d601f19601f820116820180604052508101906106c39190611411565b8490670de0b6b3a7640000610b52565b905060006106e6610542600660126112bd565b905060006106f7338a8a8686610b70565b509050801561074f5760045460405133917fe2274a8e4f5712295a052754df3513686fd79e6fe1e6dbdd609b8b0b1fbc133c91610739918d918d918d9161142a565b60405180910390a260009550505050505061077a565b600061075a43610c53565b905061076581610c7a565b61076f4385610d26565b600196505050505050505b9392505050565b6107a560405180606001604052806000815260200160008152602001606081525090565b6001600160a01b03821660009081526001602081815260408084208151606081018352815481529381015484840152600281018054835181860281018601855281815295969295938701949192909184015b8282101561084757838290600052602060002090600302016040518060600160405290816000820154815260200160018201548152602001600282015481525050815260200190600101906107f7565b505050915250909392505050565b61085d610af8565b6108676000610d5e565b565b6108966040518060600160405280600081526020016000815260200160006001600160401b031681525090565b5060408051606081018252600454815260055460208201526006546001600160401b03169181019190915290565b6108cc610af8565b6003805460ff19169055565b6108e0610af8565b6003805460ff19166001179055565b6108f7610af8565b6001600160a01b03166000908152600260205260409020805460ff19169055565b610920610af8565b620f424081351080610937575064e8d4a510008135115b1561097157604051638b39eb3360e01b815281356004820152620f4240602482015264e8d4a5100060448201526064015b60405180910390fd5b6001816020013510156109a45760405163387a058b60e01b81526020820135600482015260016024820152604401610968565b60016109b66060830160408401611466565b6001600160401b03161015610a01576109d56060820160408301611466565b604051630161019760e01b81526001600160401b03909116600482015260016024820152604401610968565b806004610a0e8282611483565b50506003805460ff191660011790557fdf1f77551f6fd65be59ba5210e34eba28a083b1e076a140cd029c3b0794d574f81356020830135610a556060850160408601611466565b6040805193845260208401929092526001600160401b03169082015260600160405180910390a150565b610a87610af8565b6001600160a01b038116610aec5760405162461bcd60e51b815260206004820152602660248201527f4f776e61626c653a206e6577206f776e657220697320746865207a65726f206160448201526564647265737360d01b6064820152608401610968565b610af581610d5e565b50565b6000546001600160a01b031633146108675760405162461bcd60e51b815260206004820181905260248201527f4f776e61626c653a2063616c6c6572206973206e6f7420746865206f776e65726044820152606401610968565b6000826000190484118302158202610b6957600080fd5b5091020490565b60075460405163034d94bb60e21b815260009182916001600160a01b0390911690630d3652ec90610ba790899089906004016114c3565b602060405180830381865afa158015610bc4573d6000803e3d6000fd5b505050506040513d601f19601f82011682018060405250810190610be891906114d7565b610c0957858560405163c16fc3ad60e01b81526004016109689291906114c3565b6000610c1443610c53565b90506000610c228983610dae565b90506000610c328a838989610efb565b90506000610c428b848a8a610f64565b9b919a509098505050505050505050565b6005546000908210610c7157600554610c6c90836112bd565b610c74565b60005b92915050565b3360009081526001602081905260409091208054918101549091905b600283015481108015610ccf575083836002018281548110610cba57610cba611291565b90600052602060002090600302016002015411155b15610d1a57826002018181548110610ce957610ce9611291565b90600052602060002090600302016000015482610d0691906112bd565b915080610d12816114f9565b915050610c96565b90825560019091015550565b336000908152600160205260409020610d3f8184610f9d565b15610d5357610d4e8183610feb565b505050565b610d4e818484611052565b600080546001600160a01b038381166001600160a01b0319831681178455604051919092169283917f8be0079c531659141344cd1fd0a4f28419497f9722a3daafe3b4186f6b6457e09190a35050565b6001600160a01b038216600090815260016020818152604080842081516060810183528154815293810154848401526002810180548351818602810186018552818152879695939486019390929190879084015b82821015610e525783829060005260206000209060030201604051806060016040529081600082015481526020016001820154815260200160028201548152505081526020019060010190610e02565b50505091525050604081015151909150610e70576000915050610c74565b805160208201515b82604001515181108015610eac57508483604001518281518110610e9e57610e9e611291565b602002602001015160400151105b15610ef25782604001518181518110610ec757610ec7611291565b60200260200101516000015182610ede91906112bd565b915080610eea816114f9565b915050610e78565b50949350505050565b6001600160a01b03841660009081526002602052604081205460ff1615610f23575080610f5c565b81610f2e8486611514565b11610f4f5782610f3e85846112bd565b610f4891906112bd565b9050610f5c565b610f5984836112bd565b90505b949350505050565b6001600160a01b03841660009081526002602052604081205460ff16158015610f59575081610f938486611514565b1195945050505050565b60028201546000901580159061077a5750600283018054610fc0906001906112bd565b81548110610fd057610fd0611291565b90600052602060002090600302016002015482109392505050565b600282018054829190611000906001906112bd565b8154811061101057611010611291565b906000526020600020906003020160000160008282546110309190611514565b9091555050815481908390600090611049908490611514565b90915550505050565b6040805160608101825282815260208101849052600654600092820190611082906001600160401b031686611514565b90526002808601805460018181018355600092835260208084208651600390940201928355850151908201556040840151920191909155855491925083918691906110ce908490611514565b909155505050505050565b80356001600160a01b03811681146110f057600080fd5b919050565b60006020828403121561110757600080fd5b61077a826110d9565b60008083601f84011261112257600080fd5b5081356001600160401b0381111561113957600080fd5b60208301915083602082850101111561115157600080fd5b9250929050565b6000806000806060858703121561116e57600080fd5b611177856110d9565b935060208501356001600160401b0381111561119257600080fd5b61119e87828801611110565b9598909750949560400135949350505050565b6000806000604084860312156111c657600080fd5b83356001600160401b038111156111dc57600080fd5b6111e886828701611110565b909790965060209590950135949350505050565b600060208083526080830184518285015281850151604081818701528087015191506060808188015283835180865260a0890191508685019550600094505b8085101561126c5785518051835287810151888401528401518483015294860194600194909401939082019061123b565b5098975050505050505050565b60006060828403121561128b57600080fd5b50919050565b634e487b7160e01b600052603260045260246000fd5b634e487b7160e01b600052601160045260246000fd5b6000828210156112cf576112cf6112a7565b500390565b600181815b8085111561130f5781600019048211156112f5576112f56112a7565b8085161561130257918102915b93841c93908002906112d9565b509250929050565b60008261132657506001610c74565b8161133357506000610c74565b816001811461134957600281146113535761136f565b6001915050610c74565b60ff841115611364576113646112a7565b50506001821b610c74565b5060208310610133831016604e8410600b8410161715611392575081810a610c74565b61139c83836112d4565b80600019048211156113b0576113b06112a7565b029392505050565b600061077a8383611317565b81835281816020850137506000828201602090810191909152601f909101601f19169091010190565b6040815260006114016040830185876113c4565b9050826020830152949350505050565b60006020828403121561142357600080fd5b5051919050565b60608152600061143e6060830186886113c4565b6020830194909452506040015292915050565b6001600160401b0381168114610af557600080fd5b60006020828403121561147857600080fd5b813561077a81611451565b81358155602082013560018201556002810160408301356114a381611451565b815467ffffffffffffffff19166001600160401b03919091161790555050565b602081526000610f5c6020830184866113c4565b6000602082840312156114e957600080fd5b8151801515811461077a57600080fd5b600060001982141561150d5761150d6112a7565b5060010190565b60008219821115611527576115276112a7565b50019056fea2646970667358221220f6bc29b1eaf024d6a92c84075e947401902d8bcef5c1efeaee15eeb82dce7e4e64736f6c634300080c0033","linkReferences":{}},"methodIdentifiers":{"bypassRateLimit(address)":"ed5f43b7","checkIfLimitExceeds(address,string,uint256)":"2cc5b108","disableRateLimiter()":"b74437a5","enableRateLimiter()":"c47f1ac3","evaluateRateLimit(string,uint256)":"5e89c3f4","getRateLimitParams()":"a8ca8964","getTxBatchAtPtr(address)":"112f6a31","getTxHistory(address)":"7012b1d4","isRateLimiterEnabled()":"2f53036e","owner()":"8da5cb5b","priceOracle()":"2630c12f","rateLimitParams()":"2e6c02e3","removeRateLimitBypass(address)":"c60c0646","renounceOwnership()":"715018a6","setPriceOracle(address)":"530e784f","setRateLimitBypass(address)":"286df6b7","setRateLimitParams((uint256,uint256,uint64))":"daf42d6c","transferOwnership(address)":"f2fde38b","txHistory(address)":"0a6d4d58"},"id":80}