{"abi":[{"type":"constructor","inputs":[{"name":"_owner","type":"address","internalType":"address"},{"name":"_weth","type":"address","internalType":"address"},{"name":"_usdc","type":"address","internalType":"address"},{"name":"_defaultTWAPPeriod","type":"uint256","internalType":"uint256"}],"stateMutability":"nonpayable"},{"type":"function","name":"USDC","inputs":[],"outputs":[{"name":"","type":"address","internalType":"address"}],"stateMutability":"view"},{"type":"function","name":"WETH","inputs":[],"outputs":[{"name":"","type":"address","internalType":"address"}],"stateMutability":"view"},{"type":"function","name":"assetToAsset","inputs":[{"name":"_tokenIn","type":"address","internalType":"address"},{"name":"_amountIn","type":"uint256","internalType":"uint256"},{"name":"_tokenOut","type":"address","internalType":"address"},{"name":"_twapPeriod","type":"uint256","internalType":"uint256"}],"outputs":[{"name":"amountOut","type":"uint256","internalType":"uint256"}],"stateMutability":"view"},{"type":"function","name":"assetToEth","inputs":[{"name":"_tokenIn","type":"address","internalType":"address"},{"name":"_amountIn","type":"uint256","internalType":"uint256"},{"name":"_twapPeriod","type":"uint256","internalType":"uint256"}],"outputs":[{"name":"ethAmountOut","type":"uint256","internalType":"uint256"}],"stateMutability":"view"},{"type":"function","name":"defaultTWAPPeriod","inputs":[],"outputs":[{"name":"","type":"uint256","internalType":"uint256"}],"stateMutability":"view"},{"type":"function","name":"ethToAsset","inputs":[{"name":"_ethAmountIn","type":"uint256","internalType":"uint256"},{"name":"_tokenOut","type":"address","internalType":"address"},{"name":"_twapPeriod","type":"uint256","internalType":"uint256"}],"outputs":[{"name":"amountOut","type":"uint256","internalType":"uint256"}],"stateMutability":"view"},{"type":"function","name":"fetchCurrentTicks","inputs":[{"name":"_pool","type":"address","internalType":"address"},{"name":"_twapPeriod","type":"uint32","internalType":"uint32"}],"outputs":[{"name":"spotTick","type":"int24","internalType":"int24"},{"name":"twapTick","type":"int24","internalType":"int24"}],"stateMutability":"view"},{"type":"function","name":"getPoolForRoute","inputs":[{"name":"_tokenA","type":"address","internalType":"address"},{"name":"_tokenB","type":"address","internalType":"address"}],"outputs":[{"name":"pool","type":"address","internalType":"address"}],"stateMutability":"view"},{"type":"function","name":"getPrice","inputs":[{"name":"_tokenID","type":"string","internalType":"string"},{"name":"amountIn","type":"uint256","internalType":"uint256"}],"outputs":[{"name":"","type":"uint256","internalType":"uint256"}],"stateMutability":"view"},{"type":"function","name":"getQuoteAtTick","inputs":[{"name":"_tokenIn","type":"address","internalType":"address"},{"name":"_amountIn","type":"uint128","internalType":"uint128"},{"name":"_tokenOut","type":"address","internalType":"address"},{"name":"_tick","type":"int24","internalType":"int24"}],"outputs":[{"name":"amountOut","type":"uint256","internalType":"uint256"}],"stateMutability":"pure"},{"type":"function","name":"getQuoteCrossingTicksThroughWeth","inputs":[{"name":"_tokenIn","type":"address","internalType":"address"},{"name":"_amountIn","type":"uint128","internalType":"uint128"},{"name":"_tokenOut","type":"address","internalType":"address"},{"name":"_tick1","type":"int24","internalType":"int24"},{"name":"_tick2","type":"int24","internalType":"int24"}],"outputs":[{"name":"amountOut","type":"uint256","internalType":"uint256"}],"stateMutability":"view"},{"type":"function","name":"isTokenSupported","inputs":[{"name":"","type":"string","internalType":"string"}],"outputs":[{"name":"","type":"bool","internalType":"bool"}],"stateMutability":"view"},{"type":"function","name":"overriddenPoolForRoute","inputs":[{"name":"","type":"bytes32","internalType":"bytes32"}],"outputs":[{"name":"","type":"address","internalType":"address"}],"stateMutability":"view"},{"type":"function","name":"owner","inputs":[],"outputs":[{"name":"","type":"address","internalType":"address"}],"stateMutability":"view"},{"type":"function","name":"removeToken","inputs":[{"name":"_tokenID","type":"string","internalType":"string"}],"outputs":[],"stateMutability":"nonpayable"},{"type":"function","name":"renounceOwnership","inputs":[],"outputs":[],"stateMutability":"nonpayable"},{"type":"function","name":"setDefaultTWAPPeriod","inputs":[{"name":"_twapPeriod","type":"uint256","internalType":"uint256"}],"outputs":[],"stateMutability":"nonpayable"},{"type":"function","name":"setUSDCPoolForToken","inputs":[{"name":"_tokenA","type":"address","internalType":"address"},{"name":"_tokenID","type":"string","internalType":"string"},{"name":"_pool","type":"address","internalType":"address"}],"outputs":[],"stateMutability":"nonpayable"},{"type":"function","name":"tokenIDToAddress","inputs":[{"name":"","type":"string","internalType":"string"}],"outputs":[{"name":"","type":"address","internalType":"address"}],"stateMutability":"view"},{"type":"function","name":"transferOwnership","inputs":[{"name":"newOwner","type":"address","internalType":"address"}],"outputs":[],"stateMutability":"nonpayable"},{"type":"event","name":"OwnershipTransferred","inputs":[{"name":"previousOwner","type":"address","indexed":true,"internalType":"address"},{"name":"newOwner","type":"address","indexed":true,"internalType":"address"}],"anonymous":false},{"type":"error","name":"PriceAggregatorUniV3_NoPoolFound","inputs":[{"name":"tokenIn","type":"address","internalType":"address"},{"name":"tokenOut","type":"address","internalType":"address"}]},{"type":"error","name":"T","inputs":[]}],"bytecode":{"object":"0x60c06040523480156200001157600080fd5b5060405162002372380380620023728339810160408190526200003491620000d4565b6200003f3362000067565b6200004a8462000067565b6001600160a01b03928316608052911660a0526001555062000126565b600080546001600160a01b038381166001600160a01b0319831681178455604051919092169283917f8be0079c531659141344cd1fd0a4f28419497f9722a3daafe3b4186f6b6457e09190a35050565b80516001600160a01b0381168114620000cf57600080fd5b919050565b60008060008060808587031215620000eb57600080fd5b620000f685620000b7565b93506200010660208601620000b7565b92506200011660408601620000b7565b6060959095015193969295505050565b60805160a0516121ee620001846000396000818161025d0152818161054f01526107810152600081816102ce0152818161036a015281816105dc01528181610628015281816106ae0152818161129f01526112d401526121ee6000f3fe608060405234801561001057600080fd5b506004361061012b5760003560e01c80638da5cb5b116100ad578063b8791ee211610071578063b8791ee2146102f0578063d45bd6b1146102f9578063ef25868b1461030c578063f2fde38b14610340578063feefb5631461035357600080fd5b80638da5cb5b1461027f5780638f5dab9a1461029057806390a3ad8a146102a3578063a6fe34c6146102b6578063ad5c4648146102c957600080fd5b806357fa59eb116100f457806357fa59eb146101fd5780636a3b312a14610210578063715018a61461023d5780637c6619491461024557806389a302711461025857600080fd5b806213b4fc1461013057806301276acf146101565780630d3652ec146101975780631f455922146101d55780632ef3accc146101ea575b600080fd5b61014361013e366004611833565b610366565b6040519081526020015b60405180910390f35b61017f61016436600461186b565b6004602052600090815260409020546001600160a01b031681565b6040516001600160a01b03909116815260200161014d565b6101c56101a53660046118cb565b805160208183018101805160038252928201919093012091525460ff1681565b604051901515815260200161014d565b6101e86101e33660046119a9565b6103b8565b005b6101436101f83660046119eb565b6104a7565b61014361020b366004611a5b565b61057f565b61022361021e366004611ac9565b610598565b60408051600293840b81529190920b60208201520161014d565b6101e86105c4565b610143610253366004611b02565b6105d8565b61017f7f000000000000000000000000000000000000000000000000000000000000000081565b6000546001600160a01b031661017f565b61014361029e366004611b4a565b610677565b61017f6102b1366004611bbb565b610699565b6101436102c4366004611be9565b6106aa565b61017f7f000000000000000000000000000000000000000000000000000000000000000081565b61014360015481565b6101e861030736600461186b565b6106eb565b61017f61031a3660046118cb565b80516020818301810180516002825292820191909301209152546001600160a01b031681565b6101e861034e366004611c1e565b6106f8565b6101e8610361366004611c3b565b610771565b60007f00000000000000000000000000000000000000000000000000000000000000008161039d6103988387846109c0565b610a2b565b90506103ac8287878488610a7e565b925050505b9392505050565b6103c0610b18565b600382826040516103d2929190611c98565b9081526040519081900360200190205460ff1661042c5760405162461bcd60e51b8152602060048201526013602482015272151bdad95b881b9bdd081cdd5c1c1bdc9d1959606a1b60448201526064015b60405180910390fd5b600060038383604051610440929190611c98565b908152604051908190036020018120805492151560ff19909316929092179091556000906002906104749085908590611c98565b90815260405190819003602001902080546001600160a01b03929092166001600160a01b03199092169190911790555050565b6000600384846040516104bb929190611c98565b9081526040519081900360200190205460ff166105105760405162461bcd60e51b8152602060048201526013602482015272151bdad95b881b9bdd081cdd5c1c1bdc9d1959606a1b6044820152606401610423565b600060028585604051610524929190611c98565b908152602001604051809103902060009054906101000a90046001600160a01b0316905061057681847f00000000000000000000000000000000000000000000000000000000000000006001546105d8565b95945050505050565b600061058d82858786610b72565b90505b949350505050565b6000806000806105a786610c80565b90945091506105b68686610f8c565b509396939550929350505050565b6105cc610b18565b6105d660006111d3565b565b60007f00000000000000000000000000000000000000000000000000000000000000006001600160a01b0316856001600160a01b031614156106265761061f848484610366565b9050610590565b7f00000000000000000000000000000000000000000000000000000000000000006001600160a01b0316836001600160a01b0316141561066b5761061f8585846106aa565b61061f85858585611223565b600061068f86866001600160801b031686868661128c565b9695505050505050565b60006103b1610398848460006109c0565b60007f0000000000000000000000000000000000000000000000000000000000000000816106dc6103988784846109c0565b90506103ac8686848488610a7e565b6106f3610b18565b600155565b610700610b18565b6001600160a01b0381166107655760405162461bcd60e51b815260206004820152602660248201527f4f776e61626c653a206e6577206f776e657220697320746865207a65726f206160448201526564647265737360d01b6064820152608401610423565b61076e816111d3565b50565b610779610b18565b60006107a7857f000000000000000000000000000000000000000000000000000000000000000060006109c0565b90506001600160a01b0382161561090057816001600160a01b0316630dfe16816040518163ffffffff1660e01b8152600401602060405180830381865afa1580156107f6573d6000803e3d6000fd5b505050506040513d601f19601f8201168201806040525081019061081a9190611ca8565b6001600160a01b031681600001516001600160a01b03161480156108b45750816001600160a01b031663d21220a76040518163ffffffff1660e01b8152600401602060405180830381865afa158015610877573d6000803e3d6000fd5b505050506040513d601f19601f8201168201806040525081019061089b9190611ca8565b6001600160a01b031681602001516001600160a01b0316145b6109005760405162461bcd60e51b815260206004820152601a60248201527f546f6b656e73206f7220706f6f6c206e6f7420636f72726563740000000000006044820152606401610423565b816004600061090e84611304565b815260200190815260200160002060006101000a8154816001600160a01b0302191690836001600160a01b031602179055508460028585604051610953929190611c98565b908152602001604051809103902060006101000a8154816001600160a01b0302191690836001600160a01b03160217905550600160038585604051610999929190611c98565b908152604051908190036020019020805491151560ff199092169190911790555050505050565b6040805160608101825260008082526020820181905291810191909152826001600160a01b0316846001600160a01b031611156109fb579192915b50604080516060810182526001600160a01b03948516815292909316602083015262ffffff169181019190915290565b6000610a368261134e565b90506001600160a01b038116610a795781516020830151604051634e8a64e960e01b81526001600160a01b03928316600482015291166024820152604401610423565b919050565b6000806000806000610a8f87610c80565b9094509250610aa687610aa18861137d565b610f8c565b909250905060006001600160a01b03808a16908c161015610add578260020b8560020b12610ad45782610ad6565b845b9050610af5565b8260020b8560020b13610af05782610af2565b845b90505b610b0981610b028c6113e2565b8d8c610b72565b9b9a5050505050505050505050565b6000546001600160a01b031633146105d65760405162461bcd60e51b815260206004820181905260248201527f4f776e61626c653a2063616c6c6572206973206e6f7420746865206f776e65726044820152606401610423565b600080610b7e8661144b565b90506001600160801b036001600160a01b03821611610c04576000610bac6001600160a01b03831680611cdb565b9050836001600160a01b0316856001600160a01b031610610be457610bdf600160c01b876001600160801b03168361176b565b610bfc565b610bfc81876001600160801b0316600160c01b61176b565b925050610c77565b6000610c236001600160a01b038316806801000000000000000061176b565b9050836001600160a01b0316856001600160a01b031610610c5b57610c56600160801b876001600160801b03168361176b565b610c73565b610c7381876001600160801b0316600160801b61176b565b9250505b50949350505050565b6000806000806000856001600160a01b0316633850c7bd6040518163ffffffff1660e01b815260040160e060405180830381865afa158015610cc6573d6000803e3d6000fd5b505050506040513d601f19601f82011682018060405250810190610cea9190611d1c565b5050509350935093505060018161ffff1611610d2e5760405162461bcd60e51b81526020600482015260036024820152624e454f60e81b6044820152606401610423565b60405163252c09d760e01b815261ffff83166004820152600090819081906001600160a01b038a169063252c09d790602401608060405180830381865afa158015610d7d573d6000803e3d6000fd5b505050506040513d601f19601f82011682018060405250810190610da19190611dc1565b509250925092504263ffffffff168363ffffffff1614610e2d5785896001600160a01b0316631a6865026040518163ffffffff1660e01b8152600401602060405180830381865afa158015610dfa573d6000803e3d6000fd5b505050506040513d601f19601f82011682018060405250810190610e1e9190611e19565b97509750505050505050915091565b60008461ffff1660018661ffff168861ffff16610e4a9190611e36565b610e549190611e4e565b610e5e9190611e7b565b90506000806000808d6001600160a01b031663252c09d7866040518263ffffffff1660e01b8152600401610e9491815260200190565b608060405180830381865afa158015610eb1573d6000803e3d6000fd5b505050506040513d601f19601f82011682018060405250810190610ed59190611dc1565b935093509350935080610f105760405162461bcd60e51b81526020600482015260036024820152624f4e4960e81b6044820152606401610423565b6000610f1c858a611e8f565b905063ffffffff8116610f2f858a611eb4565b610f399190611f04565b9b5060006020610f49858a611f42565b6001600160a01b0390811690911b90610f689063ffffffff8516611f62565b610f729190611f91565b90508c819e509e5050505050505050505050505050915091565b60008063ffffffff8316610fc75760405162461bcd60e51b8152602060048201526002602482015261042560f41b6044820152606401610423565b6040805160028082526060820183526000926020830190803683370190505090508381600081518110610ffc57610ffc611fb7565b602002602001019063ffffffff16908163ffffffff168152505060008160018151811061102b5761102b611fb7565b602002602001019063ffffffff16908163ffffffff1681525050600080866001600160a01b031663883bdbfd846040518263ffffffff1660e01b81526004016110749190611fcd565b600060405180830381865afa158015611091573d6000803e3d6000fd5b505050506040513d6000823e601f3d908101601f191682016040526110b991908101906120af565b915091506000826000815181106110d2576110d2611fb7565b6020026020010151836001815181106110ed576110ed611fb7565b60200260200101516110ff9190611eb4565b905060008260008151811061111657611116611fb7565b60200260200101518360018151811061113157611131611fb7565b60200260200101516111439190611f42565b905061115563ffffffff891683611f04565b965060008260060b12801561117b575061117563ffffffff891683612172565b60060b15155b1561118e578661118a81612194565b9750505b60006111a76001600160a01b0363ffffffff8b16611f62565b90506111c4640100000000600160c01b03602084901b1682611f91565b96505050505050509250929050565b600080546001600160a01b038381166001600160a01b0319831681178455604051919092169283917f8be0079c531659141344cd1fd0a4f28419497f9722a3daafe3b4186f6b6457e09190a35050565b60008061123a611235878660006109c0565b61134e565b90506001600160a01b03811615611260576112588686868487610a7e565b915050610590565b604051634e8a64e960e01b81526001600160a01b03808816600483015285166024820152604401610423565b6000806112c38461129c886113e2565b897f0000000000000000000000000000000000000000000000000000000000000000610b72565b90506112f9836112d2836113e2565b7f000000000000000000000000000000000000000000000000000000000000000088610b72565b979650505050505050565b8051602091820151604080516bffffffffffffffffffffffff19606094851b8116828701529290931b90911660348301528051808303602801815260489092019052805191012090565b60006004600061135d84611304565b81526020810191909152604001600020546001600160a01b031692915050565b8063ffffffff81168114610a795760405162461bcd60e51b815260206004820152602660248201527f53616665436173743a2076616c756520646f65736e27742066697420696e203360448201526532206269747360d01b6064820152608401610423565b806001600160801b0381168114610a795760405162461bcd60e51b815260206004820152602760248201527f53616665436173743a2076616c756520646f65736e27742066697420696e20316044820152663238206269747360c81b6064820152608401610423565b60008060008360020b12611462578260020b61146a565b8260020b6000035b9050620d89e8811115611490576040516315e4079d60e11b815260040160405180910390fd5b6000600182166114a457600160801b6114b6565b6ffffcb933bd6fad37aa2d162d1a5940015b70ffffffffffffffffffffffffffffffffff16905060028216156114ea576ffff97272373d413259a46990580e213a0260801c5b6004821615611509576ffff2e50f5f656932ef12357cf3c7fdcc0260801c5b6008821615611528576fffe5caca7e10e4e61c3624eaa0941cd00260801c5b6010821615611547576fffcb9843d60f6159c9db58835c9266440260801c5b6020821615611566576fff973b41fa98c081472e6896dfb254c00260801c5b6040821615611585576fff2ea16466c96a3843ec78b326b528610260801c5b60808216156115a4576ffe5dee046a99a2a811c461f1969c30530260801c5b6101008216156115c4576ffcbe86c7900a88aedcffc83b479aa3a40260801c5b6102008216156115e4576ff987a7253ac413176f2b074cf7815e540260801c5b610400821615611604576ff3392b0822b70005940c7a398e4b70f30260801c5b610800821615611624576fe7159475a2c29b7443b29c7fa6e889d90260801c5b611000821615611644576fd097f3bdfd2022b8845ad8f792aa58250260801c5b612000821615611664576fa9f746462d870fdf8a65dc1f90e061e50260801c5b614000821615611684576f70d869a156d2a1b890bb3df62baf32f70260801c5b6180008216156116a4576f31be135f97d08fd981231505542fcfa60260801c5b620100008216156116c5576f09aa508b5b7a84e1c677de54f3e99bc90260801c5b620200008216156116e5576e5d6af8dedb81196699c329225ee6040260801c5b62040000821615611704576d2216e584f5fa1ea926041bedfe980260801c5b62080000821615611721576b048a170391f7dc42444e8fa20260801c5b60008460020b131561174257806000198161173e5761173e611e65565b0490505b640100000000810615611756576001611759565b60005b60ff16602082901c0192505050919050565b6000808060001985870985870292508281108382030391505080600014156117a5576000841161179a57600080fd5b5082900490506103b1565b8084116117b157600080fd5b6000848688096000868103871696879004966002600389028118808a02820302808a02820302808a02820302808a02820302808a02820302808a02909103029181900381900460010186841190950394909402919094039290920491909117919091029150509392505050565b6001600160a01b038116811461076e57600080fd5b60008060006060848603121561184857600080fd5b83359250602084013561185a8161181e565b929592945050506040919091013590565b60006020828403121561187d57600080fd5b5035919050565b634e487b7160e01b600052604160045260246000fd5b604051601f8201601f1916810167ffffffffffffffff811182821017156118c3576118c3611884565b604052919050565b600060208083850312156118de57600080fd5b823567ffffffffffffffff808211156118f657600080fd5b818501915085601f83011261190a57600080fd5b81358181111561191c5761191c611884565b61192e601f8201601f1916850161189a565b9150808252868482850101111561194457600080fd5b8084840185840137600090820190930192909252509392505050565b60008083601f84011261197257600080fd5b50813567ffffffffffffffff81111561198a57600080fd5b6020830191508360208285010111156119a257600080fd5b9250929050565b600080602083850312156119bc57600080fd5b823567ffffffffffffffff8111156119d357600080fd5b6119df85828601611960565b90969095509350505050565b600080600060408486031215611a0057600080fd5b833567ffffffffffffffff811115611a1757600080fd5b611a2386828701611960565b909790965060209590950135949350505050565b6001600160801b038116811461076e57600080fd5b8060020b811461076e57600080fd5b60008060008060808587031215611a7157600080fd5b8435611a7c8161181e565b93506020850135611a8c81611a37565b92506040850135611a9c8161181e565b91506060850135611aac81611a4c565b939692955090935050565b63ffffffff8116811461076e57600080fd5b60008060408385031215611adc57600080fd5b8235611ae78161181e565b91506020830135611af781611ab7565b809150509250929050565b60008060008060808587031215611b1857600080fd5b8435611b238161181e565b9350602085013592506040850135611b3a8161181e565b9396929550929360600135925050565b600080600080600060a08688031215611b6257600080fd5b8535611b6d8161181e565b94506020860135611b7d81611a37565b93506040860135611b8d8161181e565b92506060860135611b9d81611a4c565b91506080860135611bad81611a4c565b809150509295509295909350565b60008060408385031215611bce57600080fd5b8235611bd98161181e565b91506020830135611af78161181e565b600080600060608486031215611bfe57600080fd5b8335611c098161181e565b95602085013595506040909401359392505050565b600060208284031215611c3057600080fd5b81356103b18161181e565b60008060008060608587031215611c5157600080fd5b8435611c5c8161181e565b9350602085013567ffffffffffffffff811115611c7857600080fd5b611c8487828801611960565b9094509250506040850135611aac8161181e565b8183823760009101908152919050565b600060208284031215611cba57600080fd5b81516103b18161181e565b634e487b7160e01b600052601160045260246000fd5b6000816000190483118215151615611cf557611cf5611cc5565b500290565b805161ffff81168114610a7957600080fd5b80518015158114610a7957600080fd5b600080600080600080600060e0888a031215611d3757600080fd5b8751611d428161181e565b6020890151909750611d5381611a4c565b9550611d6160408901611cfa565b9450611d6f60608901611cfa565b9350611d7d60808901611cfa565b925060a088015160ff81168114611d9357600080fd5b9150611da160c08901611d0c565b905092959891949750929550565b8051600681900b8114610a7957600080fd5b60008060008060808587031215611dd757600080fd5b8451611de281611ab7565b9350611df060208601611daf565b92506040850151611e008161181e565b9150611e0e60608601611d0c565b905092959194509250565b600060208284031215611e2b57600080fd5b81516103b181611a37565b60008219821115611e4957611e49611cc5565b500190565b600082821015611e6057611e60611cc5565b500390565b634e487b7160e01b600052601260045260246000fd5b600082611e8a57611e8a611e65565b500690565b600063ffffffff83811690831681811015611eac57611eac611cc5565b039392505050565b60008160060b8360060b6000811281667fffffffffffff1901831281151615611edf57611edf611cc5565b81667fffffffffffff018313811615611efa57611efa611cc5565b5090039392505050565b60008160060b8360060b80611f1b57611f1b611e65565b667fffffffffffff19821460001982141615611f3957611f39611cc5565b90059392505050565b60006001600160a01b0383811690831681811015611eac57611eac611cc5565b60006001600160c01b0382811684821681151582840482111615611f8857611f88611cc5565b02949350505050565b60006001600160c01b0383811680611fab57611fab611e65565b92169190910492915050565b634e487b7160e01b600052603260045260246000fd5b6020808252825182820181905260009190848201906040850190845b8181101561200b57835163ffffffff1683529284019291840191600101611fe9565b50909695505050505050565b600067ffffffffffffffff82111561203157612031611884565b5060051b60200190565b600082601f83011261204c57600080fd5b8151602061206161205c83612017565b61189a565b82815260059290921b8401810191818101908684111561208057600080fd5b8286015b848110156120a45780516120978161181e565b8352918301918301612084565b509695505050505050565b600080604083850312156120c257600080fd5b825167ffffffffffffffff808211156120da57600080fd5b818501915085601f8301126120ee57600080fd5b815160206120fe61205c83612017565b82815260059290921b8401810191818101908984111561211d57600080fd5b948201945b838610156121425761213386611daf565b82529482019490820190612122565b9188015191965090935050508082111561215b57600080fd5b506121688582860161203b565b9150509250929050565b60008260060b8061218557612185611e65565b808360060b0791505092915050565b60008160020b627fffff198114156121ae576121ae611cc5565b600019019291505056fea2646970667358221220bbf12e190f519e18639783ed80d5dc10202cb112533d41caf7d427bed6867ab664736f6c634300080c0033","linkReferences":{}},"methodIdentifiers":{"USDC()":"89a30271","WETH()":"ad5c4648","assetToAsset(address,uint256,address,uint256)":"7c661949","assetToEth(address,uint256,uint256)":"a6fe34c6","defaultTWAPPeriod()":"b8791ee2","ethToAsset(uint256,address,uint256)":"0013b4fc","fetchCurrentTicks(address,uint32)":"6a3b312a","getPoolForRoute(address,address)":"90a3ad8a","getPrice(string,uint256)":"2ef3accc","getQuoteAtTick(address,uint128,address,int24)":"57fa59eb","getQuoteCrossingTicksThroughWeth(address,uint128,address,int24,int24)":"8f5dab9a","isTokenSupported(string)":"0d3652ec","overriddenPoolForRoute(bytes32)":"01276acf","owner()":"8da5cb5b","removeToken(string)":"1f455922","renounceOwnership()":"715018a6","setDefaultTWAPPeriod(uint256)":"d45bd6b1","setUSDCPoolForToken(address,string,address)":"feefb563","tokenIDToAddress(string)":"ef25868b","transferOwnership(address)":"f2fde38b"},"id":70}