{
  "_format": "hh-sol-artifact-1",
  "contractName": "ProxyTokenWithRateLimit",
  "sourceName": "src/examples/ProxyTokenWithRateLimit.sol",
  "abi": [
    {
      "inputs": [
        {
          "internalType": "address",
          "name": "_owner",
          "type": "address"
        },
        {
          "internalType": "address",
          "name": "_proxyToken",
          "type": "address"
        }
      ],
      "stateMutability": "nonpayable",
      "type": "constructor"
    },
    {
      "inputs": [
        {
          "internalType": "uint64",
          "name": "provided",
          "type": "uint64"
        },
        {
          "internalType": "uint64",
          "name": "minimum",
          "type": "uint64"
        }
      ],
      "name": "InvalidBatchSize",
      "type": "error"
    },
    {
      "inputs": [
        {
          "internalType": "uint256",
          "name": "provided",
          "type": "uint256"
        },
        {
          "internalType": "uint256",
          "name": "minimum",
          "type": "uint256"
        }
      ],
      "name": "InvalidDuration",
      "type": "error"
    },
    {
      "inputs": [
        {
          "internalType": "uint256",
          "name": "provided",
          "type": "uint256"
        },
        {
          "internalType": "uint256",
          "name": "minimum",
          "type": "uint256"
        },
        {
          "internalType": "uint256",
          "name": "maximum",
          "type": "uint256"
        }
      ],
      "name": "InvalidMaxAmount",
      "type": "error"
    },
    {
      "inputs": [],
      "name": "PredicateClient_IsRateLimited",
      "type": "error"
    },
    {
      "inputs": [],
      "name": "RateLimiter_InvalidToken",
      "type": "error"
    },
    {
      "inputs": [
        {
          "internalType": "address",
          "name": "token",
          "type": "address"
        }
      ],
      "name": "TokenNotSupported",
      "type": "error"
    },
    {
      "anonymous": false,
      "inputs": [
        {
          "indexed": true,
          "internalType": "address",
          "name": "previousOwner",
          "type": "address"
        },
        {
          "indexed": true,
          "internalType": "address",
          "name": "newOwner",
          "type": "address"
        }
      ],
      "name": "OwnershipTransferred",
      "type": "event"
    },
    {
      "anonymous": false,
      "inputs": [
        {
          "indexed": true,
          "internalType": "address",
          "name": "user",
          "type": "address"
        },
        {
          "indexed": false,
          "internalType": "address",
          "name": "token",
          "type": "address"
        },
        {
          "indexed": false,
          "internalType": "uint256",
          "name": "amount",
          "type": "uint256"
        },
        {
          "indexed": false,
          "internalType": "uint256",
          "name": "limit",
          "type": "uint256"
        }
      ],
      "name": "RateLimitExceeded",
      "type": "event"
    },
    {
      "anonymous": false,
      "inputs": [
        {
          "indexed": false,
          "internalType": "uint256",
          "name": "maxAmount",
          "type": "uint256"
        },
        {
          "indexed": false,
          "internalType": "uint256",
          "name": "duration",
          "type": "uint256"
        },
        {
          "indexed": false,
          "internalType": "uint64",
          "name": "batchSize",
          "type": "uint64"
        }
      ],
      "name": "RateLimitParamsUpdated",
      "type": "event"
    },
    {
      "inputs": [
        {
          "internalType": "address",
          "name": "",
          "type": "address"
        }
      ],
      "name": "bypassRateLimit",
      "outputs": [
        {
          "internalType": "bool",
          "name": "",
          "type": "bool"
        }
      ],
      "stateMutability": "view",
      "type": "function"
    },
    {
      "inputs": [
        {
          "internalType": "address",
          "name": "sender",
          "type": "address"
        },
        {
          "internalType": "address",
          "name": "token",
          "type": "address"
        },
        {
          "internalType": "uint256",
          "name": "amount",
          "type": "uint256"
        }
      ],
      "name": "checkIfLimitExceeds",
      "outputs": [
        {
          "internalType": "bool",
          "name": "",
          "type": "bool"
        },
        {
          "internalType": "uint256",
          "name": "",
          "type": "uint256"
        }
      ],
      "stateMutability": "view",
      "type": "function"
    },
    {
      "inputs": [],
      "name": "disableRateLimiter",
      "outputs": [],
      "stateMutability": "nonpayable",
      "type": "function"
    },
    {
      "inputs": [],
      "name": "enableRateLimiter",
      "outputs": [],
      "stateMutability": "nonpayable",
      "type": "function"
    },
    {
      "inputs": [
        {
          "internalType": "address",
          "name": "token",
          "type": "address"
        },
        {
          "internalType": "uint256",
          "name": "amount",
          "type": "uint256"
        }
      ],
      "name": "evaluateRateLimit",
      "outputs": [
        {
          "internalType": "bool",
          "name": "",
          "type": "bool"
        }
      ],
      "stateMutability": "nonpayable",
      "type": "function"
    },
    {
      "inputs": [],
      "name": "getProxyToken",
      "outputs": [
        {
          "internalType": "address",
          "name": "",
          "type": "address"
        }
      ],
      "stateMutability": "view",
      "type": "function"
    },
    {
      "inputs": [],
      "name": "getRateLimitParams",
      "outputs": [
        {
          "components": [
            {
              "internalType": "uint256",
              "name": "maxAmount",
              "type": "uint256"
            },
            {
              "internalType": "uint256",
              "name": "duration",
              "type": "uint256"
            },
            {
              "internalType": "uint64",
              "name": "batchSize",
              "type": "uint64"
            }
          ],
          "internalType": "struct RateLimitParams",
          "name": "",
          "type": "tuple"
        }
      ],
      "stateMutability": "view",
      "type": "function"
    },
    {
      "inputs": [
        {
          "internalType": "address",
          "name": "user",
          "type": "address"
        }
      ],
      "name": "getTxBatchAtPtr",
      "outputs": [
        {
          "internalType": "uint256",
          "name": "amount",
          "type": "uint256"
        },
        {
          "internalType": "uint256",
          "name": "startBlockNumber",
          "type": "uint256"
        },
        {
          "internalType": "uint256",
          "name": "endBlockNumber",
          "type": "uint256"
        }
      ],
      "stateMutability": "view",
      "type": "function"
    },
    {
      "inputs": [
        {
          "internalType": "address",
          "name": "user",
          "type": "address"
        }
      ],
      "name": "getTxHistory",
      "outputs": [
        {
          "components": [
            {
              "internalType": "uint256",
              "name": "total",
              "type": "uint256"
            },
            {
              "internalType": "uint256",
              "name": "ptr",
              "type": "uint256"
            },
            {
              "components": [
                {
                  "internalType": "uint256",
                  "name": "amount",
                  "type": "uint256"
                },
                {
                  "internalType": "uint256",
                  "name": "startBlockNumber",
                  "type": "uint256"
                },
                {
                  "internalType": "uint256",
                  "name": "endBlockNumber",
                  "type": "uint256"
                }
              ],
              "internalType": "struct TxBatch[]",
              "name": "txBatches",
              "type": "tuple[]"
            }
          ],
          "internalType": "struct TxHistory",
          "name": "",
          "type": "tuple"
        }
      ],
      "stateMutability": "view",
      "type": "function"
    },
    {
      "inputs": [],
      "name": "isRateLimiterEnabled",
      "outputs": [
        {
          "internalType": "bool",
          "name": "",
          "type": "bool"
        }
      ],
      "stateMutability": "view",
      "type": "function"
    },
    {
      "inputs": [],
      "name": "owner",
      "outputs": [
        {
          "internalType": "address",
          "name": "",
          "type": "address"
        }
      ],
      "stateMutability": "view",
      "type": "function"
    },
    {
      "inputs": [],
      "name": "priceOracle",
      "outputs": [
        {
          "internalType": "contract IPriceAggregator",
          "name": "",
          "type": "address"
        }
      ],
      "stateMutability": "view",
      "type": "function"
    },
    {
      "inputs": [],
      "name": "rateLimitParams",
      "outputs": [
        {
          "internalType": "uint256",
          "name": "maxAmount",
          "type": "uint256"
        },
        {
          "internalType": "uint256",
          "name": "duration",
          "type": "uint256"
        },
        {
          "internalType": "uint64",
          "name": "batchSize",
          "type": "uint64"
        }
      ],
      "stateMutability": "view",
      "type": "function"
    },
    {
      "inputs": [
        {
          "internalType": "address",
          "name": "user",
          "type": "address"
        }
      ],
      "name": "removeRateLimitBypass",
      "outputs": [],
      "stateMutability": "nonpayable",
      "type": "function"
    },
    {
      "inputs": [],
      "name": "renounceOwnership",
      "outputs": [],
      "stateMutability": "nonpayable",
      "type": "function"
    },
    {
      "inputs": [
        {
          "internalType": "address",
          "name": "_priceOracle",
          "type": "address"
        }
      ],
      "name": "setPriceOracle",
      "outputs": [],
      "stateMutability": "nonpayable",
      "type": "function"
    },
    {
      "inputs": [
        {
          "internalType": "address",
          "name": "_proxyToken",
          "type": "address"
        }
      ],
      "name": "setProxyToken",
      "outputs": [],
      "stateMutability": "nonpayable",
      "type": "function"
    },
    {
      "inputs": [
        {
          "internalType": "address",
          "name": "user",
          "type": "address"
        }
      ],
      "name": "setRateLimitBypass",
      "outputs": [],
      "stateMutability": "nonpayable",
      "type": "function"
    },
    {
      "inputs": [
        {
          "components": [
            {
              "internalType": "uint256",
              "name": "maxAmount",
              "type": "uint256"
            },
            {
              "internalType": "uint256",
              "name": "duration",
              "type": "uint256"
            },
            {
              "internalType": "uint64",
              "name": "batchSize",
              "type": "uint64"
            }
          ],
          "internalType": "struct RateLimitParams",
          "name": "params",
          "type": "tuple"
        }
      ],
      "name": "setRateLimitParams",
      "outputs": [],
      "stateMutability": "nonpayable",
      "type": "function"
    },
    {
      "inputs": [
        {
          "internalType": "uint256",
          "name": "amount",
          "type": "uint256"
        }
      ],
      "name": "simulateTransfer",
      "outputs": [],
      "stateMutability": "nonpayable",
      "type": "function"
    },
    {
      "inputs": [
        {
          "internalType": "address",
          "name": "newOwner",
          "type": "address"
        }
      ],
      "name": "transferOwnership",
      "outputs": [],
      "stateMutability": "nonpayable",
      "type": "function"
    },
    {
      "inputs": [
        {
          "internalType": "address",
          "name": "",
          "type": "address"
        }
      ],
      "name": "txHistory",
      "outputs": [
        {
          "internalType": "uint256",
          "name": "total",
          "type": "uint256"
        },
        {
          "internalType": "uint256",
          "name": "ptr",
          "type": "uint256"
        }
      ],
      "stateMutability": "view",
      "type": "function"
    }
  ],
  "bytecode": "0x60806040523480156200001157600080fd5b5060405162001b1938038062001b19833981016040819052620000349162000171565b6200003f3362000071565b6200004a82620000c1565b600880546001600160a01b0319166001600160a01b0392909216919091179055506200023a565b600080546001600160a01b038381166001600160a01b0319831681178455604051919092169283917f8be0079c531659141344cd1fd0a4f28419497f9722a3daafe3b4186f6b6457e09190a35050565b620000cb6200010b565b6001600160a01b038116620000fd5760405162461bcd60e51b8152600401620000f490620001b4565b60405180910390fd5b620001088162000071565b50565b6000546001600160a01b03163314620001385760405162461bcd60e51b8152600401620000f490620001ff565b565b60006001600160a01b0382165b92915050565b62000158816200013a565b81146200010857600080fd5b805162000147816200014d565b60008060408385031215620001895762000189600080fd5b600062000197858562000164565b9250506020620001aa8582860162000164565b9150509250929050565b602080825281016200014781602681527f4f776e61626c653a206e6577206f776e657220697320746865207a65726f206160208201526564647265737360d01b604082015260600190565b60208082528181019081527f4f776e61626c653a2063616c6c6572206973206e6f7420746865206f776e657260408301526060820162000147565b6118cf806200024a6000396000f3fe608060405234801561001057600080fd5b50600436106101625760003560e01c80638da5cb5b116100c8578063beecd2bd1161008c578063daf42d6c11610066578063daf42d6c14610339578063ed5f43b71461034c578063f2fde38b1461036f57600080fd5b8063beecd2bd1461030b578063c47f1ac31461031e578063c60c06461461032657600080fd5b80638da5cb5b146102a9578063a8ca8964146102ba578063b4959985146102cf578063b74437a5146102f0578063be51f2e7146102f857600080fd5b80632f53036e1161012a5780637012b1d4116101045780637012b1d414610267578063715018a61461028757806376e33ed71461028f57600080fd5b80632f53036e146102275780633443541214610241578063530e784f1461025457600080fd5b80630a6d4d5814610167578063112f6a31146101a55780632630c12f146101c7578063286df6b7146101e75780632e6c02e3146101fc575b600080fd5b61018e6101753660046110ea565b6001602081905260009182526040909120805491015482565b60405161019c929190611113565b60405180910390f35b6101b86101b33660046110ea565b610382565b60405161019c93929190611135565b6007546101da906001600160a01b031681565b60405161019c919061119f565b6101fa6101f53660046110ea565b610476565b005b60045460055460065461021892919067ffffffffffffffff1683565b60405161019c939291906111bd565b6003546102349060ff1681565b60405161019c91906111ed565b61023461024f36600461120c565b6104a2565b6101fa6102623660046110ea565b6104b7565b61027a6102753660046110ea565b6104e1565b60405161019c919061132b565b6101fa6105b5565b6008546001600160a01b03165b60405161019c9190611345565b6000546001600160a01b031661029c565b6102c26105c9565b60405161019c919061138a565b6102e26102dd366004611398565b610626565b60405161019c9291906113e8565b6101fa610722565b6101fa6103063660046113f6565b610736565b6101fa6103193660046110ea565b6107d1565b6101fa6107fb565b6101fa6103343660046110ea565b610812565b6101fa610347366004611432565b61083b565b61023461035a3660046110ea565b60026020526000908152604090205460ff1681565b6101fa61037d3660046110ea565b610973565b6001600160a01b0381166000908152600160208181526040808420815160608101835281548152938101548484015260028101805483518186028101860185528181528796879687969195949186019390879084015b8282101561042857838290600052602060002090600302016040518060600160405290816000820154815260200160018201548152602001600282015481525050815260200190600101906103d8565b505050508152505090506000816040015182602001518151811061044e5761044e611453565b6020026020010151905080600001518160200151826040015194509450945050509193909250565b61047e6109aa565b6001600160a01b03166000908152600260205260409020805460ff19166001179055565b60006104ae83836109d4565b90505b92915050565b6104bf6109aa565b600780546001600160a01b0319166001600160a01b0392909216919091179055565b61050560405180606001604052806000815260200160008152602001606081525090565b6001600160a01b03821660009081526001602081815260408084208151606081018352815481529381015484840152600281018054835181860281018601855281815295969295938701949192909184015b828210156105a75783829060005260206000209060030201604051806060016040529081600082015481526020016001820154815260200160028201548152505081526020019060010190610557565b505050915250909392505050565b6105bd6109aa565b6105c76000610b35565b565b6105f760405180606001604052806000815260200160008152602001600067ffffffffffffffff1681525090565b50604080516060810182526004548152600554602082015260065467ffffffffffffffff169181019190915290565b6000808061064f6106396006601261147f565b61064490600a61159b565b8590620f4240610b85565b60075460405163449e815d60e01b81529192506000916106da916001600160a01b03169063449e815d90610689908a908a906004016115aa565b602060405180830381865afa1580156106a6573d6000803e3d6000fd5b505050506040513d601f19601f820116820180604052508101906106ca91906115c3565b8390670de0b6b3a7640000610b85565b905060006107056106ed6006601261147f565b6106f890600a61159b565b60045490620f4240610b85565b905061071388888484610ba3565b94509450505050935093915050565b61072a6109aa565b6003805460ff19169055565b600854604051631a21aa0960e11b81523091633443541291610766916001600160a01b03169085906004016115aa565b6020604051808303816000875af1158015610785573d6000803e3d6000fd5b505050506040513d601f19601f820116820180604052508101906107a991906115f7565b6107ce5760405162461bcd60e51b81526004016107c590611664565b60405180910390fd5b50565b6107d96109aa565b600880546001600160a01b0319166001600160a01b0392909216919091179055565b6108036109aa565b6003805460ff19166001179055565b61081a6109aa565b6001600160a01b03166000908152600260205260409020805460ff19169055565b6108436109aa565b620f42408135108061085a575064e8d4a510008135115b1561088757604051638b39eb3360e01b81526107c590823590620f42409064e8d4a5100090600401611135565b6001816020013510156108b6578060200135600160405163387a058b60e01b81526004016107c5929190611113565b60016108c8606083016040840161168f565b67ffffffffffffffff161015610905576108e8606082016040830161168f565b6001604051630161019760e01b81526004016107c59291906116b0565b80600461091282826117bd565b50506003805460ff191660011790557fdf1f77551f6fd65be59ba5210e34eba28a083b1e076a140cd029c3b0794d574f81356020830135610959606085016040860161168f565b604051610968939291906111bd565b60405180910390a150565b61097b6109aa565b6001600160a01b0381166109a15760405162461bcd60e51b81526004016107c59061180e565b6107ce81610b35565b6000546001600160a01b031633146105c75760405162461bcd60e51b81526004016107c59061181e565b6000806109fc6109e66006601261147f565b6109f190600a61159b565b8490620f4240610b85565b60075460405163449e815d60e01b81529192506000916001600160a01b039091169063449e815d90610a3490889088906004016115aa565b602060405180830381865afa158015610a51573d6000803e3d6000fd5b505050506040513d601f19601f82011682018060405250810190610a7591906115c3565b90506000610a8c8383670de0b6b3a7640000610b85565b90506000610a9f6106ed6006601261147f565b90506000610aaf33898585610ba3565b5090508015610b065760045460405133917f96ee157935beeecc933fc961702863de200aee2402989dd02d2625aa5aa7333691610af0918c918c9190611858565b60405180910390a26000955050505050506104b1565b6000610b1143610c83565b9050610b1c81610ca9565b610b264385610d55565b50600198975050505050505050565b600080546001600160a01b038381166001600160a01b0319831681178455604051919092169283917f8be0079c531659141344cd1fd0a4f28419497f9722a3daafe3b4186f6b6457e09190a35050565b6000826000190484118302158202610b9c57600080fd5b5091020490565b6007546040516375151b6360e01b815260009182916001600160a01b03909116906375151b6390610bd8908890600401611345565b602060405180830381865afa158015610bf5573d6000803e3d6000fd5b505050506040513d601f19601f82011682018060405250810190610c1991906115f7565b610c3857846040516306439c6b60e01b81526004016107c59190611345565b6000610c4343610c83565b90506000610c518883610d8d565b90506000610c6189838989610eda565b90506000610c718a848a8a610f43565b95509093505050505b94509492505050565b6005546000908210610ca157600554610c9c908361147f565b6104b1565b600092915050565b3360009081526001602081905260409091208054918101549091905b600283015481108015610cfe575083836002018281548110610ce957610ce9611453565b90600052602060002090600302016002015411155b15610d4957826002018181548110610d1857610d18611453565b90600052602060002090600302016000015482610d35919061147f565b915080610d4181611866565b915050610cc5565b90825560019091015550565b336000908152600160205260409020610d6e8184610f7c565b15610d8257610d7d8183610fcb565b505050565b610d7d818484611032565b6001600160a01b038216600090815260016020818152604080842081516060810183528154815293810154848401526002810180548351818602810186018552818152879695939486019390929190879084015b82821015610e315783829060005260206000209060030201604051806060016040529081600082015481526020016001820154815260200160028201548152505081526020019060010190610de1565b50505091525050604081015151909150610e4f5760009150506104b1565b805160208201515b82604001515181108015610e8b57508483604001518281518110610e7d57610e7d611453565b602002602001015160400151105b15610ed15782604001518181518110610ea657610ea6611453565b60200260200101516000015182610ebd919061147f565b915080610ec981611866565b915050610e57565b50949350505050565b6001600160a01b03841660009081526002602052604081205460ff1615610f02575080610f3b565b81610f0d8486611881565b11610f2e5782610f1d858461147f565b610f27919061147f565b9050610f3b565b610f38848361147f565b90505b949350505050565b6001600160a01b03841660009081526002602052604081205460ff16158015610f38575081610f728486611881565b1195945050505050565b6002820154600090158015906104ae5750600283018054610f9f9060019061147f565b81548110610faf57610faf611453565b9060005260206000209060030201600201548210905092915050565b600282018054829190610fe09060019061147f565b81548110610ff057610ff0611453565b906000526020600020906003020160000160008282546110109190611881565b9091555050815481908390600090611029908490611881565b90915550505050565b60408051606081018252828152602081018490526006546000928201906110639067ffffffffffffffff1686611881565b90526002808601805460018181018355600092835260208084208651600390940201928355850151908201556040840151920191909155855491925083918691906110af908490611881565b909155505050505050565b60006001600160a01b0382166104b1565b6110d4816110ba565b81146107ce57600080fd5b80356104b1816110cb565b6000602082840312156110ff576110ff600080fd5b6000610f3b84846110df565b805b82525050565b60408101611121828561110b565b61112e602083018461110b565b9392505050565b60608101611143828661110b565b611150602083018561110b565b610f3b604083018461110b565b60006104b16001600160a01b038316611174565b90565b6001600160a01b031690565b60006104b18261115d565b60006104b182611180565b61110d8161118b565b602081016104b18284611196565b67ffffffffffffffff811661110d565b606081016111cb828661110b565b6111d8602083018561110b565b610f3b60408301846111ad565b80151561110d565b602081016104b182846111e5565b806110d4565b80356104b1816111fb565b6000806040838503121561122257611222600080fd5b600061122e85856110df565b925050602061123f85828601611201565b9150509250929050565b8051606083019061125a848261110b565b50602082015161126d602085018261110b565b506040820151611280604085018261110b565b50505050565b60006112928383611249565b505060600190565b60006112a4825190565b80845260209384019383018060005b838110156112d85781516112c78882611286565b9750602083019250506001016112b3565b509495945050505050565b805160009060608401906112f7858261110b565b50602083015161130a602086018261110b565b5060408301518482036040860152611322828261129a565b95945050505050565b602080825281016104ae81846112e3565b61110d816110ba565b602081016104b1828461133c565b80516060830190611364848261110b565b506020820151611377602085018261110b565b50604082015161128060408501826111ad565b606081016104b18284611353565b6000806000606084860312156113b0576113b0600080fd5b60006113bc86866110df565b93505060206113cd868287016110df565b92505060406113de86828701611201565b9150509250925092565b6040810161112182856111e5565b60006020828403121561140b5761140b600080fd5b6000610f3b8484611201565b60006060828403121561142c5761142c600080fd5b50919050565b60006060828403121561144757611447600080fd5b6000610f3b8484611417565b634e487b7160e01b600052603260045260246000fd5b634e487b7160e01b600052601160045260246000fd5b60008282101561149157611491611469565b500390565b80825b6001851115610c7a578086048111156114b4576114b4611469565b60018516156114c257908102905b80026114ce8560011c90565b9450611499565b6000826114e45750600161112e565b816114f15750600061112e565b816001811461150757600281146115115761153e565b600191505061112e565b60ff84111561152257611522611469565b8360020a91508482111561153857611538611469565b5061112e565b5060208310610133831016604e8410600b8410161715611571575081810a8381111561156c5761156c611469565b61112e565b61157e8484846001611496565b9250905081840481111561159457611594611469565b0292915050565b60006104ae60001984846114d5565b60408101611121828561133c565b80516104b1816111fb565b6000602082840312156115d8576115d8600080fd5b6000610f3b84846115b8565b8015156110d4565b80516104b1816115e4565b60006020828403121561160c5761160c600080fd5b6000610f3b84846115ec565b602c81526000602082017f50726f7879546f6b656e57697468526174654c696d69743a2072617465206c6981526b1b5a5d08195e18d95959195960a21b602082015291505b5060400190565b602080825281016104b181611618565b67ffffffffffffffff81166110d4565b80356104b181611674565b6000602082840312156116a4576116a4600080fd5b6000610f3b8484611684565b604081016116be82856111ad565b61112e60208301846111ad565b600081356104b1816111fb565b6000600019835b81169019929092169190911792915050565b60006104b16111718381565b611706826116f1565b6117118183546116d8565b8255505050565b600081356104b181611674565b600067ffffffffffffffff836116df565b600067ffffffffffffffff82166104b1565b61175182611736565b611711818354611725565b808280611768816116cb565b905061177481846116fd565b505050600181016020830180611789816116cb565b905061179581846116fd565b5050506002810160408301806117aa81611718565b90506117b68184611748565b5050505050565b6117c7828261175c565b5050565b602681526000602082017f4f776e61626c653a206e6577206f776e657220697320746865207a65726f206181526564647265737360d01b6020820152915061165d565b602080825281016104b1816117cb565b60208082528181019081527f4f776e61626c653a2063616c6c6572206973206e6f7420746865206f776e65726040830152606082016104b1565b60608101611143828661133c565b600060001982141561187a5761187a611469565b5060010190565b6000821982111561189457611894611469565b50019056fea264697066735822122014ac3d326af0d3d5b5db6a138e38ae13a545de2a12256c59f889946efe6b2ea464736f6c634300080c0033",
  "linkReferences": {},
  "deployedLinkReferences": {}
}