{"abi":[{"type":"constructor","inputs":[],"stateMutability":"nonpayable"},{"type":"function","name":"addPermissionedOperators","inputs":[{"name":"_operators","type":"address[]","internalType":"address[]"}],"outputs":[],"stateMutability":"nonpayable"},{"type":"function","name":"addStrategy","inputs":[{"name":"_strategy","type":"address","internalType":"address"},{"name":"quorumNumber","type":"uint8","internalType":"uint8"},{"name":"index","type":"uint256","internalType":"uint256"}],"outputs":[],"stateMutability":"nonpayable"},{"type":"function","name":"aggregator","inputs":[],"outputs":[{"name":"","type":"address","internalType":"address"}],"stateMutability":"view"},{"type":"function","name":"avsDirectory","inputs":[],"outputs":[{"name":"","type":"address","internalType":"address"}],"stateMutability":"view"},{"type":"function","name":"clientToPolicy","inputs":[{"name":"","type":"address","internalType":"address"},{"name":"","type":"string","internalType":"string"}],"outputs":[{"name":"","type":"bool","internalType":"bool"}],"stateMutability":"view"},{"type":"function","name":"delegationManager","inputs":[],"outputs":[{"name":"","type":"address","internalType":"address"}],"stateMutability":"view"},{"type":"function","name":"deployPolicy","inputs":[{"name":"_policyID","type":"string","internalType":"string"},{"name":"_policy","type":"string","internalType":"string"},{"name":"_quorumThreshold","type":"uint256","internalType":"uint256"}],"outputs":[],"stateMutability":"nonpayable"},{"type":"function","name":"deploySocialGraph","inputs":[{"name":"_socialGraphID","type":"string","internalType":"string"},{"name":"_socialGraphConfig","type":"string","internalType":"string"}],"outputs":[],"stateMutability":"nonpayable"},{"type":"function","name":"deployedPolicyIDs","inputs":[{"name":"","type":"uint256","internalType":"uint256"}],"outputs":[{"name":"","type":"string","internalType":"string"}],"stateMutability":"view"},{"type":"function","name":"deregisterOperatorFromAVS","inputs":[{"name":"_operator","type":"address","internalType":"address"}],"outputs":[],"stateMutability":"nonpayable"},{"type":"function","name":"getDeployedPolicies","inputs":[],"outputs":[{"name":"","type":"string[]","internalType":"string[]"}],"stateMutability":"view"},{"type":"function","name":"getOperatorRestakedStrategies","inputs":[{"name":"operator","type":"address","internalType":"address"}],"outputs":[{"name":"","type":"address[]","internalType":"address[]"}],"stateMutability":"view"},{"type":"function","name":"getRestakeableStrategies","inputs":[],"outputs":[{"name":"","type":"address[]","internalType":"address[]"}],"stateMutability":"view"},{"type":"function","name":"getSocialGraphIDs","inputs":[],"outputs":[{"name":"","type":"string[]","internalType":"string[]"}],"stateMutability":"view"},{"type":"function","name":"hashTaskWithExpiry","inputs":[{"name":"_task","type":"tuple","internalType":"struct Task","components":[{"name":"taskId","type":"string","internalType":"string"},{"name":"msgSender","type":"address","internalType":"address"},{"name":"target","type":"address","internalType":"address"},{"name":"value","type":"uint256","internalType":"uint256"},{"name":"encodedSigAndArgs","type":"bytes","internalType":"bytes"},{"name":"policyID","type":"string","internalType":"string"},{"name":"quorumThresholdCount","type":"uint32","internalType":"uint32"},{"name":"expireByBlockNumber","type":"uint256","internalType":"uint256"}]}],"outputs":[{"name":"","type":"bytes32","internalType":"bytes32"}],"stateMutability":"pure"},{"type":"function","name":"idToPolicy","inputs":[{"name":"","type":"string","internalType":"string"}],"outputs":[{"name":"","type":"string","internalType":"string"}],"stateMutability":"view"},{"type":"function","name":"idToSocialGraph","inputs":[{"name":"","type":"string","internalType":"string"}],"outputs":[{"name":"","type":"string","internalType":"string"}],"stateMutability":"view"},{"type":"function","name":"initialize","inputs":[{"name":"_owner","type":"address","internalType":"address"},{"name":"_aggregator","type":"address","internalType":"address"},{"name":"_delegationManager","type":"address","internalType":"address"},{"name":"_stakeRegistry","type":"address","internalType":"address"},{"name":"_avsDirectory","type":"address","internalType":"address"},{"name":"_thresholdStake","type":"uint256","internalType":"uint256"}],"outputs":[],"stateMutability":"nonpayable"},{"type":"function","name":"operators","inputs":[{"name":"","type":"address","internalType":"address"}],"outputs":[{"name":"totalStake","type":"uint256","internalType":"uint256"},{"name":"status","type":"uint8","internalType":"enum ServiceManager.OperatorStatus"}],"stateMutability":"view"},{"type":"function","name":"owner","inputs":[],"outputs":[{"name":"","type":"address","internalType":"address"}],"stateMutability":"view"},{"type":"function","name":"registerOperatorToAVS","inputs":[{"name":"_operatorSigningKey","type":"address","internalType":"address"},{"name":"_operatorSignature","type":"tuple","internalType":"struct ISignatureUtils.SignatureWithSaltAndExpiry","components":[{"name":"signature","type":"bytes","internalType":"bytes"},{"name":"salt","type":"bytes32","internalType":"bytes32"},{"name":"expiry","type":"uint256","internalType":"uint256"}]}],"outputs":[],"stateMutability":"nonpayable"},{"type":"function","name":"removePermissionedOperators","inputs":[{"name":"_operators","type":"address[]","internalType":"address[]"}],"outputs":[],"stateMutability":"nonpayable"},{"type":"function","name":"removePolicy","inputs":[{"name":"_policyID","type":"string","internalType":"string"}],"outputs":[],"stateMutability":"nonpayable"},{"type":"function","name":"removeStrategy","inputs":[{"name":"_strategy","type":"address","internalType":"address"}],"outputs":[],"stateMutability":"nonpayable"},{"type":"function","name":"renounceOwnership","inputs":[],"outputs":[],"stateMutability":"nonpayable"},{"type":"function","name":"rotatePredicateSigningKey","inputs":[{"name":"_oldSigningKey","type":"address","internalType":"address"},{"name":"_newSigningKey","type":"address","internalType":"address"}],"outputs":[],"stateMutability":"nonpayable"},{"type":"function","name":"setAVSDirectory","inputs":[{"name":"_avsDirectory","type":"address","internalType":"address"}],"outputs":[],"stateMutability":"nonpayable"},{"type":"function","name":"setAggregator","inputs":[{"name":"_aggregator","type":"address","internalType":"address"}],"outputs":[],"stateMutability":"nonpayable"},{"type":"function","name":"setDelegationManager","inputs":[{"name":"_delegationManager","type":"address","internalType":"address"}],"outputs":[],"stateMutability":"nonpayable"},{"type":"function","name":"setMetadataURI","inputs":[{"name":"_metadataURI","type":"string","internalType":"string"}],"outputs":[],"stateMutability":"nonpayable"},{"type":"function","name":"setPolicy","inputs":[{"name":"_policyID","type":"string","internalType":"string"}],"outputs":[],"stateMutability":"nonpayable"},{"type":"function","name":"setStakeRegistry","inputs":[{"name":"_stakeRegistry","type":"address","internalType":"address"}],"outputs":[],"stateMutability":"nonpayable"},{"type":"function","name":"setThresholdStake","inputs":[{"name":"_thresholdStake","type":"uint256","internalType":"uint256"}],"outputs":[],"stateMutability":"nonpayable"},{"type":"function","name":"signingKeyToOperator","inputs":[{"name":"","type":"address","internalType":"address"}],"outputs":[{"name":"","type":"address","internalType":"address"}],"stateMutability":"view"},{"type":"function","name":"socialGraphIDs","inputs":[{"name":"","type":"uint256","internalType":"uint256"}],"outputs":[{"name":"","type":"string","internalType":"string"}],"stateMutability":"view"},{"type":"function","name":"spentTaskIds","inputs":[{"name":"","type":"string","internalType":"string"}],"outputs":[{"name":"","type":"bool","internalType":"bool"}],"stateMutability":"view"},{"type":"function","name":"stakeRegistry","inputs":[],"outputs":[{"name":"","type":"address","internalType":"address"}],"stateMutability":"view"},{"type":"function","name":"strategies","inputs":[{"name":"","type":"uint256","internalType":"uint256"}],"outputs":[{"name":"","type":"address","internalType":"address"}],"stateMutability":"view"},{"type":"function","name":"thresholdStake","inputs":[],"outputs":[{"name":"","type":"uint256","internalType":"uint256"}],"stateMutability":"view"},{"type":"function","name":"transferOwnership","inputs":[{"name":"newOwner","type":"address","internalType":"address"}],"outputs":[],"stateMutability":"nonpayable"},{"type":"function","name":"updateOperatorsForQuorum","inputs":[{"name":"operatorsPerQuorum","type":"address[][]","internalType":"address[][]"},{"name":"quorumNumbers","type":"bytes","internalType":"bytes"}],"outputs":[],"stateMutability":"nonpayable"},{"type":"function","name":"validateSignatures","inputs":[{"name":"_task","type":"tuple","internalType":"struct Task","components":[{"name":"taskId","type":"string","internalType":"string"},{"name":"msgSender","type":"address","internalType":"address"},{"name":"target","type":"address","internalType":"address"},{"name":"value","type":"uint256","internalType":"uint256"},{"name":"encodedSigAndArgs","type":"bytes","internalType":"bytes"},{"name":"policyID","type":"string","internalType":"string"},{"name":"quorumThresholdCount","type":"uint32","internalType":"uint32"},{"name":"expireByBlockNumber","type":"uint256","internalType":"uint256"}]},{"name":"signerAddresses","type":"address[]","internalType":"address[]"},{"name":"signatures","type":"bytes[]","internalType":"bytes[]"}],"outputs":[{"name":"isVerified","type":"bool","internalType":"bool"}],"stateMutability":"nonpayable"},{"type":"event","name":"AVSDirectoryUpdated","inputs":[{"name":"avsDirectory","type":"address","indexed":true,"internalType":"address"}],"anonymous":false},{"type":"event","name":"AggregatorUpdated","inputs":[{"name":"aggregator","type":"address","indexed":true,"internalType":"address"}],"anonymous":false},{"type":"event","name":"DelegationManagerUpdated","inputs":[{"name":"delegationManager","type":"address","indexed":true,"internalType":"address"}],"anonymous":false},{"type":"event","name":"DeployedPolicy","inputs":[{"name":"policyID","type":"string","indexed":true,"internalType":"string"},{"name":"policy","type":"string","indexed":false,"internalType":"string"}],"anonymous":false},{"type":"event","name":"Initialized","inputs":[{"name":"version","type":"uint8","indexed":false,"internalType":"uint8"}],"anonymous":false},{"type":"event","name":"NonCompliantTask","inputs":[{"name":"taskID","type":"uint256","indexed":true,"internalType":"uint256"}],"anonymous":false},{"type":"event","name":"OperatorRegistered","inputs":[{"name":"operator","type":"address","indexed":true,"internalType":"address"}],"anonymous":false},{"type":"event","name":"OperatorRemoved","inputs":[{"name":"operator","type":"address","indexed":true,"internalType":"address"}],"anonymous":false},{"type":"event","name":"OperatorsStakesUpdated","inputs":[{"name":"operatorsPerQuorum","type":"address[][]","indexed":true,"internalType":"address[][]"},{"name":"quorumNumbers","type":"bytes","indexed":true,"internalType":"bytes"}],"anonymous":false},{"type":"event","name":"OwnershipTransferred","inputs":[{"name":"previousOwner","type":"address","indexed":true,"internalType":"address"},{"name":"newOwner","type":"address","indexed":true,"internalType":"address"}],"anonymous":false},{"type":"event","name":"RemovedPolicy","inputs":[{"name":"client","type":"address","indexed":true,"internalType":"address"},{"name":"policyID","type":"string","indexed":true,"internalType":"string"}],"anonymous":false},{"type":"event","name":"SetPolicy","inputs":[{"name":"client","type":"address","indexed":true,"internalType":"address"},{"name":"policyID","type":"string","indexed":true,"internalType":"string"}],"anonymous":false},{"type":"event","name":"SocialGraphDeployed","inputs":[{"name":"socialGraphID","type":"string","indexed":true,"internalType":"string"},{"name":"socialGraphConfig","type":"string","indexed":false,"internalType":"string"}],"anonymous":false},{"type":"event","name":"StakeRegistryUpdated","inputs":[{"name":"stakeRegistry","type":"address","indexed":true,"internalType":"address"}],"anonymous":false},{"type":"event","name":"StrategyAdded","inputs":[{"name":"strategy","type":"address","indexed":true,"internalType":"address"}],"anonymous":false},{"type":"event","name":"StrategyRemoved","inputs":[{"name":"strategy","type":"address","indexed":true,"internalType":"address"}],"anonymous":false},{"type":"event","name":"TaskExecuted","inputs":[{"name":"taskHash","type":"bytes32","indexed":true,"internalType":"bytes32"}],"anonymous":false},{"type":"event","name":"TaskValidated","inputs":[{"name":"msgSender","type":"address","indexed":true,"internalType":"address"},{"name":"target","type":"address","indexed":true,"internalType":"address"},{"name":"value","type":"uint256","indexed":true,"internalType":"uint256"},{"name":"policyID","type":"string","indexed":false,"internalType":"string"},{"name":"taskId","type":"string","indexed":false,"internalType":"string"},{"name":"quorumThresholdCount","type":"uint32","indexed":false,"internalType":"uint32"},{"name":"expireByBlockNumber","type":"uint256","indexed":false,"internalType":"uint256"},{"name":"signerAddresses","type":"address[]","indexed":false,"internalType":"address[]"}],"anonymous":false},{"type":"event","name":"ThresholdStakeUpdated","inputs":[{"name":"thresholdStake","type":"uint256","indexed":true,"internalType":"uint256"}],"anonymous":false},{"type":"error","name":"ServiceManager__ArrayLengthMismatch","inputs":[]},{"type":"error","name":"ServiceManager__InvalidOperator","inputs":[]},{"type":"error","name":"ServiceManager__InvalidStrategy","inputs":[]},{"type":"error","name":"ServiceManager__Unauthorized","inputs":[]}],"bytecode":{"object":"0x60806040523480156200001157600080fd5b506200001c62000022565b620000e4565b600054610100900460ff16156200008f5760405162461bcd60e51b815260206004820152602760248201527f496e697469616c697a61626c653a20636f6e747261637420697320696e697469604482015266616c697a696e6760c81b606482015260840160405180910390fd5b60005460ff9081161015620000e2576000805460ff191660ff9081179091556040519081527f7f26b83ff96e1f2b6a682f133852f6798a09c465da95921460cefb38474024989060200160405180910390a15b565b6136a580620000f46000396000f3fe608060405234801561001057600080fd5b506004361061025d5760003560e01c80638376f7f811610146578063d20e78c9116100c3578063df93506511610087578063df935065146105cb578063e3b05f2f146105de578063e481af9d146105f1578063ea4d3c9b146105f9578063f2fde38b1461060c578063f9120af61461061f57600080fd5b8063d20e78c91461055f578063d574ea3d14610572578063d9d4e99f14610585578063ddb49ce1146105a5578063ddf6a51b146105b857600080fd5b806395b6ef0c1161010a57806395b6ef0c1461050b5780639926ee7d1461051e578063a364f4da14610531578063c0443c5f14610544578063d18a13251461055757600080fd5b80638376f7f8146104ae578063862621ef146104c15780638ad96602146104d45780638da5cb5b146104e7578063949528fc146104f857600080fd5b806333cfb7b7116101df5780636b3aa72e116101a35780636b3aa72e1461042c5780636b4c991b1461043f578063715018a614610452578063749dccc71461045a578063750521f514610488578063786bf3c31461049b57600080fd5b806333cfb7b7146103c057806334099ba1146103e05780635140a548146103f357806366f17e7314610406578063683048351461041957600080fd5b8063175188e811610226578063175188e81461035d57806318cea58d146103705780631a8d0de21461038357806320af739014610396578063245a7bfc146103ad57600080fd5b80621ba1eb146102625780630b3ce015146102775780630ff26fd11461029557806313e7c9d8146102d6578063140a16bc1461030e575b600080fd5b6102756102703660046129e4565b610632565b005b61027f6107d6565b60405161028c9190612a79565b60405180910390f35b6102be6102a3366004612adb565b6066602052600090815260409020546001600160a01b031681565b6040516001600160a01b03909116815260200161028c565b6103006102e4366004612adb565b6065602052600090815260409020805460019091015460ff1682565b60405161028c929190612b15565b61034d61031c366004612bfc565b6067602090815260009283526040909220815180830184018051928152908401929093019190912091525460ff1681565b604051901515815260200161028c565b61027561036b366004612adb565b6108af565b61034d61037e366004612d16565b6109ec565b610275610391366004612adb565b610fc8565b61039f60725481565b60405190815260200161028c565b606e546102be906001600160a01b031681565b6103d36103ce366004612adb565b61101a565b60405161028c9190612e3e565b6102756103ee366004612e51565b6111a6565b610275610401366004612ed1565b611224565b610275610414366004612f67565b6114a0565b6070546102be906001600160a01b031681565b6071546102be906001600160a01b031681565b61027561044d366004612e51565b6115d1565b610275611654565b61034d610468366004612e51565b805160208183018101805160698252928201919093012091525460ff1681565b610275610496366004612e51565b611668565b6102756104a9366004612fae565b6116d5565b6102756104bc366004612fae565b611754565b6102756104cf366004612adb565b6117ce565b6102756104e2366004612fef565b611820565b6033546001600160a01b03166102be565b61039f610506366004613008565b61185b565b61027561051936600461303c565b6118f2565b61027561052c3660046130b5565b611a59565b61027561053f366004612adb565b611cff565b610275610552366004613160565b611eb1565b61027f612032565b61027561056d3660046131cc565b612102565b6102be610580366004612fef565b612268565b610598610593366004612e51565b612292565b60405161028c9190613225565b6105986105b3366004612fef565b612337565b6105986105c6366004612e51565b612362565b6105986105d9366004612fef565b612386565b6102756105ec366004612adb565b612396565b6103d36123e8565b606f546102be906001600160a01b031681565b61027561061a366004612adb565b61244a565b61027561062d366004612adb565b6124c3565b60013360009081526065602052604090206001015460ff16600281111561065b5761065b612aff565b146106e15760405162461bcd60e51b8152602060048201526044602482018190527f536572766963654d616e616765722e726f746174655072656469636174655369908201527f676e696e674b65793a206f70657261746f72206973206e6f7420726567697374606482015263195c995960e21b608482015260a4015b60405180910390fd5b6001600160a01b038281166000908152606660205260409020541633146107965760405162461bcd60e51b815260206004820152605760248201527f536572766963654d616e616765722e726f74617465507265646963617465536960448201527f676e696e674b65793a206f70657261746f722063616e206f6e6c79206368616e60648201527f67652069742773206f776e207369676e696e67206b6579000000000000000000608482015260a4016106d8565b6001600160a01b0391821660009081526066602052604080822080546001600160a01b031990811690915592909316815291909120805490911633179055565b6060606b805480602002602001604051908101604052809291908181526020016000905b828210156108a657838290600052602060002001805461081990613238565b80601f016020809104026020016040519081016040528092919081815260200182805461084590613238565b80156108925780601f1061086757610100808354040283529160200191610892565b820191906000526020600020905b81548152906001019060200180831161087557829003601f168201915b5050505050815260200190600101906107fa565b50505050905090565b6108b7612515565b60005b606d5481146109e857816001600160a01b0316606d82815481106108e0576108e061326d565b6000918252602090912001546001600160a01b031614156109e057606d805461090b90600190613299565b8154811061091b5761091b61326d565b600091825260209091200154606d80546001600160a01b0390921691839081106109475761094761326d565b9060005260206000200160006101000a8154816001600160a01b0302191690836001600160a01b03160217905550606d805480610986576109866132b0565b600082815260208120820160001990810180546001600160a01b03191690559091019091556040516001600160a01b038416917f09a1db4b80c32706328728508c941a6b954f31eb5affd32f236c1fd405f8fea491a25050565b6001016108ba565b5050565b60006109fe60e0850160c086016132c6565b63ffffffff16610a745760405162461bcd60e51b8152602060048201526047602482015260008051602061365083398151915260448201527f3a2071756f72756d207468726573686f6c6420636f756e742063616e6e6f74206064820152666265207a65726f60c81b608482015260a4016106d8565b8151835114610ad55760405162461bcd60e51b815260206004820152602760248201527f4d69736d61746368206265747765656e207369676e65727320616e64207369676044820152666e61747572657360c81b60648201526084016106d8565b8360e00135431115610b355760405162461bcd60e51b815260206004820152603560248201526000805160206136508339815191526044820152740e881d1c985b9cd858dd1a5bdb88195e1c1a5c9959605a1b60648201526084016106d8565b6069610b4185806132ec565b604051610b4f929190613332565b9081526040519081900360200190205460ff1615610bc35760405162461bcd60e51b8152602060048201526037602482015260008051602061365083398151915260448201527f3a207461736b20494420616c7265616479207370656e7400000000000000000060648201526084016106d8565b60006073610bd460a08701876132ec565b604051610be2929190613332565b908152602001604051809103902054905080600014158015610c18575080610c1060e0870160c088016132c6565b63ffffffff16145b610cac5760405162461bcd60e51b8152602060048201526065602482015260008051602061365083398151915260448201527f3a206465706c6f79656420706f6c6963792071756f72756d207468726573686f60648201527f6c6420646966666572732066726f6d207461736b2071756f72756d20746872656084820152641cda1bdb1960da1b60a482015260c4016106d8565b6000610cb78661185b565b905060005b610ccc60e0880160c089016132c6565b63ffffffff16811015610edc57600081118015610d37575085610cf0600183613299565b81518110610d0057610d0061326d565b60200260200101516001600160a01b0316868281518110610d2357610d2361326d565b60200260200101516001600160a01b031611155b15610d975760405162461bcd60e51b815260206004820152602a60248201527f5369676e657220616464726573736573206d75737420626520756e6971756520604482015269185b99081cdbdc9d195960b21b60648201526084016106d8565b6000610dbc83878481518110610daf57610daf61326d565b602002602001015161256f565b9050868281518110610dd057610dd061326d565b60200260200101516001600160a01b0316816001600160a01b031614610e2c5760405162461bcd60e51b8152602060048201526011602482015270496e76616c6964207369676e617475726560781b60448201526064016106d8565b6001600160a01b038082166000908152606660205260409020541660016001600160a01b03821660009081526065602052604090206001015460ff166002811115610e7957610e79612aff565b14610ed25760405162461bcd60e51b815260206004820152602360248201527f5369676e6572206973206e6f7420612072656769737465726564206f706572616044820152623a37b960e91b60648201526084016106d8565b5050600101610cbc565b5060608601803590610ef19060408901612adb565b6001600160a01b0316610f0a6040890160208a01612adb565b6001600160a01b03167f9f851f9b4b4a1023918bda08f974ba8a757d5e8c1d8d4131e9963fdd64bd1a4d610f4160a08b018b6132ec565b610f4b8c806132ec565b8d60c0016020810190610f5e91906132c6565b8e60e001358e604051610f77979695949392919061336b565b60405180910390a460016069610f8d88806132ec565b604051610f9b929190613332565b908152604051908190036020019020805491151560ff199092169190911790555060019150509392505050565b610fd0612515565b606f80546001600160a01b0319166001600160a01b0383169081179091556040517fa1b8fcd417a2bb56a91d1fc6708faf8283b5730e55821393e70303e544aeec9290600090a250565b606d546060906000906001600160401b0381111561103a5761103a612b47565b604051908082528060200260200182016040528015611063578160200160208202803683370190505b5090506000805b606d5481101561119d57606f54606d80546000926001600160a01b03169163778e55f391899190869081106110a1576110a161326d565b60009182526020909120015460405160e084901b6001600160e01b03191681526001600160a01b03928316600482015291166024820152604401602060405180830381865afa1580156110f8573d6000803e3d6000fd5b505050506040513d601f19601f8201168201806040525081019061111c91906133c6565b111561118b57606d81815481106111355761113561326d565b9060005260206000200160009054906101000a90046001600160a01b03168383815181106111655761116561326d565b6001600160a01b039092166020928302919091019091015281611187816133df565b9250505b80611195816133df565b91505061106a565b50909392505050565b3360009081526067602052604080822090516111c39084906133fa565b908152604051908190036020018120805492151560ff19909316929092179091556111ef9082906133fa565b6040519081900381209033907f64296597d208d70296fadc8eb749ff22ab651c8e6e455f35ee8ed66b74d1f77590600090a350565b8281146112445760405163371821d760e21b815260040160405180910390fd5b606060008060005b80851461143e578787828181106112655761126561326d565b90506020028101906112779190613416565b8080602002602001604051908101604052809392919081815260200183836020028082843760009201829052509397505050505b8451811015611435578481815181106112c6576112c661326d565b6020908102919091018101516001600160a01b03811660009081526065909252604082209095509350600184015460ff16600281111561130857611308612aff565b14156113275760405163ba6435f160e01b815260040160405180910390fd5b6000805b606d5481146113ee57606f54606d80546001600160a01b039092169163778e55f39189918590811061135f5761135f61326d565b60009182526020909120015460405160e084901b6001600160e01b03191681526001600160a01b03928316600482015291166024820152604401602060405180830381865afa1580156113b6573d6000803e3d6000fd5b505050506040513d601f19601f820116820180604052508101906113da91906133c6565b6113e4908361345f565b915060010161132b565b508084556072548110611402576001611405565b60025b60018086018054909160ff199091169083600281111561142757611427612aff565b0217905550506001016112ab565b5060010161124c565b50848460405161144f929190613332565b60405180910390208787604051611467929190613477565b604051908190038120907ff3fcd2dadc5f6ebf9c1e9310a9e986a14079afc7ecf26784853ea9a3ac90721b90600090a350505050505050565b6114a8612515565b6070546040516356e4026d60e11b815260ff84166004820152602481018390526000916001600160a01b03169063adc804da906044016040805180830381865afa1580156114fa573d6000803e3d6000fd5b505050506040513d601f19601f8201168201806040525081019061151e9190613518565b9050836001600160a01b031681600001516001600160a01b0316146115565760405163a4e34a6960e01b815260040160405180910390fd5b606d805460018101825560009182527f5006b838207c6a9ae9b84d68f467dd4bb5c305fbfb6b04eab8faaabeec1e18d80180546001600160a01b0319166001600160a01b03871690811790915560405190917f3f008fd510eae7a9e7bee13513d7b83bef8003d488b5a3d0b0da4de71d6846f191a250505050565b33600090815260676020526040908190209051600191906115f39084906133fa565b908152604051908190036020018120805492151560ff199093169290921790915561161f9082906133fa565b6040519081900381209033907ffbc30d1514eac402cb2045f1dd80ec75fbc997db6f719421b6d7490f4bfb779d90600090a350565b61165c612515565b6116666000612593565b565b611670612515565b60715460405163a98fb35560e01b81526001600160a01b039091169063a98fb355906116a0908490600401613225565b600060405180830381600087803b1580156116ba57600080fd5b505af11580156116ce573d6000803e3d6000fd5b5050505050565b6116dd612515565b60005b8181101561174f576000607460008585858181106117005761170061326d565b90506020020160208101906117159190612adb565b6001600160a01b031681526020810191909152604001600020805460ff191691151591909117905580611747816133df565b9150506116e0565b505050565b61175c612515565b60005b8181101561174f5760016074600085858581811061177f5761177f61326d565b90506020020160208101906117949190612adb565b6001600160a01b031681526020810191909152604001600020805460ff1916911515919091179055806117c6816133df565b91505061175f565b6117d6612515565b607180546001600160a01b0319166001600160a01b0383169081179091556040517f2a623245c0f1c5741f2a4c247a58842872f1fdf8a31e66d031dd1cd1532e89a790600090a250565b611828612515565b607281905560405181907f76f50103a7b1e136f23c29045235143c62e36705e8253019cb1253d9062bc6d490600090a250565b600061186782806132ec565b6118776040850160208601612adb565b6118876060860160408701612adb565b606086013561189960808801886132ec565b6118a660a08a018a6132ec565b6118b660e08c0160c08d016132c6565b8b60e001356040516020016118d59b9a99989796959493929190613587565b604051602081830303815290604052805190602001209050919050565b600054610100900460ff16158080156119125750600054600160ff909116105b8061192c5750303b15801561192c575060005460ff166001145b61198f5760405162461bcd60e51b815260206004820152602e60248201527f496e697469616c697a61626c653a20636f6e747261637420697320616c72656160448201526d191e481a5b9a5d1a585b1a5e995960921b60648201526084016106d8565b6000805460ff1916600117905580156119b2576000805461ff0019166101001790555b6119bb87612593565b606e80546001600160a01b038089166001600160a01b031992831617909255606f805488841690831617905560708054878416908316179055607180549286169290911691909117905560728290558015611a50576000805461ff0019169055604051600181527f7f26b83ff96e1f2b6a682f133852f6798a09c465da95921460cefb38474024989060200160405180910390a15b50505050505050565b3360009081526074602052604090205460ff16611a89576040516332c5b57b60e11b815260040160405180910390fd5b6001600160a01b038281166000908152606660205260409020541615611b215760405162461bcd60e51b815260206004820152604160248201527f536572766963654d616e616765722e72656769737465724f70657261746f725460448201527f6f4156533a206f70657261746f7220616c7265616479207265676973746572656064820152601960fa1b608482015260a4016106d8565b6000805b606d548114611be857606f54606d80546001600160a01b039092169163778e55f391339185908110611b5957611b5961326d565b60009182526020909120015460405160e084901b6001600160e01b03191681526001600160a01b03928316600482015291166024820152604401602060405180830381865afa158015611bb0573d6000803e3d6000fd5b505050506040513d601f19601f82011682018060405250810190611bd491906133c6565b611bde908361345f565b9150600101611b25565b50607254811061174f5760408051808201825282815260016020808301828152336000908152606590925293902082518155925183820180549394939192909160ff191690836002811115611c3f57611c3f612aff565b021790555050506001600160a01b038084166000908152606660205260409081902080546001600160a01b031916339081179091556071549151639926ee7d60e01b81529190921691639926ee7d91611c9d91908690600401613604565b600060405180830381600087803b158015611cb757600080fd5b505af1158015611ccb573d6000803e3d6000fd5b50506040513392507f4d0eb1f4bac8744fd2be119845e23b3befc88094b42bcda1204c65694a00f9e59150600090a2505050565b611d07612515565b6001600160a01b03811660009081526065602052604081206001015460ff166002811115611d3757611d37612aff565b1415611db95760405162461bcd60e51b8152602060048201526044602482018190527f536572766963654d616e616765722e646572656769737465724f70657261746f908201527f7246726f6d4156533a206f70657261746f72206973206e6f7420726567697374606482015263195c995960e21b608482015260a4016106d8565b604080518082019091526000815260208101600290526001600160a01b0382166000908152606560209081526040909120825181559082015160018083018054909160ff1990911690836002811115611e1457611e14612aff565b0217905550506071546040516351b27a6d60e11b81526001600160a01b038481166004830152909116915063a364f4da90602401600060405180830381600087803b158015611e6257600080fd5b505af1158015611e76573d6000803e3d6000fd5b50506040516001600160a01b03841692507f80c0b871b97b595b16a7741c1b06fed0c6f6f558639f18ccbce50724325dc40d9150600090a250565b611eb9612515565b606883604051611ec991906133fa565b90815260200160405180910390208054611ee290613238565b159050611f445760405162461bcd60e51b815260206004820152602a60248201527f536572766963654d616e616765722e6465706c6f79506f6c6963793a20706f6c6044820152696963792065786973747360b01b60648201526084016106d8565b81606884604051611f5591906133fa565b90815260200160405180910390209080519060200190611f76929190612936565b5080607384604051611f8891906133fa565b9081526040516020918190038201902091909155606b80546001810182556000919091528451611fdf927fbd43cb8ece8cd1863bcd6082d65c5b0d25665b1ce17980f0da43c0ed545f98b490920191860190612936565b5082604051611fee91906133fa565b60405180910390207fb6487025b06543ad686bdaa829e2b07863fd163cacd2e0f031340308ec09584e836040516120259190613225565b60405180910390a2505050565b6060606c805480602002602001604051908101604052809291908181526020016000905b828210156108a657838290600052602060002001805461207590613238565b80601f01602080910402602001604051908101604052809291908181526020018280546120a190613238565b80156120ee5780601f106120c3576101008083540402835291602001916120ee565b820191906000526020600020905b8154815290600101906020018083116120d157829003601f168201915b505050505081526020019060010190612056565b61210a612515565b606a8260405161211a91906133fa565b9081526020016040518091039020805461213390613238565b1590506121a05760405162461bcd60e51b815260206004820152603560248201527f536572766963654d616e616765722e6465706c6f79536f6369616c47726170686044820152743a20736f6369616c2067726170682065786973747360581b60648201526084016106d8565b80606a836040516121b191906133fa565b908152602001604051809103902090805190602001906121d2929190612936565b50606c80546001810182556000919091528251612216917f2b4a51ab505fc96a0952efda2ba61bcd3078d4c02c39a186ec16f21883fbe01601906020850190612936565b508160405161222591906133fa565b60405180910390207f0547683ac2bbf227b34fe50fb3ef0f2b8a67dfad502dc794e7a69b0a8dd3e6808260405161225c9190613225565b60405180910390a25050565b606d818154811061227857600080fd5b6000918252602090912001546001600160a01b0316905081565b8051602081830181018051606882529282019190930120915280546122b690613238565b80601f01602080910402602001604051908101604052809291908181526020018280546122e290613238565b801561232f5780601f106123045761010080835404028352916020019161232f565b820191906000526020600020905b81548152906001019060200180831161231257829003601f168201915b505050505081565b606b818154811061234757600080fd5b9060005260206000200160009150905080546122b690613238565b8051602081830181018051606a82529282019190930120915280546122b690613238565b606c818154811061234757600080fd5b61239e612515565b607080546001600160a01b0319166001600160a01b0383169081179091556040517fcb08c26360210256eb3fd98640509ba95a8a716bc3aa4aadc738e333102de73790600090a250565b6060606d80548060200260200160405190810160405280929190818152602001828054801561244057602002820191906000526020600020905b81546001600160a01b03168152600190910190602001808311612422575b5050505050905090565b612452612515565b6001600160a01b0381166124b75760405162461bcd60e51b815260206004820152602660248201527f4f776e61626c653a206e6577206f776e657220697320746865207a65726f206160448201526564647265737360d01b60648201526084016106d8565b6124c081612593565b50565b6124cb612515565b606e80546001600160a01b0319166001600160a01b0383169081179091556040517f602cec4b1583b07d071161da5eb9589444d2459201e2fab7753dc941e9351c2190600090a250565b6033546001600160a01b031633146116665760405162461bcd60e51b815260206004820181905260248201527f4f776e61626c653a2063616c6c6572206973206e6f7420746865206f776e657260448201526064016106d8565b600080600061257e85856125e5565b9150915061258b81612655565b509392505050565b603380546001600160a01b038381166001600160a01b0319831681179093556040519116919082907f8be0079c531659141344cd1fd0a4f28419497f9722a3daafe3b4186f6b6457e090600090a35050565b60008082516041141561261c5760208301516040840151606085015160001a61261087828585612810565b9450945050505061264e565b825160401415612646576020830151604084015161263b8683836128fd565b93509350505061264e565b506000905060025b9250929050565b600081600481111561266957612669612aff565b14156126725750565b600181600481111561268657612686612aff565b14156126d45760405162461bcd60e51b815260206004820152601860248201527f45434453413a20696e76616c6964207369676e6174757265000000000000000060448201526064016106d8565b60028160048111156126e8576126e8612aff565b14156127365760405162461bcd60e51b815260206004820152601f60248201527f45434453413a20696e76616c6964207369676e6174757265206c656e6774680060448201526064016106d8565b600381600481111561274a5761274a612aff565b14156127a35760405162461bcd60e51b815260206004820152602260248201527f45434453413a20696e76616c6964207369676e6174757265202773272076616c604482015261756560f01b60648201526084016106d8565b60048160048111156127b7576127b7612aff565b14156124c05760405162461bcd60e51b815260206004820152602260248201527f45434453413a20696e76616c6964207369676e6174757265202776272076616c604482015261756560f01b60648201526084016106d8565b6000807f7fffffffffffffffffffffffffffffff5d576e7357a4501ddfe92f46681b20a083111561284757506000905060036128f4565b8460ff16601b1415801561285f57508460ff16601c14155b1561287057506000905060046128f4565b6040805160008082526020820180845289905260ff881692820192909252606081018690526080810185905260019060a0016020604051602081039080840390855afa1580156128c4573d6000803e3d6000fd5b5050604051601f1901519150506001600160a01b0381166128ed576000600192509250506128f4565b9150600090505b94509492505050565b6000806001600160ff1b0383168161291a60ff86901c601b61345f565b905061292887828885612810565b935093505050935093915050565b82805461294290613238565b90600052602060002090601f01602090048101928261296457600085556129aa565b82601f1061297d57805160ff19168380011785556129aa565b828001600101855582156129aa579182015b828111156129aa57825182559160200191906001019061298f565b506129b69291506129ba565b5090565b5b808211156129b657600081556001016129bb565b6001600160a01b03811681146124c057600080fd5b600080604083850312156129f757600080fd5b8235612a02816129cf565b91506020830135612a12816129cf565b809150509250929050565b60005b83811015612a38578181015183820152602001612a20565b83811115612a47576000848401525b50505050565b60008151808452612a65816020860160208601612a1d565b601f01601f19169290920160200192915050565b6000602080830181845280855180835260408601915060408160051b870101925083870160005b82811015612ace57603f19888603018452612abc858351612a4d565b94509285019290850190600101612aa0565b5092979650505050505050565b600060208284031215612aed57600080fd5b8135612af8816129cf565b9392505050565b634e487b7160e01b600052602160045260246000fd5b8281526040810160038310612b3a57634e487b7160e01b600052602160045260246000fd5b8260208301529392505050565b634e487b7160e01b600052604160045260246000fd5b604051601f8201601f191681016001600160401b0381118282101715612b8557612b85612b47565b604052919050565b600082601f830112612b9e57600080fd5b81356001600160401b03811115612bb757612bb7612b47565b612bca601f8201601f1916602001612b5d565b818152846020838601011115612bdf57600080fd5b816020850160208301376000918101602001919091529392505050565b60008060408385031215612c0f57600080fd5b8235612c1a816129cf565b915060208301356001600160401b03811115612c3557600080fd5b612c4185828601612b8d565b9150509250929050565b60006101008284031215612c5e57600080fd5b50919050565b60006001600160401b03821115612c7d57612c7d612b47565b5060051b60200190565b600082601f830112612c9857600080fd5b81356020612cad612ca883612c64565b612b5d565b82815260059290921b84018101918181019086841115612ccc57600080fd5b8286015b84811015612d0b5780356001600160401b03811115612cef5760008081fd5b612cfd8986838b0101612b8d565b845250918301918301612cd0565b509695505050505050565b600080600060608486031215612d2b57600080fd5b83356001600160401b0380821115612d4257600080fd5b612d4e87838801612c4b565b9450602091508186013581811115612d6557600080fd5b8601601f81018813612d7657600080fd5b8035612d84612ca882612c64565b81815260059190911b8201840190848101908a831115612da357600080fd5b928501925b82841015612dca578335612dbb816129cf565b82529285019290850190612da8565b96505050506040860135915080821115612de357600080fd5b50612df086828701612c87565b9150509250925092565b600081518084526020808501945080840160005b83811015612e335781516001600160a01b031687529582019590820190600101612e0e565b509495945050505050565b602081526000612af86020830184612dfa565b600060208284031215612e6357600080fd5b81356001600160401b03811115612e7957600080fd5b612e8584828501612b8d565b949350505050565b60008083601f840112612e9f57600080fd5b5081356001600160401b03811115612eb657600080fd5b6020830191508360208260051b850101111561264e57600080fd5b60008060008060408587031215612ee757600080fd5b84356001600160401b0380821115612efe57600080fd5b612f0a88838901612e8d565b90965094506020870135915080821115612f2357600080fd5b818701915087601f830112612f3757600080fd5b813581811115612f4657600080fd5b886020828501011115612f5857600080fd5b95989497505060200194505050565b600080600060608486031215612f7c57600080fd5b8335612f87816129cf565b9250602084013560ff81168114612f9d57600080fd5b929592945050506040919091013590565b60008060208385031215612fc157600080fd5b82356001600160401b03811115612fd757600080fd5b612fe385828601612e8d565b90969095509350505050565b60006020828403121561300157600080fd5b5035919050565b60006020828403121561301a57600080fd5b81356001600160401b0381111561303057600080fd5b612e8584828501612c4b565b60008060008060008060c0878903121561305557600080fd5b8635613060816129cf565b95506020870135613070816129cf565b94506040870135613080816129cf565b93506060870135613090816129cf565b925060808701356130a0816129cf565b8092505060a087013590509295509295509295565b600080604083850312156130c857600080fd5b82356130d3816129cf565b915060208301356001600160401b03808211156130ef57600080fd5b908401906060828703121561310357600080fd5b60405160608101818110838211171561311e5761311e612b47565b60405282358281111561313057600080fd5b61313c88828601612b8d565b82525060208301356020820152604083013560408201528093505050509250929050565b60008060006060848603121561317557600080fd5b83356001600160401b038082111561318c57600080fd5b61319887838801612b8d565b945060208601359150808211156131ae57600080fd5b506131bb86828701612b8d565b925050604084013590509250925092565b600080604083850312156131df57600080fd5b82356001600160401b03808211156131f657600080fd5b61320286838701612b8d565b9350602085013591508082111561321857600080fd5b50612c4185828601612b8d565b602081526000612af86020830184612a4d565b600181811c9082168061324c57607f821691505b60208210811415612c5e57634e487b7160e01b600052602260045260246000fd5b634e487b7160e01b600052603260045260246000fd5b634e487b7160e01b600052601160045260246000fd5b6000828210156132ab576132ab613283565b500390565b634e487b7160e01b600052603160045260246000fd5b6000602082840312156132d857600080fd5b813563ffffffff81168114612af857600080fd5b6000808335601e1984360301811261330357600080fd5b8301803591506001600160401b0382111561331d57600080fd5b60200191503681900382131561264e57600080fd5b8183823760009101908152919050565b81835281816020850137506000828201602090810191909152601f909101601f19169091010190565b60a08152600061337f60a08301898b613342565b828103602084015261339281888a613342565b905063ffffffff8616604084015284606084015282810360808401526133b88185612dfa565b9a9950505050505050505050565b6000602082840312156133d857600080fd5b5051919050565b60006000198214156133f3576133f3613283565b5060010190565b6000825161340c818460208701612a1d565b9190910192915050565b6000808335601e1984360301811261342d57600080fd5b8301803591506001600160401b0382111561344757600080fd5b6020019150600581901b360382131561264e57600080fd5b6000821982111561347257613472613283565b500190565b60008184825b8581101561350d578135601e1988360301811261349957600080fd5b8701803560206001600160401b038211156134b357600080fd5b8160051b36038a13156134c557600080fd5b918201918560005b838110156134fb5784356134e0816129cf565b6001600160a01b0316825293820193908201906001016134cd565b5095509390930192505060010161347d565b509095945050505050565b60006040828403121561352a57600080fd5b604051604081018181106001600160401b038211171561354c5761354c612b47565b604052825161355a816129cf565b815260208301516bffffffffffffffffffffffff8116811461357b57600080fd5b60208201529392505050565b6101008152600061359d61010083018d8f613342565b6001600160a01b038c811660208501528b166040840152606083018a905282810360808401526135ce81898b613342565b905082810360a08401526135e3818789613342565b63ffffffff9590951660c0840152505060e001529998505050505050505050565b60018060a01b038316815260406020820152600082516060604084015261362e60a0840182612a4d565b9050602084015160608401526040840151608084015280915050939250505056fe536572766963654d616e616765722e5072656469636174655665726966696564a2646970667358221220f9e6c961966c7de1b26a3834c6013e142bcf65914c723290fa1ff03abf5e146864736f6c634300080c0033","linkReferences":{}},"methodIdentifiers":{"addPermissionedOperators(address[])":"8376f7f8","addStrategy(address,uint8,uint256)":"66f17e73","aggregator()":"245a7bfc","avsDirectory()":"6b3aa72e","clientToPolicy(address,string)":"140a16bc","delegationManager()":"ea4d3c9b","deployPolicy(string,string,uint256)":"c0443c5f","deploySocialGraph(string,string)":"d20e78c9","deployedPolicyIDs(uint256)":"ddb49ce1","deregisterOperatorFromAVS(address)":"a364f4da","getDeployedPolicies()":"0b3ce015","getOperatorRestakedStrategies(address)":"33cfb7b7","getRestakeableStrategies()":"e481af9d","getSocialGraphIDs()":"d18a1325","hashTaskWithExpiry((string,address,address,uint256,bytes,string,uint32,uint256))":"949528fc","idToPolicy(string)":"d9d4e99f","idToSocialGraph(string)":"ddf6a51b","initialize(address,address,address,address,address,uint256)":"95b6ef0c","operators(address)":"13e7c9d8","owner()":"8da5cb5b","registerOperatorToAVS(address,(bytes,bytes32,uint256))":"9926ee7d","removePermissionedOperators(address[])":"786bf3c3","removePolicy(string)":"34099ba1","removeStrategy(address)":"175188e8","renounceOwnership()":"715018a6","rotatePredicateSigningKey(address,address)":"001ba1eb","setAVSDirectory(address)":"862621ef","setAggregator(address)":"f9120af6","setDelegationManager(address)":"1a8d0de2","setMetadataURI(string)":"750521f5","setPolicy(string)":"6b4c991b","setStakeRegistry(address)":"e3b05f2f","setThresholdStake(uint256)":"8ad96602","signingKeyToOperator(address)":"0ff26fd1","socialGraphIDs(uint256)":"df935065","spentTaskIds(string)":"749dccc7","stakeRegistry()":"68304835","strategies(uint256)":"d574ea3d","thresholdStake()":"20af7390","transferOwnership(address)":"f2fde38b","updateOperatorsForQuorum(address[][],bytes)":"5140a548","validateSignatures((string,address,address,uint256,bytes,string,uint32,uint256),address[],bytes[])":"18cea58d"},"id":71}