{"abi":[{"type":"function","name":"getDeposits","inputs":[{"name":"","type":"address","internalType":"address"}],"outputs":[{"name":"","type":"address[]","internalType":"contract IStrategy[]"},{"name":"","type":"uint256[]","internalType":"uint256[]"}],"stateMutability":"pure"}],"bytecode":{"object":"0x608060405234801561001057600080fd5b50610159806100206000396000f3fe608060405234801561001057600080fd5b506004361061002b5760003560e01c806394f649dd14610030575b600080fd5b61005861003e36600461006f565b506040805160008082526020820190815281830190925291565b60405161006692919061009f565b60405180910390f35b60006020828403121561008157600080fd5b81356001600160a01b038116811461009857600080fd5b9392505050565b604080825283519082018190526000906020906060840190828701845b828110156100e15781516001600160a01b0316845292840192908401906001016100bc565b5050508381038285015284518082528583019183019060005b81811015610116578351835292840192918401916001016100fa565b509097965050505050505056fea2646970667358221220ea0593bb35c8e45ebd87fc3d9479eff18f92e4dd231fc22f9fd63b4d8080118964736f6c634300080c0033","linkReferences":{}},"methodIdentifiers":{"getDeposits(address)":"94f649dd"},"id":94}