{
  "_format": "hh-sol-artifact-1",
  "contractName": "PredicateClient",
  "sourceName": "src/mixins/PredicateClient.sol",
  "abi": [
    {
      "inputs": [],
      "name": "PredicateClient__Unauthorized",
      "type": "error"
    },
    {
      "anonymous": false,
      "inputs": [
        {
          "indexed": true,
          "internalType": "address",
          "name": "previousOwner",
          "type": "address"
        },
        {
          "indexed": true,
          "internalType": "address",
          "name": "newOwner",
          "type": "address"
        }
      ],
      "name": "OwnershipTransferred",
      "type": "event"
    },
    {
      "inputs": [],
      "name": "owner",
      "outputs": [
        {
          "internalType": "address",
          "name": "",
          "type": "address"
        }
      ],
      "stateMutability": "view",
      "type": "function"
    },
    {
      "inputs": [],
      "name": "policyID",
      "outputs": [
        {
          "internalType": "string",
          "name": "",
          "type": "string"
        }
      ],
      "stateMutability": "view",
      "type": "function"
    },
    {
      "inputs": [],
      "name": "renounceOwnership",
      "outputs": [],
      "stateMutability": "nonpayable",
      "type": "function"
    },
    {
      "inputs": [],
      "name": "serviceManager",
      "outputs": [
        {
          "internalType": "contract IServiceManager",
          "name": "",
          "type": "address"
        }
      ],
      "stateMutability": "view",
      "type": "function"
    },
    {
      "inputs": [
        {
          "internalType": "string",
          "name": "_policyID",
          "type": "string"
        }
      ],
      "name": "setPolicy",
      "outputs": [],
      "stateMutability": "nonpayable",
      "type": "function"
    },
    {
      "inputs": [
        {
          "internalType": "address",
          "name": "_serviceManager",
          "type": "address"
        }
      ],
      "name": "setServiceManager",
      "outputs": [],
      "stateMutability": "nonpayable",
      "type": "function"
    },
    {
      "inputs": [
        {
          "internalType": "address",
          "name": "newOwner",
          "type": "address"
        }
      ],
      "name": "transferOwnership",
      "outputs": [],
      "stateMutability": "nonpayable",
      "type": "function"
    }
  ],
  "bytecode": "0x608060405234801561001057600080fd5b5061001a3361001f565b61006f565b600080546001600160a01b038381166001600160a01b0319831681178455604051919092169283917f8be0079c531659141344cd1fd0a4f28419497f9722a3daafe3b4186f6b6457e09190a35050565b6107228061007e6000396000f3fe608060405234801561001057600080fd5b506004361061007d5760003560e01c80638da5cb5b1161005b5780638da5cb5b146100c85780639b41bf23146100e1578063c6cf634b146100f4578063f2fde38b1461010957600080fd5b80633998fdd3146100825780636b4c991b146100ab578063715018a6146100c0575b600080fd5b600154610095906001600160a01b031681565b6040516100a291906103f7565b60405180910390f35b6100be6100b9366004610508565b61011c565b005b6100be61019d565b6000546001600160a01b03166040516100a2919061055d565b6100be6100ef36600461058a565b6101b1565b6100fc6101db565b6040516100a2919061060d565b6100be61011736600461058a565b610269565b6101246102ac565b8051610137906002906020840190610326565b50600154604051636b4c991b60e01b81526001600160a01b0390911690636b4c991b9061016890849060040161060d565b600060405180830381600087803b15801561018257600080fd5b505af1158015610196573d6000803e3d6000fd5b5050505050565b6101a56102ac565b6101af60006102d6565b565b6101b96102ac565b600180546001600160a01b0319166001600160a01b0392909216919091179055565b600280546101e89061063b565b80601f01602080910402602001604051908101604052809291908181526020018280546102149061063b565b80156102615780601f1061023657610100808354040283529160200191610261565b820191906000526020600020905b81548152906001019060200180831161024457829003601f168201915b505050505081565b6102716102ac565b6001600160a01b0381166102a05760405162461bcd60e51b815260040161029790610668565b60405180910390fd5b6102a9816102d6565b50565b6000546001600160a01b031633146101af5760405162461bcd60e51b8152600401610297906106b2565b600080546001600160a01b038381166001600160a01b0319831681178455604051919092169283917f8be0079c531659141344cd1fd0a4f28419497f9722a3daafe3b4186f6b6457e09190a35050565b8280546103329061063b565b90600052602060002090601f016020900481019282610354576000855561039a565b82601f1061036d57805160ff191683800117855561039a565b8280016001018555821561039a579182015b8281111561039a57825182559160200191906001019061037f565b506103a69291506103aa565b5090565b5b808211156103a657600081556001016103ab565b60006001600160a01b0382165b92915050565b60006103cc826103bf565b60006103cc826103d2565b6103f1816103dd565b82525050565b602081016103cc82846103e8565b634e487b7160e01b600052604160045260246000fd5b601f19601f830116810181811067ffffffffffffffff8211171561044157610441610405565b6040525050565b600061045360405190565b905061045f828261041b565b919050565b600067ffffffffffffffff82111561047e5761047e610405565b601f19601f83011660200192915050565b82818337506000910152565b60006104ae6104a984610464565b610448565b9050828152602081018484840111156104c9576104c9600080fd5b6104d484828561048f565b509392505050565b600082601f8301126104f0576104f0600080fd5b813561050084826020860161049b565b949350505050565b60006020828403121561051d5761051d600080fd5b813567ffffffffffffffff81111561053757610537600080fd5b610500848285016104dc565b60006001600160a01b0382166103cc565b6103f181610543565b602081016103cc8284610554565b61057481610543565b81146102a957600080fd5b80356103cc8161056b565b60006020828403121561059f5761059f600080fd5b6000610500848461057f565b60005b838110156105c65781810151838201526020016105ae565b838111156105d5576000848401525b50505050565b60006105e5825190565b8084526020840193506105fc8185602086016105ab565b601f01601f19169290920192915050565b6020808252810161061e81846105db565b9392505050565b634e487b7160e01b600052602260045260246000fd5b60028104600182168061064f57607f821691505b6020821081141561066257610662610625565b50919050565b602080825281016103cc81602681527f4f776e61626c653a206e6577206f776e657220697320746865207a65726f206160208201526564647265737360d01b604082015260600190565b60208082528181019081527f4f776e61626c653a2063616c6c6572206973206e6f7420746865206f776e65726040830152606082016103cc56fea2646970667358221220ca80157ebb2edfc70ea1bf0f033ad0e5b82f8d350eba5b52651c28a4645675d964736f6c634300080c0033",
  "linkReferences": {},
  "deployedLinkReferences": {}
}