{"abi":[{"type":"function","name":"owner","inputs":[],"outputs":[{"name":"","type":"address","internalType":"address"}],"stateMutability":"view"},{"type":"function","name":"policyID","inputs":[],"outputs":[{"name":"","type":"string","internalType":"string"}],"stateMutability":"view"},{"type":"function","name":"renounceOwnership","inputs":[],"outputs":[],"stateMutability":"nonpayable"},{"type":"function","name":"serviceManager","inputs":[],"outputs":[{"name":"","type":"address","internalType":"contract IServiceManager"}],"stateMutability":"view"},{"type":"function","name":"setPolicy","inputs":[{"name":"_policyID","type":"string","internalType":"string"}],"outputs":[],"stateMutability":"nonpayable"},{"type":"function","name":"setServiceManager","inputs":[{"name":"_serviceManager","type":"address","internalType":"address"}],"outputs":[],"stateMutability":"nonpayable"},{"type":"function","name":"transferOwnership","inputs":[{"name":"newOwner","type":"address","internalType":"address"}],"outputs":[],"stateMutability":"nonpayable"},{"type":"event","name":"OwnershipTransferred","inputs":[{"name":"previousOwner","type":"address","indexed":true,"internalType":"address"},{"name":"newOwner","type":"address","indexed":true,"internalType":"address"}],"anonymous":false},{"type":"error","name":"PredicateClient__Unauthorized","inputs":[]}],"bytecode":{"object":"0x608060405234801561001057600080fd5b5061001a3361001f565b61006f565b600080546001600160a01b038381166001600160a01b0319831681178455604051919092169283917f8be0079c531659141344cd1fd0a4f28419497f9722a3daafe3b4186f6b6457e09190a35050565b6105e68061007e6000396000f3fe608060405234801561001057600080fd5b506004361061007d5760003560e01c80638da5cb5b1161005b5780638da5cb5b146100cf5780639b41bf23146100e0578063c6cf634b146100f3578063f2fde38b1461010857600080fd5b80633998fdd3146100825780636b4c991b146100b2578063715018a6146100c7575b600080fd5b600154610095906001600160a01b031681565b6040516001600160a01b0390911681526020015b60405180910390f35b6100c56100c036600461043f565b61011b565b005b6100c561019c565b6000546001600160a01b0316610095565b6100c56100ee3660046104f0565b6101b0565b6100fb6101da565b6040516100a99190610520565b6100c56101163660046104f0565b610268565b6101236102e6565b8051610136906002906020840190610390565b50600154604051636b4c991b60e01b81526001600160a01b0390911690636b4c991b90610167908490600401610520565b600060405180830381600087803b15801561018157600080fd5b505af1158015610195573d6000803e3d6000fd5b5050505050565b6101a46102e6565b6101ae6000610340565b565b6101b86102e6565b600180546001600160a01b0319166001600160a01b0392909216919091179055565b600280546101e790610575565b80601f016020809104026020016040519081016040528092919081815260200182805461021390610575565b80156102605780601f1061023557610100808354040283529160200191610260565b820191906000526020600020905b81548152906001019060200180831161024357829003601f168201915b505050505081565b6102706102e6565b6001600160a01b0381166102da5760405162461bcd60e51b815260206004820152602660248201527f4f776e61626c653a206e6577206f776e657220697320746865207a65726f206160448201526564647265737360d01b60648201526084015b60405180910390fd5b6102e381610340565b50565b6000546001600160a01b031633146101ae5760405162461bcd60e51b815260206004820181905260248201527f4f776e61626c653a2063616c6c6572206973206e6f7420746865206f776e657260448201526064016102d1565b600080546001600160a01b038381166001600160a01b0319831681178455604051919092169283917f8be0079c531659141344cd1fd0a4f28419497f9722a3daafe3b4186f6b6457e09190a35050565b82805461039c90610575565b90600052602060002090601f0160209004810192826103be5760008555610404565b82601f106103d757805160ff1916838001178555610404565b82800160010185558215610404579182015b828111156104045782518255916020019190600101906103e9565b50610410929150610414565b5090565b5b808211156104105760008155600101610415565b634e487b7160e01b600052604160045260246000fd5b60006020828403121561045157600080fd5b813567ffffffffffffffff8082111561046957600080fd5b818401915084601f83011261047d57600080fd5b81358181111561048f5761048f610429565b604051601f8201601f19908116603f011681019083821181831017156104b7576104b7610429565b816040528281528760208487010111156104d057600080fd5b826020860160208301376000928101602001929092525095945050505050565b60006020828403121561050257600080fd5b81356001600160a01b038116811461051957600080fd5b9392505050565b600060208083528351808285015260005b8181101561054d57858101830151858201604001528201610531565b8181111561055f576000604083870101525b50601f01601f1916929092016040019392505050565b600181811c9082168061058957607f821691505b602082108114156105aa57634e487b7160e01b600052602260045260246000fd5b5091905056fea2646970667358221220813426244b03555d8a78a1c2b34e234dbd7240b001a041cbc66809ba3e20994b64736f6c634300080c0033","linkReferences":{}},"methodIdentifiers":{"owner()":"8da5cb5b","policyID()":"c6cf634b","renounceOwnership()":"715018a6","serviceManager()":"3998fdd3","setPolicy(string)":"6b4c991b","setServiceManager(address)":"9b41bf23","transferOwnership(address)":"f2fde38b"},"id":79}