{"abi":[{"type":"constructor","inputs":[{"name":"_serviceManager","type":"address","internalType":"address"}],"stateMutability":"nonpayable"},{"type":"fallback","stateMutability":"payable"},{"type":"receive","stateMutability":"payable"},{"type":"function","name":"counter","inputs":[],"outputs":[{"name":"","type":"uint256","internalType":"uint256"}],"stateMutability":"view"},{"type":"function","name":"incrementCounter","inputs":[],"outputs":[],"stateMutability":"nonpayable"},{"type":"function","name":"owner","inputs":[],"outputs":[{"name":"","type":"address","internalType":"address"}],"stateMutability":"view"},{"type":"function","name":"policyID","inputs":[],"outputs":[{"name":"","type":"string","internalType":"string"}],"stateMutability":"view"},{"type":"function","name":"renounceOwnership","inputs":[],"outputs":[],"stateMutability":"nonpayable"},{"type":"function","name":"serviceManager","inputs":[],"outputs":[{"name":"","type":"address","internalType":"contract IServiceManager"}],"stateMutability":"view"},{"type":"function","name":"setPolicy","inputs":[{"name":"_policyID","type":"string","internalType":"string"}],"outputs":[],"stateMutability":"nonpayable"},{"type":"function","name":"setServiceManager","inputs":[{"name":"_serviceManager","type":"address","internalType":"address"}],"outputs":[],"stateMutability":"nonpayable"},{"type":"function","name":"transferOwnership","inputs":[{"name":"newOwner","type":"address","internalType":"address"}],"outputs":[],"stateMutability":"nonpayable"},{"type":"event","name":"OwnershipTransferred","inputs":[{"name":"previousOwner","type":"address","indexed":true,"internalType":"address"},{"name":"newOwner","type":"address","indexed":true,"internalType":"address"}],"anonymous":false},{"type":"error","name":"PredicateClient__Unauthorized","inputs":[]}],"bytecode":{"object":"0x608060405234801561001057600080fd5b5060405161089638038061089683398101604081905261002f91610121565b61003833610047565b61004181610097565b50610151565b600080546001600160a01b038381166001600160a01b0319831681178455604051919092169283917f8be0079c531659141344cd1fd0a4f28419497f9722a3daafe3b4186f6b6457e09190a35050565b61009f6100c1565b600180546001600160a01b0319166001600160a01b0392909216919091179055565b6000546001600160a01b0316331461011f5760405162461bcd60e51b815260206004820181905260248201527f4f776e61626c653a2063616c6c6572206973206e6f7420746865206f776e6572604482015260640160405180910390fd5b565b60006020828403121561013357600080fd5b81516001600160a01b038116811461014a57600080fd5b9392505050565b610736806101606000396000f3fe60806040526004361061008a5760003560e01c8063715018a611610059578063715018a6146101705780638da5cb5b146101855780639b41bf23146101a3578063c6cf634b146101c3578063f2fde38b146101e5576100b6565b80633998fdd3146100d85780635b34b9661461011557806361bc221a1461012c5780636b4c991b14610150576100b6565b366100b65760405162461bcd60e51b815260206004820152600060248201526044015b60405180910390fd5b60405162461bcd60e51b815260206004820152600060248201526044016100ad565b3480156100e457600080fd5b506001546100f8906001600160a01b031681565b6040516001600160a01b0390911681526020015b60405180910390f35b34801561012157600080fd5b5061012a610205565b005b34801561013857600080fd5b5061014260035481565b60405190815260200161010c565b34801561015c57600080fd5b5061012a61016b366004610566565b610247565b34801561017c57600080fd5b5061012a6102c8565b34801561019157600080fd5b506000546001600160a01b03166100f8565b3480156101af57600080fd5b5061012a6101be366004610617565b6102dc565b3480156101cf57600080fd5b506101d8610306565b60405161010c9190610647565b3480156101f157600080fd5b5061012a610200366004610617565b610394565b6001546001600160a01b03163314610230576040516349cffa9160e11b815260040160405180910390fd5b600380549060006102408361069c565b9190505550565b61024f61040d565b80516102629060029060208401906104b7565b50600154604051636b4c991b60e01b81526001600160a01b0390911690636b4c991b90610293908490600401610647565b600060405180830381600087803b1580156102ad57600080fd5b505af11580156102c1573d6000803e3d6000fd5b5050505050565b6102d061040d565b6102da6000610467565b565b6102e461040d565b600180546001600160a01b0319166001600160a01b0392909216919091179055565b60028054610313906106c5565b80601f016020809104026020016040519081016040528092919081815260200182805461033f906106c5565b801561038c5780601f106103615761010080835404028352916020019161038c565b820191906000526020600020905b81548152906001019060200180831161036f57829003601f168201915b505050505081565b61039c61040d565b6001600160a01b0381166104015760405162461bcd60e51b815260206004820152602660248201527f4f776e61626c653a206e6577206f776e657220697320746865207a65726f206160448201526564647265737360d01b60648201526084016100ad565b61040a81610467565b50565b6000546001600160a01b031633146102da5760405162461bcd60e51b815260206004820181905260248201527f4f776e61626c653a2063616c6c6572206973206e6f7420746865206f776e657260448201526064016100ad565b600080546001600160a01b038381166001600160a01b0319831681178455604051919092169283917f8be0079c531659141344cd1fd0a4f28419497f9722a3daafe3b4186f6b6457e09190a35050565b8280546104c3906106c5565b90600052602060002090601f0160209004810192826104e5576000855561052b565b82601f106104fe57805160ff191683800117855561052b565b8280016001018555821561052b579182015b8281111561052b578251825591602001919060010190610510565b5061053792915061053b565b5090565b5b80821115610537576000815560010161053c565b634e487b7160e01b600052604160045260246000fd5b60006020828403121561057857600080fd5b813567ffffffffffffffff8082111561059057600080fd5b818401915084601f8301126105a457600080fd5b8135818111156105b6576105b6610550565b604051601f8201601f19908116603f011681019083821181831017156105de576105de610550565b816040528281528760208487010111156105f757600080fd5b826020860160208301376000928101602001929092525095945050505050565b60006020828403121561062957600080fd5b81356001600160a01b038116811461064057600080fd5b9392505050565b600060208083528351808285015260005b8181101561067457858101830151858201604001528201610658565b81811115610686576000604083870101525b50601f01601f1916929092016040019392505050565b60006000198214156106be57634e487b7160e01b600052601160045260246000fd5b5060010190565b600181811c908216806106d957607f821691505b602082108114156106fa57634e487b7160e01b600052602260045260246000fd5b5091905056fea26469706673582212208d16b34e635c9ff0d7741fe57984dbb62479f300d1f60adbf2aba336fa9a06ad64736f6c634300080c0033","linkReferences":{}},"methodIdentifiers":{"counter()":"61bc221a","incrementCounter()":"5b34b966","owner()":"8da5cb5b","policyID()":"c6cf634b","renounceOwnership()":"715018a6","serviceManager()":"3998fdd3","setPolicy(string)":"6b4c991b","setServiceManager(address)":"9b41bf23","transferOwnership(address)":"f2fde38b"},"id":88}