{"abi":[{"type":"constructor","inputs":[{"name":"_strategyManager","type":"address","internalType":"address"},{"name":"_slasher","type":"address","internalType":"address"},{"name":"_eigenPodManager","type":"address","internalType":"address"}],"stateMutability":"nonpayable"},{"type":"function","name":"DELEGATION_APPROVAL_TYPEHASH","inputs":[],"outputs":[{"name":"","type":"bytes32","internalType":"bytes32"}],"stateMutability":"view"},{"type":"function","name":"DOMAIN_TYPEHASH","inputs":[],"outputs":[{"name":"","type":"bytes32","internalType":"bytes32"}],"stateMutability":"view"},{"type":"function","name":"MAX_STAKER_OPT_OUT_WINDOW_BLOCKS","inputs":[],"outputs":[{"name":"","type":"uint256","internalType":"uint256"}],"stateMutability":"view"},{"type":"function","name":"MAX_WITHDRAWAL_DELAY_BLOCKS","inputs":[],"outputs":[{"name":"","type":"uint256","internalType":"uint256"}],"stateMutability":"view"},{"type":"function","name":"OPERATOR_AVS_REGISTRATION_TYPEHASH","inputs":[],"outputs":[{"name":"","type":"bytes32","internalType":"bytes32"}],"stateMutability":"view"},{"type":"function","name":"STAKER_DELEGATION_TYPEHASH","inputs":[],"outputs":[{"name":"","type":"bytes32","internalType":"bytes32"}],"stateMutability":"view"},{"type":"function","name":"avsOperatorStatus","inputs":[{"name":"","type":"address","internalType":"address"},{"name":"","type":"address","internalType":"address"}],"outputs":[{"name":"","type":"uint8","internalType":"enum IDelegationManager.OperatorAVSRegistrationStatus"}],"stateMutability":"view"},{"type":"function","name":"beaconChainETHStrategy","inputs":[],"outputs":[{"name":"","type":"address","internalType":"contract IStrategy"}],"stateMutability":"view"},{"type":"function","name":"calculateCurrentStakerDelegationDigestHash","inputs":[{"name":"staker","type":"address","internalType":"address"},{"name":"operator","type":"address","internalType":"address"},{"name":"expiry","type":"uint256","internalType":"uint256"}],"outputs":[{"name":"","type":"bytes32","internalType":"bytes32"}],"stateMutability":"view"},{"type":"function","name":"calculateDelegationApprovalDigestHash","inputs":[{"name":"staker","type":"address","internalType":"address"},{"name":"operator","type":"address","internalType":"address"},{"name":"_delegationApprover","type":"address","internalType":"address"},{"name":"approverSalt","type":"bytes32","internalType":"bytes32"},{"name":"expiry","type":"uint256","internalType":"uint256"}],"outputs":[{"name":"","type":"bytes32","internalType":"bytes32"}],"stateMutability":"view"},{"type":"function","name":"calculateOperatorAVSRegistrationDigestHash","inputs":[{"name":"operator","type":"address","internalType":"address"},{"name":"avs","type":"address","internalType":"address"},{"name":"salt","type":"bytes32","internalType":"bytes32"},{"name":"expiry","type":"uint256","internalType":"uint256"}],"outputs":[{"name":"","type":"bytes32","internalType":"bytes32"}],"stateMutability":"view"},{"type":"function","name":"calculateStakerDelegationDigestHash","inputs":[{"name":"staker","type":"address","internalType":"address"},{"name":"_stakerNonce","type":"uint256","internalType":"uint256"},{"name":"operator","type":"address","internalType":"address"},{"name":"expiry","type":"uint256","internalType":"uint256"}],"outputs":[{"name":"","type":"bytes32","internalType":"bytes32"}],"stateMutability":"view"},{"type":"function","name":"calculateWithdrawalRoot","inputs":[{"name":"withdrawal","type":"tuple","internalType":"struct IDelegationManager.Withdrawal","components":[{"name":"staker","type":"address","internalType":"address"},{"name":"delegatedTo","type":"address","internalType":"address"},{"name":"withdrawer","type":"address","internalType":"address"},{"name":"nonce","type":"uint256","internalType":"uint256"},{"name":"startBlock","type":"uint32","internalType":"uint32"},{"name":"strategies","type":"address[]","internalType":"contract IStrategy[]"},{"name":"shares","type":"uint256[]","internalType":"uint256[]"}]}],"outputs":[{"name":"","type":"bytes32","internalType":"bytes32"}],"stateMutability":"pure"},{"type":"function","name":"completeQueuedWithdrawal","inputs":[{"name":"withdrawal","type":"tuple","internalType":"struct IDelegationManager.Withdrawal","components":[{"name":"staker","type":"address","internalType":"address"},{"name":"delegatedTo","type":"address","internalType":"address"},{"name":"withdrawer","type":"address","internalType":"address"},{"name":"nonce","type":"uint256","internalType":"uint256"},{"name":"startBlock","type":"uint32","internalType":"uint32"},{"name":"strategies","type":"address[]","internalType":"contract IStrategy[]"},{"name":"shares","type":"uint256[]","internalType":"uint256[]"}]},{"name":"tokens","type":"address[]","internalType":"contract IERC20[]"},{"name":"middlewareTimesIndex","type":"uint256","internalType":"uint256"},{"name":"receiveAsTokens","type":"bool","internalType":"bool"}],"outputs":[],"stateMutability":"nonpayable"},{"type":"function","name":"completeQueuedWithdrawals","inputs":[{"name":"withdrawals","type":"tuple[]","internalType":"struct IDelegationManager.Withdrawal[]","components":[{"name":"staker","type":"address","internalType":"address"},{"name":"delegatedTo","type":"address","internalType":"address"},{"name":"withdrawer","type":"address","internalType":"address"},{"name":"nonce","type":"uint256","internalType":"uint256"},{"name":"startBlock","type":"uint32","internalType":"uint32"},{"name":"strategies","type":"address[]","internalType":"contract IStrategy[]"},{"name":"shares","type":"uint256[]","internalType":"uint256[]"}]},{"name":"tokens","type":"address[][]","internalType":"contract IERC20[][]"},{"name":"middlewareTimesIndexes","type":"uint256[]","internalType":"uint256[]"},{"name":"receiveAsTokens","type":"bool[]","internalType":"bool[]"}],"outputs":[],"stateMutability":"nonpayable"},{"type":"function","name":"cumulativeWithdrawalsQueued","inputs":[{"name":"","type":"address","internalType":"address"}],"outputs":[{"name":"","type":"uint256","internalType":"uint256"}],"stateMutability":"view"},{"type":"function","name":"decreaseDelegatedShares","inputs":[{"name":"staker","type":"address","internalType":"address"},{"name":"strategy","type":"address","internalType":"contract IStrategy"},{"name":"shares","type":"uint256","internalType":"uint256"}],"outputs":[],"stateMutability":"nonpayable"},{"type":"function","name":"delegateTo","inputs":[{"name":"operator","type":"address","internalType":"address"},{"name":"approverSignatureAndExpiry","type":"tuple","internalType":"struct ISignatureUtils.SignatureWithExpiry","components":[{"name":"signature","type":"bytes","internalType":"bytes"},{"name":"expiry","type":"uint256","internalType":"uint256"}]},{"name":"approverSalt","type":"bytes32","internalType":"bytes32"}],"outputs":[],"stateMutability":"nonpayable"},{"type":"function","name":"delegateToBySignature","inputs":[{"name":"staker","type":"address","internalType":"address"},{"name":"operator","type":"address","internalType":"address"},{"name":"stakerSignatureAndExpiry","type":"tuple","internalType":"struct ISignatureUtils.SignatureWithExpiry","components":[{"name":"signature","type":"bytes","internalType":"bytes"},{"name":"expiry","type":"uint256","internalType":"uint256"}]},{"name":"approverSignatureAndExpiry","type":"tuple","internalType":"struct ISignatureUtils.SignatureWithExpiry","components":[{"name":"signature","type":"bytes","internalType":"bytes"},{"name":"expiry","type":"uint256","internalType":"uint256"}]},{"name":"approverSalt","type":"bytes32","internalType":"bytes32"}],"outputs":[],"stateMutability":"nonpayable"},{"type":"function","name":"delegatedTo","inputs":[{"name":"","type":"address","internalType":"address"}],"outputs":[{"name":"","type":"address","internalType":"address"}],"stateMutability":"view"},{"type":"function","name":"delegationApprover","inputs":[{"name":"operator","type":"address","internalType":"address"}],"outputs":[{"name":"","type":"address","internalType":"address"}],"stateMutability":"view"},{"type":"function","name":"delegationApproverSaltIsSpent","inputs":[{"name":"","type":"address","internalType":"address"},{"name":"","type":"bytes32","internalType":"bytes32"}],"outputs":[{"name":"","type":"bool","internalType":"bool"}],"stateMutability":"view"},{"type":"function","name":"deregisterOperatorFromAVS","inputs":[{"name":"operator","type":"address","internalType":"address"}],"outputs":[],"stateMutability":"nonpayable"},{"type":"function","name":"domainSeparator","inputs":[],"outputs":[{"name":"","type":"bytes32","internalType":"bytes32"}],"stateMutability":"view"},{"type":"function","name":"earningsReceiver","inputs":[{"name":"operator","type":"address","internalType":"address"}],"outputs":[{"name":"","type":"address","internalType":"address"}],"stateMutability":"view"},{"type":"function","name":"eigenPodManager","inputs":[],"outputs":[{"name":"","type":"address","internalType":"contract IEigenPodManager"}],"stateMutability":"view"},{"type":"function","name":"getDelegatableShares","inputs":[{"name":"staker","type":"address","internalType":"address"}],"outputs":[{"name":"","type":"address[]","internalType":"contract IStrategy[]"},{"name":"","type":"uint256[]","internalType":"uint256[]"}],"stateMutability":"view"},{"type":"function","name":"increaseDelegatedShares","inputs":[{"name":"staker","type":"address","internalType":"address"},{"name":"strategy","type":"address","internalType":"contract IStrategy"},{"name":"shares","type":"uint256","internalType":"uint256"}],"outputs":[],"stateMutability":"nonpayable"},{"type":"function","name":"initialize","inputs":[{"name":"initialOwner","type":"address","internalType":"address"},{"name":"_pauserRegistry","type":"address","internalType":"contract IPauserRegistry"},{"name":"initialPausedStatus","type":"uint256","internalType":"uint256"},{"name":"_withdrawalDelayBlocks","type":"uint256","internalType":"uint256"}],"outputs":[],"stateMutability":"nonpayable"},{"type":"function","name":"isDelegated","inputs":[{"name":"staker","type":"address","internalType":"address"}],"outputs":[{"name":"","type":"bool","internalType":"bool"}],"stateMutability":"view"},{"type":"function","name":"isOperator","inputs":[{"name":"operator","type":"address","internalType":"address"}],"outputs":[{"name":"","type":"bool","internalType":"bool"}],"stateMutability":"view"},{"type":"function","name":"migrateQueuedWithdrawals","inputs":[{"name":"withdrawalsToMigrate","type":"tuple[]","internalType":"struct IStrategyManager.DeprecatedStruct_QueuedWithdrawal[]","components":[{"name":"strategies","type":"address[]","internalType":"contract IStrategy[]"},{"name":"shares","type":"uint256[]","internalType":"uint256[]"},{"name":"staker","type":"address","internalType":"address"},{"name":"withdrawerAndNonce","type":"tuple","internalType":"struct IStrategyManager.DeprecatedStruct_WithdrawerAndNonce","components":[{"name":"withdrawer","type":"address","internalType":"address"},{"name":"nonce","type":"uint96","internalType":"uint96"}]},{"name":"withdrawalStartBlock","type":"uint32","internalType":"uint32"},{"name":"delegatedAddress","type":"address","internalType":"address"}]}],"outputs":[],"stateMutability":"nonpayable"},{"type":"function","name":"modifyOperatorDetails","inputs":[{"name":"newOperatorDetails","type":"tuple","internalType":"struct IDelegationManager.OperatorDetails","components":[{"name":"earningsReceiver","type":"address","internalType":"address"},{"name":"delegationApprover","type":"address","internalType":"address"},{"name":"stakerOptOutWindowBlocks","type":"uint32","internalType":"uint32"}]}],"outputs":[],"stateMutability":"nonpayable"},{"type":"function","name":"operatorDetails","inputs":[{"name":"operator","type":"address","internalType":"address"}],"outputs":[{"name":"","type":"tuple","internalType":"struct IDelegationManager.OperatorDetails","components":[{"name":"earningsReceiver","type":"address","internalType":"address"},{"name":"delegationApprover","type":"address","internalType":"address"},{"name":"stakerOptOutWindowBlocks","type":"uint32","internalType":"uint32"}]}],"stateMutability":"view"},{"type":"function","name":"operatorSaltIsSpent","inputs":[{"name":"","type":"address","internalType":"address"},{"name":"","type":"bytes32","internalType":"bytes32"}],"outputs":[{"name":"","type":"bool","internalType":"bool"}],"stateMutability":"view"},{"type":"function","name":"operatorShares","inputs":[{"name":"","type":"address","internalType":"address"},{"name":"","type":"address","internalType":"contract IStrategy"}],"outputs":[{"name":"","type":"uint256","internalType":"uint256"}],"stateMutability":"view"},{"type":"function","name":"owner","inputs":[],"outputs":[{"name":"","type":"address","internalType":"address"}],"stateMutability":"view"},{"type":"function","name":"pause","inputs":[{"name":"newPausedStatus","type":"uint256","internalType":"uint256"}],"outputs":[],"stateMutability":"nonpayable"},{"type":"function","name":"pauseAll","inputs":[],"outputs":[],"stateMutability":"nonpayable"},{"type":"function","name":"paused","inputs":[{"name":"index","type":"uint8","internalType":"uint8"}],"outputs":[{"name":"","type":"bool","internalType":"bool"}],"stateMutability":"view"},{"type":"function","name":"paused","inputs":[],"outputs":[{"name":"","type":"uint256","internalType":"uint256"}],"stateMutability":"view"},{"type":"function","name":"pauserRegistry","inputs":[],"outputs":[{"name":"","type":"address","internalType":"contract IPauserRegistry"}],"stateMutability":"view"},{"type":"function","name":"pendingWithdrawals","inputs":[{"name":"","type":"bytes32","internalType":"bytes32"}],"outputs":[{"name":"","type":"bool","internalType":"bool"}],"stateMutability":"view"},{"type":"function","name":"queueWithdrawals","inputs":[{"name":"queuedWithdrawalParams","type":"tuple[]","internalType":"struct IDelegationManager.QueuedWithdrawalParams[]","components":[{"name":"strategies","type":"address[]","internalType":"contract IStrategy[]"},{"name":"shares","type":"uint256[]","internalType":"uint256[]"},{"name":"withdrawer","type":"address","internalType":"address"}]}],"outputs":[{"name":"","type":"bytes32[]","internalType":"bytes32[]"}],"stateMutability":"nonpayable"},{"type":"function","name":"registerAsOperator","inputs":[{"name":"registeringOperatorDetails","type":"tuple","internalType":"struct IDelegationManager.OperatorDetails","components":[{"name":"earningsReceiver","type":"address","internalType":"address"},{"name":"delegationApprover","type":"address","internalType":"address"},{"name":"stakerOptOutWindowBlocks","type":"uint32","internalType":"uint32"}]},{"name":"metadataURI","type":"string","internalType":"string"}],"outputs":[],"stateMutability":"nonpayable"},{"type":"function","name":"registerOperatorToAVS","inputs":[{"name":"operator","type":"address","internalType":"address"},{"name":"operatorSignature","type":"tuple","internalType":"struct ISignatureUtils.SignatureWithSaltAndExpiry","components":[{"name":"signature","type":"bytes","internalType":"bytes"},{"name":"salt","type":"bytes32","internalType":"bytes32"},{"name":"expiry","type":"uint256","internalType":"uint256"}]}],"outputs":[],"stateMutability":"nonpayable"},{"type":"function","name":"renounceOwnership","inputs":[],"outputs":[],"stateMutability":"nonpayable"},{"type":"function","name":"setPauserRegistry","inputs":[{"name":"newPauserRegistry","type":"address","internalType":"contract IPauserRegistry"}],"outputs":[],"stateMutability":"nonpayable"},{"type":"function","name":"slasher","inputs":[],"outputs":[{"name":"","type":"address","internalType":"contract ISlasher"}],"stateMutability":"view"},{"type":"function","name":"stakerNonce","inputs":[{"name":"","type":"address","internalType":"address"}],"outputs":[{"name":"","type":"uint256","internalType":"uint256"}],"stateMutability":"view"},{"type":"function","name":"stakerOptOutWindowBlocks","inputs":[{"name":"operator","type":"address","internalType":"address"}],"outputs":[{"name":"","type":"uint256","internalType":"uint256"}],"stateMutability":"view"},{"type":"function","name":"strategyManager","inputs":[],"outputs":[{"name":"","type":"address","internalType":"contract IStrategyManager"}],"stateMutability":"view"},{"type":"function","name":"test","inputs":[],"outputs":[],"stateMutability":"nonpayable"},{"type":"function","name":"transferOwnership","inputs":[{"name":"newOwner","type":"address","internalType":"address"}],"outputs":[],"stateMutability":"nonpayable"},{"type":"function","name":"undelegate","inputs":[{"name":"staker","type":"address","internalType":"address"}],"outputs":[{"name":"withdrawalRoots","type":"bytes32[]","internalType":"bytes32[]"}],"stateMutability":"nonpayable"},{"type":"function","name":"unpause","inputs":[{"name":"newPausedStatus","type":"uint256","internalType":"uint256"}],"outputs":[],"stateMutability":"nonpayable"},{"type":"function","name":"updateAVSMetadataURI","inputs":[{"name":"metadataURI","type":"string","internalType":"string"}],"outputs":[],"stateMutability":"nonpayable"},{"type":"function","name":"updateOperatorMetadataURI","inputs":[{"name":"metadataURI","type":"string","internalType":"string"}],"outputs":[],"stateMutability":"nonpayable"},{"type":"function","name":"withdrawalDelayBlocks","inputs":[],"outputs":[{"name":"","type":"uint256","internalType":"uint256"}],"stateMutability":"view"},{"type":"event","name":"AVSMetadataURIUpdated","inputs":[{"name":"avs","type":"address","indexed":true,"internalType":"address"},{"name":"metadataURI","type":"string","indexed":false,"internalType":"string"}],"anonymous":false},{"type":"event","name":"Initialized","inputs":[{"name":"version","type":"uint8","indexed":false,"internalType":"uint8"}],"anonymous":false},{"type":"event","name":"OperatorAVSRegistrationStatusUpdated","inputs":[{"name":"operator","type":"address","indexed":true,"internalType":"address"},{"name":"avs","type":"address","indexed":true,"internalType":"address"},{"name":"status","type":"uint8","indexed":false,"internalType":"enum IDelegationManager.OperatorAVSRegistrationStatus"}],"anonymous":false},{"type":"event","name":"OperatorDetailsModified","inputs":[{"name":"operator","type":"address","indexed":true,"internalType":"address"},{"name":"newOperatorDetails","type":"tuple","indexed":false,"internalType":"struct IDelegationManager.OperatorDetails","components":[{"name":"earningsReceiver","type":"address","internalType":"address"},{"name":"delegationApprover","type":"address","internalType":"address"},{"name":"stakerOptOutWindowBlocks","type":"uint32","internalType":"uint32"}]}],"anonymous":false},{"type":"event","name":"OperatorMetadataURIUpdated","inputs":[{"name":"operator","type":"address","indexed":true,"internalType":"address"},{"name":"metadataURI","type":"string","indexed":false,"internalType":"string"}],"anonymous":false},{"type":"event","name":"OperatorRegistered","inputs":[{"name":"operator","type":"address","indexed":true,"internalType":"address"},{"name":"operatorDetails","type":"tuple","indexed":false,"internalType":"struct IDelegationManager.OperatorDetails","components":[{"name":"earningsReceiver","type":"address","internalType":"address"},{"name":"delegationApprover","type":"address","internalType":"address"},{"name":"stakerOptOutWindowBlocks","type":"uint32","internalType":"uint32"}]}],"anonymous":false},{"type":"event","name":"OperatorSharesDecreased","inputs":[{"name":"operator","type":"address","indexed":true,"internalType":"address"},{"name":"staker","type":"address","indexed":false,"internalType":"address"},{"name":"strategy","type":"address","indexed":false,"internalType":"contract IStrategy"},{"name":"shares","type":"uint256","indexed":false,"internalType":"uint256"}],"anonymous":false},{"type":"event","name":"OperatorSharesIncreased","inputs":[{"name":"operator","type":"address","indexed":true,"internalType":"address"},{"name":"staker","type":"address","indexed":false,"internalType":"address"},{"name":"strategy","type":"address","indexed":false,"internalType":"contract IStrategy"},{"name":"shares","type":"uint256","indexed":false,"internalType":"uint256"}],"anonymous":false},{"type":"event","name":"OwnershipTransferred","inputs":[{"name":"previousOwner","type":"address","indexed":true,"internalType":"address"},{"name":"newOwner","type":"address","indexed":true,"internalType":"address"}],"anonymous":false},{"type":"event","name":"Paused","inputs":[{"name":"account","type":"address","indexed":true,"internalType":"address"},{"name":"newPausedStatus","type":"uint256","indexed":false,"internalType":"uint256"}],"anonymous":false},{"type":"event","name":"PauserRegistrySet","inputs":[{"name":"pauserRegistry","type":"address","indexed":false,"internalType":"contract IPauserRegistry"},{"name":"newPauserRegistry","type":"address","indexed":false,"internalType":"contract IPauserRegistry"}],"anonymous":false},{"type":"event","name":"StakerDelegated","inputs":[{"name":"staker","type":"address","indexed":true,"internalType":"address"},{"name":"operator","type":"address","indexed":true,"internalType":"address"}],"anonymous":false},{"type":"event","name":"StakerForceUndelegated","inputs":[{"name":"staker","type":"address","indexed":true,"internalType":"address"},{"name":"operator","type":"address","indexed":true,"internalType":"address"}],"anonymous":false},{"type":"event","name":"StakerUndelegated","inputs":[{"name":"staker","type":"address","indexed":true,"internalType":"address"},{"name":"operator","type":"address","indexed":true,"internalType":"address"}],"anonymous":false},{"type":"event","name":"Unpaused","inputs":[{"name":"account","type":"address","indexed":true,"internalType":"address"},{"name":"newPausedStatus","type":"uint256","indexed":false,"internalType":"uint256"}],"anonymous":false},{"type":"event","name":"WithdrawalCompleted","inputs":[{"name":"withdrawalRoot","type":"bytes32","indexed":false,"internalType":"bytes32"}],"anonymous":false},{"type":"event","name":"WithdrawalDelayBlocksSet","inputs":[{"name":"previousValue","type":"uint256","indexed":false,"internalType":"uint256"},{"name":"newValue","type":"uint256","indexed":false,"internalType":"uint256"}],"anonymous":false},{"type":"event","name":"WithdrawalMigrated","inputs":[{"name":"oldWithdrawalRoot","type":"bytes32","indexed":false,"internalType":"bytes32"},{"name":"newWithdrawalRoot","type":"bytes32","indexed":false,"internalType":"bytes32"}],"anonymous":false},{"type":"event","name":"WithdrawalQueued","inputs":[{"name":"withdrawalRoot","type":"bytes32","indexed":false,"internalType":"bytes32"},{"name":"withdrawal","type":"tuple","indexed":false,"internalType":"struct IDelegationManager.Withdrawal","components":[{"name":"staker","type":"address","internalType":"address"},{"name":"delegatedTo","type":"address","internalType":"address"},{"name":"withdrawer","type":"address","internalType":"address"},{"name":"nonce","type":"uint256","internalType":"uint256"},{"name":"startBlock","type":"uint32","internalType":"uint32"},{"name":"strategies","type":"address[]","internalType":"contract IStrategy[]"},{"name":"shares","type":"uint256[]","internalType":"uint256[]"}]}],"anonymous":false}],"bytecode":{"object":"0x6101006040523480156200001257600080fd5b5060405162005f0238038062005f0283398101604081905262000035916200014b565b6001600160a01b0380841660805280821660c052821660a0528282826200005b6200006c565b50504660e052506200019592505050565b600054610100900460ff1615620000d95760405162461bcd60e51b815260206004820152602760248201527f496e697469616c697a61626c653a20636f6e747261637420697320696e697469604482015266616c697a696e6760c81b606482015260840160405180910390fd5b60005460ff90811610156200012c576000805460ff191660ff9081179091556040519081527f7f26b83ff96e1f2b6a682f133852f6798a09c465da95921460cefb38474024989060200160405180910390a15b565b80516001600160a01b03811681146200014657600080fd5b919050565b6000806000606084860312156200016157600080fd5b6200016c846200012e565b92506200017c602085016200012e565b91506200018c604085016200012e565b90509250925092565b60805160a05160c05160e051615cd86200022a6000396000612ab70152600081816105fd015281816110bd015281816112e10152818161201701528181612e1001528181613c6101526144280152600061084a0152600081816105550152818161108b015281816112af0152818161157a015281816120ab01528181612ec201528181613d8f01526144ce0152615cd86000f3fe608060405234801561001057600080fd5b50600436106103995760003560e01c806365da1264116101e9578063b7f06ebe1161010f578063da8be864116100ad578063f2fde38b1161007c578063f2fde38b14610a13578063f698da2514610a26578063f8a8fd6d1461041e578063fabc1cbc14610a2e57600080fd5b8063da8be864146109c7578063eb990c59146109da578063eea9064b146109ed578063f16172b014610a0057600080fd5b8063c94b5111116100e9578063c94b511114610963578063ca661c0414610976578063cf80873e1461097f578063d79aceab146109a057600080fd5b8063b7f06ebe1461086c578063bb45fef21461088f578063c5e480db146108bd57600080fd5b80639104c31911610187578063a178848411610156578063a1788484146107ff578063a364f4da1461081f578063a98fb35514610832578063b13442711461084557600080fd5b80639104c319146107ab5780639926ee7d146107c657806399be81c8146107d9578063a1060c88146107ec57600080fd5b8063778e55f3116101c3578063778e55f3146107495780637f54807114610774578063886f1195146107875780638da5cb5b1461079a57600080fd5b806365da1264146107055780636d70f7ae1461072e578063715018a61461074157600080fd5b806339b70e38116102ce57806350f73e7c1161026c5780635c975abb1161023b5780635c975abb146106ab5780635cfe8d2c146106b35780635f966f14146106c657806360d7faed146106f257600080fd5b806350f73e7c14610664578063595c6a671461066d578063597b36da146106755780635ac86ab71461068857600080fd5b806343377382116102a857806343377382146105d15780634665bcda146105f857806349075da31461061f5780634fc40b611461065a57600080fd5b806339b70e38146105505780633cdeb5e01461058f5780633e28391d146105be57600080fd5b8063169283651161033b57806328a573ae1161031557806328a573ae146104cc57806329c77d4f146104df57806333404396146104ff578063374823b51461051257600080fd5b806316928365146104595780631bbce0911461049257806320606b70146104a557600080fd5b80630f589e59116103775780630f589e591461040b57806310d67a2f14610420578063132d496714610433578063136439dd1461044657600080fd5b806304a4f9791461039e5780630b9f487a146103d85780630dd8dd02146103eb575b600080fd5b6103c57f3b89fca151cbe5122d58acee86cf184413d751d585779bdd19d3bbfa3a306dce81565b6040519081526020015b60405180910390f35b6103c56103e63660046148c0565b610a41565b6103fe6103f936600461495f565b610b03565b6040516103cf91906149a0565b61041e610419366004614a3d565b610e7d565b005b61041e61042e366004614a90565b610fcd565b61041e610441366004614ab4565b611080565b61041e610454366004614af5565b611137565b6103c5610467366004614a90565b6001600160a01b0316600090815260996020526040902060010154600160a01b900463ffffffff1690565b6103c56104a0366004614ab4565b611276565b6103c57f8cad95687ba82c2ce50e74f7b754645e5117c3a5bec8151c0726d5857980a86681565b61041e6104da366004614ab4565b6112a4565b6103c56104ed366004614a90565b609b6020526000908152604090205481565b61041e61050d366004614b0e565b611354565b610540610520366004614bd1565b60a260209081526000928352604080842090915290825290205460ff1681565b60405190151581526020016103cf565b6105777f000000000000000000000000000000000000000000000000000000000000000081565b6040516001600160a01b0390911681526020016103cf565b61057761059d366004614a90565b6001600160a01b039081166000908152609960205260409020600101541690565b6105406105cc366004614a90565b611434565b6103c57f39111bc4a4d688e1f685123d7497d4615370152a8ee4a0593e647bd06ad8bb0b81565b6105777f000000000000000000000000000000000000000000000000000000000000000081565b61064d61062d366004614bfd565b60a160209081526000928352604080842090915290825290205460ff1681565b6040516103cf9190614c4c565b6103c56213c68081565b6103c5609d5481565b61041e611454565b6103c5610683366004614ef1565b61151b565b610540610696366004614f2d565b606654600160ff9092169190911b9081161490565b6066546103c5565b61041e6106c1366004614fa3565b61154b565b6105776106d4366004614a90565b6001600160a01b039081166000908152609960205260409020541690565b61041e610700366004615103565b6117f6565b610577610713366004614a90565b609a602052600090815260409020546001600160a01b031681565b61054061073c366004614a90565b611834565b61041e611854565b6103c5610757366004614bfd565b609860209081526000928352604080842090915290825290205481565b61041e610782366004615252565b611868565b606554610577906001600160a01b031681565b6033546001600160a01b0316610577565b61057773beac0eeeeeeeeeeeeeeeeeeeeeeeeeeeeeebeac081565b61041e6107d43660046152e2565b61196d565b61041e6107e736600461538d565b611c79565b6103c56107fa3660046153c2565b611d4b565b6103c561080d366004614a90565b609f6020526000908152604090205481565b61041e61082d366004614a90565b611e0b565b61041e61084036600461538d565b611f56565b6105777f000000000000000000000000000000000000000000000000000000000000000081565b61054061087a366004614af5565b609e6020526000908152604090205460ff1681565b61054061089d366004614bd1565b609c60209081526000928352604080842090915290825290205460ff1681565b61092d6108cb366004614a90565b6040805160608082018352600080835260208084018290529284018190526001600160a01b03948516815260998352839020835191820184528054851682526001015493841691810191909152600160a01b90920463ffffffff169082015290565b6040805182516001600160a01b039081168252602080850151909116908201529181015163ffffffff16908201526060016103cf565b6103c5610971366004615408565b611f91565b6103c561c4e081565b61099261098d366004614a90565b611ff0565b6040516103cf9291906154c4565b6103c57ff48bd254e30ce2953d187fdb4ef0cfdddb782ab1da55beebaef67c1f258d256e81565b6103fe6109d5366004614a90565b6123a8565b61041e6109e83660046153c2565b61286c565b61041e6109fb3660046154e9565b6129a0565b61041e610a0e366004615541565b6129ac565b61041e610a21366004614a90565b612a3d565b6103c5612ab3565b61041e610a3c366004614af5565b612af1565b604080517f3b89fca151cbe5122d58acee86cf184413d751d585779bdd19d3bbfa3a306dce6020808301919091526001600160a01b038681168385015288811660608401528716608083015260a0820185905260c08083018590528351808403909101815260e0909201909252805191012060009081610abf612ab3565b60405161190160f01b602082015260228101919091526042810183905260620160408051808303601f19018152919052805160209091012098975050505050505050565b60665460609060019060029081161415610b385760405162461bcd60e51b8152600401610b2f9061555d565b60405180910390fd5b6000836001600160401b03811115610b5257610b52614c74565b604051908082528060200260200182016040528015610b7b578160200160208202803683370190505b50905060005b84811015610e7457858582818110610b9b57610b9b615594565b9050602002810190610bad91906155aa565b610bbb9060208101906155ca565b9050868683818110610bcf57610bcf615594565b9050602002810190610be191906155aa565b610beb90806155ca565b905014610c605760405162461bcd60e51b815260206004820152603860248201527f44656c65676174696f6e4d616e616765722e717565756557697468647261776160448201527f6c3a20696e707574206c656e677468206d69736d6174636800000000000000006064820152608401610b2f565b6000868683818110610c7457610c74615594565b9050602002810190610c8691906155aa565b610c97906060810190604001614a90565b6001600160a01b03161415610d255760405162461bcd60e51b815260206004820152604860248201527f44656c65676174696f6e4d616e616765722e717565756557697468647261776160448201527f6c3a206d7573742070726f766964652076616c6964207769746864726177616c606482015267206164647265737360c01b608482015260a401610b2f565b336000818152609a60205260409020546001600160a01b031690610e449082898986818110610d5657610d56615594565b9050602002810190610d6891906155aa565b610d79906060810190604001614a90565b8a8a87818110610d8b57610d8b615594565b9050602002810190610d9d91906155aa565b610da790806155ca565b808060200260200160405190810160405280939291908181526020018383602002808284376000920191909152508e92508d9150899050818110610ded57610ded615594565b9050602002810190610dff91906155aa565b610e0d9060208101906155ca565b80806020026020016040519081016040528093929190818152602001838360200280828437600092019190915250612c4d92505050565b838381518110610e5657610e56615594565b60209081029190910101525080610e6c81615629565b915050610b81565b50949350505050565b336000908152609960205260409020546001600160a01b031615610f175760405162461bcd60e51b815260206004820152604560248201527f44656c65676174696f6e4d616e616765722e726567697374657241734f70657260448201527f61746f723a206f70657261746f722068617320616c72656164792072656769736064820152641d195c995960da1b608482015260a401610b2f565b610f21338461306f565b604080518082019091526060815260006020820152610f43338083600061330b565b336001600160a01b03167f8e8485583a2310d41f7c82b9427d0bd49bad74bb9cff9d3402a29d8f9b28a0e285604051610f7c9190615644565b60405180910390a2336001600160a01b03167f02a919ed0e2acad1dd90f17ef2fa4ae5462ee1339170034a8531cca4b67080908484604051610fbf929190615696565b60405180910390a250505050565b606560009054906101000a90046001600160a01b03166001600160a01b031663eab66d7a6040518163ffffffff1660e01b8152600401602060405180830381865afa158015611020573d6000803e3d6000fd5b505050506040513d601f19601f8201168201806040525081019061104491906156c5565b6001600160a01b0316336001600160a01b0316146110745760405162461bcd60e51b8152600401610b2f906156e2565b61107d816136bb565b50565b336001600160a01b037f00000000000000000000000000000000000000000000000000000000000000001614806110df5750336001600160a01b037f000000000000000000000000000000000000000000000000000000000000000016145b6110fb5760405162461bcd60e51b8152600401610b2f9061572c565b61110483611434565b15611132576001600160a01b038084166000908152609a602052604090205416611130818585856137b2565b505b505050565b60655460405163237dfb4760e11b81523360048201526001600160a01b03909116906346fbf68e90602401602060405180830381865afa15801561117f573d6000803e3d6000fd5b505050506040513d601f19601f820116820180604052508101906111a39190615789565b6111bf5760405162461bcd60e51b8152600401610b2f906157a6565b606654818116146112385760405162461bcd60e51b815260206004820152603860248201527f5061757361626c652e70617573653a20696e76616c696420617474656d70742060448201527f746f20756e70617573652066756e6374696f6e616c69747900000000000000006064820152608401610b2f565b606681905560405181815233907fab40a374bc51de372200a8bc981af8c9ecdc08dfdaef0bb6e09f88f3c616ef3d906020015b60405180910390a250565b6001600160a01b0383166000908152609b602052604081205461129b85828686611f91565b95945050505050565b336001600160a01b037f00000000000000000000000000000000000000000000000000000000000000001614806113035750336001600160a01b037f000000000000000000000000000000000000000000000000000000000000000016145b61131f5760405162461bcd60e51b8152600401610b2f9061572c565b61132883611434565b15611132576001600160a01b038084166000908152609a6020526040902054166111308185858561382d565b6066546002906004908116141561137d5760405162461bcd60e51b8152600401610b2f9061555d565b60005b88811015611428576114188a8a8381811061139d5761139d615594565b90506020028101906113af91906157ee565b8989848181106113c1576113c1615594565b90506020028101906113d391906155ca565b8989868181106113e5576113e5615594565b905060200201358888878181106113fe576113fe615594565b90506020020160208101906114139190615804565b6138a8565b61142181615629565b9050611380565b50505050505050505050565b6001600160a01b039081166000908152609a602052604090205416151590565b60655460405163237dfb4760e11b81523360048201526001600160a01b03909116906346fbf68e90602401602060405180830381865afa15801561149c573d6000803e3d6000fd5b505050506040513d601f19601f820116820180604052508101906114c09190615789565b6114dc5760405162461bcd60e51b8152600401610b2f906157a6565b600019606681905560405190815233907fab40a374bc51de372200a8bc981af8c9ecdc08dfdaef0bb6e09f88f3c616ef3d9060200160405180910390a2565b60008160405160200161152e9190615895565b604051602081830303815290604052805190602001209050919050565b60005b81518110156117f257600082828151811061156b5761156b615594565b602002602001015190506000807f00000000000000000000000000000000000000000000000000000000000000006001600160a01b031663cd293f6f846040518263ffffffff1660e01b81526004016115c491906158a8565b60408051808303816000875af11580156115e2573d6000803e3d6000fd5b505050506040513d601f19601f820116820180604052508101906116069190615957565b9150915081156117e4576040808401516001600160a01b0381166000908152609f6020529182208054919282919061163d83615629565b919050555060006040518060e00160405280846001600160a01b031681526020018760a001516001600160a01b031681526020018760600151600001516001600160a01b03168152602001838152602001876080015163ffffffff168152602001876000015181526020018760200151815250905060006116bd8261151b565b6000818152609e602052604090205490915060ff16156117535760405162461bcd60e51b815260206004820152604560248201527f44656c65676174696f6e4d616e616765722e6d6967726174655175657565645760448201527f69746864726177616c733a207769746864726177616c20616c72656164792065606482015264786973747360d81b608482015260a401610b2f565b6000818152609e602052604090819020805460ff19166001179055517f9009ab153e8014fbfb02f2217f5cde7aa7f9ad734ae85ca3ee3f4ca2fdd499f99061179e9083908590615985565b60405180910390a160408051868152602081018390527fdc00758b65eef71dc3780c04ebe36cab6bdb266c3a698187e29e0f0dca012630910160405180910390a1505050505b83600101935050505061154e565b5050565b6066546002906004908116141561181f5760405162461bcd60e51b8152600401610b2f9061555d565b61182c86868686866138a8565b505050505050565b6001600160a01b0390811660009081526099602052604090205416151590565b61185c613f10565b6118666000613f6a565b565b42836020015110156118ec5760405162461bcd60e51b815260206004820152604160248201527f44656c65676174696f6e4d616e616765722e64656c6567617465546f4279536960448201527f676e61747572653a207374616b6572207369676e6174757265206578706972656064820152601960fa1b608482015260a401610b2f565b6000609b6000876001600160a01b03166001600160a01b0316815260200190815260200160002054905060006119288783888860200151611f91565b6001600160a01b0388166000908152609b6020526040902060018401905585519091506119589088908390613fbc565b6119648787868661330b565b50505050505050565b606654600390600890811614156119965760405162461bcd60e51b8152600401610b2f9061555d565b4282604001511015611a0a5760405162461bcd60e51b81526020600482015260436024820152600080516020615c6383398151915260448201527f6f72546f4156533a206f70657261746f72207369676e617475726520657870696064820152621c995960ea1b608482015260a401610b2f565b600133600090815260a1602090815260408083206001600160a01b038816845290915290205460ff166001811115611a4457611a44614c36565b1415611ab45760405162461bcd60e51b815260206004820152604460248201819052600080516020615c63833981519152908201527f6f72546f4156533a206f70657261746f7220616c726561647920726567697374606482015263195c995960e21b608482015260a401610b2f565b6001600160a01b038316600090815260a26020908152604080832085830151845290915290205460ff1615611b3f5760405162461bcd60e51b815260206004820152603b6024820152600080516020615c6383398151915260448201527f6f72546f4156533a2073616c7420616c7265616479207370656e7400000000006064820152608401610b2f565b611b4883611834565b611bc35760405162461bcd60e51b81526020600482015260526024820152600080516020615c6383398151915260448201527f6f72546f4156533a206f70657261746f72206e6f742072656769737465726564606482015271081d1bc8115a59d95b93185e595c881e595d60721b608482015260a401610b2f565b6000611bd9843385602001518660400151611d4b565b9050611bea84828560000151613fbc565b33600081815260a1602090815260408083206001600160a01b0389168085529083528184208054600160ff19918216811790925560a285528386208a860151875290945293829020805490931684179092555190917ff0952b1c65271d819d39983d2abb044b9cace59bcc4d4dd389f586ebdcb15b4191611c6b9190614c4c565b60405180910390a350505050565b611c8233611834565b611d045760405162461bcd60e51b815260206004820152604760248201527f44656c65676174696f6e4d616e616765722e7570646174654f70657261746f7260448201527f4d657461646174615552493a2063616c6c6572206d75737420626520616e206f6064820152663832b930ba37b960c91b608482015260a401610b2f565b336001600160a01b03167f02a919ed0e2acad1dd90f17ef2fa4ae5462ee1339170034a8531cca4b67080908383604051611d3f929190615696565b60405180910390a25050565b604080517ff48bd254e30ce2953d187fdb4ef0cfdddb782ab1da55beebaef67c1f258d256e60208201526001600160a01b038087169282019290925290841660608201526080810183905260a08101829052600090819060c0015b6040516020818303038152906040528051906020012090506000611dc8612ab3565b60405161190160f01b602082015260228101919091526042810183905260620160408051808303601f190181529190528051602090910120979650505050505050565b60665460039060089081161415611e345760405162461bcd60e51b8152600401610b2f9061555d565b600133600090815260a1602090815260408083206001600160a01b038716845290915290205460ff166001811115611e6e57611e6e614c36565b14611eef5760405162461bcd60e51b8152602060048201526044602482018190527f44656c65676174696f6e4d616e616765722e646572656769737465724f706572908201527f61746f7246726f6d4156533a206f70657261746f72206e6f7420726567697374606482015263195c995960e21b608482015260a401610b2f565b33600081815260a1602090815260408083206001600160a01b0387168085529252808320805460ff191690555190917ff0952b1c65271d819d39983d2abb044b9cace59bcc4d4dd389f586ebdcb15b4191611f4a9190614c4c565b60405180910390a35050565b336001600160a01b03167fa89c1dc243d8908a96dd84944bcc97d6bc6ac00dd78e20621576be6a3c9437138383604051611d3f929190615696565b604080517f39111bc4a4d688e1f685123d7497d4615370152a8ee4a0593e647bd06ad8bb0b60208201526001600160a01b038087169282019290925290831660608201526080810184905260a08101829052600090819060c001611da6565b6040516360f4062b60e01b81526001600160a01b03828116600483015260609182916000917f0000000000000000000000000000000000000000000000000000000000000000909116906360f4062b90602401602060405180830381865afa158015612060573d6000803e3d6000fd5b505050506040513d601f19601f82011682018060405250810190612084919061599e565b6040516394f649dd60e01b81526001600160a01b03868116600483015291925060009182917f0000000000000000000000000000000000000000000000000000000000000000909116906394f649dd90602401600060405180830381865afa1580156120f4573d6000803e3d6000fd5b505050506040513d6000823e601f3d908101601f1916820160405261211c9190810190615a12565b915091506000831361213357909590945092505050565b6060808351600014156121ed576040805160018082528183019092529060208083019080368337505060408051600180825281830190925292945090506020808301908036833701905050905073beac0eeeeeeeeeeeeeeeeeeeeeeeeeeeeeebeac0826000815181106121a8576121a8615594565b60200260200101906001600160a01b031690816001600160a01b03168152505084816000815181106121dc576121dc615594565b60200260200101818152505061239b565b83516121fa906001615ad6565b6001600160401b0381111561221157612211614c74565b60405190808252806020026020018201604052801561223a578160200160208202803683370190505b50915081516001600160401b0381111561225657612256614c74565b60405190808252806020026020018201604052801561227f578160200160208202803683370190505b50905060005b8451811015612319578481815181106122a0576122a0615594565b60200260200101518382815181106122ba576122ba615594565b60200260200101906001600160a01b031690816001600160a01b0316815250508381815181106122ec576122ec615594565b602002602001015182828151811061230657612306615594565b6020908102919091010152600101612285565b5073beac0eeeeeeeeeeeeeeeeeeeeeeeeeeeeeebeac0826001845161233e9190615aee565b8151811061234e5761234e615594565b60200260200101906001600160a01b031690816001600160a01b03168152505084816001845161237e9190615aee565b8151811061238e5761238e615594565b6020026020010181815250505b9097909650945050505050565b606654606090600190600290811614156123d45760405162461bcd60e51b8152600401610b2f9061555d565b6123dd83611434565b61245d5760405162461bcd60e51b8152602060048201526044602482018190527f44656c65676174696f6e4d616e616765722e756e64656c65676174653a207374908201527f616b6572206d7573742062652064656c65676174656420746f20756e64656c656064820152636761746560e01b608482015260a401610b2f565b61246683611834565b156124d95760405162461bcd60e51b815260206004820152603d60248201527f44656c65676174696f6e4d616e616765722e756e64656c65676174653a206f7060448201527f657261746f72732063616e6e6f7420626520756e64656c6567617465640000006064820152608401610b2f565b6001600160a01b0383166125555760405162461bcd60e51b815260206004820152603c60248201527f44656c65676174696f6e4d616e616765722e756e64656c65676174653a20636160448201527f6e6e6f7420756e64656c6567617465207a65726f2061646472657373000000006064820152608401610b2f565b6001600160a01b038084166000818152609a6020526040902054909116903314806125885750336001600160a01b038216145b806125af57506001600160a01b038181166000908152609960205260409020600101541633145b6126215760405162461bcd60e51b815260206004820152603d60248201527f44656c65676174696f6e4d616e616765722e756e64656c65676174653a20636160448201527f6c6c65722063616e6e6f7420756e64656c6567617465207374616b65720000006064820152608401610b2f565b60008061262d86611ff0565b9092509050336001600160a01b0387161461268357826001600160a01b0316866001600160a01b03167ff0eddf07e6ea14f388b47e1e94a0f464ecbd9eed4171130e0fc0e99fb4030a8a60405160405180910390a35b826001600160a01b0316866001600160a01b03167ffee30966a256b71e14bc0ebfc94315e28ef4a97a7131a9e2b7a310a73af4467660405160405180910390a36001600160a01b0386166000908152609a6020526040902080546001600160a01b03191690558151612705576040805160008152602081019091529450612863565b81516001600160401b0381111561271e5761271e614c74565b604051908082528060200260200182016040528015612747578160200160208202803683370190505b50945060005b8251811015612861576040805160018082528183019092526000916020808301908036833750506040805160018082528183019092529293506000929150602080830190803683370190505090508483815181106127ad576127ad615594565b6020026020010151826000815181106127c8576127c8615594565b60200260200101906001600160a01b031690816001600160a01b0316815250508383815181106127fa576127fa615594565b60200260200101518160008151811061281557612815615594565b60200260200101818152505061282e89878b8585612c4d565b88848151811061284057612840615594565b6020026020010181815250505050808061285990615629565b91505061274d565b505b50505050919050565b600054610100900460ff161580801561288c5750600054600160ff909116105b806128a65750303b1580156128a6575060005460ff166001145b6129095760405162461bcd60e51b815260206004820152602e60248201527f496e697469616c697a61626c653a20636f6e747261637420697320616c72656160448201526d191e481a5b9a5d1a585b1a5e995960921b6064820152608401610b2f565b6000805460ff19166001179055801561292c576000805461ff0019166101001790555b6129368484614176565b61293e61425c565b60975561294a85613f6a565b612953826142f3565b8015612999576000805461ff0019169055604051600181527f7f26b83ff96e1f2b6a682f133852f6798a09c465da95921460cefb38474024989060200160405180910390a15b5050505050565b6111323384848461330b565b6129b533611834565b612a335760405162461bcd60e51b815260206004820152604360248201527f44656c65676174696f6e4d616e616765722e6d6f646966794f70657261746f7260448201527f44657461696c733a2063616c6c6572206d75737420626520616e206f706572616064820152623a37b960e91b608482015260a401610b2f565b61107d338261306f565b612a45613f10565b6001600160a01b038116612aaa5760405162461bcd60e51b815260206004820152602660248201527f4f776e61626c653a206e6577206f776e657220697320746865207a65726f206160448201526564647265737360d01b6064820152608401610b2f565b61107d81613f6a565b60007f0000000000000000000000000000000000000000000000000000000000000000461415612ae4575060975490565b612aec61425c565b905090565b606560009054906101000a90046001600160a01b03166001600160a01b031663eab66d7a6040518163ffffffff1660e01b8152600401602060405180830381865afa158015612b44573d6000803e3d6000fd5b505050506040513d601f19601f82011682018060405250810190612b6891906156c5565b6001600160a01b0316336001600160a01b031614612b985760405162461bcd60e51b8152600401610b2f906156e2565b606654198119606654191614612c165760405162461bcd60e51b815260206004820152603860248201527f5061757361626c652e756e70617573653a20696e76616c696420617474656d7060448201527f7420746f2070617573652066756e6374696f6e616c69747900000000000000006064820152608401610b2f565b606681905560405181815233907f3582d1828e26bf56bd801502bc021ac0bc8afb57c826e4986b45593c8fad389c9060200161126b565b60006001600160a01b038616612ce45760405162461bcd60e51b815260206004820152605060248201527f44656c65676174696f6e4d616e616765722e5f72656d6f76655368617265734160448201527f6e6451756575655769746864726177616c3a207374616b65722063616e6e6f7460648201526f206265207a65726f206164647265737360801b608482015260a401610b2f565b8251612d6e5760405162461bcd60e51b815260206004820152604d60248201527f44656c65676174696f6e4d616e616765722e5f72656d6f76655368617265734160448201527f6e6451756575655769746864726177616c3a207374726174656769657320636160648201526c6e6e6f7420626520656d70747960981b608482015260a401610b2f565b60005b8351811015612f7d576001600160a01b03861615612dc757612dc78688868481518110612da057612da0615594565b6020026020010151868581518110612dba57612dba615594565b60200260200101516137b2565b73beac0eeeeeeeeeeeeeeeeeeeeeeeeeeeeeebeac06001600160a01b0316848281518110612df757612df7615594565b60200260200101516001600160a01b03161415612ec0577f00000000000000000000000000000000000000000000000000000000000000006001600160a01b031663beffbb8988858481518110612e5057612e50615594565b60200260200101516040518363ffffffff1660e01b8152600401612e899291906001600160a01b03929092168252602082015260400190565b600060405180830381600087803b158015612ea357600080fd5b505af1158015612eb7573d6000803e3d6000fd5b50505050612f75565b7f00000000000000000000000000000000000000000000000000000000000000006001600160a01b0316638c80d4e588868481518110612f0257612f02615594565b6020026020010151868581518110612f1c57612f1c615594565b60200260200101516040518463ffffffff1660e01b8152600401612f4293929190615b05565b600060405180830381600087803b158015612f5c57600080fd5b505af1158015612f70573d6000803e3d6000fd5b505050505b600101612d71565b506001600160a01b0386166000908152609f60205260408120805491829190612fa583615629565b919050555060006040518060e00160405280896001600160a01b03168152602001886001600160a01b03168152602001876001600160a01b031681526020018381526020014363ffffffff168152602001868152602001858152509050600061300d8261151b565b6000818152609e602052604090819020805460ff19166001179055519091507f9009ab153e8014fbfb02f2217f5cde7aa7f9ad734ae85ca3ee3f4ca2fdd499f99061305b9083908590615985565b60405180910390a198975050505050505050565b600061307e6020830183614a90565b6001600160a01b031614156131185760405162461bcd60e51b815260206004820152605460248201527f44656c65676174696f6e4d616e616765722e5f7365744f70657261746f72446560448201527f7461696c733a2063616e6e6f742073657420606561726e696e677352656365696064820152737665726020746f207a65726f206164647265737360601b608482015260a401610b2f565b6213c68061312c6060830160408401615b29565b63ffffffff1611156131e15760405162461bcd60e51b815260206004820152606c60248201527f44656c65676174696f6e4d616e616765722e5f7365744f70657261746f72446560448201527f7461696c733a207374616b65724f70744f757457696e646f77426c6f636b732060648201527f63616e6e6f74206265203e204d41585f5354414b45525f4f50545f4f55545f5760848201526b494e444f575f424c4f434b5360a01b60a482015260c401610b2f565b6001600160a01b0382166000908152609960205260409081902060010154600160a01b900463ffffffff169061321d9060608401908401615b29565b63ffffffff1610156132b35760405162461bcd60e51b815260206004820152605360248201527f44656c65676174696f6e4d616e616765722e5f7365744f70657261746f72446560448201527f7461696c733a207374616b65724f70744f757457696e646f77426c6f636b732060648201527218d85b9b9bdd08189948191958dc99585cd959606a1b608482015260a401610b2f565b6001600160a01b038216600090815260996020526040902081906132d78282615b66565b505060405133907ffebe5cd24b2cbc7b065b9d0fdeb904461e4afcff57dd57acda1e7832031ba7ac90611d3f908490615644565b606654600090600190811614156133345760405162461bcd60e51b8152600401610b2f9061555d565b61333d85611434565b156133ba5760405162461bcd60e51b815260206004820152604160248201527f44656c65676174696f6e4d616e616765722e5f64656c65676174653a2073746160448201527f6b657220697320616c7265616479206163746976656c792064656c65676174656064820152601960fa1b608482015260a401610b2f565b6133c384611834565b6134435760405162461bcd60e51b815260206004820152604560248201527f44656c65676174696f6e4d616e616765722e5f64656c65676174653a206f706560448201527f7261746f72206973206e6f74207265676973746572656420696e20456967656e6064820152642630bcb2b960d91b608482015260a401610b2f565b6001600160a01b038085166000908152609960205260409020600101541680158015906134795750336001600160a01b03821614155b801561348e5750336001600160a01b03861614155b156135fb57428460200151101561350d5760405162461bcd60e51b815260206004820152603760248201527f44656c65676174696f6e4d616e616765722e5f64656c65676174653a2061707060448201527f726f766572207369676e617475726520657870697265640000000000000000006064820152608401610b2f565b6001600160a01b0381166000908152609c6020908152604080832086845290915290205460ff16156135a75760405162461bcd60e51b815260206004820152603760248201527f44656c65676174696f6e4d616e616765722e5f64656c65676174653a2061707060448201527f726f76657253616c7420616c7265616479207370656e740000000000000000006064820152608401610b2f565b6001600160a01b0381166000908152609c6020908152604080832086845282528220805460ff191660011790558501516135e8908890889085908890610a41565b90506135f982828760000151613fbc565b505b6001600160a01b038681166000818152609a602052604080822080546001600160a01b031916948a169485179055517fc3ee9f2e5fda98e8066a1f745b2df9285f416fe98cf2559cd21484b3d87433049190a360008061365a88611ff0565b9150915060005b82518110156136b0576136a8888a85848151811061368157613681615594565b602002602001015185858151811061369b5761369b615594565b602002602001015161382d565b600101613661565b505050505050505050565b6001600160a01b0381166137495760405162461bcd60e51b815260206004820152604960248201527f5061757361626c652e5f73657450617573657252656769737472793a206e657760448201527f50617573657252656769737472792063616e6e6f7420626520746865207a65726064820152686f206164647265737360b81b608482015260a401610b2f565b606554604080516001600160a01b03928316815291831660208301527f6e9fcd539896fca60e8b0f01dd580233e48a6b0f7df013b89ba7f565869acdb6910160405180910390a1606580546001600160a01b0319166001600160a01b0392909216919091179055565b6001600160a01b038085166000908152609860209081526040808320938616835292905290812080548392906137e9908490615aee565b92505081905550836001600160a01b03167f6909600037b75d7b4733aedd815442b5ec018a827751c832aaff64eba5d6d2dd848484604051610fbf93929190615b05565b6001600160a01b03808516600090815260986020908152604080832093861683529290529081208054839290613864908490615ad6565b92505081905550836001600160a01b03167f1ec042c965e2edd7107b51188ee0f383e22e76179041ab3a9d18ff151405166c848484604051610fbf93929190615b05565b60006138b661068387615bc9565b6000818152609e602052604090205490915060ff1661392b5760405162461bcd60e51b815260206004820152603e6024820152600080516020615c8383398151915260448201527f416374696f6e3a20616374696f6e206973206e6f7420696e20717565756500006064820152608401610b2f565b609d54439061394060a0890160808a01615b29565b63ffffffff166139509190615ad6565b11156139d85760405162461bcd60e51b81526020600482015260576024820152600080516020615c8383398151915260448201527f416374696f6e3a207769746864726177616c44656c6179426c6f636b7320706560648201527f72696f6420686173206e6f742079657420706173736564000000000000000000608482015260a401610b2f565b6139e86060870160408801614a90565b6001600160a01b0316336001600160a01b031614613a705760405162461bcd60e51b815260206004820152604b6024820152600080516020615c8383398151915260448201527f416374696f6e3a206f6e6c7920776974686472617765722063616e20636f6d7060648201526a3632ba329030b1ba34b7b760a91b608482015260a401610b2f565b8115613ae757613a8360a08701876155ca565b85149050613ae75760405162461bcd60e51b815260206004820152603d6024820152600080516020615c8383398151915260448201527f416374696f6e3a20696e707574206c656e677468206d69736d617463680000006064820152608401610b2f565b6000818152609e60205260409020805460ff191690558115613bbd5760005b613b1360a08801886155ca565b9050811015613bb757613baf613b2c6020890189614a90565b33613b3a60a08b018b6155ca565b85818110613b4a57613b4a615594565b9050602002016020810190613b5f9190614a90565b613b6c60c08c018c6155ca565b86818110613b7c57613b7c615594565b905060200201358a8a87818110613b9557613b95615594565b9050602002016020810190613baa9190614a90565b6143ed565b600101613b06565b50613ed5565b336000908152609a60205260408120546001600160a01b0316905b613be560a08901896155ca565b9050811015613ed25773beac0eeeeeeeeeeeeeeeeeeeeeeeeeeeeeebeac0613c1060a08a018a6155ca565b83818110613c2057613c20615594565b9050602002016020810190613c359190614a90565b6001600160a01b03161415613d85576000613c5360208a018a614a90565b905060006001600160a01b037f000000000000000000000000000000000000000000000000000000000000000016630e81073c83613c9460c08e018e6155ca565b87818110613ca457613ca4615594565b6040516001600160e01b031960e087901b1681526001600160a01b03909416600485015260200291909101356024830152506044016020604051808303816000875af1158015613cf8573d6000803e3d6000fd5b505050506040513d601f19601f82011682018060405250810190613d1c919061599e565b6001600160a01b038084166000908152609a6020526040902054919250168015613d7d57613d7d8184613d5260a08f018f6155ca565b88818110613d6257613d62615594565b9050602002016020810190613d779190614a90565b8561382d565b505050613eca565b6001600160a01b037f0000000000000000000000000000000000000000000000000000000000000000166350ff722533613dc260a08c018c6155ca565b85818110613dd257613dd2615594565b9050602002016020810190613de79190614a90565b613df460c08d018d6155ca565b86818110613e0457613e04615594565b905060200201356040518463ffffffff1660e01b8152600401613e2993929190615b05565b600060405180830381600087803b158015613e4357600080fd5b505af1158015613e57573d6000803e3d6000fd5b505050506001600160a01b03821615613eca57613eca8233613e7c60a08c018c6155ca565b85818110613e8c57613e8c615594565b9050602002016020810190613ea19190614a90565b613eae60c08d018d6155ca565b86818110613ebe57613ebe615594565b9050602002013561382d565b600101613bd8565b50505b6040518181527fc97098c2f658800b4df29001527f7324bcdffcf6e8751a699ab920a1eced5b1d9060200160405180910390a1505050505050565b6033546001600160a01b031633146118665760405162461bcd60e51b815260206004820181905260248201527f4f776e61626c653a2063616c6c6572206973206e6f7420746865206f776e65726044820152606401610b2f565b603380546001600160a01b038381166001600160a01b0319831681179093556040519116919082907f8be0079c531659141344cd1fd0a4f28419497f9722a3daafe3b4186f6b6457e090600090a35050565b6001600160a01b0383163b156140d657604051630b135d3f60e11b808252906001600160a01b03851690631626ba7e90613ffc9086908690600401615bdb565b602060405180830381865afa158015614019573d6000803e3d6000fd5b505050506040513d601f19601f8201168201806040525081019061403d9190615c38565b6001600160e01b031916146111325760405162461bcd60e51b815260206004820152605360248201527f454950313237315369676e61747572655574696c732e636865636b5369676e6160448201527f747572655f454950313237313a2045524331323731207369676e6174757265206064820152721d995c9a599a58d85d1a5bdb8819985a5b1959606a1b608482015260a401610b2f565b826001600160a01b03166140ea8383614526565b6001600160a01b0316146111325760405162461bcd60e51b815260206004820152604760248201527f454950313237315369676e61747572655574696c732e636865636b5369676e6160448201527f747572655f454950313237313a207369676e6174757265206e6f742066726f6d6064820152661039b4b3b732b960c91b608482015260a401610b2f565b6065546001600160a01b031615801561419757506001600160a01b03821615155b6142195760405162461bcd60e51b815260206004820152604760248201527f5061757361626c652e5f696e697469616c697a655061757365723a205f696e6960448201527f7469616c697a6550617573657228292063616e206f6e6c792062652063616c6c6064820152666564206f6e636560c81b608482015260a401610b2f565b606681905560405181815233907fab40a374bc51de372200a8bc981af8c9ecdc08dfdaef0bb6e09f88f3c616ef3d9060200160405180910390a26117f2826136bb565b604080518082018252600a81526922b4b3b2b72630bcb2b960b11b60209182015281517f8cad95687ba82c2ce50e74f7b754645e5117c3a5bec8151c0726d5857980a866818301527f71b625cfad44bac63b13dba07f2e1d6084ee04b6f8752101ece6126d584ee6ea81840152466060820152306080808301919091528351808303909101815260a0909101909252815191012090565b61c4e08111156143ac5760405162461bcd60e51b815260206004820152607260248201527f44656c65676174696f6e4d616e616765722e5f696e697469616c697a6557697460448201527f6864726177616c44656c6179426c6f636b733a205f7769746864726177616c4460648201527f656c6179426c6f636b732063616e6e6f74206265203e204d41585f5749544844608482015271524157414c5f44454c41595f424c4f434b5360701b60a482015260c401610b2f565b609d5460408051918252602082018390527f4ffb00400574147429ee377a5633386321e66d45d8b14676014b5fa393e61e9e910160405180910390a1609d55565b6001600160a01b03831673beac0eeeeeeeeeeeeeeeeeeeeeeeeeeeeeebeac014156144985760405162387b1360e81b81526001600160a01b037f0000000000000000000000000000000000000000000000000000000000000000169063387b13009061446190889088908790600401615b05565b600060405180830381600087803b15801561447b57600080fd5b505af115801561448f573d6000803e3d6000fd5b50505050612999565b60405163c608c7f360e01b81526001600160a01b03858116600483015284811660248301526044820184905282811660648301527f0000000000000000000000000000000000000000000000000000000000000000169063c608c7f390608401600060405180830381600087803b15801561451257600080fd5b505af11580156136b0573d6000803e3d6000fd5b6000806000614535858561454a565b91509150614542816145ba565b509392505050565b6000808251604114156145815760208301516040840151606085015160001a61457587828585614775565b945094505050506145b3565b8251604014156145ab57602083015160408401516145a0868383614862565b9350935050506145b3565b506000905060025b9250929050565b60008160048111156145ce576145ce614c36565b14156145d75750565b60018160048111156145eb576145eb614c36565b14156146395760405162461bcd60e51b815260206004820152601860248201527f45434453413a20696e76616c6964207369676e617475726500000000000000006044820152606401610b2f565b600281600481111561464d5761464d614c36565b141561469b5760405162461bcd60e51b815260206004820152601f60248201527f45434453413a20696e76616c6964207369676e6174757265206c656e677468006044820152606401610b2f565b60038160048111156146af576146af614c36565b14156147085760405162461bcd60e51b815260206004820152602260248201527f45434453413a20696e76616c6964207369676e6174757265202773272076616c604482015261756560f01b6064820152608401610b2f565b600481600481111561471c5761471c614c36565b141561107d5760405162461bcd60e51b815260206004820152602260248201527f45434453413a20696e76616c6964207369676e6174757265202776272076616c604482015261756560f01b6064820152608401610b2f565b6000807f7fffffffffffffffffffffffffffffff5d576e7357a4501ddfe92f46681b20a08311156147ac5750600090506003614859565b8460ff16601b141580156147c457508460ff16601c14155b156147d55750600090506004614859565b6040805160008082526020820180845289905260ff881692820192909252606081018690526080810185905260019060a0016020604051602081039080840390855afa158015614829573d6000803e3d6000fd5b5050604051601f1901519150506001600160a01b03811661485257600060019250925050614859565b9150600090505b94509492505050565b6000806001600160ff1b0383168161487f60ff86901c601b615ad6565b905061488d87828885614775565b935093505050935093915050565b6001600160a01b038116811461107d57600080fd5b80356148bb8161489b565b919050565b600080600080600060a086880312156148d857600080fd5b85356148e38161489b565b945060208601356148f38161489b565b935060408601356149038161489b565b94979396509394606081013594506080013592915050565b60008083601f84011261492d57600080fd5b5081356001600160401b0381111561494457600080fd5b6020830191508360208260051b85010111156145b357600080fd5b6000806020838503121561497257600080fd5b82356001600160401b0381111561498857600080fd5b6149948582860161491b565b90969095509350505050565b6020808252825182820181905260009190848201906040850190845b818110156149d8578351835292840192918401916001016149bc565b50909695505050505050565b6000606082840312156149f657600080fd5b50919050565b60008083601f840112614a0e57600080fd5b5081356001600160401b03811115614a2557600080fd5b6020830191508360208285010111156145b357600080fd5b600080600060808486031215614a5257600080fd5b614a5c85856149e4565b925060608401356001600160401b03811115614a7757600080fd5b614a83868287016149fc565b9497909650939450505050565b600060208284031215614aa257600080fd5b8135614aad8161489b565b9392505050565b600080600060608486031215614ac957600080fd5b8335614ad48161489b565b92506020840135614ae48161489b565b929592945050506040919091013590565b600060208284031215614b0757600080fd5b5035919050565b6000806000806000806000806080898b031215614b2a57600080fd5b88356001600160401b0380821115614b4157600080fd5b614b4d8c838d0161491b565b909a50985060208b0135915080821115614b6657600080fd5b614b728c838d0161491b565b909850965060408b0135915080821115614b8b57600080fd5b614b978c838d0161491b565b909650945060608b0135915080821115614bb057600080fd5b50614bbd8b828c0161491b565b999c989b5096995094979396929594505050565b60008060408385031215614be457600080fd5b8235614bef8161489b565b946020939093013593505050565b60008060408385031215614c1057600080fd5b8235614c1b8161489b565b91506020830135614c2b8161489b565b809150509250929050565b634e487b7160e01b600052602160045260246000fd5b6020810160028310614c6e57634e487b7160e01b600052602160045260246000fd5b91905290565b634e487b7160e01b600052604160045260246000fd5b60405160e081016001600160401b0381118282101715614cac57614cac614c74565b60405290565b604080519081016001600160401b0381118282101715614cac57614cac614c74565b60405160c081016001600160401b0381118282101715614cac57614cac614c74565b604051601f8201601f191681016001600160401b0381118282101715614d1e57614d1e614c74565b604052919050565b63ffffffff8116811461107d57600080fd5b80356148bb81614d26565b60006001600160401b03821115614d5c57614d5c614c74565b5060051b60200190565b600082601f830112614d7757600080fd5b81356020614d8c614d8783614d43565b614cf6565b82815260059290921b84018101918181019086841115614dab57600080fd5b8286015b84811015614dcf578035614dc28161489b565b8352918301918301614daf565b509695505050505050565b600082601f830112614deb57600080fd5b81356020614dfb614d8783614d43565b82815260059290921b84018101918181019086841115614e1a57600080fd5b8286015b84811015614dcf5780358352918301918301614e1e565b600060e08284031215614e4757600080fd5b614e4f614c8a565b9050614e5a826148b0565b8152614e68602083016148b0565b6020820152614e79604083016148b0565b604082015260608201356060820152614e9460808301614d38565b608082015260a08201356001600160401b0380821115614eb357600080fd5b614ebf85838601614d66565b60a084015260c0840135915080821115614ed857600080fd5b50614ee584828501614dda565b60c08301525092915050565b600060208284031215614f0357600080fd5b81356001600160401b03811115614f1957600080fd5b614f2584828501614e35565b949350505050565b600060208284031215614f3f57600080fd5b813560ff81168114614aad57600080fd5b600060408284031215614f6257600080fd5b614f6a614cb2565b90508135614f778161489b565b815260208201356bffffffffffffffffffffffff81168114614f9857600080fd5b602082015292915050565b60006020808385031215614fb657600080fd5b82356001600160401b0380821115614fcd57600080fd5b818501915085601f830112614fe157600080fd5b8135614fef614d8782614d43565b81815260059190911b8301840190848101908883111561500e57600080fd5b8585015b838110156150e85780358581111561502a5760008081fd5b860160e0818c03601f19018113156150425760008081fd5b61504a614cd4565b898301358881111561505c5760008081fd5b61506a8e8c83870101614d66565b825250604080840135898111156150815760008081fd5b61508f8f8d83880101614dda565b8c8401525060606150a18186016148b0565b82840152608091506150b58f838701614f50565b908301526150c560c08501614d38565b908201526150d48383016148b0565b60a082015285525050918601918601615012565b5098975050505050505050565b801515811461107d57600080fd5b60008060008060006080868803121561511b57600080fd5b85356001600160401b038082111561513257600080fd5b9087019060e0828a03121561514657600080fd5b9095506020870135908082111561515c57600080fd5b506151698882890161491b565b909550935050604086013591506060860135615184816150f5565b809150509295509295909350565b600082601f8301126151a357600080fd5b81356001600160401b038111156151bc576151bc614c74565b6151cf601f8201601f1916602001614cf6565b8181528460208386010111156151e457600080fd5b816020850160208301376000918101602001919091529392505050565b60006040828403121561521357600080fd5b61521b614cb2565b905081356001600160401b0381111561523357600080fd5b61523f84828501615192565b8252506020820135602082015292915050565b600080600080600060a0868803121561526a57600080fd5b85356152758161489b565b945060208601356152858161489b565b935060408601356001600160401b03808211156152a157600080fd5b6152ad89838a01615201565b945060608801359150808211156152c357600080fd5b506152d088828901615201565b95989497509295608001359392505050565b600080604083850312156152f557600080fd5b82356153008161489b565b915060208301356001600160401b038082111561531c57600080fd5b908401906060828703121561533057600080fd5b60405160608101818110838211171561534b5761534b614c74565b60405282358281111561535d57600080fd5b61536988828601615192565b82525060208301356020820152604083013560408201528093505050509250929050565b600080602083850312156153a057600080fd5b82356001600160401b038111156153b657600080fd5b614994858286016149fc565b600080600080608085870312156153d857600080fd5b84356153e38161489b565b935060208501356153f38161489b565b93969395505050506040820135916060013590565b6000806000806080858703121561541e57600080fd5b84356154298161489b565b93506020850135925060408501356154408161489b565b9396929550929360600135925050565b600081518084526020808501945080840160005b838110156154895781516001600160a01b031687529582019590820190600101615464565b509495945050505050565b600081518084526020808501945080840160005b83811015615489578151875295820195908201906001016154a8565b6040815260006154d76040830185615450565b828103602084015261129b8185615494565b6000806000606084860312156154fe57600080fd5b83356155098161489b565b925060208401356001600160401b0381111561552457600080fd5b61553086828701615201565b925050604084013590509250925092565b60006060828403121561555357600080fd5b614aad83836149e4565b60208082526019908201527f5061757361626c653a20696e6465782069732070617573656400000000000000604082015260600190565b634e487b7160e01b600052603260045260246000fd5b60008235605e198336030181126155c057600080fd5b9190910192915050565b6000808335601e198436030181126155e157600080fd5b8301803591506001600160401b038211156155fb57600080fd5b6020019150600581901b36038213156145b357600080fd5b634e487b7160e01b600052601160045260246000fd5b600060001982141561563d5761563d615613565b5060010190565b6060810182356156538161489b565b6001600160a01b03908116835260208401359061566f8261489b565b166020830152604083013561568381614d26565b63ffffffff811660408401525092915050565b60208152816020820152818360408301376000818301604090810191909152601f909201601f19160101919050565b6000602082840312156156d757600080fd5b8151614aad8161489b565b6020808252602a908201527f6d73672e73656e646572206973206e6f74207065726d697373696f6e6564206160408201526939903ab73830bab9b2b960b11b606082015260800190565b60208082526037908201527f44656c65676174696f6e4d616e616765723a206f6e6c7953747261746567794d60408201527f616e616765724f72456967656e506f644d616e61676572000000000000000000606082015260800190565b60006020828403121561579b57600080fd5b8151614aad816150f5565b60208082526028908201527f6d73672e73656e646572206973206e6f74207065726d697373696f6e6564206160408201526739903830bab9b2b960c11b606082015260800190565b6000823560de198336030181126155c057600080fd5b60006020828403121561581657600080fd5b8135614aad816150f5565b600060018060a01b03808351168452806020840151166020850152806040840151166040850152506060820151606084015263ffffffff608083015116608084015260a082015160e060a085015261587c60e0850182615450565b905060c083015184820360c086015261129b8282615494565b602081526000614aad6020830184615821565b602081526000825160e060208401526158c5610100840182615450565b90506020840151601f198483030160408501526158e28282615494565b915050604084015160018060a01b03808216606086015260608601519150808251166080860152506bffffffffffffffffffffffff60208201511660a085015250608084015161593a60c085018263ffffffff169052565b5060a08401516001600160a01b03811660e0850152509392505050565b6000806040838503121561596a57600080fd5b8251615975816150f5565b6020939093015192949293505050565b828152604060208201526000614f256040830184615821565b6000602082840312156159b057600080fd5b5051919050565b600082601f8301126159c857600080fd5b815160206159d8614d8783614d43565b82815260059290921b840181019181810190868411156159f757600080fd5b8286015b84811015614dcf57805183529183019183016159fb565b60008060408385031215615a2557600080fd5b82516001600160401b0380821115615a3c57600080fd5b818501915085601f830112615a5057600080fd5b81516020615a60614d8783614d43565b82815260059290921b84018101918181019089841115615a7f57600080fd5b948201945b83861015615aa6578551615a978161489b565b82529482019490820190615a84565b91880151919650909350505080821115615abf57600080fd5b50615acc858286016159b7565b9150509250929050565b60008219821115615ae957615ae9615613565b500190565b600082821015615b0057615b00615613565b500390565b6001600160a01b039384168152919092166020820152604081019190915260600190565b600060208284031215615b3b57600080fd5b8135614aad81614d26565b80546001600160a01b0319166001600160a01b0392909216919091179055565b8135615b718161489b565b615b7b8183615b46565b50600181016020830135615b8e8161489b565b615b988183615b46565b506040830135615ba781614d26565b815463ffffffff60a01b191660a09190911b63ffffffff60a01b161790555050565b6000615bd53683614e35565b92915050565b82815260006020604081840152835180604085015260005b81811015615c0f57858101830151858201606001528201615bf3565b81811115615c21576000606083870101525b50601f01601f191692909201606001949350505050565b600060208284031215615c4a57600080fd5b81516001600160e01b031981168114614aad57600080fdfe44656c65676174696f6e4d616e616765722e72656769737465724f706572617444656c65676174696f6e4d616e616765722e636f6d706c657465517565756564a2646970667358221220ba844290c241c147f1f9dcfb60539efb22665b06b93821e4761ae64622491bce64736f6c634300080c0033","linkReferences":{}},"methodIdentifiers":{"DELEGATION_APPROVAL_TYPEHASH()":"04a4f979","DOMAIN_TYPEHASH()":"20606b70","MAX_STAKER_OPT_OUT_WINDOW_BLOCKS()":"4fc40b61","MAX_WITHDRAWAL_DELAY_BLOCKS()":"ca661c04","OPERATOR_AVS_REGISTRATION_TYPEHASH()":"d79aceab","STAKER_DELEGATION_TYPEHASH()":"43377382","avsOperatorStatus(address,address)":"49075da3","beaconChainETHStrategy()":"9104c319","calculateCurrentStakerDelegationDigestHash(address,address,uint256)":"1bbce091","calculateDelegationApprovalDigestHash(address,address,address,bytes32,uint256)":"0b9f487a","calculateOperatorAVSRegistrationDigestHash(address,address,bytes32,uint256)":"a1060c88","calculateStakerDelegationDigestHash(address,uint256,address,uint256)":"c94b5111","calculateWithdrawalRoot((address,address,address,uint256,uint32,address[],uint256[]))":"597b36da","completeQueuedWithdrawal((address,address,address,uint256,uint32,address[],uint256[]),address[],uint256,bool)":"60d7faed","completeQueuedWithdrawals((address,address,address,uint256,uint32,address[],uint256[])[],address[][],uint256[],bool[])":"33404396","cumulativeWithdrawalsQueued(address)":"a1788484","decreaseDelegatedShares(address,address,uint256)":"132d4967","delegateTo(address,(bytes,uint256),bytes32)":"eea9064b","delegateToBySignature(address,address,(bytes,uint256),(bytes,uint256),bytes32)":"7f548071","delegatedTo(address)":"65da1264","delegationApprover(address)":"3cdeb5e0","delegationApproverSaltIsSpent(address,bytes32)":"bb45fef2","deregisterOperatorFromAVS(address)":"a364f4da","domainSeparator()":"f698da25","earningsReceiver(address)":"5f966f14","eigenPodManager()":"4665bcda","getDelegatableShares(address)":"cf80873e","increaseDelegatedShares(address,address,uint256)":"28a573ae","initialize(address,address,uint256,uint256)":"eb990c59","isDelegated(address)":"3e28391d","isOperator(address)":"6d70f7ae","migrateQueuedWithdrawals((address[],uint256[],address,(address,uint96),uint32,address)[])":"5cfe8d2c","modifyOperatorDetails((address,address,uint32))":"f16172b0","operatorDetails(address)":"c5e480db","operatorSaltIsSpent(address,bytes32)":"374823b5","operatorShares(address,address)":"778e55f3","owner()":"8da5cb5b","pause(uint256)":"136439dd","pauseAll()":"595c6a67","paused()":"5c975abb","paused(uint8)":"5ac86ab7","pauserRegistry()":"886f1195","pendingWithdrawals(bytes32)":"b7f06ebe","queueWithdrawals((address[],uint256[],address)[])":"0dd8dd02","registerAsOperator((address,address,uint32),string)":"0f589e59","registerOperatorToAVS(address,(bytes,bytes32,uint256))":"9926ee7d","renounceOwnership()":"715018a6","setPauserRegistry(address)":"10d67a2f","slasher()":"b1344271","stakerNonce(address)":"29c77d4f","stakerOptOutWindowBlocks(address)":"16928365","strategyManager()":"39b70e38","test()":"f8a8fd6d","transferOwnership(address)":"f2fde38b","undelegate(address)":"da8be864","unpause(uint256)":"fabc1cbc","updateAVSMetadataURI(string)":"a98fb355","updateOperatorMetadataURI(string)":"99be81c8","withdrawalDelayBlocks()":"50f73e7c"},"id":89}