{
  "_format": "hh-sol-artifact-1",
  "contractName": "RateLimiter",
  "sourceName": "src/mixins/RateLimiter.sol",
  "abi": [
    {
      "inputs": [
        {
          "internalType": "uint64",
          "name": "provided",
          "type": "uint64"
        },
        {
          "internalType": "uint64",
          "name": "minimum",
          "type": "uint64"
        }
      ],
      "name": "InvalidBatchSize",
      "type": "error"
    },
    {
      "inputs": [
        {
          "internalType": "uint256",
          "name": "provided",
          "type": "uint256"
        },
        {
          "internalType": "uint256",
          "name": "minimum",
          "type": "uint256"
        }
      ],
      "name": "InvalidDuration",
      "type": "error"
    },
    {
      "inputs": [
        {
          "internalType": "uint256",
          "name": "provided",
          "type": "uint256"
        },
        {
          "internalType": "uint256",
          "name": "minimum",
          "type": "uint256"
        },
        {
          "internalType": "uint256",
          "name": "maximum",
          "type": "uint256"
        }
      ],
      "name": "InvalidMaxAmount",
      "type": "error"
    },
    {
      "inputs": [],
      "name": "PredicateClient_IsRateLimited",
      "type": "error"
    },
    {
      "inputs": [],
      "name": "RateLimiter_InvalidToken",
      "type": "error"
    },
    {
      "inputs": [
        {
          "internalType": "address",
          "name": "token",
          "type": "address"
        }
      ],
      "name": "TokenNotSupported",
      "type": "error"
    },
    {
      "anonymous": false,
      "inputs": [
        {
          "indexed": true,
          "internalType": "address",
          "name": "previousOwner",
          "type": "address"
        },
        {
          "indexed": true,
          "internalType": "address",
          "name": "newOwner",
          "type": "address"
        }
      ],
      "name": "OwnershipTransferred",
      "type": "event"
    },
    {
      "anonymous": false,
      "inputs": [
        {
          "indexed": true,
          "internalType": "address",
          "name": "user",
          "type": "address"
        },
        {
          "indexed": false,
          "internalType": "address",
          "name": "token",
          "type": "address"
        },
        {
          "indexed": false,
          "internalType": "uint256",
          "name": "amount",
          "type": "uint256"
        },
        {
          "indexed": false,
          "internalType": "uint256",
          "name": "limit",
          "type": "uint256"
        }
      ],
      "name": "RateLimitExceeded",
      "type": "event"
    },
    {
      "anonymous": false,
      "inputs": [
        {
          "indexed": false,
          "internalType": "uint256",
          "name": "maxAmount",
          "type": "uint256"
        },
        {
          "indexed": false,
          "internalType": "uint256",
          "name": "duration",
          "type": "uint256"
        },
        {
          "indexed": false,
          "internalType": "uint64",
          "name": "batchSize",
          "type": "uint64"
        }
      ],
      "name": "RateLimitParamsUpdated",
      "type": "event"
    },
    {
      "inputs": [
        {
          "internalType": "address",
          "name": "",
          "type": "address"
        }
      ],
      "name": "bypassRateLimit",
      "outputs": [
        {
          "internalType": "bool",
          "name": "",
          "type": "bool"
        }
      ],
      "stateMutability": "view",
      "type": "function"
    },
    {
      "inputs": [
        {
          "internalType": "address",
          "name": "sender",
          "type": "address"
        },
        {
          "internalType": "address",
          "name": "token",
          "type": "address"
        },
        {
          "internalType": "uint256",
          "name": "amount",
          "type": "uint256"
        }
      ],
      "name": "checkIfLimitExceeds",
      "outputs": [
        {
          "internalType": "bool",
          "name": "",
          "type": "bool"
        },
        {
          "internalType": "uint256",
          "name": "",
          "type": "uint256"
        }
      ],
      "stateMutability": "view",
      "type": "function"
    },
    {
      "inputs": [],
      "name": "disableRateLimiter",
      "outputs": [],
      "stateMutability": "nonpayable",
      "type": "function"
    },
    {
      "inputs": [],
      "name": "enableRateLimiter",
      "outputs": [],
      "stateMutability": "nonpayable",
      "type": "function"
    },
    {
      "inputs": [
        {
          "internalType": "address",
          "name": "token",
          "type": "address"
        },
        {
          "internalType": "uint256",
          "name": "amount",
          "type": "uint256"
        }
      ],
      "name": "evaluateRateLimit",
      "outputs": [
        {
          "internalType": "bool",
          "name": "",
          "type": "bool"
        }
      ],
      "stateMutability": "nonpayable",
      "type": "function"
    },
    {
      "inputs": [],
      "name": "getRateLimitParams",
      "outputs": [
        {
          "components": [
            {
              "internalType": "uint256",
              "name": "maxAmount",
              "type": "uint256"
            },
            {
              "internalType": "uint256",
              "name": "duration",
              "type": "uint256"
            },
            {
              "internalType": "uint64",
              "name": "batchSize",
              "type": "uint64"
            }
          ],
          "internalType": "struct RateLimitParams",
          "name": "",
          "type": "tuple"
        }
      ],
      "stateMutability": "view",
      "type": "function"
    },
    {
      "inputs": [
        {
          "internalType": "address",
          "name": "user",
          "type": "address"
        }
      ],
      "name": "getTxBatchAtPtr",
      "outputs": [
        {
          "internalType": "uint256",
          "name": "amount",
          "type": "uint256"
        },
        {
          "internalType": "uint256",
          "name": "startBlockNumber",
          "type": "uint256"
        },
        {
          "internalType": "uint256",
          "name": "endBlockNumber",
          "type": "uint256"
        }
      ],
      "stateMutability": "view",
      "type": "function"
    },
    {
      "inputs": [
        {
          "internalType": "address",
          "name": "user",
          "type": "address"
        }
      ],
      "name": "getTxHistory",
      "outputs": [
        {
          "components": [
            {
              "internalType": "uint256",
              "name": "total",
              "type": "uint256"
            },
            {
              "internalType": "uint256",
              "name": "ptr",
              "type": "uint256"
            },
            {
              "components": [
                {
                  "internalType": "uint256",
                  "name": "amount",
                  "type": "uint256"
                },
                {
                  "internalType": "uint256",
                  "name": "startBlockNumber",
                  "type": "uint256"
                },
                {
                  "internalType": "uint256",
                  "name": "endBlockNumber",
                  "type": "uint256"
                }
              ],
              "internalType": "struct TxBatch[]",
              "name": "txBatches",
              "type": "tuple[]"
            }
          ],
          "internalType": "struct TxHistory",
          "name": "",
          "type": "tuple"
        }
      ],
      "stateMutability": "view",
      "type": "function"
    },
    {
      "inputs": [],
      "name": "isRateLimiterEnabled",
      "outputs": [
        {
          "internalType": "bool",
          "name": "",
          "type": "bool"
        }
      ],
      "stateMutability": "view",
      "type": "function"
    },
    {
      "inputs": [],
      "name": "owner",
      "outputs": [
        {
          "internalType": "address",
          "name": "",
          "type": "address"
        }
      ],
      "stateMutability": "view",
      "type": "function"
    },
    {
      "inputs": [],
      "name": "priceOracle",
      "outputs": [
        {
          "internalType": "contract IPriceAggregator",
          "name": "",
          "type": "address"
        }
      ],
      "stateMutability": "view",
      "type": "function"
    },
    {
      "inputs": [],
      "name": "rateLimitParams",
      "outputs": [
        {
          "internalType": "uint256",
          "name": "maxAmount",
          "type": "uint256"
        },
        {
          "internalType": "uint256",
          "name": "duration",
          "type": "uint256"
        },
        {
          "internalType": "uint64",
          "name": "batchSize",
          "type": "uint64"
        }
      ],
      "stateMutability": "view",
      "type": "function"
    },
    {
      "inputs": [
        {
          "internalType": "address",
          "name": "user",
          "type": "address"
        }
      ],
      "name": "removeRateLimitBypass",
      "outputs": [],
      "stateMutability": "nonpayable",
      "type": "function"
    },
    {
      "inputs": [],
      "name": "renounceOwnership",
      "outputs": [],
      "stateMutability": "nonpayable",
      "type": "function"
    },
    {
      "inputs": [
        {
          "internalType": "address",
          "name": "_priceOracle",
          "type": "address"
        }
      ],
      "name": "setPriceOracle",
      "outputs": [],
      "stateMutability": "nonpayable",
      "type": "function"
    },
    {
      "inputs": [
        {
          "internalType": "address",
          "name": "user",
          "type": "address"
        }
      ],
      "name": "setRateLimitBypass",
      "outputs": [],
      "stateMutability": "nonpayable",
      "type": "function"
    },
    {
      "inputs": [
        {
          "components": [
            {
              "internalType": "uint256",
              "name": "maxAmount",
              "type": "uint256"
            },
            {
              "internalType": "uint256",
              "name": "duration",
              "type": "uint256"
            },
            {
              "internalType": "uint64",
              "name": "batchSize",
              "type": "uint64"
            }
          ],
          "internalType": "struct RateLimitParams",
          "name": "params",
          "type": "tuple"
        }
      ],
      "name": "setRateLimitParams",
      "outputs": [],
      "stateMutability": "nonpayable",
      "type": "function"
    },
    {
      "inputs": [
        {
          "internalType": "address",
          "name": "newOwner",
          "type": "address"
        }
      ],
      "name": "transferOwnership",
      "outputs": [],
      "stateMutability": "nonpayable",
      "type": "function"
    },
    {
      "inputs": [
        {
          "internalType": "address",
          "name": "",
          "type": "address"
        }
      ],
      "name": "txHistory",
      "outputs": [
        {
          "internalType": "uint256",
          "name": "total",
          "type": "uint256"
        },
        {
          "internalType": "uint256",
          "name": "ptr",
          "type": "uint256"
        }
      ],
      "stateMutability": "view",
      "type": "function"
    }
  ],
  "bytecode": "0x608060405234801561001057600080fd5b5061001a3361001f565b61006f565b600080546001600160a01b038381166001600160a01b0319831681178455604051919092169283917f8be0079c531659141344cd1fd0a4f28419497f9722a3daafe3b4186f6b6457e09190a35050565b6117178061007e6000396000f3fe608060405234801561001057600080fd5b50600436106101215760003560e01c8063715018a6116100ad578063c47f1ac311610071578063c47f1ac3146102a5578063c60c0646146102ad578063daf42d6c146102c0578063ed5f43b7146102d3578063f2fde38b146102f657600080fd5b8063715018a6146102465780638da5cb5b1461024e578063a8ca896414610267578063b49599851461027c578063b74437a51461029d57600080fd5b80632e6c02e3116100f45780632e6c02e3146101bb5780632f53036e146101e65780633443541214610200578063530e784f146102135780637012b1d41461022657600080fd5b80630a6d4d5814610126578063112f6a31146101645780632630c12f14610186578063286df6b7146101a6575b600080fd5b61014d610134366004610fb8565b6001602081905260009182526040909120805491015482565b60405161015b929190610fe1565b60405180910390f35b610177610172366004610fb8565b610309565b60405161015b93929190611003565b600754610199906001600160a01b031681565b60405161015b919061106d565b6101b96101b4366004610fb8565b6103fd565b005b6004546005546006546101d792919067ffffffffffffffff1683565b60405161015b9392919061108b565b6003546101f39060ff1681565b60405161015b91906110bb565b6101f361020e3660046110da565b610429565b6101b9610221366004610fb8565b61043e565b610239610234366004610fb8565b610468565b60405161015b91906111f9565b6101b961053c565b6000546001600160a01b031660405161015b9190611213565b61026f610550565b60405161015b9190611258565b61028f61028a366004611266565b6105ad565b60405161015b9291906112b6565b6101b96106a9565b6101b96106bd565b6101b96102bb366004610fb8565b6106d4565b6101b96102ce3660046112df565b6106fd565b6101f36102e1366004610fb8565b60026020526000908152604090205460ff1681565b6101b9610304366004610fb8565b61083e565b6001600160a01b0381166000908152600160208181526040808420815160608101835281548152938101548484015260028101805483518186028101860185528181528796879687969195949186019390879084015b828210156103af578382906000526020600020906003020160405180606001604052908160008201548152602001600182015481526020016002820154815250508152602001906001019061035f565b50505050815250509050600081604001518260200151815181106103d5576103d5611300565b6020026020010151905080600001518160200151826040015194509450945050509193909250565b610405610878565b6001600160a01b03166000908152600260205260409020805460ff19166001179055565b600061043583836108a2565b90505b92915050565b610446610878565b600780546001600160a01b0319166001600160a01b0392909216919091179055565b61048c60405180606001604052806000815260200160008152602001606081525090565b6001600160a01b03821660009081526001602081815260408084208151606081018352815481529381015484840152600281018054835181860281018601855281815295969295938701949192909184015b8282101561052e57838290600052602060002090600302016040518060600160405290816000820154815260200160018201548152602001600282015481525050815260200190600101906104de565b505050915250909392505050565b610544610878565b61054e6000610a03565b565b61057e60405180606001604052806000815260200160008152602001600067ffffffffffffffff1681525090565b50604080516060810182526004548152600554602082015260065467ffffffffffffffff169181019190915290565b600080806105d66105c06006601261132c565b6105cb90600a611448565b8590620f4240610a53565b60075460405163449e815d60e01b8152919250600091610661916001600160a01b03169063449e815d90610610908a908a90600401611457565b602060405180830381865afa15801561062d573d6000803e3d6000fd5b505050506040513d601f19601f820116820180604052508101906106519190611470565b8390670de0b6b3a7640000610a53565b9050600061068c6106746006601261132c565b61067f90600a611448565b60045490620f4240610a53565b905061069a88888484610a71565b94509450505050935093915050565b6106b1610878565b6003805460ff19169055565b6106c5610878565b6003805460ff19166001179055565b6106dc610878565b6001600160a01b03166000908152600260205260409020805460ff19169055565b610705610878565b620f42408135108061071c575064e8d4a510008135115b1561075257604051638b39eb3360e01b815261074990823590620f42409064e8d4a5100090600401611003565b60405180910390fd5b600181602001351015610781578060200135600160405163387a058b60e01b8152600401610749929190610fe1565b600161079360608301604084016114ac565b67ffffffffffffffff1610156107d0576107b360608201604083016114ac565b6001604051630161019760e01b81526004016107499291906114cd565b8060046107dd82826115da565b50506003805460ff191660011790557fdf1f77551f6fd65be59ba5210e34eba28a083b1e076a140cd029c3b0794d574f8135602083013561082460608501604086016114ac565b6040516108339392919061108b565b60405180910390a150565b610846610878565b6001600160a01b03811661086c5760405162461bcd60e51b8152600401610749906115e8565b61087581610a03565b50565b6000546001600160a01b0316331461054e5760405162461bcd60e51b815260040161074990611632565b6000806108ca6108b46006601261132c565b6108bf90600a611448565b8490620f4240610a53565b60075460405163449e815d60e01b81529192506000916001600160a01b039091169063449e815d906109029088908890600401611457565b602060405180830381865afa15801561091f573d6000803e3d6000fd5b505050506040513d601f19601f820116820180604052508101906109439190611470565b9050600061095a8383670de0b6b3a7640000610a53565b9050600061096d6106746006601261132c565b9050600061097d33898585610a71565b50905080156109d45760045460405133917f96ee157935beeecc933fc961702863de200aee2402989dd02d2625aa5aa73336916109be918c918c919061166c565b60405180910390a2600095505050505050610438565b60006109df43610b51565b90506109ea81610b77565b6109f44385610c23565b50600198975050505050505050565b600080546001600160a01b038381166001600160a01b0319831681178455604051919092169283917f8be0079c531659141344cd1fd0a4f28419497f9722a3daafe3b4186f6b6457e09190a35050565b6000826000190484118302158202610a6a57600080fd5b5091020490565b6007546040516375151b6360e01b815260009182916001600160a01b03909116906375151b6390610aa6908890600401611213565b602060405180830381865afa158015610ac3573d6000803e3d6000fd5b505050506040513d601f19601f82011682018060405250810190610ae7919061168d565b610b0657846040516306439c6b60e01b81526004016107499190611213565b6000610b1143610b51565b90506000610b1f8883610c5b565b90506000610b2f89838989610da8565b90506000610b3f8a848a8a610e11565b95509093505050505b94509492505050565b6005546000908210610b6f57600554610b6a908361132c565b610438565b600092915050565b3360009081526001602081905260409091208054918101549091905b600283015481108015610bcc575083836002018281548110610bb757610bb7611300565b90600052602060002090600302016002015411155b15610c1757826002018181548110610be657610be6611300565b90600052602060002090600302016000015482610c03919061132c565b915080610c0f816116ae565b915050610b93565b90825560019091015550565b336000908152600160205260409020610c3c8184610e4a565b15610c5057610c4b8183610e99565b505050565b610c4b818484610f00565b6001600160a01b038216600090815260016020818152604080842081516060810183528154815293810154848401526002810180548351818602810186018552818152879695939486019390929190879084015b82821015610cff5783829060005260206000209060030201604051806060016040529081600082015481526020016001820154815260200160028201548152505081526020019060010190610caf565b50505091525050604081015151909150610d1d576000915050610438565b805160208201515b82604001515181108015610d5957508483604001518281518110610d4b57610d4b611300565b602002602001015160400151105b15610d9f5782604001518181518110610d7457610d74611300565b60200260200101516000015182610d8b919061132c565b915080610d97816116ae565b915050610d25565b50949350505050565b6001600160a01b03841660009081526002602052604081205460ff1615610dd0575080610e09565b81610ddb84866116c9565b11610dfc5782610deb858461132c565b610df5919061132c565b9050610e09565b610e06848361132c565b90505b949350505050565b6001600160a01b03841660009081526002602052604081205460ff16158015610e06575081610e4084866116c9565b1195945050505050565b6002820154600090158015906104355750600283018054610e6d9060019061132c565b81548110610e7d57610e7d611300565b9060005260206000209060030201600201548210905092915050565b600282018054829190610eae9060019061132c565b81548110610ebe57610ebe611300565b90600052602060002090600302016000016000828254610ede91906116c9565b9091555050815481908390600090610ef79084906116c9565b90915550505050565b6040805160608101825282815260208101849052600654600092820190610f319067ffffffffffffffff16866116c9565b9052600280860180546001818101835560009283526020808420865160039094020192835585015190820155604084015192019190915585549192508391869190610f7d9084906116c9565b909155505050505050565b60006001600160a01b038216610438565b610fa281610f88565b811461087557600080fd5b803561043881610f99565b600060208284031215610fcd57610fcd600080fd5b6000610e098484610fad565b805b82525050565b60408101610fef8285610fd9565b610ffc6020830184610fd9565b9392505050565b606081016110118286610fd9565b61101e6020830185610fd9565b610e096040830184610fd9565b60006104386001600160a01b038316611042565b90565b6001600160a01b031690565b60006104388261102b565b60006104388261104e565b610fdb81611059565b602081016104388284611064565b67ffffffffffffffff8116610fdb565b606081016110998286610fd9565b6110a66020830185610fd9565b610e09604083018461107b565b801515610fdb565b6020810161043882846110b3565b80610fa2565b8035610438816110c9565b600080604083850312156110f0576110f0600080fd5b60006110fc8585610fad565b925050602061110d858286016110cf565b9150509250929050565b805160608301906111288482610fd9565b50602082015161113b6020850182610fd9565b50604082015161114e6040850182610fd9565b50505050565b60006111608383611117565b505060600190565b6000611172825190565b80845260209384019383018060005b838110156111a65781516111958882611154565b975060208301925050600101611181565b509495945050505050565b805160009060608401906111c58582610fd9565b5060208301516111d86020860182610fd9565b50604083015184820360408601526111f08282611168565b95945050505050565b6020808252810161043581846111b1565b610fdb81610f88565b60208101610438828461120a565b805160608301906112328482610fd9565b5060208201516112456020850182610fd9565b50604082015161114e604085018261107b565b606081016104388284611221565b60008060006060848603121561127e5761127e600080fd5b600061128a8686610fad565b935050602061129b86828701610fad565b92505060406112ac868287016110cf565b9150509250925092565b60408101610fef82856110b3565b6000606082840312156112d9576112d9600080fd5b50919050565b6000606082840312156112f4576112f4600080fd5b6000610e0984846112c4565b634e487b7160e01b600052603260045260246000fd5b634e487b7160e01b600052601160045260246000fd5b60008282101561133e5761133e611316565b500390565b80825b6001851115610b485780860481111561136157611361611316565b600185161561136f57908102905b800261137b8560011c90565b9450611346565b60008261139157506001610ffc565b8161139e57506000610ffc565b81600181146113b457600281146113be576113eb565b6001915050610ffc565b60ff8411156113cf576113cf611316565b8360020a9150848211156113e5576113e5611316565b50610ffc565b5060208310610133831016604e8410600b841016171561141e575081810a8381111561141957611419611316565b610ffc565b61142b8484846001611343565b9250905081840481111561144157611441611316565b0292915050565b60006104356000198484611382565b60408101610fef828561120a565b8051610438816110c9565b60006020828403121561148557611485600080fd5b6000610e098484611465565b67ffffffffffffffff8116610fa2565b803561043881611491565b6000602082840312156114c1576114c1600080fd5b6000610e0984846114a1565b604081016114db828561107b565b610ffc602083018461107b565b60008135610438816110c9565b6000600019835b81169019929092169190911792915050565b600061043861103f8381565b6115238261150e565b61152e8183546114f5565b8255505050565b6000813561043881611491565b600067ffffffffffffffff836114fc565b600067ffffffffffffffff8216610438565b61156e82611553565b61152e818354611542565b808280611585816114e8565b9050611591818461151a565b5050506001810160208301806115a6816114e8565b90506115b2818461151a565b5050506002810160408301806115c781611535565b90506115d38184611565565b5050505050565b6115e48282611579565b5050565b6020808252810161043881602681527f4f776e61626c653a206e6577206f776e657220697320746865207a65726f206160208201526564647265737360d01b604082015260600190565b60208082528181019081527f4f776e61626c653a2063616c6c6572206973206e6f7420746865206f776e6572604083015260608201610438565b60608101611011828661120a565b801515610fa2565b80516104388161167a565b6000602082840312156116a2576116a2600080fd5b6000610e098484611682565b60006000198214156116c2576116c2611316565b5060010190565b600082198211156116dc576116dc611316565b50019056fea2646970667358221220d40895d3f6b5a541722e0a6d24c154b39a737e17510c080cb00d02c62af8543364736f6c634300080c0033",
  "linkReferences": {},
  "deployedLinkReferences": {}
}