{"abi":[{"type":"function","name":"assetToAsset","inputs":[{"name":"tokenIn","type":"address","internalType":"address"},{"name":"amountIn","type":"uint256","internalType":"uint256"},{"name":"tokenOut","type":"address","internalType":"address"},{"name":"twapPeriod","type":"uint256","internalType":"uint256"}],"outputs":[{"name":"amountOut","type":"uint256","internalType":"uint256"}],"stateMutability":"pure"},{"type":"function","name":"getPrice","inputs":[{"name":"tokenID","type":"string","internalType":"string"},{"name":"amountIn","type":"uint256","internalType":"uint256"}],"outputs":[{"name":"","type":"uint256","internalType":"uint256"}],"stateMutability":"view"},{"type":"function","name":"isTokenSupported","inputs":[{"name":"tokenID","type":"string","internalType":"string"}],"outputs":[{"name":"","type":"bool","internalType":"bool"}],"stateMutability":"view"},{"type":"function","name":"prices","inputs":[{"name":"","type":"string","internalType":"string"}],"outputs":[{"name":"","type":"uint256","internalType":"uint256"}],"stateMutability":"view"},{"type":"function","name":"setPrice","inputs":[{"name":"tokenID","type":"string","internalType":"string"},{"name":"price","type":"uint256","internalType":"uint256"}],"outputs":[],"stateMutability":"nonpayable"}],"bytecode":{"object":"0x608060405234801561001057600080fd5b506104b4806100206000396000f3fe608060405234801561001057600080fd5b50600436106100575760003560e01c80630d3652ec1461005c57806322e01192146100845780632ef3accc146100995780637c661949146100ba578063c3825f4b146100d2575b600080fd5b61006f61006a3660046102b9565b6100fd565b60405190151581526020015b60405180910390f35b6100976100923660046102fb565b610129565b005b6100ac6100a73660046102fb565b610151565b60405190815260200161007b565b6100ac6100c8366004610363565b6000949350505050565b6100ac6100e03660046103bd565b805160208183018101805160008252928201919093012091525481565b600080838360405161011092919061046e565b9081526040519081900360200190205415159392505050565b806000848460405161013c92919061046e565b90815260405190819003602001902055505050565b600080848460405161016492919061046e565b908152602001604051809103902054600014156101d95760405162461bcd60e51b815260206004820152602860248201527f4d6f636b507269636541676772656761746f723a20746f6b656e206e6f7420736044820152671d5c1c1bdc9d195960c21b60648201526084015b60405180910390fd5b600082116102465760405162461bcd60e51b815260206004820152603460248201527f4d6f636b507269636541676772656761746f723a20616d6f756e74496e206d75604482015273073742062652067726561746572207468616e20360641b60648201526084016101d0565b6000848460405161025892919061046e565b90815260200160405180910390205490509392505050565b60008083601f84011261028257600080fd5b50813567ffffffffffffffff81111561029a57600080fd5b6020830191508360208285010111156102b257600080fd5b9250929050565b600080602083850312156102cc57600080fd5b823567ffffffffffffffff8111156102e357600080fd5b6102ef85828601610270565b90969095509350505050565b60008060006040848603121561031057600080fd5b833567ffffffffffffffff81111561032757600080fd5b61033386828701610270565b909790965060209590950135949350505050565b80356001600160a01b038116811461035e57600080fd5b919050565b6000806000806080858703121561037957600080fd5b61038285610347565b93506020850135925061039760408601610347565b9396929550929360600135925050565b634e487b7160e01b600052604160045260246000fd5b6000602082840312156103cf57600080fd5b813567ffffffffffffffff808211156103e757600080fd5b818401915084601f8301126103fb57600080fd5b81358181111561040d5761040d6103a7565b604051601f8201601f19908116603f01168101908382118183101715610435576104356103a7565b8160405282815287602084870101111561044e57600080fd5b826020860160208301376000928101602001929092525095945050505050565b818382376000910190815291905056fea26469706673582212202b50c263451038e2acbc9ac93da2cdbe051d3f34af869cb84c5e8be3a881111064736f6c634300080c0033","linkReferences":{}},"methodIdentifiers":{"assetToAsset(address,uint256,address,uint256)":"7c661949","getPrice(string,uint256)":"2ef3accc","isTokenSupported(string)":"0d3652ec","prices(string)":"c3825f4b","setPrice(string,uint256)":"22e01192"},"id":118}