{
  "_format": "hh-sol-artifact-1",
  "contractName": "ServiceManager",
  "sourceName": "src/ServiceManager.sol",
  "abi": [
    {
      "inputs": [],
      "stateMutability": "nonpayable",
      "type": "constructor"
    },
    {
      "inputs": [],
      "name": "ServiceManager__ArrayLengthMismatch",
      "type": "error"
    },
    {
      "inputs": [],
      "name": "ServiceManager__InvalidOperator",
      "type": "error"
    },
    {
      "inputs": [],
      "name": "ServiceManager__InvalidStrategy",
      "type": "error"
    },
    {
      "inputs": [],
      "name": "ServiceManager__Unauthorized",
      "type": "error"
    },
    {
      "anonymous": false,
      "inputs": [
        {
          "indexed": true,
          "internalType": "address",
          "name": "avsDirectory",
          "type": "address"
        }
      ],
      "name": "AVSDirectoryUpdated",
      "type": "event"
    },
    {
      "anonymous": false,
      "inputs": [
        {
          "indexed": true,
          "internalType": "address",
          "name": "aggregator",
          "type": "address"
        }
      ],
      "name": "AggregatorUpdated",
      "type": "event"
    },
    {
      "anonymous": false,
      "inputs": [
        {
          "indexed": true,
          "internalType": "address",
          "name": "delegationManager",
          "type": "address"
        }
      ],
      "name": "DelegationManagerUpdated",
      "type": "event"
    },
    {
      "anonymous": false,
      "inputs": [
        {
          "indexed": true,
          "internalType": "string",
          "name": "policyID",
          "type": "string"
        },
        {
          "indexed": false,
          "internalType": "string",
          "name": "policy",
          "type": "string"
        }
      ],
      "name": "DeployedPolicy",
      "type": "event"
    },
    {
      "anonymous": false,
      "inputs": [
        {
          "indexed": false,
          "internalType": "uint8",
          "name": "version",
          "type": "uint8"
        }
      ],
      "name": "Initialized",
      "type": "event"
    },
    {
      "anonymous": false,
      "inputs": [
        {
          "indexed": true,
          "internalType": "uint256",
          "name": "taskID",
          "type": "uint256"
        }
      ],
      "name": "NonCompliantTask",
      "type": "event"
    },
    {
      "anonymous": false,
      "inputs": [
        {
          "indexed": true,
          "internalType": "address",
          "name": "operator",
          "type": "address"
        }
      ],
      "name": "OperatorRegistered",
      "type": "event"
    },
    {
      "anonymous": false,
      "inputs": [
        {
          "indexed": true,
          "internalType": "address",
          "name": "operator",
          "type": "address"
        }
      ],
      "name": "OperatorRemoved",
      "type": "event"
    },
    {
      "anonymous": false,
      "inputs": [
        {
          "indexed": true,
          "internalType": "address[][]",
          "name": "operatorsPerQuorum",
          "type": "address[][]"
        },
        {
          "indexed": true,
          "internalType": "bytes",
          "name": "quorumNumbers",
          "type": "bytes"
        }
      ],
      "name": "OperatorsStakesUpdated",
      "type": "event"
    },
    {
      "anonymous": false,
      "inputs": [
        {
          "indexed": true,
          "internalType": "address",
          "name": "previousOwner",
          "type": "address"
        },
        {
          "indexed": true,
          "internalType": "address",
          "name": "newOwner",
          "type": "address"
        }
      ],
      "name": "OwnershipTransferred",
      "type": "event"
    },
    {
      "anonymous": false,
      "inputs": [
        {
          "indexed": true,
          "internalType": "address",
          "name": "client",
          "type": "address"
        },
        {
          "indexed": true,
          "internalType": "string",
          "name": "policyID",
          "type": "string"
        }
      ],
      "name": "RemovedPolicy",
      "type": "event"
    },
    {
      "anonymous": false,
      "inputs": [
        {
          "indexed": true,
          "internalType": "address",
          "name": "client",
          "type": "address"
        },
        {
          "indexed": true,
          "internalType": "string",
          "name": "policyID",
          "type": "string"
        }
      ],
      "name": "SetPolicy",
      "type": "event"
    },
    {
      "anonymous": false,
      "inputs": [
        {
          "indexed": true,
          "internalType": "string",
          "name": "socialGraphID",
          "type": "string"
        },
        {
          "indexed": false,
          "internalType": "string",
          "name": "socialGraphConfig",
          "type": "string"
        }
      ],
      "name": "SocialGraphDeployed",
      "type": "event"
    },
    {
      "anonymous": false,
      "inputs": [
        {
          "indexed": true,
          "internalType": "address",
          "name": "stakeRegistry",
          "type": "address"
        }
      ],
      "name": "StakeRegistryUpdated",
      "type": "event"
    },
    {
      "anonymous": false,
      "inputs": [
        {
          "indexed": true,
          "internalType": "address",
          "name": "strategy",
          "type": "address"
        }
      ],
      "name": "StrategyAdded",
      "type": "event"
    },
    {
      "anonymous": false,
      "inputs": [
        {
          "indexed": true,
          "internalType": "address",
          "name": "strategy",
          "type": "address"
        }
      ],
      "name": "StrategyRemoved",
      "type": "event"
    },
    {
      "anonymous": false,
      "inputs": [
        {
          "indexed": true,
          "internalType": "bytes32",
          "name": "taskHash",
          "type": "bytes32"
        }
      ],
      "name": "TaskExecuted",
      "type": "event"
    },
    {
      "anonymous": false,
      "inputs": [
        {
          "indexed": true,
          "internalType": "address",
          "name": "msgSender",
          "type": "address"
        },
        {
          "indexed": true,
          "internalType": "address",
          "name": "target",
          "type": "address"
        },
        {
          "indexed": true,
          "internalType": "uint256",
          "name": "value",
          "type": "uint256"
        },
        {
          "indexed": false,
          "internalType": "string",
          "name": "policyID",
          "type": "string"
        },
        {
          "indexed": false,
          "internalType": "string",
          "name": "taskId",
          "type": "string"
        },
        {
          "indexed": false,
          "internalType": "uint32",
          "name": "quorumThresholdCount",
          "type": "uint32"
        },
        {
          "indexed": false,
          "internalType": "uint256",
          "name": "expireByBlockNumber",
          "type": "uint256"
        },
        {
          "indexed": false,
          "internalType": "address[]",
          "name": "signerAddresses",
          "type": "address[]"
        }
      ],
      "name": "TaskValidated",
      "type": "event"
    },
    {
      "anonymous": false,
      "inputs": [
        {
          "indexed": true,
          "internalType": "uint256",
          "name": "thresholdStake",
          "type": "uint256"
        }
      ],
      "name": "ThresholdStakeUpdated",
      "type": "event"
    },
    {
      "inputs": [
        {
          "internalType": "address[]",
          "name": "_operators",
          "type": "address[]"
        }
      ],
      "name": "addPermissionedOperators",
      "outputs": [],
      "stateMutability": "nonpayable",
      "type": "function"
    },
    {
      "inputs": [
        {
          "internalType": "address",
          "name": "_strategy",
          "type": "address"
        },
        {
          "internalType": "uint8",
          "name": "quorumNumber",
          "type": "uint8"
        },
        {
          "internalType": "uint256",
          "name": "index",
          "type": "uint256"
        }
      ],
      "name": "addStrategy",
      "outputs": [],
      "stateMutability": "nonpayable",
      "type": "function"
    },
    {
      "inputs": [],
      "name": "aggregator",
      "outputs": [
        {
          "internalType": "address",
          "name": "",
          "type": "address"
        }
      ],
      "stateMutability": "view",
      "type": "function"
    },
    {
      "inputs": [],
      "name": "avsDirectory",
      "outputs": [
        {
          "internalType": "address",
          "name": "",
          "type": "address"
        }
      ],
      "stateMutability": "view",
      "type": "function"
    },
    {
      "inputs": [
        {
          "internalType": "address",
          "name": "",
          "type": "address"
        },
        {
          "internalType": "string",
          "name": "",
          "type": "string"
        }
      ],
      "name": "clientToPolicy",
      "outputs": [
        {
          "internalType": "bool",
          "name": "",
          "type": "bool"
        }
      ],
      "stateMutability": "view",
      "type": "function"
    },
    {
      "inputs": [],
      "name": "delegationManager",
      "outputs": [
        {
          "internalType": "address",
          "name": "",
          "type": "address"
        }
      ],
      "stateMutability": "view",
      "type": "function"
    },
    {
      "inputs": [
        {
          "internalType": "string",
          "name": "_policyID",
          "type": "string"
        },
        {
          "internalType": "string",
          "name": "_policy",
          "type": "string"
        },
        {
          "internalType": "uint256",
          "name": "_quorumThreshold",
          "type": "uint256"
        }
      ],
      "name": "deployPolicy",
      "outputs": [],
      "stateMutability": "nonpayable",
      "type": "function"
    },
    {
      "inputs": [
        {
          "internalType": "string",
          "name": "_socialGraphID",
          "type": "string"
        },
        {
          "internalType": "string",
          "name": "_socialGraphConfig",
          "type": "string"
        }
      ],
      "name": "deploySocialGraph",
      "outputs": [],
      "stateMutability": "nonpayable",
      "type": "function"
    },
    {
      "inputs": [
        {
          "internalType": "uint256",
          "name": "",
          "type": "uint256"
        }
      ],
      "name": "deployedPolicyIDs",
      "outputs": [
        {
          "internalType": "string",
          "name": "",
          "type": "string"
        }
      ],
      "stateMutability": "view",
      "type": "function"
    },
    {
      "inputs": [
        {
          "internalType": "address",
          "name": "_operator",
          "type": "address"
        }
      ],
      "name": "deregisterOperatorFromAVS",
      "outputs": [],
      "stateMutability": "nonpayable",
      "type": "function"
    },
    {
      "inputs": [],
      "name": "getDeployedPolicies",
      "outputs": [
        {
          "internalType": "string[]",
          "name": "",
          "type": "string[]"
        }
      ],
      "stateMutability": "view",
      "type": "function"
    },
    {
      "inputs": [
        {
          "internalType": "address",
          "name": "operator",
          "type": "address"
        }
      ],
      "name": "getOperatorRestakedStrategies",
      "outputs": [
        {
          "internalType": "address[]",
          "name": "",
          "type": "address[]"
        }
      ],
      "stateMutability": "view",
      "type": "function"
    },
    {
      "inputs": [],
      "name": "getRestakeableStrategies",
      "outputs": [
        {
          "internalType": "address[]",
          "name": "",
          "type": "address[]"
        }
      ],
      "stateMutability": "view",
      "type": "function"
    },
    {
      "inputs": [],
      "name": "getSocialGraphIDs",
      "outputs": [
        {
          "internalType": "string[]",
          "name": "",
          "type": "string[]"
        }
      ],
      "stateMutability": "view",
      "type": "function"
    },
    {
      "inputs": [
        {
          "components": [
            {
              "internalType": "string",
              "name": "taskId",
              "type": "string"
            },
            {
              "internalType": "address",
              "name": "msgSender",
              "type": "address"
            },
            {
              "internalType": "address",
              "name": "target",
              "type": "address"
            },
            {
              "internalType": "uint256",
              "name": "value",
              "type": "uint256"
            },
            {
              "internalType": "bytes",
              "name": "encodedSigAndArgs",
              "type": "bytes"
            },
            {
              "internalType": "string",
              "name": "policyID",
              "type": "string"
            },
            {
              "internalType": "uint32",
              "name": "quorumThresholdCount",
              "type": "uint32"
            },
            {
              "internalType": "uint256",
              "name": "expireByBlockNumber",
              "type": "uint256"
            }
          ],
          "internalType": "struct Task",
          "name": "_task",
          "type": "tuple"
        }
      ],
      "name": "hashTaskWithExpiry",
      "outputs": [
        {
          "internalType": "bytes32",
          "name": "",
          "type": "bytes32"
        }
      ],
      "stateMutability": "pure",
      "type": "function"
    },
    {
      "inputs": [
        {
          "internalType": "string",
          "name": "",
          "type": "string"
        }
      ],
      "name": "idToPolicy",
      "outputs": [
        {
          "internalType": "string",
          "name": "",
          "type": "string"
        }
      ],
      "stateMutability": "view",
      "type": "function"
    },
    {
      "inputs": [
        {
          "internalType": "string",
          "name": "",
          "type": "string"
        }
      ],
      "name": "idToSocialGraph",
      "outputs": [
        {
          "internalType": "string",
          "name": "",
          "type": "string"
        }
      ],
      "stateMutability": "view",
      "type": "function"
    },
    {
      "inputs": [
        {
          "internalType": "address",
          "name": "_owner",
          "type": "address"
        },
        {
          "internalType": "address",
          "name": "_aggregator",
          "type": "address"
        },
        {
          "internalType": "address",
          "name": "_delegationManager",
          "type": "address"
        },
        {
          "internalType": "address",
          "name": "_stakeRegistry",
          "type": "address"
        },
        {
          "internalType": "address",
          "name": "_avsDirectory",
          "type": "address"
        },
        {
          "internalType": "uint256",
          "name": "_thresholdStake",
          "type": "uint256"
        }
      ],
      "name": "initialize",
      "outputs": [],
      "stateMutability": "nonpayable",
      "type": "function"
    },
    {
      "inputs": [
        {
          "internalType": "address",
          "name": "",
          "type": "address"
        }
      ],
      "name": "operators",
      "outputs": [
        {
          "internalType": "uint256",
          "name": "totalStake",
          "type": "uint256"
        },
        {
          "internalType": "enum ServiceManager.OperatorStatus",
          "name": "status",
          "type": "uint8"
        }
      ],
      "stateMutability": "view",
      "type": "function"
    },
    {
      "inputs": [],
      "name": "owner",
      "outputs": [
        {
          "internalType": "address",
          "name": "",
          "type": "address"
        }
      ],
      "stateMutability": "view",
      "type": "function"
    },
    {
      "inputs": [
        {
          "internalType": "address",
          "name": "_operatorSigningKey",
          "type": "address"
        },
        {
          "components": [
            {
              "internalType": "bytes",
              "name": "signature",
              "type": "bytes"
            },
            {
              "internalType": "bytes32",
              "name": "salt",
              "type": "bytes32"
            },
            {
              "internalType": "uint256",
              "name": "expiry",
              "type": "uint256"
            }
          ],
          "internalType": "struct ISignatureUtils.SignatureWithSaltAndExpiry",
          "name": "_operatorSignature",
          "type": "tuple"
        }
      ],
      "name": "registerOperatorToAVS",
      "outputs": [],
      "stateMutability": "nonpayable",
      "type": "function"
    },
    {
      "inputs": [
        {
          "internalType": "address[]",
          "name": "_operators",
          "type": "address[]"
        }
      ],
      "name": "removePermissionedOperators",
      "outputs": [],
      "stateMutability": "nonpayable",
      "type": "function"
    },
    {
      "inputs": [
        {
          "internalType": "string",
          "name": "_policyID",
          "type": "string"
        }
      ],
      "name": "removePolicy",
      "outputs": [],
      "stateMutability": "nonpayable",
      "type": "function"
    },
    {
      "inputs": [
        {
          "internalType": "address",
          "name": "_strategy",
          "type": "address"
        }
      ],
      "name": "removeStrategy",
      "outputs": [],
      "stateMutability": "nonpayable",
      "type": "function"
    },
    {
      "inputs": [],
      "name": "renounceOwnership",
      "outputs": [],
      "stateMutability": "nonpayable",
      "type": "function"
    },
    {
      "inputs": [
        {
          "internalType": "address",
          "name": "_oldSigningKey",
          "type": "address"
        },
        {
          "internalType": "address",
          "name": "_newSigningKey",
          "type": "address"
        }
      ],
      "name": "rotatePredicateSigningKey",
      "outputs": [],
      "stateMutability": "nonpayable",
      "type": "function"
    },
    {
      "inputs": [
        {
          "internalType": "address",
          "name": "_avsDirectory",
          "type": "address"
        }
      ],
      "name": "setAVSDirectory",
      "outputs": [],
      "stateMutability": "nonpayable",
      "type": "function"
    },
    {
      "inputs": [
        {
          "internalType": "address",
          "name": "_aggregator",
          "type": "address"
        }
      ],
      "name": "setAggregator",
      "outputs": [],
      "stateMutability": "nonpayable",
      "type": "function"
    },
    {
      "inputs": [
        {
          "internalType": "address",
          "name": "_delegationManager",
          "type": "address"
        }
      ],
      "name": "setDelegationManager",
      "outputs": [],
      "stateMutability": "nonpayable",
      "type": "function"
    },
    {
      "inputs": [
        {
          "internalType": "string",
          "name": "_metadataURI",
          "type": "string"
        }
      ],
      "name": "setMetadataURI",
      "outputs": [],
      "stateMutability": "nonpayable",
      "type": "function"
    },
    {
      "inputs": [
        {
          "internalType": "string",
          "name": "_policyID",
          "type": "string"
        }
      ],
      "name": "setPolicy",
      "outputs": [],
      "stateMutability": "nonpayable",
      "type": "function"
    },
    {
      "inputs": [
        {
          "internalType": "address",
          "name": "_stakeRegistry",
          "type": "address"
        }
      ],
      "name": "setStakeRegistry",
      "outputs": [],
      "stateMutability": "nonpayable",
      "type": "function"
    },
    {
      "inputs": [
        {
          "internalType": "uint256",
          "name": "_thresholdStake",
          "type": "uint256"
        }
      ],
      "name": "setThresholdStake",
      "outputs": [],
      "stateMutability": "nonpayable",
      "type": "function"
    },
    {
      "inputs": [
        {
          "internalType": "address",
          "name": "",
          "type": "address"
        }
      ],
      "name": "signingKeyToOperator",
      "outputs": [
        {
          "internalType": "address",
          "name": "",
          "type": "address"
        }
      ],
      "stateMutability": "view",
      "type": "function"
    },
    {
      "inputs": [
        {
          "internalType": "uint256",
          "name": "",
          "type": "uint256"
        }
      ],
      "name": "socialGraphIDs",
      "outputs": [
        {
          "internalType": "string",
          "name": "",
          "type": "string"
        }
      ],
      "stateMutability": "view",
      "type": "function"
    },
    {
      "inputs": [
        {
          "internalType": "string",
          "name": "",
          "type": "string"
        }
      ],
      "name": "spentTaskIds",
      "outputs": [
        {
          "internalType": "bool",
          "name": "",
          "type": "bool"
        }
      ],
      "stateMutability": "view",
      "type": "function"
    },
    {
      "inputs": [],
      "name": "stakeRegistry",
      "outputs": [
        {
          "internalType": "address",
          "name": "",
          "type": "address"
        }
      ],
      "stateMutability": "view",
      "type": "function"
    },
    {
      "inputs": [
        {
          "internalType": "uint256",
          "name": "",
          "type": "uint256"
        }
      ],
      "name": "strategies",
      "outputs": [
        {
          "internalType": "address",
          "name": "",
          "type": "address"
        }
      ],
      "stateMutability": "view",
      "type": "function"
    },
    {
      "inputs": [],
      "name": "thresholdStake",
      "outputs": [
        {
          "internalType": "uint256",
          "name": "",
          "type": "uint256"
        }
      ],
      "stateMutability": "view",
      "type": "function"
    },
    {
      "inputs": [
        {
          "internalType": "address",
          "name": "newOwner",
          "type": "address"
        }
      ],
      "name": "transferOwnership",
      "outputs": [],
      "stateMutability": "nonpayable",
      "type": "function"
    },
    {
      "inputs": [
        {
          "internalType": "address[][]",
          "name": "operatorsPerQuorum",
          "type": "address[][]"
        },
        {
          "internalType": "bytes",
          "name": "quorumNumbers",
          "type": "bytes"
        }
      ],
      "name": "updateOperatorsForQuorum",
      "outputs": [],
      "stateMutability": "nonpayable",
      "type": "function"
    },
    {
      "inputs": [
        {
          "components": [
            {
              "internalType": "string",
              "name": "taskId",
              "type": "string"
            },
            {
              "internalType": "address",
              "name": "msgSender",
              "type": "address"
            },
            {
              "internalType": "address",
              "name": "target",
              "type": "address"
            },
            {
              "internalType": "uint256",
              "name": "value",
              "type": "uint256"
            },
            {
              "internalType": "bytes",
              "name": "encodedSigAndArgs",
              "type": "bytes"
            },
            {
              "internalType": "string",
              "name": "policyID",
              "type": "string"
            },
            {
              "internalType": "uint32",
              "name": "quorumThresholdCount",
              "type": "uint32"
            },
            {
              "internalType": "uint256",
              "name": "expireByBlockNumber",
              "type": "uint256"
            }
          ],
          "internalType": "struct Task",
          "name": "_task",
          "type": "tuple"
        },
        {
          "internalType": "address[]",
          "name": "signerAddresses",
          "type": "address[]"
        },
        {
          "internalType": "bytes[]",
          "name": "signatures",
          "type": "bytes[]"
        }
      ],
      "name": "validateSignatures",
      "outputs": [
        {
          "internalType": "bool",
          "name": "isVerified",
          "type": "bool"
        }
      ],
      "stateMutability": "nonpayable",
      "type": "function"
    }
  ],
  "bytecode": "0x60806040523480156200001157600080fd5b506200001c62000022565b62000112565b600054610100900460ff1615620000565760405162461bcd60e51b81526004016200004d90620000b0565b60405180910390fd5b60005460ff9081161015620000ae576000805460ff191660ff9081179091556040517f7f26b83ff96e1f2b6a682f133852f6798a09c465da95921460cefb384740249891620000a59162000102565b60405180910390a15b565b60208082528101620000fc81602781527f496e697469616c697a61626c653a20636f6e747261637420697320696e697469602082015266616c697a696e6760c81b604082015260600190565b92915050565b60ff8216815260208101620000fc565b613c2f80620001226000396000f3fe608060405234801561001057600080fd5b506004361061027d5760003560e01c80638376f7f811610156578063d20e78c9116100d3578063df93506511610097578063ea4d3c9b11610071578063ea4d3c9b1461060a578063f2fde38b1461061d578063f9120af61461063057600080fd5b8063df935065146105dc578063e3b05f2f146105ef578063e481af9d1461060257600080fd5b8063d20e78c914610570578063d574ea3d14610583578063d9d4e99f14610596578063ddb49ce1146105b6578063ddf6a51b146105c957600080fd5b806395b6ef0c1161011a57806395b6ef0c1461051c5780639926ee7d1461052f578063a364f4da14610542578063c0443c5f14610555578063d18a13251461056857600080fd5b80638376f7f8146104bf578063862621ef146104d25780638ad96602146104e55780638da5cb5b146104f8578063949528fc1461050957600080fd5b806333cfb7b7116101ff5780636b3aa72e116101c3578063749dccc71161019d578063749dccc71461046b578063750521f514610499578063786bf3c3146104ac57600080fd5b80636b3aa72e1461043d5780636b4c991b14610450578063715018a61461046357600080fd5b806333cfb7b7146103d157806334099ba1146103f15780635140a5481461040457806366f17e7314610417578063683048351461042a57600080fd5b8063175188e811610246578063175188e81461036f57806318cea58d146103825780631a8d0de21461039557806320af7390146103a8578063245a7bfc146103be57600080fd5b80621ba1eb146102825780630b3ce015146102975780630ff26fd1146102b557806313e7c9d8146102eb578063140a16bc14610323575b600080fd5b610295610290366004612417565b610643565b005b61029f61070b565b6040516102ac919061252a565b60405180910390f35b6102de6102c336600461253b565b6066602052600090815260409020546001600160a01b031681565b6040516102ac9190612573565b6103156102f936600461253b565b6065602052600090815260409020805460019091015460ff1682565b6040516102ac9291906125d0565b6103626103313660046126e1565b6067602090815260009283526040909220815180830184018051928152908401929093019190912091525460ff1681565b6040516102ac9190612737565b61029561037d36600461253b565b6107e4565b610362610390366004612896565b610921565b6102956103a336600461253b565b610ccf565b6103b160725481565b6040516102ac9190612936565b606e546102de906001600160a01b031681565b6103e46103df36600461253b565b610d21565b6040516102ac91906129a1565b6102956103ff3660046129b2565b610eab565b610295610412366004612a83565b610f29565b610295610425366004612b21565b6111a2565b6070546102de906001600160a01b031681565b6071546102de906001600160a01b031681565b61029561045e3660046129b2565b6112d0565b610295611353565b6103626104793660046129b2565b805160208183018101805160698252928201919093012091525460ff1681565b6102956104a73660046129b2565b611367565b6102956104ba366004612b67565b6113d4565b6102956104cd366004612b67565b611453565b6102956104e036600461253b565b6114cd565b6102956104f3366004612baf565b61151f565b6033546001600160a01b03166102de565b6103b1610517366004612bd0565b61155a565b61029561052a366004612c0b565b6115f1565b61029561053d366004612d0d565b611716565b61029561055036600461253b565b611959565b610295610563366004612d5b565b611aaa565b61029f611be8565b61029561057e366004612dc5565b611cb8565b6102de610591366004612baf565b611dd0565b6105a96105a43660046129b2565b611dfa565b6040516102ac9190612e01565b6105a96105c4366004612baf565b611e9f565b6105a96105d73660046129b2565b611eca565b6105a96105ea366004612baf565b611eee565b6102956105fd36600461253b565b611efe565b6103e4611f50565b606f546102de906001600160a01b031681565b61029561062b36600461253b565b611fb2565b61029561063e36600461253b565b611fec565b60013360009081526065602052604090206001015460ff16600281111561066c5761066c612587565b146106925760405162461bcd60e51b815260040161068990612e7c565b60405180910390fd5b6001600160a01b038281166000908152606660205260409020541633146106cb5760405162461bcd60e51b815260040161068990612f0c565b6001600160a01b0391821660009081526066602052604080822080546001600160a01b031990811690915592909316815291909120805490911633179055565b6060606b805480602002602001604051908101604052809291908181526020016000905b828210156107db57838290600052602060002001805461074e90612f32565b80601f016020809104026020016040519081016040528092919081815260200182805461077a90612f32565b80156107c75780601f1061079c576101008083540402835291602001916107c7565b820191906000526020600020905b8154815290600101906020018083116107aa57829003601f168201915b50505050508152602001906001019061072f565b50505050905090565b6107ec61203e565b60005b606d54811461091d57816001600160a01b0316606d828154811061081557610815612f59565b6000918252602090912001546001600160a01b0316141561091557606d805461084090600190612f85565b8154811061085057610850612f59565b600091825260209091200154606d80546001600160a01b03909216918390811061087c5761087c612f59565b9060005260206000200160006101000a8154816001600160a01b0302191690836001600160a01b03160217905550606d8054806108bb576108bb612f9c565b600082815260208120820160001990810180546001600160a01b03191690559091019091556040516001600160a01b038416917f09a1db4b80c32706328728508c941a6b954f31eb5affd32f236c1fd405f8fea491a25050565b6001016107ef565b5050565b600061093360e0850160c08601612fc9565b63ffffffff166109555760405162461bcd60e51b815260040161068990613054565b81518351146109765760405162461bcd60e51b8152600401610689906130ab565b8360e0013543111561099a5760405162461bcd60e51b815260040161068990613115565b60696109a68580613125565b6040516109b4929190613197565b9081526040519081900360200190205460ff16156109e45760405162461bcd60e51b8152600401610689906131fe565b600060736109f560a0870187613125565b604051610a03929190613197565b908152602001604051809103902054905080600014158015610a39575080610a3160e0870160c08801612fc9565b63ffffffff16145b610a555760405162461bcd60e51b81526004016106899061320e565b6000610a608661155a565b905060005b610a7560e0880160c08901612fc9565b63ffffffff16811015610be257600081118015610ae0575085610a99600183612f85565b81518110610aa957610aa9612f59565b60200260200101516001600160a01b0316868281518110610acc57610acc612f59565b60200260200101516001600160a01b031611155b15610afd5760405162461bcd60e51b8152600401610689906132ea565b6000610b2283878481518110610b1557610b15612f59565b6020026020010151612068565b9050868281518110610b3657610b36612f59565b60200260200101516001600160a01b0316816001600160a01b031614610b6e5760405162461bcd60e51b815260040161068990613331565b6001600160a01b038082166000908152606660205260409020541660016001600160a01b03821660009081526065602052604090206001015460ff166002811115610bbb57610bbb612587565b14610bd85760405162461bcd60e51b815260040161068990613381565b5050600101610a65565b5060608601803590610bf7906040890161253b565b6001600160a01b0316610c106040890160208a0161253b565b6001600160a01b03167f9f851f9b4b4a1023918bda08f974ba8a757d5e8c1d8d4131e9963fdd64bd1a4d610c4760a08b018b613125565b610c518c80613125565b8d60c0016020810190610c649190612fc9565b8e60e001358e604051610c7d97969594939291906133c0565b60405180910390a460016069610c938880613125565b604051610ca1929190613197565b908152604051908190036020019020805491151560ff199092169190911790555060019150505b9392505050565b610cd761203e565b606f80546001600160a01b0319166001600160a01b0383169081179091556040517fa1b8fcd417a2bb56a91d1fc6708faf8283b5730e55821393e70303e544aeec9290600090a250565b606d5460609060009067ffffffffffffffff811115610d4257610d426125eb565b604051908082528060200260200182016040528015610d6b578160200160208202803683370190505b5090506000805b606d54811015610ea257606f54606d80546000926001600160a01b03169163778e55f39189919086908110610da957610da9612f59565b6000918252602090912001546040516001600160e01b031960e085901b168152610de092916001600160a01b031690600401613441565b602060405180830381865afa158015610dfd573d6000803e3d6000fd5b505050506040513d601f19601f82011682018060405250810190610e219190613467565b1115610e9057606d8181548110610e3a57610e3a612f59565b9060005260206000200160009054906101000a90046001600160a01b0316838381518110610e6a57610e6a612f59565b6001600160a01b039092166020928302919091019091015281610e8c81613488565b9250505b80610e9a81613488565b915050610d72565b50909392505050565b336000908152606760205260408082209051610ec89084906134c5565b908152604051908190036020018120805492151560ff1990931692909217909155610ef49082906134c5565b6040519081900381209033907f64296597d208d70296fadc8eb749ff22ab651c8e6e455f35ee8ed66b74d1f77590600090a350565b828114610f495760405163371821d760e21b815260040160405180910390fd5b606060008060005b80851461114057878782818110610f6a57610f6a612f59565b9050602002810190610f7c91906134d1565b8080602002602001604051908101604052809392919081815260200183836020028082843760009201829052509397505050505b845181101561113757848181518110610fcb57610fcb612f59565b6020908102919091018101516001600160a01b03811660009081526065909252604082209095509350600184015460ff16600281111561100d5761100d612587565b141561102c5760405163ba6435f160e01b815260040160405180910390fd5b6000805b606d5481146110f057606f54606d80546001600160a01b039092169163778e55f39189918590811061106457611064612f59565b6000918252602090912001546040516001600160e01b031960e085901b16815261109b92916001600160a01b031690600401613441565b602060405180830381865afa1580156110b8573d6000803e3d6000fd5b505050506040513d601f19601f820116820180604052508101906110dc9190613467565b6110e69083613526565b9150600101611030565b508084556072548110611104576001611107565b60025b60018086018054909160ff199091169083600281111561112957611129612587565b021790555050600101610fb0565b50600101610f51565b508484604051611151929190613197565b60405180910390208787604051611169929190613618565b604051908190038120907ff3fcd2dadc5f6ebf9c1e9310a9e986a14079afc7ecf26784853ea9a3ac90721b90600090a350505050505050565b6111aa61203e565b6070546040516356e4026d60e11b81526000916001600160a01b03169063adc804da906111dd908690869060040161362e565b6040805180830381865afa1580156111f9573d6000803e3d6000fd5b505050506040513d601f19601f8201168201806040525081019061121d91906136c6565b9050836001600160a01b031681600001516001600160a01b0316146112555760405163a4e34a6960e01b815260040160405180910390fd5b606d805460018101825560009182527f5006b838207c6a9ae9b84d68f467dd4bb5c305fbfb6b04eab8faaabeec1e18d80180546001600160a01b0319166001600160a01b03871690811790915560405190917f3f008fd510eae7a9e7bee13513d7b83bef8003d488b5a3d0b0da4de71d6846f191a250505050565b33600090815260676020526040908190209051600191906112f29084906134c5565b908152604051908190036020018120805492151560ff199093169290921790915561131e9082906134c5565b6040519081900381209033907ffbc30d1514eac402cb2045f1dd80ec75fbc997db6f719421b6d7490f4bfb779d90600090a350565b61135b61203e565b611365600061208e565b565b61136f61203e565b60715460405163a98fb35560e01b81526001600160a01b039091169063a98fb3559061139f908490600401612e01565b600060405180830381600087803b1580156113b957600080fd5b505af11580156113cd573d6000803e3d6000fd5b5050505050565b6113dc61203e565b60005b8181101561144e576000607460008585858181106113ff576113ff612f59565b9050602002016020810190611414919061253b565b6001600160a01b031681526020810191909152604001600020805460ff19169115159190911790558061144681613488565b9150506113df565b505050565b61145b61203e565b60005b8181101561144e5760016074600085858581811061147e5761147e612f59565b9050602002016020810190611493919061253b565b6001600160a01b031681526020810191909152604001600020805460ff1916911515919091179055806114c581613488565b91505061145e565b6114d561203e565b607180546001600160a01b0319166001600160a01b0383169081179091556040517f2a623245c0f1c5741f2a4c247a58842872f1fdf8a31e66d031dd1cd1532e89a790600090a250565b61152761203e565b607281905560405181907f76f50103a7b1e136f23c29045235143c62e36705e8253019cb1253d9062bc6d490600090a250565b60006115668280613125565b611576604085016020860161253b565b611586606086016040870161253b565b60608601356115986080880188613125565b6115a560a08a018a613125565b6115b560e08c0160c08d01612fc9565b8b60e001356040516020016115d49b9a999897969594939291906136e7565b604051602081830303815290604052805190602001209050919050565b600054610100900460ff16158080156116115750600054600160ff909116105b8061162b5750303b15801561162b575060005460ff166001145b6116475760405162461bcd60e51b8152600401610689906137c2565b6000805460ff19166001179055801561166a576000805461ff0019166101001790555b6116738761208e565b606e80546001600160a01b038089166001600160a01b031992831617909255606f80548884169083161790556070805487841690831617905560718054928616929091169190911790556072829055801561170d576000805461ff00191690556040517f7f26b83ff96e1f2b6a682f133852f6798a09c465da95921460cefb384740249890611704906001906137e6565b60405180910390a15b50505050505050565b3360009081526074602052604090205460ff16611746576040516332c5b57b60e11b815260040160405180910390fd5b6001600160a01b03828116600090815260666020526040902054161561177e5760405162461bcd60e51b815260040161068990613858565b6000805b606d54811461184257606f54606d80546001600160a01b039092169163778e55f3913391859081106117b6576117b6612f59565b6000918252602090912001546040516001600160e01b031960e085901b1681526117ed92916001600160a01b031690600401613441565b602060405180830381865afa15801561180a573d6000803e3d6000fd5b505050506040513d601f19601f8201168201806040525081019061182e9190613467565b6118389083613526565b9150600101611782565b50607254811061144e5760408051808201825282815260016020808301828152336000908152606590925293902082518155925183820180549394939192909160ff19169083600281111561189957611899612587565b021790555050506001600160a01b038084166000908152606660205260409081902080546001600160a01b031916339081179091556071549151639926ee7d60e01b81529190921691639926ee7d916118f7919086906004016138a8565b600060405180830381600087803b15801561191157600080fd5b505af1158015611925573d6000803e3d6000fd5b50506040513392507f4d0eb1f4bac8744fd2be119845e23b3befc88094b42bcda1204c65694a00f9e59150600090a2505050565b61196161203e565b6001600160a01b03811660009081526065602052604081206001015460ff16600281111561199157611991612587565b14156119af5760405162461bcd60e51b81526004016106899061392f565b604080518082019091526000815260208101600290526001600160a01b0382166000908152606560209081526040909120825181559082015160018083018054909160ff1990911690836002811115611a0a57611a0a612587565b0217905550506071546040516351b27a6d60e11b81526001600160a01b03909116915063a364f4da90611a41908490600401612573565b600060405180830381600087803b158015611a5b57600080fd5b505af1158015611a6f573d6000803e3d6000fd5b50506040516001600160a01b03841692507f80c0b871b97b595b16a7741c1b06fed0c6f6f558639f18ccbce50724325dc40d9150600090a250565b611ab261203e565b606883604051611ac291906134c5565b90815260200160405180910390208054611adb90612f32565b159050611afa5760405162461bcd60e51b815260040161068990613986565b81606884604051611b0b91906134c5565b90815260200160405180910390209080519060200190611b2c92919061234e565b5080607384604051611b3e91906134c5565b9081526040516020918190038201902091909155606b80546001810182556000919091528451611b95927fbd43cb8ece8cd1863bcd6082d65c5b0d25665b1ce17980f0da43c0ed545f98b49092019186019061234e565b5082604051611ba491906134c5565b60405180910390207fb6487025b06543ad686bdaa829e2b07863fd163cacd2e0f031340308ec09584e83604051611bdb9190612e01565b60405180910390a2505050565b6060606c805480602002602001604051908101604052809291908181526020016000905b828210156107db578382906000526020600020018054611c2b90612f32565b80601f0160208091040260200160405190810160405280929190818152602001828054611c5790612f32565b8015611ca45780601f10611c7957610100808354040283529160200191611ca4565b820191906000526020600020905b815481529060010190602001808311611c8757829003601f168201915b505050505081526020019060010190611c0c565b611cc061203e565b606a82604051611cd091906134c5565b90815260200160405180910390208054611ce990612f32565b159050611d085760405162461bcd60e51b8152600401610689906139f0565b80606a83604051611d1991906134c5565b90815260200160405180910390209080519060200190611d3a92919061234e565b50606c80546001810182556000919091528251611d7e917f2b4a51ab505fc96a0952efda2ba61bcd3078d4c02c39a186ec16f21883fbe0160190602085019061234e565b5081604051611d8d91906134c5565b60405180910390207f0547683ac2bbf227b34fe50fb3ef0f2b8a67dfad502dc794e7a69b0a8dd3e68082604051611dc49190612e01565b60405180910390a25050565b606d8181548110611de057600080fd5b6000918252602090912001546001600160a01b0316905081565b805160208183018101805160688252928201919093012091528054611e1e90612f32565b80601f0160208091040260200160405190810160405280929190818152602001828054611e4a90612f32565b8015611e975780601f10611e6c57610100808354040283529160200191611e97565b820191906000526020600020905b815481529060010190602001808311611e7a57829003601f168201915b505050505081565b606b8181548110611eaf57600080fd5b906000526020600020016000915090508054611e1e90612f32565b8051602081830181018051606a8252928201919093012091528054611e1e90612f32565b606c8181548110611eaf57600080fd5b611f0661203e565b607080546001600160a01b0319166001600160a01b0383169081179091556040517fcb08c26360210256eb3fd98640509ba95a8a716bc3aa4aadc738e333102de73790600090a250565b6060606d805480602002602001604051908101604052809291908181526020018280548015611fa857602002820191906000526020600020905b81546001600160a01b03168152600190910190602001808311611f8a575b5050505050905090565b611fba61203e565b6001600160a01b038116611fe05760405162461bcd60e51b815260040161068990613a43565b611fe98161208e565b50565b611ff461203e565b606e80546001600160a01b0319166001600160a01b0383169081179091556040517f602cec4b1583b07d071161da5eb9589444d2459201e2fab7753dc941e9351c2190600090a250565b6033546001600160a01b031633146113655760405162461bcd60e51b815260040161068990613a85565b600080600061207785856120e0565b9150915061208481612150565b5090505b92915050565b603380546001600160a01b038381166001600160a01b0319831681179093556040519116919082907f8be0079c531659141344cd1fd0a4f28419497f9722a3daafe3b4186f6b6457e090600090a35050565b6000808251604114156121175760208301516040840151606085015160001a61210b87828585612235565b94509450505050612149565b8251604014156121415760208301516040840151612136868383612315565b935093505050612149565b506000905060025b9250929050565b600081600481111561216457612164612587565b141561216d5750565b600181600481111561218157612181612587565b141561219f5760405162461bcd60e51b815260040161068990613ac9565b60028160048111156121b3576121b3612587565b14156121d15760405162461bcd60e51b815260040161068990613b0d565b60038160048111156121e5576121e5612587565b14156122035760405162461bcd60e51b815260040161068990613b5c565b600481600481111561221757612217612587565b1415611fe95760405162461bcd60e51b815260040161068990613bab565b6000807f7fffffffffffffffffffffffffffffff5d576e7357a4501ddfe92f46681b20a083111561226c575060009050600361230c565b8460ff16601b1415801561228457508460ff16601c14155b15612295575060009050600461230c565b6000600187878787604051600081526020016040526040516122ba9493929190613bbb565b6020604051602081039080840390855afa1580156122dc573d6000803e3d6000fd5b5050604051601f1901519150506001600160a01b0381166123055760006001925092505061230c565b9150600090505b94509492505050565b6000806001600160ff1b0383168161233260ff86901c601b613526565b905061234087828885612235565b935093505050935093915050565b82805461235a90612f32565b90600052602060002090601f01602090048101928261237c57600085556123c2565b82601f1061239557805160ff19168380011785556123c2565b828001600101855582156123c2579182015b828111156123c25782518255916020019190600101906123a7565b506123ce9291506123d2565b5090565b5b808211156123ce57600081556001016123d3565b60006001600160a01b038216612088565b612401816123e7565b8114611fe957600080fd5b8035612088816123f8565b6000806040838503121561242d5761242d600080fd5b6000612439858561240c565b925050602061244a8582860161240c565b9150509250929050565b60005b8381101561246f578181015183820152602001612457565b8381111561247e576000848401525b50505050565b600061248e825190565b8084526020840193506124a5818560208601612454565b601f19601f8201165b9093019392505050565b6000610cc88383612484565b60006124ce825190565b808452602084019350836020820285016124e88560200190565b8060005b8581101561251d578484038952815161250585826124b8565b94506020830160209a909a01999250506001016124ec565b5091979650505050505050565b60208082528101610cc881846124c4565b60006020828403121561255057612550600080fd5b600061255c848461240c565b949350505050565b61256d816123e7565b82525050565b602081016120888284612564565b8061256d565b634e487b7160e01b600052602160045260246000fd5b60038110611fe957611fe9612587565b806125b78161259d565b919050565b6000612088826125ad565b61256d816125bc565b604081016125de8285612581565b610cc860208301846125c7565b634e487b7160e01b600052604160045260246000fd5b601f19601f830116810181811067ffffffffffffffff82111715612627576126276125eb565b6040525050565b600061263960405190565b90506125b78282612601565b600067ffffffffffffffff82111561265f5761265f6125eb565b601f19601f83011660200192915050565b82818337506000910152565b600061268f61268a84612645565b61262e565b9050828152602081018484840111156126aa576126aa600080fd5b6126b5848285612670565b509392505050565b600082601f8301126126d1576126d1600080fd5b813561255c84826020860161267c565b600080604083850312156126f7576126f7600080fd5b6000612703858561240c565b925050602083013567ffffffffffffffff81111561272357612723600080fd5b61244a858286016126bd565b80151561256d565b60208101612088828461272f565b6000610100828403121561275b5761275b600080fd5b50919050565b600067ffffffffffffffff82111561277b5761277b6125eb565b5060209081020190565b600061279361268a84612761565b838152905060208082019084028301858111156127b2576127b2600080fd5b835b818110156127d657806127c7888261240c565b845250602092830192016127b4565b5050509392505050565b600082601f8301126127f4576127f4600080fd5b813561255c848260208601612785565b600061281261268a84612761565b8381529050602080820190840283018581111561283157612831600080fd5b835b818110156127d657803567ffffffffffffffff81111561285557612855600080fd5b80860161286289826126bd565b8552505060209283019201612833565b600082601f83011261288657612886600080fd5b813561255c848260208601612804565b6000806000606084860312156128ae576128ae600080fd5b833567ffffffffffffffff8111156128c8576128c8600080fd5b6128d486828701612745565b935050602084013567ffffffffffffffff8111156128f4576128f4600080fd5b612900868287016127e0565b925050604084013567ffffffffffffffff81111561292057612920600080fd5b61292c86828701612872565b9150509250925092565b602081016120888284612581565b60006129508383612564565b505060200190565b6000612962825190565b80845260209384019383018060005b838110156129965781516129858882612944565b975060208301925050600101612971565b509495945050505050565b60208082528101610cc88184612958565b6000602082840312156129c7576129c7600080fd5b813567ffffffffffffffff8111156129e1576129e1600080fd5b61255c848285016126bd565b60008083601f840112612a0257612a02600080fd5b50813567ffffffffffffffff811115612a1d57612a1d600080fd5b60208301915083602082028301111561214957612149600080fd5b60008083601f840112612a4d57612a4d600080fd5b50813567ffffffffffffffff811115612a6857612a68600080fd5b60208301915083600182028301111561214957612149600080fd5b60008060008060408587031215612a9c57612a9c600080fd5b843567ffffffffffffffff811115612ab657612ab6600080fd5b612ac2878288016129ed565b9450945050602085013567ffffffffffffffff811115612ae457612ae4600080fd5b612af087828801612a38565b95989497509550505050565b60ff8116612401565b803561208881612afc565b80612401565b803561208881612b10565b600080600060608486031215612b3957612b39600080fd5b6000612b45868661240c565b9350506020612b5686828701612b05565b925050604061292c86828701612b16565b60008060208385031215612b7d57612b7d600080fd5b823567ffffffffffffffff811115612b9757612b97600080fd5b612ba3858286016129ed565b92509250509250929050565b600060208284031215612bc457612bc4600080fd5b600061255c8484612b16565b600060208284031215612be557612be5600080fd5b813567ffffffffffffffff811115612bff57612bff600080fd5b61255c84828501612745565b60008060008060008060c08789031215612c2757612c27600080fd5b6000612c33898961240c565b9650506020612c4489828a0161240c565b9550506040612c5589828a0161240c565b9450506060612c6689828a0161240c565b9350506080612c7789828a0161240c565b92505060a0612c8889828a01612b16565b9150509295509295509295565b600060608284031215612caa57612caa600080fd5b612cb4606061262e565b9050813567ffffffffffffffff811115612cd057612cd0600080fd5b612cdc848285016126bd565b8252506020612ced84848301612b16565b6020830152506040612d0184828501612b16565b60408301525092915050565b60008060408385031215612d2357612d23600080fd5b6000612d2f858561240c565b925050602083013567ffffffffffffffff811115612d4f57612d4f600080fd5b61244a85828601612c95565b600080600060608486031215612d7357612d73600080fd5b833567ffffffffffffffff811115612d8d57612d8d600080fd5b612d99868287016126bd565b935050602084013567ffffffffffffffff811115612db957612db9600080fd5b612b56868287016126bd565b60008060408385031215612ddb57612ddb600080fd5b823567ffffffffffffffff811115612df557612df5600080fd5b612703858286016126bd565b60208082528101610cc88184612484565b604481526000602082017f536572766963654d616e616765722e726f74617465507265646963617465536981527f676e696e674b65793a206f70657261746f72206973206e6f7420726567697374602082015263195c995960e21b604082015291505b5060600190565b6020808252810161208881612e12565b605781526000602082017f536572766963654d616e616765722e726f74617465507265646963617465536981527f676e696e674b65793a206f70657261746f722063616e206f6e6c79206368616e60208201527f67652069742773206f776e207369676e696e67206b657900000000000000000060408201529150612e75565b6020808252810161208881612e8c565b634e487b7160e01b600052602260045260246000fd5b600281046001821680612f4657607f821691505b6020821081141561275b5761275b612f1c565b634e487b7160e01b600052603260045260246000fd5b634e487b7160e01b600052601160045260246000fd5b600082821015612f9757612f97612f6f565b500390565b634e487b7160e01b600052603160045260246000fd5b63ffffffff8116612401565b803561208881612fb2565b600060208284031215612fde57612fde600080fd5b600061255c8484612fbe565b604781526000602082017f536572766963654d616e616765722e507265646963617465566572696669656481527f3a2071756f72756d207468726573686f6c6420636f756e742063616e6e6f74206020820152666265207a65726f60c81b60408201529150612e75565b6020808252810161208881612fea565b602781526000602082017f4d69736d61746368206265747765656e207369676e65727320616e64207369678152666e61747572657360c81b602082015291505b5060400190565b6020808252810161208881613064565b603581526000602082017f536572766963654d616e616765722e507265646963617465566572696669656481527f3a207472616e73616374696f6e20657870697265640000000000000000000000602082015291506130a4565b60208082528101612088816130bb565b6000808335601e193685900301811261314057613140600080fd5b80840192508235915067ffffffffffffffff82111561316157613161600080fd5b60208301925060018202360383131561317c5761317c600080fd5b509250929050565b6000613191838584612670565b50500190565b600061255c828486613184565b603781526000602082017f536572766963654d616e616765722e507265646963617465566572696669656481527f3a207461736b20494420616c7265616479207370656e74000000000000000000602082015291506130a4565b60208082528101612088816131a4565b6020808252810161208881606581527f536572766963654d616e616765722e507265646963617465566572696669656460208201527f3a206465706c6f79656420706f6c6963792071756f72756d207468726573686f60408201527f6c6420646966666572732066726f6d207461736b2071756f72756d20746872656060820152641cda1bdb1960da1b608082015260a00190565b602a81526000602082017f5369676e657220616464726573736573206d75737420626520756e6971756520815269185b99081cdbdc9d195960b21b602082015291506130a4565b60208082528101612088816132a3565b601181526000602082017f496e76616c6964207369676e6174757265000000000000000000000000000000815291505b5060200190565b60208082528101612088816132fa565b602381526000602082017f5369676e6572206973206e6f7420612072656769737465726564206f706572618152623a37b960e91b602082015291506130a4565b6020808252810161208881613341565b81835260006020840193506133a7838584612670565b601f19601f8401166124ae565b63ffffffff811661256d565b60a080825281016133d281898b613391565b905081810360208301526133e7818789613391565b90506133f660408301866133b4565b6134036060830185612581565b81810360808301526134158184612958565b9998505050505050505050565b6000612088826123e7565b600061208882613422565b61256d8161342d565b6040810161344f8285612564565b610cc86020830184613438565b805161208881612b10565b60006020828403121561347c5761347c600080fd5b600061255c848461345c565b600060001982141561349c5761349c612f6f565b5060010190565b60006134ad825190565b6134bb818560208601612454565b9290920192915050565b6000610cc882846134a3565b6000808335601e19368590030181126134ec576134ec600080fd5b80840192508235915067ffffffffffffffff82111561350d5761350d600080fd5b6020928301928202360383131561317c5761317c600080fd5b6000821982111561353957613539612f6f565b500190565b6000610cc8602084018461240c565b6000818060005b8581101561299657613566828461353e565b6135708882612944565b975060208301925050600101613554565b600061255c84848461354d565b6000808335601e19368590030181126135a9576135a9600080fd5b83810160208101935035915067ffffffffffffffff8211156135cd576135cd600080fd5b60208202360384131561317c5761317c600080fd5b6000818060005b85811015612996576135fb828461358e565b613606898284613581565b985060208401935050506001016135e9565b600061255c8284866135e2565b60ff811661256d565b6040810161363c8285613625565b610cc86020830184612581565b61240181613422565b805161208881613649565b6bffffffffffffffffffffffff8116612401565b80516120888161365d565b60006040828403121561369157613691600080fd5b61369b604061262e565b905060006136a98484613652565b82525060206136ba84848301613671565b60208301525092915050565b6000604082840312156136db576136db600080fd5b600061255c848461367c565b61010080825281016136fa818d8f613391565b9050613709602083018c612564565b613716604083018b612564565b613723606083018a612581565b818103608083015261373681888a613391565b905081810360a083015261374b818688613391565b905061375a60c08301856133b4565b61376760e0830184612581565b9c9b505050505050505050505050565b602e81526000602082017f496e697469616c697a61626c653a20636f6e747261637420697320616c72656181526d191e481a5b9a5d1a585b1a5e995960921b602082015291506130a4565b6020808252810161208881613777565b600060ff8216612088565b61256d816137d2565b6020810161208882846137dd565b604181526000602082017f536572766963654d616e616765722e72656769737465724f70657261746f725481527f6f4156533a206f70657261746f7220616c7265616479207265676973746572656020820152601960fa1b60408201529150612e75565b60208082528101612088816137f4565b80516060808452600091908401906138808282612484565b91505060208301516138956020860182612581565b5060408301516126b56040860182612581565b604081016138b68285612564565b818103602083015261255c8184613868565b604481526000602082017f536572766963654d616e616765722e646572656769737465724f70657261746f81527f7246726f6d4156533a206f70657261746f72206973206e6f7420726567697374602082015263195c995960e21b60408201529150612e75565b60208082528101612088816138c8565b602a81526000602082017f536572766963654d616e616765722e6465706c6f79506f6c6963793a20706f6c8152696963792065786973747360b01b602082015291506130a4565b602080825281016120888161393f565b603581526000602082017f536572766963654d616e616765722e6465706c6f79536f6369616c477261706881527f3a20736f6369616c206772617068206578697374730000000000000000000000602082015291506130a4565b6020808252810161208881613996565b602681526000602082017f4f776e61626c653a206e6577206f776e657220697320746865207a65726f206181526564647265737360d01b602082015291506130a4565b6020808252810161208881613a00565b60208082527f4f776e61626c653a2063616c6c6572206973206e6f7420746865206f776e65729101908152600061332a565b6020808252810161208881613a53565b601881526000602082017f45434453413a20696e76616c6964207369676e617475726500000000000000008152915061332a565b6020808252810161208881613a95565b601f81526000602082017f45434453413a20696e76616c6964207369676e6174757265206c656e677468008152915061332a565b6020808252810161208881613ad9565b602281526000602082017f45434453413a20696e76616c6964207369676e6174757265202773272076616c815261756560f01b602082015291506130a4565b6020808252810161208881613b1d565b602281526000602082017f45434453413a20696e76616c6964207369676e6174757265202776272076616c815261756560f01b602082015291506130a4565b6020808252810161208881613b6c565b60808101613bc98287612581565b613bd66020830186613625565b613be36040830185612581565b613bf06060830184612581565b9594505050505056fea26469706673582212201b521a4d836c70fb3f6ee6b06dad6da487f0b4e4fcf81a799869e650f636422064736f6c634300080c0033",
  "linkReferences": {},
  "deployedLinkReferences": {}
}