{
  "_format": "hh-sol-artifact-1",
  "contractName": "MetaCoin",
  "sourceName": "src/examples/MetaCoin.sol",
  "abi": [
    {
      "inputs": [
        {
          "internalType": "address",
          "name": "owner",
          "type": "address"
        },
        {
          "internalType": "address",
          "name": "serviceManager",
          "type": "address"
        }
      ],
      "stateMutability": "nonpayable",
      "type": "constructor"
    },
    {
      "inputs": [],
      "name": "PredicateClient__Unauthorized",
      "type": "error"
    },
    {
      "anonymous": false,
      "inputs": [
        {
          "indexed": true,
          "internalType": "address",
          "name": "previousOwner",
          "type": "address"
        },
        {
          "indexed": true,
          "internalType": "address",
          "name": "newOwner",
          "type": "address"
        }
      ],
      "name": "OwnershipTransferred",
      "type": "event"
    },
    {
      "anonymous": false,
      "inputs": [
        {
          "indexed": true,
          "internalType": "address",
          "name": "_from",
          "type": "address"
        },
        {
          "indexed": true,
          "internalType": "address",
          "name": "_to",
          "type": "address"
        },
        {
          "indexed": false,
          "internalType": "uint256",
          "name": "_value",
          "type": "uint256"
        }
      ],
      "name": "Transfer",
      "type": "event"
    },
    {
      "inputs": [
        {
          "internalType": "address",
          "name": "",
          "type": "address"
        }
      ],
      "name": "balances",
      "outputs": [
        {
          "internalType": "uint256",
          "name": "",
          "type": "uint256"
        }
      ],
      "stateMutability": "view",
      "type": "function"
    },
    {
      "inputs": [
        {
          "internalType": "address",
          "name": "addr",
          "type": "address"
        }
      ],
      "name": "getBalance",
      "outputs": [
        {
          "internalType": "uint256",
          "name": "",
          "type": "uint256"
        }
      ],
      "stateMutability": "view",
      "type": "function"
    },
    {
      "inputs": [],
      "name": "owner",
      "outputs": [
        {
          "internalType": "address",
          "name": "",
          "type": "address"
        }
      ],
      "stateMutability": "view",
      "type": "function"
    },
    {
      "inputs": [],
      "name": "policyID",
      "outputs": [
        {
          "internalType": "string",
          "name": "",
          "type": "string"
        }
      ],
      "stateMutability": "view",
      "type": "function"
    },
    {
      "inputs": [],
      "name": "renounceOwnership",
      "outputs": [],
      "stateMutability": "nonpayable",
      "type": "function"
    },
    {
      "inputs": [
        {
          "internalType": "address",
          "name": "receiver",
          "type": "address"
        },
        {
          "internalType": "uint256",
          "name": "amount",
          "type": "uint256"
        },
        {
          "components": [
            {
              "internalType": "string",
              "name": "taskId",
              "type": "string"
            },
            {
              "internalType": "uint256",
              "name": "expireByBlockNumber",
              "type": "uint256"
            },
            {
              "internalType": "address[]",
              "name": "signerAddresses",
              "type": "address[]"
            },
            {
              "internalType": "bytes[]",
              "name": "signatures",
              "type": "bytes[]"
            }
          ],
          "internalType": "struct PredicateMessage",
          "name": "predicateMessage",
          "type": "tuple"
        }
      ],
      "name": "sendCoin",
      "outputs": [],
      "stateMutability": "nonpayable",
      "type": "function"
    },
    {
      "inputs": [],
      "name": "serviceManager",
      "outputs": [
        {
          "internalType": "contract IServiceManager",
          "name": "",
          "type": "address"
        }
      ],
      "stateMutability": "view",
      "type": "function"
    },
    {
      "inputs": [
        {
          "internalType": "string",
          "name": "_policyID",
          "type": "string"
        }
      ],
      "name": "setPolicy",
      "outputs": [],
      "stateMutability": "nonpayable",
      "type": "function"
    },
    {
      "inputs": [
        {
          "internalType": "address",
          "name": "_serviceManager",
          "type": "address"
        }
      ],
      "name": "setServiceManager",
      "outputs": [],
      "stateMutability": "nonpayable",
      "type": "function"
    },
    {
      "inputs": [
        {
          "internalType": "address",
          "name": "newOwner",
          "type": "address"
        }
      ],
      "name": "transferOwnership",
      "outputs": [],
      "stateMutability": "nonpayable",
      "type": "function"
    }
  ],
  "bytecode": "0x60806040523480156200001157600080fd5b50604051620012093803806200120983398101604081905262000034916200016c565b6200003f336200007e565b6001600160a01b03821660009081526003602052604090206509184e72a00090556200006b81620000ce565b62000076826200007e565b5050620001ea565b600080546001600160a01b038381166001600160a01b0319831681178455604051919092169283917f8be0079c531659141344cd1fd0a4f28419497f9722a3daafe3b4186f6b6457e09190a35050565b620000d8620000fa565b600180546001600160a01b0319166001600160a01b0392909216919091179055565b6000546001600160a01b03163314620001305760405162461bcd60e51b81526004016200012790620001af565b60405180910390fd5b565b60006001600160a01b0382165b92915050565b620001508162000132565b81146200015c57600080fd5b50565b80516200013f8162000145565b60008060408385031215620001845762000184600080fd5b60006200019285856200015f565b9250506020620001a5858286016200015f565b9150509250929050565b60208082528181019081527f4f776e61626c653a2063616c6c6572206973206e6f7420746865206f776e65726040830152606082016200013f565b61100f80620001fa6000396000f3fe608060405234801561001057600080fd5b506004361061009e5760003560e01c80639b41bf23116100665780639b41bf231461012f578063c6cf634b14610142578063ee2453c614610157578063f2fde38b1461016a578063f8b2cb4f1461017d57600080fd5b806327e235e3146100a35780633998fdd3146100d95780636b4c991b146100f9578063715018a61461010e5780638da5cb5b14610116575b600080fd5b6100c36100b136600461074e565b60036020526000908152604090205481565b6040516100d09190610777565b60405180910390f35b6001546100ec906001600160a01b031681565b6040516100d091906107a4565b61010c6101073660046108ad565b6101a6565b005b61010c610227565b6000546001600160a01b03166040516100d091906108f1565b61010c61013d36600461074e565b61023b565b61014a610265565b6040516100d0919061095d565b61010c6101653660046109a1565b6102f3565b61010c61017836600461074e565b610390565b6100c361018b36600461074e565b6001600160a01b031660009081526003602052604090205490565b6101ae6103ca565b80516101c1906002906020840190610685565b50600154604051636b4c991b60e01b81526001600160a01b0390911690636b4c991b906101f290849060040161095d565b600060405180830381600087803b15801561020c57600080fd5b505af1158015610220573d6000803e3d6000fd5b5050505050565b61022f6103ca565b61023960006103f4565b565b6102436103ca565b600180546001600160a01b0319166001600160a01b0392909216919091179055565b6002805461027290610a22565b80601f016020809104026020016040519081016040528092919081815260200182805461029e90610a22565b80156102eb5780601f106102c0576101008083540402835291602001916102eb565b820191906000526020600020905b8154815290600101906020018083116102ce57829003601f168201915b505050505081565b60008383604051602401610308929190610a49565b60408051601f198184030181529190526020810180517bffffffffffffffffffffffffffffffffffffffffffffffffffffffff166353e45cb560e11b179052905061035b61035583610c5b565b82610444565b6103805760405162461bcd60e51b815260040161037790610ca9565b60405180910390fd5b61038a84846105bc565b50505050565b6103986103ca565b6001600160a01b0381166103be5760405162461bcd60e51b815260040161037790610cfc565b6103c7816103f4565b50565b6000546001600160a01b031633146102395760405162461bcd60e51b815260040161037790610d41565b600080546001600160a01b038381166001600160a01b0319831681178455604051919092169283917f8be0079c531659141344cd1fd0a4f28419497f9722a3daafe3b4186f6b6457e09190a35050565b60008060405180610100016040528085600001518152602001336001600160a01b03168152602001306001600160a01b031681526020013481526020018481526020016002805461049490610a22565b80601f01602080910402602001604051908101604052809291908181526020018280546104c090610a22565b801561050d5780601f106104e25761010080835404028352916020019161050d565b820191906000526020600020905b8154815290600101906020018083116104f057829003601f168201915b5050509183525050604080870180515163ffffffff16602080850191909152880151928201929092526001549151606088015191516318cea58d60e01b81529394506001600160a01b03909216926318cea58d9261056f928692600401610eda565b6020604051808303816000875af115801561058e573d6000803e3d6000fd5b505050506040513d601f19601f820116820180604052508101906105b29190610f2f565b9150505b92915050565b336000908152600360205260409020548111156105eb5760405162461bcd60e51b815260040161037790610f84565b336000908152600360205260408120805483929061060a908490610faa565b90915550506001600160a01b03821660009081526003602052604081208054839290610637908490610fc1565b90915550506040516001600160a01b0383169033907fddf252ad1be2c89b69c2b068fc378daa952ba7f163c4a11628f55a4df523b3ef90610679908590610777565b60405180910390a35050565b82805461069190610a22565b90600052602060002090601f0160209004810192826106b357600085556106f9565b82601f106106cc57805160ff19168380011785556106f9565b828001600101855582156106f9579182015b828111156106f95782518255916020019190600101906106de565b50610705929150610709565b5090565b5b80821115610705576000815560010161070a565b60006001600160a01b0382166105b6565b6107388161071e565b81146103c757600080fd5b80356105b68161072f565b60006020828403121561076357610763600080fd5b60006105b28484610743565b805b82525050565b602081016105b6828461076f565b60006105b68261071e565b60006105b682610785565b61077181610790565b602081016105b6828461079b565b634e487b7160e01b600052604160045260246000fd5b601f19601f830116810181811067ffffffffffffffff821117156107ee576107ee6107b2565b6040525050565b600061080060405190565b905061080c82826107c8565b919050565b600067ffffffffffffffff82111561082b5761082b6107b2565b601f19601f83011660200192915050565b82818337506000910152565b600061085b61085684610811565b6107f5565b90508281526020810184848401111561087657610876600080fd5b61088184828561083c565b509392505050565b600082601f83011261089d5761089d600080fd5b81356105b2848260208601610848565b6000602082840312156108c2576108c2600080fd5b813567ffffffffffffffff8111156108dc576108dc600080fd5b6105b284828501610889565b6107718161071e565b602081016105b682846108e8565b60005b8381101561091a578181015183820152602001610902565b8381111561038a5750506000910152565b6000610935825190565b80845260208401935061094c8185602086016108ff565b601f01601f19169290920192915050565b6020808252810161096e818461092b565b9392505050565b80610738565b80356105b681610975565b60006080828403121561099b5761099b600080fd5b50919050565b6000806000606084860312156109b9576109b9600080fd5b60006109c58686610743565b93505060206109d68682870161097b565b925050604084013567ffffffffffffffff8111156109f6576109f6600080fd5b610a0286828701610986565b9150509250925092565b634e487b7160e01b600052602260045260246000fd5b600281046001821680610a3657607f821691505b6020821081141561099b5761099b610a0c565b60408101610a5782856108e8565b61096e602083018461076f565b600067ffffffffffffffff821115610a7e57610a7e6107b2565b5060209081020190565b6000610a9661085684610a64565b83815290506020808201908402830185811115610ab557610ab5600080fd5b835b81811015610ad95780610aca8882610743565b84525060209283019201610ab7565b5050509392505050565b600082601f830112610af757610af7600080fd5b81356105b2848260208601610a88565b6000610b1561085684610a64565b83815290506020808201908402830185811115610b3457610b34600080fd5b835b81811015610ad957803567ffffffffffffffff811115610b5857610b58600080fd5b808601610b658982610889565b8552505060209283019201610b36565b600082601f830112610b8957610b89600080fd5b81356105b2848260208601610b07565b600060808284031215610bae57610bae600080fd5b610bb860806107f5565b9050813567ffffffffffffffff811115610bd457610bd4600080fd5b610be084828501610889565b8252506020610bf18484830161097b565b602083015250604082013567ffffffffffffffff811115610c1457610c14600080fd5b610c2084828501610ae3565b604083015250606082013567ffffffffffffffff811115610c4357610c43600080fd5b610c4f84828501610b75565b60608301525092915050565b60006105b63683610b99565b602281526000602082017f4d657461436f696e3a20756e617574686f72697a6564207472616e736163746981526137b760f11b602082015291505b5060400190565b602080825281016105b681610c67565b602681526000602082017f4f776e61626c653a206e6577206f776e657220697320746865207a65726f206181526564647265737360d01b60208201529150610ca2565b602080825281016105b681610cb9565b60208082527f4f776e61626c653a2063616c6c6572206973206e6f7420746865206f776e6572910190815260005b5060200190565b602080825281016105b681610d0c565b63ffffffff8116610771565b805161010080845260009190840190610d76828261092b565b9150506020830151610d8b60208601826108e8565b506040830151610d9e60408601826108e8565b506060830151610db1606086018261076f565b5060808301518482036080860152610dc9828261092b565b91505060a083015184820360a0860152610de3828261092b565b91505060c0830151610df860c0860182610d51565b5060e083015161088160e086018261076f565b6000610e1783836108e8565b505060200190565b6000610e29825190565b80845260209384019383018060005b83811015610e5d578151610e4c8882610e0b565b975060208301925050600101610e38565b509495945050505050565b600061096e838361092b565b6000610e7e825190565b80845260208401935083602082028501610e988560200190565b8060005b85811015610ecd5784840389528151610eb58582610e68565b94506020830160209a909a0199925050600101610e9c565b5091979650505050505050565b60608082528101610eeb8186610d5d565b90508181036020830152610eff8185610e1f565b90508181036040830152610f138184610e74565b95945050505050565b801515610738565b80516105b681610f1c565b600060208284031215610f4457610f44600080fd5b60006105b28484610f24565b601e81526000602082017f4d657461436f696e3a20696e73756666696369656e742062616c616e6365000081529150610d3a565b602080825281016105b681610f50565b634e487b7160e01b600052601160045260246000fd5b600082821015610fbc57610fbc610f94565b500390565b60008219821115610fd457610fd4610f94565b50019056fea26469706673582212202ed95167a4545391fd365a7e07e0a02b25b0d4cb89acfe84106b9882a23ca34b64736f6c634300080c0033",
  "linkReferences": {},
  "deployedLinkReferences": {}
}