{"abi":[{"type":"function","name":"strategyParamsByIndex","inputs":[{"name":"","type":"uint8","internalType":"uint8"},{"name":"index","type":"uint256","internalType":"uint256"}],"outputs":[{"name":"","type":"tuple","internalType":"struct MockStakeRegistry.StrategyParams","components":[{"name":"strategy","type":"address","internalType":"contract IStrategy"},{"name":"multiplier","type":"uint96","internalType":"uint96"}]}],"stateMutability":"pure"}],"bytecode":{"object":"0x608060405234801561001057600080fd5b50610158806100206000396000f3fe608060405234801561001057600080fd5b506004361061002b5760003560e01c8063adc804da14610030575b600080fd5b61004361003e3660046100f0565b610079565b6040805182516001600160a01b031681526020928301516bffffffffffffffffffffffff16928101929092520160405180910390f35b6040805180820190915260008082526020820152816100c057506040805180820190915273584273a7d8f5b01898b0c609c0e2b6f5984f06058152600160208201526100ea565b5060408051808201909152732c2e3c305116ec1963b00860224e9392637c43288152600160208201525b92915050565b6000806040838503121561010357600080fd5b823560ff8116811461011457600080fd5b94602093909301359350505056fea26469706673582212202270dd5bc452e03f310d46baf84a148759affc1f2d3464eb4a03dc8c45e623da64736f6c634300080c0033","linkReferences":{}},"methodIdentifiers":{"strategyParamsByIndex(uint8,uint256)":"adc804da"},"id":93}